{
  "contractName": "Land",
  "abi": [
    {
      "inputs": [],
      "payable": false,
      "stateMutability": "nonpayable",
      "type": "constructor"
    },
    {
      "anonymous": false,
      "inputs": [
        {
          "indexed": true,
          "internalType": "uint256",
          "name": "_landId",
          "type": "uint256"
        }
      ],
      "name": "AddingLand",
      "type": "event"
    },
    {
      "anonymous": false,
      "inputs": [
        {
          "indexed": false,
          "internalType": "address",
          "name": "_sellerId",
          "type": "address"
        }
      ],
      "name": "Landrequested",
      "type": "event"
    },
    {
      "anonymous": false,
      "inputs": [
        {
          "indexed": false,
          "internalType": "address",
          "name": "_registrationId",
          "type": "address"
        }
      ],
      "name": "Registration",
      "type": "event"
    },
    {
      "anonymous": false,
      "inputs": [
        {
          "indexed": false,
          "internalType": "address",
          "name": "_id",
          "type": "address"
        }
      ],
      "name": "Verified",
      "type": "event"
    },
    {
      "anonymous": false,
      "inputs": [
        {
          "indexed": false,
          "internalType": "address",
          "name": "_buyerId",
          "type": "address"
        }
      ],
      "name": "requestApproved",
      "type": "event"
    },
    {
      "constant": true,
      "inputs": [
        {
          "internalType": "address",
          "name": "",
          "type": "address"
        }
      ],
      "name": "BuyerMapping",
      "outputs": [
        {
          "internalType": "address",
          "name": "id",
          "type": "address"
        },
        {
          "internalType": "string",
          "name": "name",
          "type": "string"
        },
        {
          "internalType": "uint256",
          "name": "age",
          "type": "uint256"
        },
        {
          "internalType": "string",
          "name": "city",
          "type": "string"
        },
        {
          "internalType": "string",
          "name": "state",
          "type": "string"
        },
        {
          "internalType": "string",
          "name": "aadharNumber",
          "type": "string"
        },
        {
          "internalType": "string",
          "name": "panNumber",
          "type": "string"
        }
      ],
      "payable": false,
      "stateMutability": "view",
      "type": "function"
    },
    {
      "constant": true,
      "inputs": [
        {
          "internalType": "address",
          "name": "",
          "type": "address"
        }
      ],
      "name": "BuyerVerification",
      "outputs": [
        {
          "internalType": "bool",
          "name": "",
          "type": "bool"
        }
      ],
      "payable": false,
      "stateMutability": "view",
      "type": "function"
    },
    {
      "constant": true,
      "inputs": [
        {
          "internalType": "uint256",
          "name": "",
          "type": "uint256"
        }
      ],
      "name": "InspectorMapping",
      "outputs": [
        {
          "internalType": "uint256",
          "name": "id",
          "type": "uint256"
        },
        {
          "internalType": "string",
          "name": "name",
          "type": "string"
        },
        {
          "internalType": "uint256",
          "name": "age",
          "type": "uint256"
        },
        {
          "internalType": "string",
          "name": "designation",
          "type": "string"
        }
      ],
      "payable": false,
      "stateMutability": "view",
      "type": "function"
    },
    {
      "constant": true,
      "inputs": [
        {
          "internalType": "uint256",
          "name": "",
          "type": "uint256"
        }
      ],
      "name": "LandOwner",
      "outputs": [
        {
          "internalType": "address",
          "name": "",
          "type": "address"
        }
      ],
      "payable": false,
      "stateMutability": "view",
      "type": "function"
    },
    {
      "constant": true,
      "inputs": [
        {
          "internalType": "address",
          "name": "",
          "type": "address"
        }
      ],
      "name": "RegisteredAddressMapping",
      "outputs": [
        {
          "internalType": "bool",
          "name": "",
          "type": "bool"
        }
      ],
      "payable": false,
      "stateMutability": "view",
      "type": "function"
    },
    {
      "constant": true,
      "inputs": [
        {
          "internalType": "address",
          "name": "",
          "type": "address"
        }
      ],
      "name": "RegisteredBuyerMapping",
      "outputs": [
        {
          "internalType": "bool",
          "name": "",
          "type": "bool"
        }
      ],
      "payable": false,
      "stateMutability": "view",
      "type": "function"
    },
    {
      "constant": true,
      "inputs": [
        {
          "internalType": "address",
          "name": "",
          "type": "address"
        }
      ],
      "name": "RegisteredSellerMapping",
      "outputs": [
        {
          "internalType": "bool",
          "name": "",
          "type": "bool"
        }
      ],
      "payable": false,
      "stateMutability": "view",
      "type": "function"
    },
    {
      "constant": true,
      "inputs": [
        {
          "internalType": "uint256",
          "name": "",
          "type": "uint256"
        }
      ],
      "name": "RequestStatus",
      "outputs": [
        {
          "internalType": "bool",
          "name": "",
          "type": "bool"
        }
      ],
      "payable": false,
      "stateMutability": "view",
      "type": "function"
    },
    {
      "constant": true,
      "inputs": [
        {
          "internalType": "uint256",
          "name": "",
          "type": "uint256"
        }
      ],
      "name": "RequestedLands",
      "outputs": [
        {
          "internalType": "bool",
          "name": "",
          "type": "bool"
        }
      ],
      "payable": false,
      "stateMutability": "view",
      "type": "function"
    },
    {
      "constant": true,
      "inputs": [
        {
          "internalType": "uint256",
          "name": "",
          "type": "uint256"
        }
      ],
      "name": "RequestsMapping",
      "outputs": [
        {
          "internalType": "uint256",
          "name": "reqId",
          "type": "uint256"
        },
        {
          "internalType": "address",
          "name": "sellerId",
          "type": "address"
        },
        {
          "internalType": "address",
          "name": "buyerId",
          "type": "address"
        },
        {
          "internalType": "uint256",
          "name": "landId",
          "type": "uint256"
        }
      ],
      "payable": false,
      "stateMutability": "view",
      "type": "function"
    },
    {
      "constant": true,
      "inputs": [
        {
          "internalType": "address",
          "name": "",
          "type": "address"
        }
      ],
      "name": "SellerMapping",
      "outputs": [
        {
          "internalType": "address",
          "name": "id",
          "type": "address"
        },
        {
          "internalType": "string",
          "name": "name",
          "type": "string"
        },
        {
          "internalType": "uint256",
          "name": "age",
          "type": "uint256"
        },
        {
          "internalType": "string",
          "name": "aadharNumber",
          "type": "string"
        },
        {
          "internalType": "string",
          "name": "panNumber",
          "type": "string"
        },
        {
          "internalType": "string",
          "name": "landsOwned",
          "type": "string"
        }
      ],
      "payable": false,
      "stateMutability": "view",
      "type": "function"
    },
    {
      "constant": true,
      "inputs": [
        {
          "internalType": "address",
          "name": "",
          "type": "address"
        }
      ],
      "name": "SellerVerification",
      "outputs": [
        {
          "internalType": "bool",
          "name": "",
          "type": "bool"
        }
      ],
      "payable": false,
      "stateMutability": "view",
      "type": "function"
    },
    {
      "constant": true,
      "inputs": [
        {
          "internalType": "uint256",
          "name": "",
          "type": "uint256"
        }
      ],
      "name": "buyers",
      "outputs": [
        {
          "internalType": "address",
          "name": "",
          "type": "address"
        }
      ],
      "payable": false,
      "stateMutability": "view",
      "type": "function"
    },
    {
      "constant": true,
      "inputs": [],
      "name": "buyersCount",
      "outputs": [
        {
          "internalType": "uint256",
          "name": "",
          "type": "uint256"
        }
      ],
      "payable": false,
      "stateMutability": "view",
      "type": "function"
    },
    {
      "constant": true,
      "inputs": [],
      "name": "inspectorsCount",
      "outputs": [
        {
          "internalType": "uint256",
          "name": "",
          "type": "uint256"
        }
      ],
      "payable": false,
      "stateMutability": "view",
      "type": "function"
    },
    {
      "constant": true,
      "inputs": [
        {
          "internalType": "uint256",
          "name": "",
          "type": "uint256"
        }
      ],
      "name": "lands",
      "outputs": [
        {
          "internalType": "uint256",
          "name": "id",
          "type": "uint256"
        },
        {
          "internalType": "uint256",
          "name": "area",
          "type": "uint256"
        },
        {
          "internalType": "string",
          "name": "location",
          "type": "string"
        },
        {
          "internalType": "bool",
          "name": "verificationStatus",
          "type": "bool"
        },
        {
          "internalType": "uint256",
          "name": "landPrice",
          "type": "uint256"
        }
      ],
      "payable": false,
      "stateMutability": "view",
      "type": "function"
    },
    {
      "constant": true,
      "inputs": [],
      "name": "landsCount",
      "outputs": [
        {
          "internalType": "uint256",
          "name": "",
          "type": "uint256"
        }
      ],
      "payable": false,
      "stateMutability": "view",
      "type": "function"
    },
    {
      "constant": true,
      "inputs": [],
      "name": "requestsCount",
      "outputs": [
        {
          "internalType": "uint256",
          "name": "",
          "type": "uint256"
        }
      ],
      "payable": false,
      "stateMutability": "view",
      "type": "function"
    },
    {
      "constant": true,
      "inputs": [
        {
          "internalType": "uint256",
          "name": "",
          "type": "uint256"
        }
      ],
      "name": "sellers",
      "outputs": [
        {
          "internalType": "address",
          "name": "",
          "type": "address"
        }
      ],
      "payable": false,
      "stateMutability": "view",
      "type": "function"
    },
    {
      "constant": true,
      "inputs": [],
      "name": "sellersCount",
      "outputs": [
        {
          "internalType": "uint256",
          "name": "",
          "type": "uint256"
        }
      ],
      "payable": false,
      "stateMutability": "view",
      "type": "function"
    },
    {
      "constant": true,
      "inputs": [],
      "name": "getLandsCount",
      "outputs": [
        {
          "internalType": "uint256",
          "name": "",
          "type": "uint256"
        }
      ],
      "payable": false,
      "stateMutability": "view",
      "type": "function"
    },
    {
      "constant": true,
      "inputs": [],
      "name": "getBuyersCount",
      "outputs": [
        {
          "internalType": "uint256",
          "name": "",
          "type": "uint256"
        }
      ],
      "payable": false,
      "stateMutability": "view",
      "type": "function"
    },
    {
      "constant": true,
      "inputs": [],
      "name": "getSellersCount",
      "outputs": [
        {
          "internalType": "uint256",
          "name": "",
          "type": "uint256"
        }
      ],
      "payable": false,
      "stateMutability": "view",
      "type": "function"
    },
    {
      "constant": true,
      "inputs": [],
      "name": "getRequestsCount",
      "outputs": [
        {
          "internalType": "uint256",
          "name": "",
          "type": "uint256"
        }
      ],
      "payable": false,
      "stateMutability": "view",
      "type": "function"
    },
    {
      "constant": true,
      "inputs": [
        {
          "internalType": "uint256",
          "name": "i",
          "type": "uint256"
        }
      ],
      "name": "getArea",
      "outputs": [
        {
          "internalType": "uint256",
          "name": "",
          "type": "uint256"
        }
      ],
      "payable": false,
      "stateMutability": "view",
      "type": "function"
    },
    {
      "constant": true,
      "inputs": [
        {
          "internalType": "uint256",
          "name": "i",
          "type": "uint256"
        }
      ],
      "name": "getLocation",
      "outputs": [
        {
          "internalType": "string",
          "name": "",
          "type": "string"
        }
      ],
      "payable": false,
      "stateMutability": "view",
      "type": "function"
    },
    {
      "constant": true,
      "inputs": [
        {
          "internalType": "uint256",
          "name": "i",
          "type": "uint256"
        }
      ],
      "name": "getStatus",
      "outputs": [
        {
          "internalType": "bool",
          "name": "",
          "type": "bool"
        }
      ],
      "payable": false,
      "stateMutability": "view",
      "type": "function"
    },
    {
      "constant": true,
      "inputs": [
        {
          "internalType": "uint256",
          "name": "i",
          "type": "uint256"
        }
      ],
      "name": "getPrice",
      "outputs": [
        {
          "internalType": "uint256",
          "name": "",
          "type": "uint256"
        }
      ],
      "payable": false,
      "stateMutability": "view",
      "type": "function"
    },
    {
      "constant": true,
      "inputs": [
        {
          "internalType": "uint256",
          "name": "id",
          "type": "uint256"
        }
      ],
      "name": "getLandOwner",
      "outputs": [
        {
          "internalType": "address",
          "name": "",
          "type": "address"
        }
      ],
      "payable": false,
      "stateMutability": "view",
      "type": "function"
    },
    {
      "constant": false,
      "inputs": [
        {
          "internalType": "address",
          "name": "_sellerId",
          "type": "address"
        }
      ],
      "name": "verifySeller",
      "outputs": [],
      "payable": false,
      "stateMutability": "nonpayable",
      "type": "function"
    },
    {
      "constant": false,
      "inputs": [
        {
          "internalType": "address",
          "name": "_buyerId",
          "type": "address"
        }
      ],
      "name": "verifyBuyer",
      "outputs": [],
      "payable": false,
      "stateMutability": "nonpayable",
      "type": "function"
    },
    {
      "constant": true,
      "inputs": [
        {
          "internalType": "address",
          "name": "_id",
          "type": "address"
        }
      ],
      "name": "isVerified",
      "outputs": [
        {
          "internalType": "bool",
          "name": "",
          "type": "bool"
        }
      ],
      "payable": false,
      "stateMutability": "view",
      "type": "function"
    },
    {
      "constant": true,
      "inputs": [
        {
          "internalType": "address",
          "name": "_id",
          "type": "address"
        }
      ],
      "name": "isSeller",
      "outputs": [
        {
          "internalType": "bool",
          "name": "",
          "type": "bool"
        }
      ],
      "payable": false,
      "stateMutability": "view",
      "type": "function"
    },
    {
      "constant": true,
      "inputs": [
        {
          "internalType": "address",
          "name": "_id",
          "type": "address"
        }
      ],
      "name": "isLandInspector",
      "outputs": [
        {
          "internalType": "bool",
          "name": "",
          "type": "bool"
        }
      ],
      "payable": false,
      "stateMutability": "view",
      "type": "function"
    },
    {
      "constant": true,
      "inputs": [
        {
          "internalType": "address",
          "name": "_id",
          "type": "address"
        }
      ],
      "name": "isBuyer",
      "outputs": [
        {
          "internalType": "bool",
          "name": "",
          "type": "bool"
        }
      ],
      "payable": false,
      "stateMutability": "view",
      "type": "function"
    },
    {
      "constant": true,
      "inputs": [
        {
          "internalType": "address",
          "name": "_id",
          "type": "address"
        }
      ],
      "name": "isRegistered",
      "outputs": [
        {
          "internalType": "bool",
          "name": "",
          "type": "bool"
        }
      ],
      "payable": false,
      "stateMutability": "view",
      "type": "function"
    },
    {
      "constant": false,
      "inputs": [
        {
          "internalType": "uint256",
          "name": "_area",
          "type": "uint256"
        },
        {
          "internalType": "string",
          "name": "_location",
          "type": "string"
        },
        {
          "internalType": "uint256",
          "name": "landPrice",
          "type": "uint256"
        }
      ],
      "name": "addLand",
      "outputs": [],
      "payable": false,
      "stateMutability": "nonpayable",
      "type": "function"
    },
    {
      "constant": false,
      "inputs": [
        {
          "internalType": "string",
          "name": "_name",
          "type": "string"
        },
        {
          "internalType": "uint256",
          "name": "_age",
          "type": "uint256"
        },
        {
          "internalType": "string",
          "name": "_aadharNumber",
          "type": "string"
        },
        {
          "internalType": "string",
          "name": "_panNumber",
          "type": "string"
        },
        {
          "internalType": "string",
          "name": "_landsOwned",
          "type": "string"
        }
      ],
      "name": "registerSeller",
      "outputs": [],
      "payable": false,
      "stateMutability": "nonpayable",
      "type": "function"
    },
    {
      "constant": true,
      "inputs": [],
      "name": "getSeller",
      "outputs": [
        {
          "internalType": "address[]",
          "name": "",
          "type": "address[]"
        }
      ],
      "payable": false,
      "stateMutability": "view",
      "type": "function"
    },
    {
      "constant": true,
      "inputs": [
        {
          "internalType": "address",
          "name": "i",
          "type": "address"
        }
      ],
      "name": "getSellerDetails",
      "outputs": [
        {
          "internalType": "string",
          "name": "",
          "type": "string"
        },
        {
          "internalType": "uint256",
          "name": "",
          "type": "uint256"
        },
        {
          "internalType": "string",
          "name": "",
          "type": "string"
        },
        {
          "internalType": "string",
          "name": "",
          "type": "string"
        },
        {
          "internalType": "string",
          "name": "",
          "type": "string"
        }
      ],
      "payable": false,
      "stateMutability": "view",
      "type": "function"
    },
    {
      "constant": false,
      "inputs": [
        {
          "internalType": "string",
          "name": "_name",
          "type": "string"
        },
        {
          "internalType": "uint256",
          "name": "_age",
          "type": "uint256"
        },
        {
          "internalType": "string",
          "name": "_city",
          "type": "string"
        },
        {
          "internalType": "string",
          "name": "_state",
          "type": "string"
        },
        {
          "internalType": "string",
          "name": "_aadharNumber",
          "type": "string"
        },
        {
          "internalType": "string",
          "name": "_panNumber",
          "type": "string"
        }
      ],
      "name": "registerBuyer",
      "outputs": [],
      "payable": false,
      "stateMutability": "nonpayable",
      "type": "function"
    },
    {
      "constant": true,
      "inputs": [],
      "name": "getBuyer",
      "outputs": [
        {
          "internalType": "address[]",
          "name": "",
          "type": "address[]"
        }
      ],
      "payable": false,
      "stateMutability": "view",
      "type": "function"
    },
    {
      "constant": true,
      "inputs": [
        {
          "internalType": "address",
          "name": "i",
          "type": "address"
        }
      ],
      "name": "getBuyerDetails",
      "outputs": [
        {
          "internalType": "string",
          "name": "",
          "type": "string"
        },
        {
          "internalType": "uint256",
          "name": "",
          "type": "uint256"
        },
        {
          "internalType": "string",
          "name": "",
          "type": "string"
        },
        {
          "internalType": "string",
          "name": "",
          "type": "string"
        },
        {
          "internalType": "string",
          "name": "",
          "type": "string"
        },
        {
          "internalType": "string",
          "name": "",
          "type": "string"
        }
      ],
      "payable": false,
      "stateMutability": "view",
      "type": "function"
    },
    {
      "constant": false,
      "inputs": [
        {
          "internalType": "address",
          "name": "_sellerId",
          "type": "address"
        },
        {
          "internalType": "uint256",
          "name": "_landId",
          "type": "uint256"
        }
      ],
      "name": "requestLand",
      "outputs": [],
      "payable": false,
      "stateMutability": "nonpayable",
      "type": "function"
    },
    {
      "constant": true,
      "inputs": [
        {
          "internalType": "uint256",
          "name": "i",
          "type": "uint256"
        }
      ],
      "name": "getRequestDetails",
      "outputs": [
        {
          "internalType": "address",
          "name": "",
          "type": "address"
        },
        {
          "internalType": "address",
          "name": "",
          "type": "address"
        },
        {
          "internalType": "uint256",
          "name": "",
          "type": "uint256"
        },
        {
          "internalType": "bool",
          "name": "",
          "type": "bool"
        }
      ],
      "payable": false,
      "stateMutability": "view",
      "type": "function"
    },
    {
      "constant": true,
      "inputs": [
        {
          "internalType": "uint256",
          "name": "_id",
          "type": "uint256"
        }
      ],
      "name": "isRequested",
      "outputs": [
        {
          "internalType": "bool",
          "name": "",
          "type": "bool"
        }
      ],
      "payable": false,
      "stateMutability": "view",
      "type": "function"
    },
    {
      "constant": true,
      "inputs": [
        {
          "internalType": "uint256",
          "name": "_id",
          "type": "uint256"
        }
      ],
      "name": "isApproved",
      "outputs": [
        {
          "internalType": "bool",
          "name": "",
          "type": "bool"
        }
      ],
      "payable": false,
      "stateMutability": "view",
      "type": "function"
    },
    {
      "constant": false,
      "inputs": [
        {
          "internalType": "uint256",
          "name": "_reqId",
          "type": "uint256"
        }
      ],
      "name": "approveRequest",
      "outputs": [],
      "payable": false,
      "stateMutability": "nonpayable",
      "type": "function"
    },
    {
      "constant": false,
      "inputs": [
        {
          "internalType": "uint256",
          "name": "_landId",
          "type": "uint256"
        },
        {
          "internalType": "address",
          "name": "_newOwner",
          "type": "address"
        }
      ],
      "name": "LandOwnershipTransfer",
      "outputs": [],
      "payable": false,
      "stateMutability": "nonpayable",
      "type": "function"
    }
  ],
  "bytecode": "0x60806040523480156200001157600080fd5b50620000906040518060400160405280600b81526020017f496e73706563746f722031000000000000000000000000000000000000000000815250602d6040518060400160405280600e81526020017f54656873696c204d616e616765720000000000000000000000000000000000008152506200009660201b60201c565b620001e9565b6010600081548092919060010191905055506040518060800160405280601054815260200184815260200183815260200182815250600160006010548152602001908152602001600020600082015181600001556020820151816001019080519060200190620001089291906200013a565b50604082015181600201556060820151816003019080519060200190620001319291906200013a565b50905050505050565b828054600181600116156101000203166002900490600052602060002090601f016020900481019282601f106200017d57805160ff1916838001178555620001ae565b82800160010185558215620001ae579182015b82811115620001ad57825182559160200191906001019062000190565b5b509050620001bd9190620001c1565b5090565b620001e691905b80821115620001e2576000816000905550600101620001c8565b5090565b90565b613a2480620001f96000396000f3fe608060405234801561001057600080fd5b50600436106102bb5760003560e01c8063b3c8fe8511610182578063def936c3116100e9578063ee95feaf116100a2578063f34d4c631161007c578063f34d4c6314610a0e578063f3f0c21814610a41578063f58f85b514610a5d578063fbfa4b7f14610a8d576102bb565b8063ee95feaf14610990578063f0d3a9df146109c0578063f2aa8218146109de576102bb565b8063def936c31461087d578063e165af87146108b0578063e261f1e5146108e0578063e4b2611514610914578063e706d55514610944578063e757223014610960576102bb565b8063cee26ed51161013b578063cee26ed5146107a4578063d1760e60146107d4578063d7d1bbdb146107f0578063dbd0e1b61461080c578063dd9d122d1461082a578063dec091ad14610848576102bb565b8063b3c8fe85146106ba578063b9209e33146106ee578063ba49a08c1461071e578063bed403c71461073c578063c3c5a54714610758578063cad1ab3b14610788576102bb565b80636814800b116102265780639ae9711e116101df5780639ae9711e146105a35780639dc1bfa9146105c1578063a47d4c02146105f1578063a6dc41fb14610621578063ab51707414610651578063b0a5dcd314610687576102bb565b80636814800b146104a457806368cfe6ee146104c05780637910867b146104f55780637f7b13931461052557806389d2135414610555578063941e242614610585576102bb565b80633b8621bf116102785780633b8621bf146103aa5780634daa9dae146103c65780635c622a0e146103f6578063601e7c3414610426578063603daf9a146104565780636490c7a814610474576102bb565b8063155fec72146102c057806316d9d666146102f05780631869a38b1461030e5780631c9afd0f1461033e5780632a55feec1461035c5780633410452a1461038c575b600080fd5b6102da60048036036102d59190810190613241565b610aab565b6040516102e791906135ec565b60405180910390f35b6102f8610ae2565b604051610305919061371c565b60405180910390f35b61032860048036036103239190810190613241565b610aec565b6040516103359190613440565b60405180910390f35b610346610b29565b604051610353919061371c565b60405180910390f35b61037660048036036103719190810190613004565b610b2f565b60405161038391906135ec565b60405180910390f35b610394610b92565b6040516103a1919061371c565b60405180910390f35b6103c460048036036103bf91908101906132a6565b610b9c565b005b6103e060048036036103db9190810190613241565b610cc8565b6040516103ed91906135ec565b60405180910390f35b610410600480360361040b9190810190613241565b610ce8565b60405161041d91906135ec565b60405180910390f35b610440600480360361043b9190810190613004565b610d14565b60405161044d91906135ec565b60405180910390f35b61045e610d34565b60405161046b91906135ca565b60405180910390f35b61048e60048036036104899190810190613241565b610dc2565b60405161049b919061371c565b60405180910390f35b6104be60048036036104b99190810190613004565b610de1565b005b6104da60048036036104d59190810190613004565b610e85565b6040516104ec96959493929190613698565b60405180910390f35b61050f600480360361050a9190810190613241565b61133d565b60405161051c91906135ec565b60405180910390f35b61053f600480360361053a9190810190613241565b611374565b60405161054c9190613607565b60405180910390f35b61056f600480360361056a9190810190613241565b61142b565b60405161057c91906135ec565b60405180910390f35b61058d61144b565b60405161059a919061371c565b60405180910390f35b6105ab611451565b6040516105b8919061371c565b60405180910390f35b6105db60048036036105d69190810190613241565b611457565b6040516105e89190613440565b60405180910390f35b61060b60048036036106069190810190613004565b61148a565b60405161061891906135ec565b60405180910390f35b61063b60048036036106369190810190613004565b6114aa565b60405161064891906135ec565b60405180910390f35b61066b60048036036106669190810190613004565b6114ca565b60405161067e9796959493929190613538565b60405180910390f35b6106a1600480360361069c9190810190613241565b611824565b6040516106b19493929190613737565b60405180910390f35b6106d460048036036106cf9190810190613004565b611894565b6040516106e5959493929190613629565b60405180910390f35b61070860048036036107039190810190613004565b611c6b565b60405161071591906135ec565b60405180910390f35b610726611d22565b604051610733919061371c565b60405180910390f35b6107566004803603610751919081019061326a565b611d28565b005b610772600480360361076d9190810190613004565b611d90565b60405161077f91906135ec565b60405180910390f35b6107a2600480360361079d9190810190613140565b611df3565b005b6107be60048036036107b99190810190613241565b61211e565b6040516107cb9190613440565b60405180910390f35b6107ee60048036036107e99190810190613004565b61215a565b005b61080a60048036036108059190810190613241565b6121fe565b005b610814612250565b60405161082191906135ca565b60405180910390f35b6108326122de565b60405161083f919061371c565b60405180910390f35b610862600480360361085d9190810190613004565b6122e8565b604051610874969594939291906134bb565b60405180910390f35b61089760048036036108929190810190613241565b6125a4565b6040516108a7949392919061377c565b60405180910390f35b6108ca60048036036108c59190810190613004565b612704565b6040516108d791906135ec565b60405180910390f35b6108fa60048036036108f59190810190613241565b612761565b60405161090b9594939291906137cf565b60405180910390f35b61092e60048036036109299190810190613004565b61283c565b60405161093b91906135ec565b60405180910390f35b61095e60048036036109599190810190613069565b61285c565b005b61097a60048036036109759190810190613241565b612b63565b604051610987919061371c565b60405180910390f35b6109aa60048036036109a59190810190613004565b612b82565b6040516109b791906135ec565b60405180910390f35b6109c8612be5565b6040516109d5919061371c565b60405180910390f35b6109f860048036036109f39190810190613241565b612bef565b604051610a059190613440565b60405180910390f35b610a286004803603610a239190810190613241565b612c2b565b604051610a389493929190613476565b60405180910390f35b610a5b6004803603610a56919081019061302d565b612ce6565b005b610a776004803603610a729190810190613004565b612ebb565b604051610a8491906135ec565b60405180910390f35b610a95612edb565b604051610aa2919061371c565b60405180910390f35b6000600c600083815260200190815260200160002060009054906101000a900460ff1615610adc5760019050610add565b5b919050565b6000600f54905090565b6000600a600083815260200190815260200160002060009054906101000a900473ffffffffffffffffffffffffffffffffffffffff169050919050565b600f5481565b6000600760008373ffffffffffffffffffffffffffffffffffffffff1673ffffffffffffffffffffffffffffffffffffffff16815260200190815260200160002060009054906101000a900460ff1615610b8c5760019050610b8d565b5b919050565b6000601354905090565b610ba533612b82565b8015610bb65750610bb533611c6b565b5b610bbf57600080fd5b600f600081548092919060010191905055506040518060a00160405280600f54815260200184815260200183815260200160001515815260200182815250600080600f54815260200190815260200160002060008201518160000155602082015181600101556040820151816002019080519060200190610c41929190612ee1565b5060608201518160030160006101000a81548160ff0219169083151502179055506080820151816004015590505033600a6000600f54815260200190815260200160002060006101000a81548173ffffffffffffffffffffffffffffffffffffffff021916908373ffffffffffffffffffffffffffffffffffffffff160217905550505050565b600c6020528060005260406000206000915054906101000a900460ff1681565b600080600083815260200190815260200160002060030160009054906101000a900460ff169050919050565b60066020528060005260406000206000915054906101000a900460ff1681565b6060600e805480602002602001604051908101604052809291908181526020018280548015610db857602002820191906000526020600020905b8160009054906101000a900473ffffffffffffffffffffffffffffffffffffffff1673ffffffffffffffffffffffffffffffffffffffff1681526020019060010190808311610d6e575b5050505050905090565b6000806000838152602001908152602001600020600101549050919050565b610dea33612704565b610df357600080fd5b6001600960008373ffffffffffffffffffffffffffffffffffffffff1673ffffffffffffffffffffffffffffffffffffffff16815260200190815260200160002060006101000a81548160ff0219169083151502179055507f6a6455914f452787eb3985452aceedc1000fb545e394eb3b370e3d08958e0a5b81604051610e7a9190613440565b60405180910390a150565b60606000606080606080600360008873ffffffffffffffffffffffffffffffffffffffff1673ffffffffffffffffffffffffffffffffffffffff168152602001908152602001600020600101600360008973ffffffffffffffffffffffffffffffffffffffff1673ffffffffffffffffffffffffffffffffffffffff16815260200190815260200160002060020154600360008a73ffffffffffffffffffffffffffffffffffffffff1673ffffffffffffffffffffffffffffffffffffffff168152602001908152602001600020600301600360008b73ffffffffffffffffffffffffffffffffffffffff1673ffffffffffffffffffffffffffffffffffffffff168152602001908152602001600020600401600360008c73ffffffffffffffffffffffffffffffffffffffff1673ffffffffffffffffffffffffffffffffffffffff168152602001908152602001600020600501600360008d73ffffffffffffffffffffffffffffffffffffffff1673ffffffffffffffffffffffffffffffffffffffff168152602001908152602001600020600601858054600181600116156101000203166002900480601f0160208091040260200160405190810160405280929190818152602001828054600181600116156101000203166002900480156110b15780601f10611086576101008083540402835291602001916110b1565b820191906000526020600020905b81548152906001019060200180831161109457829003601f168201915b50505050509550838054600181600116156101000203166002900480601f01602080910402602001604051908101604052809291908181526020018280546001816001161561010002031660029004801561114d5780601f106111225761010080835404028352916020019161114d565b820191906000526020600020905b81548152906001019060200180831161113057829003601f168201915b50505050509350828054600181600116156101000203166002900480601f0160208091040260200160405190810160405280929190818152602001828054600181600116156101000203166002900480156111e95780601f106111be576101008083540402835291602001916111e9565b820191906000526020600020905b8154815290600101906020018083116111cc57829003601f168201915b50505050509250818054600181600116156101000203166002900480601f0160208091040260200160405190810160405280929190818152602001828054600181600116156101000203166002900480156112855780601f1061125a57610100808354040283529160200191611285565b820191906000526020600020905b81548152906001019060200180831161126857829003601f168201915b50505050509150808054600181600116156101000203166002900480601f0160208091040260200160405190810160405280929190818152602001828054600181600116156101000203166002900480156113215780601f106112f657610100808354040283529160200191611321565b820191906000526020600020905b81548152906001019060200180831161130457829003601f168201915b5050505050905095509550955095509550955091939550919395565b6000600b600083815260200190815260200160002060009054906101000a900460ff161561136e576001905061136f565b5b919050565b60606000808381526020019081526020016000206002018054600181600116156101000203166002900480601f01602080910402602001604051908101604052809291908181526020018280546001816001161561010002031660029004801561141f5780601f106113f45761010080835404028352916020019161141f565b820191906000526020600020905b81548152906001019060200180831161140257829003601f168201915b50505050509050919050565b600b6020528060005260406000206000915054906101000a900460ff1681565b60105481565b60115481565b600a6020528060005260406000206000915054906101000a900473ffffffffffffffffffffffffffffffffffffffff1681565b60076020528060005260406000206000915054906101000a900460ff1681565b60096020528060005260406000206000915054906101000a900460ff1681565b60036020528060005260406000206000915090508060000160009054906101000a900473ffffffffffffffffffffffffffffffffffffffff1690806001018054600181600116156101000203166002900480601f01602080910402602001604051908101604052809291908181526020018280546001816001161561010002031660029004801561159c5780601f106115715761010080835404028352916020019161159c565b820191906000526020600020905b81548152906001019060200180831161157f57829003601f168201915b505050505090806002015490806003018054600181600116156101000203166002900480601f0160208091040260200160405190810160405280929190818152602001828054600181600116156101000203166002900480156116405780601f1061161557610100808354040283529160200191611640565b820191906000526020600020905b81548152906001019060200180831161162357829003601f168201915b505050505090806004018054600181600116156101000203166002900480601f0160208091040260200160405190810160405280929190818152602001828054600181600116156101000203166002900480156116de5780601f106116b3576101008083540402835291602001916116de565b820191906000526020600020905b8154815290600101906020018083116116c157829003601f168201915b505050505090806005018054600181600116156101000203166002900480601f01602080910402602001604051908101604052809291908181526020018280546001816001161561010002031660029004801561177c5780601f106117515761010080835404028352916020019161177c565b820191906000526020600020905b81548152906001019060200180831161175f57829003601f168201915b505050505090806006018054600181600116156101000203166002900480601f01602080910402602001604051908101604052809291908181526020018280546001816001161561010002031660029004801561181a5780601f106117ef5761010080835404028352916020019161181a565b820191906000526020600020905b8154815290600101906020018083116117fd57829003601f168201915b5050505050905087565b60046020528060005260406000206000915090508060000154908060010160009054906101000a900473ffffffffffffffffffffffffffffffffffffffff16908060020160009054906101000a900473ffffffffffffffffffffffffffffffffffffffff16908060030154905084565b606060006060806060600260008773ffffffffffffffffffffffffffffffffffffffff1673ffffffffffffffffffffffffffffffffffffffff168152602001908152602001600020600101600260008873ffffffffffffffffffffffffffffffffffffffff1673ffffffffffffffffffffffffffffffffffffffff16815260200190815260200160002060020154600260008973ffffffffffffffffffffffffffffffffffffffff1673ffffffffffffffffffffffffffffffffffffffff168152602001908152602001600020600301600260008a73ffffffffffffffffffffffffffffffffffffffff1673ffffffffffffffffffffffffffffffffffffffff168152602001908152602001600020600401600260008b73ffffffffffffffffffffffffffffffffffffffff1673ffffffffffffffffffffffffffffffffffffffff168152602001908152602001600020600501848054600181600116156101000203166002900480601f016020809104026020016040519081016040528092919081815260200182805460018160011615610100020316600290048015611a7d5780601f10611a5257610100808354040283529160200191611a7d565b820191906000526020600020905b815481529060010190602001808311611a6057829003601f168201915b50505050509450828054600181600116156101000203166002900480601f016020809104026020016040519081016040528092919081815260200182805460018160011615610100020316600290048015611b195780601f10611aee57610100808354040283529160200191611b19565b820191906000526020600020905b815481529060010190602001808311611afc57829003601f168201915b50505050509250818054600181600116156101000203166002900480601f016020809104026020016040519081016040528092919081815260200182805460018160011615610100020316600290048015611bb55780601f10611b8a57610100808354040283529160200191611bb5565b820191906000526020600020905b815481529060010190602001808311611b9857829003601f168201915b50505050509150808054600181600116156101000203166002900480601f016020809104026020016040519081016040528092919081815260200182805460018160011615610100020316600290048015611c515780601f10611c2657610100808354040283529160200191611c51565b820191906000526020600020905b815481529060010190602001808311611c3457829003601f168201915b505050505090509450945094509450945091939590929450565b6000600860008373ffffffffffffffffffffffffffffffffffffffff1673ffffffffffffffffffffffffffffffffffffffff16815260200190815260200160002060009054906101000a900460ff1680611d0e5750600960008373ffffffffffffffffffffffffffffffffffffffff1673ffffffffffffffffffffffffffffffffffffffff16815260200190815260200160002060009054906101000a900460ff165b15611d1c5760019050611d1d565b5b919050565b60125481565b611d3133612704565b611d3a57600080fd5b80600a600084815260200190815260200160002060006101000a81548173ffffffffffffffffffffffffffffffffffffffff021916908373ffffffffffffffffffffffffffffffffffffffff1602179055505050565b6000600560008373ffffffffffffffffffffffffffffffffffffffff1673ffffffffffffffffffffffffffffffffffffffff16815260200190815260200160002060009054906101000a900460ff1615611ded5760019050611dee565b5b919050565b600560003373ffffffffffffffffffffffffffffffffffffffff1673ffffffffffffffffffffffffffffffffffffffff16815260200190815260200160002060009054906101000a900460ff1615611e4a57600080fd5b6001600560003373ffffffffffffffffffffffffffffffffffffffff1673ffffffffffffffffffffffffffffffffffffffff16815260200190815260200160002060006101000a81548160ff0219169083151502179055506001600760003373ffffffffffffffffffffffffffffffffffffffff1673ffffffffffffffffffffffffffffffffffffffff16815260200190815260200160002060006101000a81548160ff0219169083151502179055506012600081548092919060010191905055506040518060e001604052803373ffffffffffffffffffffffffffffffffffffffff16815260200187815260200186815260200185815260200184815260200183815260200182815250600360003373ffffffffffffffffffffffffffffffffffffffff1673ffffffffffffffffffffffffffffffffffffffff16815260200190815260200160002060008201518160000160006101000a81548173ffffffffffffffffffffffffffffffffffffffff021916908373ffffffffffffffffffffffffffffffffffffffff1602179055506020820151816001019080519060200190611ff7929190612ee1565b5060408201518160020155606082015181600301908051906020019061201e929190612ee1565b50608082015181600401908051906020019061203b929190612ee1565b5060a0820151816005019080519060200190612058929190612ee1565b5060c0820151816006019080519060200190612075929190612ee1565b50905050600e3390806001815401808255809150509060018203906000526020600020016000909192909190916101000a81548173ffffffffffffffffffffffffffffffffffffffff021916908373ffffffffffffffffffffffffffffffffffffffff160217905550507f478f5152d8fc568db3f8de9fb402fd9d98a1a7541ecfe434e59cf574fbfc55243360405161210e919061345b565b60405180910390a1505050505050565b600d818154811061212b57fe5b906000526020600020016000915054906101000a900473ffffffffffffffffffffffffffffffffffffffff1681565b61216333612704565b61216c57600080fd5b6001600860008373ffffffffffffffffffffffffffffffffffffffff1673ffffffffffffffffffffffffffffffffffffffff16815260200190815260200160002060006101000a81548160ff0219169083151502179055507f6a6455914f452787eb3985452aceedc1000fb545e394eb3b370e3d08958e0a5b816040516121f39190613440565b60405180910390a150565b61220733612b82565b8015612218575061221733611c6b565b5b61222157600080fd5b6001600b600083815260200190815260200160002060006101000a81548160ff02191690831515021790555050565b6060600d8054806020026020016040519081016040528092919081815260200182805480156122d457602002820191906000526020600020905b8160009054906101000a900473ffffffffffffffffffffffffffffffffffffffff1673ffffffffffffffffffffffffffffffffffffffff168152602001906001019080831161228a575b5050505050905090565b6000601154905090565b60026020528060005260406000206000915090508060000160009054906101000a900473ffffffffffffffffffffffffffffffffffffffff1690806001018054600181600116156101000203166002900480601f0160208091040260200160405190810160405280929190818152602001828054600181600116156101000203166002900480156123ba5780601f1061238f576101008083540402835291602001916123ba565b820191906000526020600020905b81548152906001019060200180831161239d57829003601f168201915b505050505090806002015490806003018054600181600116156101000203166002900480601f01602080910402602001604051908101604052809291908181526020018280546001816001161561010002031660029004801561245e5780601f106124335761010080835404028352916020019161245e565b820191906000526020600020905b81548152906001019060200180831161244157829003601f168201915b505050505090806004018054600181600116156101000203166002900480601f0160208091040260200160405190810160405280929190818152602001828054600181600116156101000203166002900480156124fc5780601f106124d1576101008083540402835291602001916124fc565b820191906000526020600020905b8154815290600101906020018083116124df57829003601f168201915b505050505090806005018054600181600116156101000203166002900480601f01602080910402602001604051908101604052809291908181526020018280546001816001161561010002031660029004801561259a5780601f1061256f5761010080835404028352916020019161259a565b820191906000526020600020905b81548152906001019060200180831161257d57829003601f168201915b5050505050905086565b6001602052806000526040600020600091509050806000015490806001018054600181600116156101000203166002900480601f0160208091040260200160405190810160405280929190818152602001828054600181600116156101000203166002900480156126565780601f1061262b57610100808354040283529160200191612656565b820191906000526020600020905b81548152906001019060200180831161263957829003601f168201915b505050505090806002015490806003018054600181600116156101000203166002900480601f0160208091040260200160405190810160405280929190818152602001828054600181600116156101000203166002900480156126fa5780601f106126cf576101008083540402835291602001916126fa565b820191906000526020600020905b8154815290600101906020018083116126dd57829003601f168201915b5050505050905084565b60008173ffffffffffffffffffffffffffffffffffffffff1673964de87b240fe4e50cf07606791ddaf3405a988873ffffffffffffffffffffffffffffffffffffffff161415612757576001905061275c565b600090505b919050565b6000602052806000526040600020600091509050806000015490806001015490806002018054600181600116156101000203166002900480601f0160208091040260200160405190810160405280929190818152602001828054600181600116156101000203166002900480156128195780601f106127ee57610100808354040283529160200191612819565b820191906000526020600020905b8154815290600101906020018083116127fc57829003601f168201915b5050505050908060030160009054906101000a900460ff16908060040154905085565b60086020528060005260406000206000915054906101000a900460ff1681565b600560003373ffffffffffffffffffffffffffffffffffffffff1673ffffffffffffffffffffffffffffffffffffffff16815260200190815260200160002060009054906101000a900460ff16156128b357600080fd5b6001600560003373ffffffffffffffffffffffffffffffffffffffff1673ffffffffffffffffffffffffffffffffffffffff16815260200190815260200160002060006101000a81548160ff0219169083151502179055506001600660003373ffffffffffffffffffffffffffffffffffffffff1673ffffffffffffffffffffffffffffffffffffffff16815260200190815260200160002060006101000a81548160ff0219169083151502179055506011600081548092919060010191905055506040518060c001604052803373ffffffffffffffffffffffffffffffffffffffff16815260200186815260200185815260200184815260200183815260200182815250600260003373ffffffffffffffffffffffffffffffffffffffff1673ffffffffffffffffffffffffffffffffffffffff16815260200190815260200160002060008201518160000160006101000a81548173ffffffffffffffffffffffffffffffffffffffff021916908373ffffffffffffffffffffffffffffffffffffffff1602179055506020820151816001019080519060200190612a5a929190612ee1565b50604082015181600201556060820151816003019080519060200190612a81929190612ee1565b506080820151816004019080519060200190612a9e929190612ee1565b5060a0820151816005019080519060200190612abb929190612ee1565b50905050600d3390806001815401808255809150509060018203906000526020600020016000909192909190916101000a81548173ffffffffffffffffffffffffffffffffffffffff021916908373ffffffffffffffffffffffffffffffffffffffff160217905550507f478f5152d8fc568db3f8de9fb402fd9d98a1a7541ecfe434e59cf574fbfc552433604051612b54919061345b565b60405180910390a15050505050565b6000806000838152602001908152602001600020600401549050919050565b6000600660008373ffffffffffffffffffffffffffffffffffffffff1673ffffffffffffffffffffffffffffffffffffffff16815260200190815260200160002060009054906101000a900460ff1615612bdf5760019050612be0565b5b919050565b6000601254905090565b600e8181548110612bfc57fe5b906000526020600020016000915054906101000a900473ffffffffffffffffffffffffffffffffffffffff1681565b6000806000806004600086815260200190815260200160002060010160009054906101000a900473ffffffffffffffffffffffffffffffffffffffff166004600087815260200190815260200160002060020160009054906101000a900473ffffffffffffffffffffffffffffffffffffffff166004600088815260200190815260200160002060030154600b600089815260200190815260200160002060009054906101000a900460ff1693509350935093509193509193565b612cef33610b2f565b8015612d005750612cff33611c6b565b5b612d0957600080fd5b601360008154809291906001019190505550604051806080016040528060135481526020018373ffffffffffffffffffffffffffffffffffffffff1681526020013373ffffffffffffffffffffffffffffffffffffffff168152602001828152506004600060135481526020019081526020016000206000820151816000015560208201518160010160006101000a81548173ffffffffffffffffffffffffffffffffffffffff021916908373ffffffffffffffffffffffffffffffffffffffff16021790555060408201518160020160006101000a81548173ffffffffffffffffffffffffffffffffffffffff021916908373ffffffffffffffffffffffffffffffffffffffff160217905550606082015181600301559050506000600b6000601354815260200190815260200160002060006101000a81548160ff0219169083151502179055506001600c6000601354815260200190815260200160002060006101000a81548160ff0219169083151502179055507fc67eb70629da758128cec22f7e36ad0676066ad4df9b66e8ba58a30c1ab4075b82604051612eaf9190613440565b60405180910390a15050565b60056020528060005260406000206000915054906101000a900460ff1681565b60135481565b828054600181600116156101000203166002900490600052602060002090601f016020900481019282601f10612f2257805160ff1916838001178555612f50565b82800160010185558215612f50579182015b82811115612f4f578251825591602001919060010190612f34565b5b509050612f5d9190612f61565b5090565b612f8391905b80821115612f7f576000816000905550600101612f67565b5090565b90565b600081359050612f95816139b3565b92915050565b600082601f830112612fac57600080fd5b8135612fbf612fba82613856565b613829565b91508082526020830160208301858383011115612fdb57600080fd5b612fe6838284613960565b50505092915050565b600081359050612ffe816139ca565b92915050565b60006020828403121561301657600080fd5b600061302484828501612f86565b91505092915050565b6000806040838503121561304057600080fd5b600061304e85828601612f86565b925050602061305f85828601612fef565b9150509250929050565b600080600080600060a0868803121561308157600080fd5b600086013567ffffffffffffffff81111561309b57600080fd5b6130a788828901612f9b565b95505060206130b888828901612fef565b945050604086013567ffffffffffffffff8111156130d557600080fd5b6130e188828901612f9b565b935050606086013567ffffffffffffffff8111156130fe57600080fd5b61310a88828901612f9b565b925050608086013567ffffffffffffffff81111561312757600080fd5b61313388828901612f9b565b9150509295509295909350565b60008060008060008060c0878903121561315957600080fd5b600087013567ffffffffffffffff81111561317357600080fd5b61317f89828a01612f9b565b965050602061319089828a01612fef565b955050604087013567ffffffffffffffff8111156131ad57600080fd5b6131b989828a01612f9b565b945050606087013567ffffffffffffffff8111156131d657600080fd5b6131e289828a01612f9b565b935050608087013567ffffffffffffffff8111156131ff57600080fd5b61320b89828a01612f9b565b92505060a087013567ffffffffffffffff81111561322857600080fd5b61323489828a01612f9b565b9150509295509295509295565b60006020828403121561325357600080fd5b600061326184828501612fef565b91505092915050565b6000806040838503121561327d57600080fd5b600061328b85828601612fef565b925050602061329c85828601612f86565b9150509250929050565b6000806000606084860312156132bb57600080fd5b60006132c986828701612fef565b935050602084013567ffffffffffffffff8111156132e657600080fd5b6132f286828701612f9b565b925050604061330386828701612fef565b9150509250925092565b60006133198383613334565b60208301905092915050565b61332e8161392a565b82525050565b61333d816138e2565b82525050565b61334c816138e2565b82525050565b600061335d82613892565b61336781856138c0565b935061337283613882565b8060005b838110156133a357815161338a888261330d565b9750613395836138b3565b925050600181019050613376565b5085935050505092915050565b6133b9816138f4565b82525050565b60006133ca826138a8565b6133d481856138d1565b93506133e481856020860161396f565b6133ed816139a2565b840191505092915050565b60006134038261389d565b61340d81856138d1565b935061341d81856020860161396f565b613426816139a2565b840191505092915050565b61343a81613920565b82525050565b60006020820190506134556000830184613343565b92915050565b60006020820190506134706000830184613325565b92915050565b600060808201905061348b6000830187613343565b6134986020830186613343565b6134a56040830185613431565b6134b260608301846133b0565b95945050505050565b600060c0820190506134d06000830189613343565b81810360208301526134e281886133f8565b90506134f16040830187613431565b818103606083015261350381866133f8565b9050818103608083015261351781856133f8565b905081810360a083015261352b81846133f8565b9050979650505050505050565b600060e08201905061354d600083018a613343565b818103602083015261355f81896133f8565b905061356e6040830188613431565b818103606083015261358081876133f8565b9050818103608083015261359481866133f8565b905081810360a08301526135a881856133f8565b905081810360c08301526135bc81846133f8565b905098975050505050505050565b600060208201905081810360008301526135e48184613352565b905092915050565b600060208201905061360160008301846133b0565b92915050565b6000602082019050818103600083015261362181846133bf565b905092915050565b600060a082019050818103600083015261364381886133bf565b90506136526020830187613431565b818103604083015261366481866133bf565b9050818103606083015261367881856133bf565b9050818103608083015261368c81846133bf565b90509695505050505050565b600060c08201905081810360008301526136b281896133bf565b90506136c16020830188613431565b81810360408301526136d381876133bf565b905081810360608301526136e781866133bf565b905081810360808301526136fb81856133bf565b905081810360a083015261370f81846133bf565b9050979650505050505050565b60006020820190506137316000830184613431565b92915050565b600060808201905061374c6000830187613431565b6137596020830186613343565b6137666040830185613343565b6137736060830184613431565b95945050505050565b60006080820190506137916000830187613431565b81810360208301526137a381866133f8565b90506137b26040830185613431565b81810360608301526137c481846133f8565b905095945050505050565b600060a0820190506137e46000830188613431565b6137f16020830187613431565b818103604083015261380381866133f8565b905061381260608301856133b0565b61381f6080830184613431565b9695505050505050565b6000604051905081810181811067ffffffffffffffff8211171561384c57600080fd5b8060405250919050565b600067ffffffffffffffff82111561386d57600080fd5b601f19601f8301169050602081019050919050565b6000819050602082019050919050565b600081519050919050565b600081519050919050565b600081519050919050565b6000602082019050919050565b600082825260208201905092915050565b600082825260208201905092915050565b60006138ed82613900565b9050919050565b60008115159050919050565b600073ffffffffffffffffffffffffffffffffffffffff82169050919050565b6000819050919050565b60006139358261393c565b9050919050565b60006139478261394e565b9050919050565b600061395982613900565b9050919050565b82818337600083830152505050565b60005b8381101561398d578082015181840152602081019050613972565b8381111561399c576000848401525b50505050565b6000601f19601f8301169050919050565b6139bc816138e2565b81146139c757600080fd5b50565b6139d381613920565b81146139de57600080fd5b5056fea365627a7a72315820df3b2cdf04cf937a3435c5a5bcecb7c3c14b6703ecc3fedb3510110ca3800c686c6578706572696d656e74616cf564736f6c63430005100040",
  "source": "pragma solidity >= 0.5.2;\npragma experimental ABIEncoderV2;\n\ncontract Land {\n    struct Landreg {\n        uint id;\n        uint area;\n        string location;\n        // address owner; //-->this should be the seller \n        bool verificationStatus;\n        // string landImg;\n        uint landPrice;\n    }\n\n    struct Buyer{\n        address id;\n        string name;\n        uint age;\n        string city;\n        string state;\n        string aadharNumber;\n        string panNumber;\n    }\n\n    struct Seller{\n        address id;\n        string name;\n        uint age;\n        string aadharNumber;\n        string panNumber;\n        string landsOwned;\n    }\n\n    struct LandInspector {\n        uint id;\n        string name;\n        uint age;\n        string designation;\n    }\n\n    struct LandRequest{\n        uint reqId;\n        address sellerId;\n        address buyerId;\n        uint landId;\n        // bool requestStatus;\n        // bool requested;\n    }\n\n    //key value pairs\n    mapping(uint => Landreg) public lands;\n    mapping(uint => LandInspector) public InspectorMapping;\n    mapping(address => Seller) public SellerMapping;\n    mapping(address => Buyer) public BuyerMapping;\n    mapping(uint => LandRequest) public RequestsMapping;\n\n    mapping(address => bool) public RegisteredAddressMapping;\n    mapping(address => bool) public RegisteredSellerMapping;\n    mapping(address => bool) public RegisteredBuyerMapping;\n    mapping(address => bool) public SellerVerification;\n    mapping(address => bool) public BuyerVerification;\n    mapping(uint => address) public LandOwner;\n    mapping(uint => bool) public RequestStatus;\n    mapping(uint => bool) public RequestedLands;\n    // mapping(uint => bool) public requestedLand;\n\n\n    // mapping(address => address) public BuyertoSellerMapping;\n    // mapping(address => uint) public BuyertoLandMapping;\n    // mapping(address => bool) public BuyertoStatusMapping;\n\n    // LandRequest[] public RequestsMapping;\n    address[] public sellers;\n    address[] public buyers;\n\n    uint public landsCount;\n    uint public inspectorsCount;\n    uint public sellersCount;\n    uint public buyersCount;\n    uint public requestsCount;\n\n    event Registration(address _registrationId);\n    event AddingLand(uint indexed _landId);\n    event Landrequested(address _sellerId);\n    event requestApproved(address _buyerId);\n    event Verified(address _id);\n\n    constructor() public{\n        // addLand(450, \"Pune\");\n        // addLand(650, \"Akola\");\n        // addLand(500, \"Mumbai\");\n        addLandInspector(\"Inspector 1\", 45, \"Tehsil Manager\");\n    }\n\n    function addLandInspector(string memory _name, uint _age, string memory _designation) private {\n        inspectorsCount++;\n        InspectorMapping[inspectorsCount] = LandInspector(inspectorsCount, _name, _age, _designation);\n    }\n\n    function getLandsCount() public view returns (uint) {\n        return landsCount;\n    }\n\n    function getBuyersCount() public view returns (uint) {\n        return buyersCount;\n    }\n\n    function getSellersCount() public view returns (uint) {\n        return sellersCount;\n    }\n\n    function getRequestsCount() public view returns (uint) {\n        return requestsCount;\n    }\n    // function getRequestStatus(uint id) public payable returns (bool) {\n    //     return \n    // }\n\n    function getArea(uint i) public view returns (uint) {\n        return lands[i].area;\n    }\n    function getLocation(uint i) public view returns (string memory) {\n        return lands[i].location;\n    }\n    function getStatus(uint i) public view returns (bool) {\n        return lands[i].verificationStatus;\n    }\n    function getPrice(uint i) public view returns (uint) {\n        return lands[i].landPrice;\n    }\n    \n    function getLandOwner(uint id) public view returns (address) {\n        return LandOwner[id];\n    }\n\n    function verifySeller(address _sellerId) public{\n        require(isLandInspector(msg.sender));\n\n        SellerVerification[_sellerId] = true;\n        emit Verified(_sellerId);\n    }\n\n    function verifyBuyer(address _buyerId) public{\n        require(isLandInspector(msg.sender));\n\n        BuyerVerification[_buyerId] = true;\n        emit Verified(_buyerId);\n    }\n\n    function isVerified(address _id) public view returns (bool) {\n        if(SellerVerification[_id] || BuyerVerification[_id]){\n            return true;\n        }\n    }\n\n    function isSeller(address _id) public view returns (bool) {\n        if(RegisteredSellerMapping[_id]){\n            return true;\n        }\n    }\n\n    function isLandInspector(address _id) public view returns (bool) {\n        if(0x964dE87B240fe4e50cf07606791ddAf3405a9888 == _id){\n            return true;\n        }else{\n            return false;\n        }\n    }\n\n    function isBuyer(address _id) public view returns (bool) {\n        if(RegisteredBuyerMapping[_id]){\n            return true;\n        }\n    }\n    function isRegistered(address _id) public view returns (bool) {\n        if(RegisteredAddressMapping[_id]){\n            return true;\n        }\n    }\n\n    function addLand(uint _area, string memory _location, uint landPrice) public {\n        // let landImg = \"https://images.unsplash.com/photo-1597843736176-23c29f7187f7?ixid=MXwxMjA3fDB8MHxwaG90by1wYWdlfHx8fGVufDB8fHw%3D&ixlib=rb-1.2.1&auto=format&fit=crop&w=1489&q=80\";\n        require((isSeller(msg.sender)) && (isVerified(msg.sender)));\n        landsCount++;\n        lands[landsCount] = Landreg(landsCount, _area, _location, false, landPrice);\n        LandOwner[landsCount] = msg.sender;\n        // emit AddingLand(landsCount);\n    }\n\n    //registration of seller\n    function registerSeller(string memory _name, uint _age, string memory _aadharNumber, string memory _panNumber, string memory _landsOwned) public {\n        //require that Buyer is not already registered\n        require(!RegisteredAddressMapping[msg.sender]);\n\n        RegisteredAddressMapping[msg.sender] = true;\n        RegisteredSellerMapping[msg.sender] = true ;\n        sellersCount++;\n        SellerMapping[msg.sender] = Seller(msg.sender, _name, _age, _aadharNumber,_panNumber, _landsOwned);\n        sellers.push(msg.sender);\n        emit Registration(msg.sender);\n    }\n\n    function getSeller() public view returns( address [] memory ){\n        return(sellers);\n    }\n\n    function getSellerDetails(address i) public view returns (string memory, uint, string memory, string memory, string memory) {\n        return (SellerMapping[i].name, SellerMapping[i].age, SellerMapping[i].aadharNumber, SellerMapping[i].panNumber, SellerMapping[i].landsOwned);\n    }\n\n    function registerBuyer(string memory _name, uint _age, string memory _city, string memory _state, string memory _aadharNumber, string memory _panNumber) public {\n        //require that Buyer is not already registered\n        require(!RegisteredAddressMapping[msg.sender]);\n\n        RegisteredAddressMapping[msg.sender] = true;\n        RegisteredBuyerMapping[msg.sender] = true ;\n        buyersCount++;\n        BuyerMapping[msg.sender] = Buyer(msg.sender, _name, _age, _city, _state, _aadharNumber, _panNumber);\n        buyers.push(msg.sender);\n\n        emit Registration(msg.sender);\n    }\n\n    function getBuyer() public view returns( address [] memory ){\n        return(buyers);\n    }\n\n    function getBuyerDetails(address i) public view returns (string memory, uint, string memory, string memory, string memory, string memory) {\n        return (BuyerMapping[i].name, BuyerMapping[i].age,BuyerMapping[i].city,BuyerMapping[i].state,  BuyerMapping[i].aadharNumber, BuyerMapping[i].panNumber);\n    }\n\n    // function getAllRequests() public view returns (LandRequest[] memory){\n    //     return RequestsMapping;\n    // }\n\n    function requestLand(address _sellerId, uint _landId) public{\n        require(isBuyer(msg.sender) && isVerified(msg.sender));\n        \n        // LandRequest memory newReq =  LandRequest({\n        //     sellerId: _sellerId,\n        //     buyerId: msg.sender,\n        //     landId: _landId,\n        //     requestStatus: false, \n        //     requested: true});\n    \n        // RequestsMapping.push(newReq);\n        // BuyertoSellerMapping[msg.sender] = _sellerId;\n        // BuyertoLandMapping[msg.sender] = _landId;\n        // BuyertoStatusMapping[msg.sender] = false;\n        requestsCount++;\n        RequestsMapping[requestsCount] = LandRequest(requestsCount, _sellerId, msg.sender, _landId);\n        RequestStatus[requestsCount] = false;\n        RequestedLands[requestsCount] = true;\n\n        emit Landrequested(_sellerId);\n        // RequestsMapping[msg.sender] = LandRequest(_sellerId, _landId, false);\n    }\n\n    function getRequestDetails (uint i) public view returns (address, address, uint, bool) {\n        return(RequestsMapping[i].sellerId, RequestsMapping[i].buyerId, RequestsMapping[i].landId, RequestStatus[i]);\n    }\n\n    function isRequested(uint _id) public view returns (bool) {\n        if(RequestedLands[_id]){\n            return true;\n        }\n    }\n\n    function isApproved(uint _id) public view returns (bool) {\n        if(RequestStatus[_id]){\n            return true;\n        }\n    }\n\n    function approveRequest(uint _reqId) public {\n        require((isSeller(msg.sender)) && (isVerified(msg.sender)));\n\n        // // req.requestStatus = true;\n        // if((BuyertoSellerMapping[_buyerId] == msg.sender) && (BuyertoLandMapping[_buyerId] == _landId)){\n        //     BuyertoStatusMapping[_buyerId] = true;\n        // }\n        RequestStatus[_reqId] = true;\n\n        // emit requestApproved(req.buyerId);\n    }\n\n    function LandOwnershipTransfer(uint _landId, address _newOwner) public{\n        require(isLandInspector(msg.sender));\n\n        LandOwner[_landId] = _newOwner;\n    }\n\n}",
  "sourcePath": "/home/intel123/SE Project/Land_registration/SE-Project/contracts/Land.sol",
  "compiler": {
    "name": "solc",
    "version": "0.5.16+commit.9c3226ce.Emscripten.clang"
  },
  "schemaVersion": "3.3.4",
  "updatedAt": "2021-04-17T08:54:08.992Z",
  "networkType": "ethereum",
  "devdoc": {
    "methods": {}
  },
  "userdoc": {
    "methods": {}
  }
}