{
  "contractName": "Land",
  "abi": [
    {
      "inputs": [],
      "payable": false,
      "stateMutability": "nonpayable",
      "type": "constructor"
    },
    {
      "anonymous": false,
      "inputs": [
        {
          "indexed": true,
          "internalType": "uint256",
          "name": "_landId",
          "type": "uint256"
        }
      ],
      "name": "AddingLand",
      "type": "event"
    },
    {
      "anonymous": false,
      "inputs": [
        {
          "indexed": false,
          "internalType": "address",
          "name": "_sellerId",
          "type": "address"
        }
      ],
      "name": "Landrequested",
      "type": "event"
    },
    {
      "anonymous": false,
      "inputs": [
        {
          "indexed": false,
          "internalType": "address",
          "name": "_registrationId",
          "type": "address"
        }
      ],
      "name": "Registration",
      "type": "event"
    },
    {
      "anonymous": false,
      "inputs": [
        {
          "indexed": false,
          "internalType": "address",
          "name": "_id",
          "type": "address"
        }
      ],
      "name": "Rejected",
      "type": "event"
    },
    {
      "anonymous": false,
      "inputs": [
        {
          "indexed": false,
          "internalType": "address",
          "name": "_id",
          "type": "address"
        }
      ],
      "name": "Verified",
      "type": "event"
    },
    {
      "anonymous": false,
      "inputs": [
        {
          "indexed": false,
          "internalType": "address",
          "name": "_buyerId",
          "type": "address"
        }
      ],
      "name": "requestApproved",
      "type": "event"
    },
    {
      "constant": true,
      "inputs": [
        {
          "internalType": "address",
          "name": "",
          "type": "address"
        }
      ],
      "name": "BuyerMapping",
      "outputs": [
        {
          "internalType": "address",
          "name": "id",
          "type": "address"
        },
        {
          "internalType": "string",
          "name": "name",
          "type": "string"
        },
        {
          "internalType": "uint256",
          "name": "age",
          "type": "uint256"
        },
        {
          "internalType": "string",
          "name": "city",
          "type": "string"
        },
        {
          "internalType": "string",
          "name": "aadharNumber",
          "type": "string"
        },
        {
          "internalType": "string",
          "name": "panNumber",
          "type": "string"
        },
        {
          "internalType": "string",
          "name": "document",
          "type": "string"
        },
        {
          "internalType": "string",
          "name": "email",
          "type": "string"
        }
      ],
      "payable": false,
      "stateMutability": "view",
      "type": "function"
    },
    {
      "constant": true,
      "inputs": [
        {
          "internalType": "address",
          "name": "",
          "type": "address"
        }
      ],
      "name": "BuyerRejection",
      "outputs": [
        {
          "internalType": "bool",
          "name": "",
          "type": "bool"
        }
      ],
      "payable": false,
      "stateMutability": "view",
      "type": "function"
    },
    {
      "constant": true,
      "inputs": [
        {
          "internalType": "address",
          "name": "",
          "type": "address"
        }
      ],
      "name": "BuyerVerification",
      "outputs": [
        {
          "internalType": "bool",
          "name": "",
          "type": "bool"
        }
      ],
      "payable": false,
      "stateMutability": "view",
      "type": "function"
    },
    {
      "constant": true,
      "inputs": [
        {
          "internalType": "uint256",
          "name": "",
          "type": "uint256"
        }
      ],
      "name": "InspectorMapping",
      "outputs": [
        {
          "internalType": "uint256",
          "name": "id",
          "type": "uint256"
        },
        {
          "internalType": "string",
          "name": "name",
          "type": "string"
        },
        {
          "internalType": "uint256",
          "name": "age",
          "type": "uint256"
        },
        {
          "internalType": "string",
          "name": "designation",
          "type": "string"
        }
      ],
      "payable": false,
      "stateMutability": "view",
      "type": "function"
    },
    {
      "constant": true,
      "inputs": [
        {
          "internalType": "uint256",
          "name": "",
          "type": "uint256"
        }
      ],
      "name": "LandOwner",
      "outputs": [
        {
          "internalType": "address",
          "name": "",
          "type": "address"
        }
      ],
      "payable": false,
      "stateMutability": "view",
      "type": "function"
    },
    {
      "constant": true,
      "inputs": [
        {
          "internalType": "uint256",
          "name": "",
          "type": "uint256"
        }
      ],
      "name": "LandVerification",
      "outputs": [
        {
          "internalType": "bool",
          "name": "",
          "type": "bool"
        }
      ],
      "payable": false,
      "stateMutability": "view",
      "type": "function"
    },
    {
      "constant": true,
      "inputs": [],
      "name": "Land_Inspector",
      "outputs": [
        {
          "internalType": "address",
          "name": "",
          "type": "address"
        }
      ],
      "payable": false,
      "stateMutability": "view",
      "type": "function"
    },
    {
      "constant": true,
      "inputs": [
        {
          "internalType": "uint256",
          "name": "",
          "type": "uint256"
        }
      ],
      "name": "PaymentReceived",
      "outputs": [
        {
          "internalType": "bool",
          "name": "",
          "type": "bool"
        }
      ],
      "payable": false,
      "stateMutability": "view",
      "type": "function"
    },
    {
      "constant": true,
      "inputs": [
        {
          "internalType": "address",
          "name": "",
          "type": "address"
        }
      ],
      "name": "RegisteredAddressMapping",
      "outputs": [
        {
          "internalType": "bool",
          "name": "",
          "type": "bool"
        }
      ],
      "payable": false,
      "stateMutability": "view",
      "type": "function"
    },
    {
      "constant": true,
      "inputs": [
        {
          "internalType": "address",
          "name": "",
          "type": "address"
        }
      ],
      "name": "RegisteredBuyerMapping",
      "outputs": [
        {
          "internalType": "bool",
          "name": "",
          "type": "bool"
        }
      ],
      "payable": false,
      "stateMutability": "view",
      "type": "function"
    },
    {
      "constant": true,
      "inputs": [
        {
          "internalType": "address",
          "name": "",
          "type": "address"
        }
      ],
      "name": "RegisteredSellerMapping",
      "outputs": [
        {
          "internalType": "bool",
          "name": "",
          "type": "bool"
        }
      ],
      "payable": false,
      "stateMutability": "view",
      "type": "function"
    },
    {
      "constant": true,
      "inputs": [
        {
          "internalType": "uint256",
          "name": "",
          "type": "uint256"
        }
      ],
      "name": "RequestStatus",
      "outputs": [
        {
          "internalType": "bool",
          "name": "",
          "type": "bool"
        }
      ],
      "payable": false,
      "stateMutability": "view",
      "type": "function"
    },
    {
      "constant": true,
      "inputs": [
        {
          "internalType": "uint256",
          "name": "",
          "type": "uint256"
        }
      ],
      "name": "RequestedLands",
      "outputs": [
        {
          "internalType": "bool",
          "name": "",
          "type": "bool"
        }
      ],
      "payable": false,
      "stateMutability": "view",
      "type": "function"
    },
    {
      "constant": true,
      "inputs": [
        {
          "internalType": "uint256",
          "name": "",
          "type": "uint256"
        }
      ],
      "name": "RequestsMapping",
      "outputs": [
        {
          "internalType": "uint256",
          "name": "reqId",
          "type": "uint256"
        },
        {
          "internalType": "address",
          "name": "sellerId",
          "type": "address"
        },
        {
          "internalType": "address",
          "name": "buyerId",
          "type": "address"
        },
        {
          "internalType": "uint256",
          "name": "landId",
          "type": "uint256"
        }
      ],
      "payable": false,
      "stateMutability": "view",
      "type": "function"
    },
    {
      "constant": true,
      "inputs": [
        {
          "internalType": "address",
          "name": "",
          "type": "address"
        }
      ],
      "name": "SellerMapping",
      "outputs": [
        {
          "internalType": "address",
          "name": "id",
          "type": "address"
        },
        {
          "internalType": "string",
          "name": "name",
          "type": "string"
        },
        {
          "internalType": "uint256",
          "name": "age",
          "type": "uint256"
        },
        {
          "internalType": "string",
          "name": "aadharNumber",
          "type": "string"
        },
        {
          "internalType": "string",
          "name": "panNumber",
          "type": "string"
        },
        {
          "internalType": "string",
          "name": "landsOwned",
          "type": "string"
        },
        {
          "internalType": "string",
          "name": "document",
          "type": "string"
        }
      ],
      "payable": false,
      "stateMutability": "view",
      "type": "function"
    },
    {
      "constant": true,
      "inputs": [
        {
          "internalType": "address",
          "name": "",
          "type": "address"
        }
      ],
      "name": "SellerRejection",
      "outputs": [
        {
          "internalType": "bool",
          "name": "",
          "type": "bool"
        }
      ],
      "payable": false,
      "stateMutability": "view",
      "type": "function"
    },
    {
      "constant": true,
      "inputs": [
        {
          "internalType": "address",
          "name": "",
          "type": "address"
        }
      ],
      "name": "SellerVerification",
      "outputs": [
        {
          "internalType": "bool",
          "name": "",
          "type": "bool"
        }
      ],
      "payable": false,
      "stateMutability": "view",
      "type": "function"
    },
    {
      "constant": true,
      "inputs": [
        {
          "internalType": "uint256",
          "name": "",
          "type": "uint256"
        }
      ],
      "name": "buyers",
      "outputs": [
        {
          "internalType": "address",
          "name": "",
          "type": "address"
        }
      ],
      "payable": false,
      "stateMutability": "view",
      "type": "function"
    },
    {
      "constant": true,
      "inputs": [],
      "name": "buyersCount",
      "outputs": [
        {
          "internalType": "uint256",
          "name": "",
          "type": "uint256"
        }
      ],
      "payable": false,
      "stateMutability": "view",
      "type": "function"
    },
    {
      "constant": true,
      "inputs": [],
      "name": "inspectorsCount",
      "outputs": [
        {
          "internalType": "uint256",
          "name": "",
          "type": "uint256"
        }
      ],
      "payable": false,
      "stateMutability": "view",
      "type": "function"
    },
    {
      "constant": true,
      "inputs": [
        {
          "internalType": "uint256",
          "name": "",
          "type": "uint256"
        }
      ],
      "name": "lands",
      "outputs": [
        {
          "internalType": "uint256",
          "name": "id",
          "type": "uint256"
        },
        {
          "internalType": "uint256",
          "name": "area",
          "type": "uint256"
        },
        {
          "internalType": "string",
          "name": "city",
          "type": "string"
        },
        {
          "internalType": "string",
          "name": "state",
          "type": "string"
        },
        {
          "internalType": "uint256",
          "name": "landPrice",
          "type": "uint256"
        },
        {
          "internalType": "uint256",
          "name": "propertyPID",
          "type": "uint256"
        },
        {
          "internalType": "uint256",
          "name": "physicalSurveyNumber",
          "type": "uint256"
        },
        {
          "internalType": "string",
          "name": "ipfsHash",
          "type": "string"
        },
        {
          "internalType": "string",
          "name": "document",
          "type": "string"
        }
      ],
      "payable": false,
      "stateMutability": "view",
      "type": "function"
    },
    {
      "constant": true,
      "inputs": [],
      "name": "landsCount",
      "outputs": [
        {
          "internalType": "uint256",
          "name": "",
          "type": "uint256"
        }
      ],
      "payable": false,
      "stateMutability": "view",
      "type": "function"
    },
    {
      "constant": true,
      "inputs": [],
      "name": "requestsCount",
      "outputs": [
        {
          "internalType": "uint256",
          "name": "",
          "type": "uint256"
        }
      ],
      "payable": false,
      "stateMutability": "view",
      "type": "function"
    },
    {
      "constant": true,
      "inputs": [
        {
          "internalType": "uint256",
          "name": "",
          "type": "uint256"
        }
      ],
      "name": "sellers",
      "outputs": [
        {
          "internalType": "address",
          "name": "",
          "type": "address"
        }
      ],
      "payable": false,
      "stateMutability": "view",
      "type": "function"
    },
    {
      "constant": true,
      "inputs": [],
      "name": "sellersCount",
      "outputs": [
        {
          "internalType": "uint256",
          "name": "",
          "type": "uint256"
        }
      ],
      "payable": false,
      "stateMutability": "view",
      "type": "function"
    },
    {
      "constant": true,
      "inputs": [],
      "name": "getLandsCount",
      "outputs": [
        {
          "internalType": "uint256",
          "name": "",
          "type": "uint256"
        }
      ],
      "payable": false,
      "stateMutability": "view",
      "type": "function"
    },
    {
      "constant": true,
      "inputs": [],
      "name": "getBuyersCount",
      "outputs": [
        {
          "internalType": "uint256",
          "name": "",
          "type": "uint256"
        }
      ],
      "payable": false,
      "stateMutability": "view",
      "type": "function"
    },
    {
      "constant": true,
      "inputs": [],
      "name": "getSellersCount",
      "outputs": [
        {
          "internalType": "uint256",
          "name": "",
          "type": "uint256"
        }
      ],
      "payable": false,
      "stateMutability": "view",
      "type": "function"
    },
    {
      "constant": true,
      "inputs": [],
      "name": "getRequestsCount",
      "outputs": [
        {
          "internalType": "uint256",
          "name": "",
          "type": "uint256"
        }
      ],
      "payable": false,
      "stateMutability": "view",
      "type": "function"
    },
    {
      "constant": true,
      "inputs": [
        {
          "internalType": "uint256",
          "name": "i",
          "type": "uint256"
        }
      ],
      "name": "getArea",
      "outputs": [
        {
          "internalType": "uint256",
          "name": "",
          "type": "uint256"
        }
      ],
      "payable": false,
      "stateMutability": "view",
      "type": "function"
    },
    {
      "constant": true,
      "inputs": [
        {
          "internalType": "uint256",
          "name": "i",
          "type": "uint256"
        }
      ],
      "name": "getCity",
      "outputs": [
        {
          "internalType": "string",
          "name": "",
          "type": "string"
        }
      ],
      "payable": false,
      "stateMutability": "view",
      "type": "function"
    },
    {
      "constant": true,
      "inputs": [
        {
          "internalType": "uint256",
          "name": "i",
          "type": "uint256"
        }
      ],
      "name": "getState",
      "outputs": [
        {
          "internalType": "string",
          "name": "",
          "type": "string"
        }
      ],
      "payable": false,
      "stateMutability": "view",
      "type": "function"
    },
    {
      "constant": true,
      "inputs": [
        {
          "internalType": "uint256",
          "name": "i",
          "type": "uint256"
        }
      ],
      "name": "getPrice",
      "outputs": [
        {
          "internalType": "uint256",
          "name": "",
          "type": "uint256"
        }
      ],
      "payable": false,
      "stateMutability": "view",
      "type": "function"
    },
    {
      "constant": true,
      "inputs": [
        {
          "internalType": "uint256",
          "name": "i",
          "type": "uint256"
        }
      ],
      "name": "getPID",
      "outputs": [
        {
          "internalType": "uint256",
          "name": "",
          "type": "uint256"
        }
      ],
      "payable": false,
      "stateMutability": "view",
      "type": "function"
    },
    {
      "constant": true,
      "inputs": [
        {
          "internalType": "uint256",
          "name": "i",
          "type": "uint256"
        }
      ],
      "name": "getSurveyNumber",
      "outputs": [
        {
          "internalType": "uint256",
          "name": "",
          "type": "uint256"
        }
      ],
      "payable": false,
      "stateMutability": "view",
      "type": "function"
    },
    {
      "constant": true,
      "inputs": [
        {
          "internalType": "uint256",
          "name": "i",
          "type": "uint256"
        }
      ],
      "name": "getImage",
      "outputs": [
        {
          "internalType": "string",
          "name": "",
          "type": "string"
        }
      ],
      "payable": false,
      "stateMutability": "view",
      "type": "function"
    },
    {
      "constant": true,
      "inputs": [
        {
          "internalType": "uint256",
          "name": "i",
          "type": "uint256"
        }
      ],
      "name": "getDocument",
      "outputs": [
        {
          "internalType": "string",
          "name": "",
          "type": "string"
        }
      ],
      "payable": false,
      "stateMutability": "view",
      "type": "function"
    },
    {
      "constant": true,
      "inputs": [
        {
          "internalType": "uint256",
          "name": "id",
          "type": "uint256"
        }
      ],
      "name": "getLandOwner",
      "outputs": [
        {
          "internalType": "address",
          "name": "",
          "type": "address"
        }
      ],
      "payable": false,
      "stateMutability": "view",
      "type": "function"
    },
    {
      "constant": false,
      "inputs": [
        {
          "internalType": "address",
          "name": "_sellerId",
          "type": "address"
        }
      ],
      "name": "verifySeller",
      "outputs": [],
      "payable": false,
      "stateMutability": "nonpayable",
      "type": "function"
    },
    {
      "constant": false,
      "inputs": [
        {
          "internalType": "address",
          "name": "_sellerId",
          "type": "address"
        }
      ],
      "name": "rejectSeller",
      "outputs": [],
      "payable": false,
      "stateMutability": "nonpayable",
      "type": "function"
    },
    {
      "constant": false,
      "inputs": [
        {
          "internalType": "address",
          "name": "_buyerId",
          "type": "address"
        }
      ],
      "name": "verifyBuyer",
      "outputs": [],
      "payable": false,
      "stateMutability": "nonpayable",
      "type": "function"
    },
    {
      "constant": false,
      "inputs": [
        {
          "internalType": "address",
          "name": "_buyerId",
          "type": "address"
        }
      ],
      "name": "rejectBuyer",
      "outputs": [],
      "payable": false,
      "stateMutability": "nonpayable",
      "type": "function"
    },
    {
      "constant": false,
      "inputs": [
        {
          "internalType": "uint256",
          "name": "_landId",
          "type": "uint256"
        }
      ],
      "name": "verifyLand",
      "outputs": [],
      "payable": false,
      "stateMutability": "nonpayable",
      "type": "function"
    },
    {
      "constant": true,
      "inputs": [
        {
          "internalType": "uint256",
          "name": "_id",
          "type": "uint256"
        }
      ],
      "name": "isLandVerified",
      "outputs": [
        {
          "internalType": "bool",
          "name": "",
          "type": "bool"
        }
      ],
      "payable": false,
      "stateMutability": "view",
      "type": "function"
    },
    {
      "constant": true,
      "inputs": [
        {
          "internalType": "address",
          "name": "_id",
          "type": "address"
        }
      ],
      "name": "isVerified",
      "outputs": [
        {
          "internalType": "bool",
          "name": "",
          "type": "bool"
        }
      ],
      "payable": false,
      "stateMutability": "view",
      "type": "function"
    },
    {
      "constant": true,
      "inputs": [
        {
          "internalType": "address",
          "name": "_id",
          "type": "address"
        }
      ],
      "name": "isRejected",
      "outputs": [
        {
          "internalType": "bool",
          "name": "",
          "type": "bool"
        }
      ],
      "payable": false,
      "stateMutability": "view",
      "type": "function"
    },
    {
      "constant": true,
      "inputs": [
        {
          "internalType": "address",
          "name": "_id",
          "type": "address"
        }
      ],
      "name": "isSeller",
      "outputs": [
        {
          "internalType": "bool",
          "name": "",
          "type": "bool"
        }
      ],
      "payable": false,
      "stateMutability": "view",
      "type": "function"
    },
    {
      "constant": true,
      "inputs": [
        {
          "internalType": "address",
          "name": "_id",
          "type": "address"
        }
      ],
      "name": "isLandInspector",
      "outputs": [
        {
          "internalType": "bool",
          "name": "",
          "type": "bool"
        }
      ],
      "payable": false,
      "stateMutability": "view",
      "type": "function"
    },
    {
      "constant": true,
      "inputs": [
        {
          "internalType": "address",
          "name": "_id",
          "type": "address"
        }
      ],
      "name": "isBuyer",
      "outputs": [
        {
          "internalType": "bool",
          "name": "",
          "type": "bool"
        }
      ],
      "payable": false,
      "stateMutability": "view",
      "type": "function"
    },
    {
      "constant": true,
      "inputs": [
        {
          "internalType": "address",
          "name": "_id",
          "type": "address"
        }
      ],
      "name": "isRegistered",
      "outputs": [
        {
          "internalType": "bool",
          "name": "",
          "type": "bool"
        }
      ],
      "payable": false,
      "stateMutability": "view",
      "type": "function"
    },
    {
      "constant": false,
      "inputs": [
        {
          "internalType": "uint256",
          "name": "_area",
          "type": "uint256"
        },
        {
          "internalType": "string",
          "name": "_city",
          "type": "string"
        },
        {
          "internalType": "string",
          "name": "_state",
          "type": "string"
        },
        {
          "internalType": "uint256",
          "name": "landPrice",
          "type": "uint256"
        },
        {
          "internalType": "uint256",
          "name": "_propertyPID",
          "type": "uint256"
        },
        {
          "internalType": "uint256",
          "name": "_surveyNum",
          "type": "uint256"
        },
        {
          "internalType": "string",
          "name": "_ipfsHash",
          "type": "string"
        },
        {
          "internalType": "string",
          "name": "_document",
          "type": "string"
        }
      ],
      "name": "addLand",
      "outputs": [],
      "payable": false,
      "stateMutability": "nonpayable",
      "type": "function"
    },
    {
      "constant": false,
      "inputs": [
        {
          "internalType": "string",
          "name": "_name",
          "type": "string"
        },
        {
          "internalType": "uint256",
          "name": "_age",
          "type": "uint256"
        },
        {
          "internalType": "string",
          "name": "_aadharNumber",
          "type": "string"
        },
        {
          "internalType": "string",
          "name": "_panNumber",
          "type": "string"
        },
        {
          "internalType": "string",
          "name": "_landsOwned",
          "type": "string"
        },
        {
          "internalType": "string",
          "name": "_document",
          "type": "string"
        }
      ],
      "name": "registerSeller",
      "outputs": [],
      "payable": false,
      "stateMutability": "nonpayable",
      "type": "function"
    },
    {
      "constant": false,
      "inputs": [
        {
          "internalType": "string",
          "name": "_name",
          "type": "string"
        },
        {
          "internalType": "uint256",
          "name": "_age",
          "type": "uint256"
        },
        {
          "internalType": "string",
          "name": "_aadharNumber",
          "type": "string"
        },
        {
          "internalType": "string",
          "name": "_panNumber",
          "type": "string"
        },
        {
          "internalType": "string",
          "name": "_landsOwned",
          "type": "string"
        }
      ],
      "name": "updateSeller",
      "outputs": [],
      "payable": false,
      "stateMutability": "nonpayable",
      "type": "function"
    },
    {
      "constant": true,
      "inputs": [],
      "name": "getSeller",
      "outputs": [
        {
          "internalType": "address[]",
          "name": "",
          "type": "address[]"
        }
      ],
      "payable": false,
      "stateMutability": "view",
      "type": "function"
    },
    {
      "constant": true,
      "inputs": [
        {
          "internalType": "address",
          "name": "i",
          "type": "address"
        }
      ],
      "name": "getSellerDetails",
      "outputs": [
        {
          "internalType": "string",
          "name": "",
          "type": "string"
        },
        {
          "internalType": "uint256",
          "name": "",
          "type": "uint256"
        },
        {
          "internalType": "string",
          "name": "",
          "type": "string"
        },
        {
          "internalType": "string",
          "name": "",
          "type": "string"
        },
        {
          "internalType": "string",
          "name": "",
          "type": "string"
        },
        {
          "internalType": "string",
          "name": "",
          "type": "string"
        }
      ],
      "payable": false,
      "stateMutability": "view",
      "type": "function"
    },
    {
      "constant": false,
      "inputs": [
        {
          "internalType": "string",
          "name": "_name",
          "type": "string"
        },
        {
          "internalType": "uint256",
          "name": "_age",
          "type": "uint256"
        },
        {
          "internalType": "string",
          "name": "_city",
          "type": "string"
        },
        {
          "internalType": "string",
          "name": "_aadharNumber",
          "type": "string"
        },
        {
          "internalType": "string",
          "name": "_panNumber",
          "type": "string"
        },
        {
          "internalType": "string",
          "name": "_document",
          "type": "string"
        },
        {
          "internalType": "string",
          "name": "_email",
          "type": "string"
        }
      ],
      "name": "registerBuyer",
      "outputs": [],
      "payable": false,
      "stateMutability": "nonpayable",
      "type": "function"
    },
    {
      "constant": false,
      "inputs": [
        {
          "internalType": "string",
          "name": "_name",
          "type": "string"
        },
        {
          "internalType": "string",
          "name": "_city",
          "type": "string"
        },
        {
          "internalType": "string",
          "name": "_email",
          "type": "string"
        },
        {
          "internalType": "string",
          "name": "_panNumber",
          "type": "string"
        }
      ],
      "name": "updateBuyer",
      "outputs": [],
      "payable": false,
      "stateMutability": "nonpayable",
      "type": "function"
    },
    {
      "constant": true,
      "inputs": [],
      "name": "getBuyer",
      "outputs": [
        {
          "internalType": "address[]",
          "name": "",
          "type": "address[]"
        }
      ],
      "payable": false,
      "stateMutability": "view",
      "type": "function"
    },
    {
      "constant": true,
      "inputs": [
        {
          "internalType": "address",
          "name": "i",
          "type": "address"
        }
      ],
      "name": "getBuyerDetails",
      "outputs": [
        {
          "internalType": "string",
          "name": "",
          "type": "string"
        },
        {
          "internalType": "string",
          "name": "",
          "type": "string"
        },
        {
          "internalType": "string",
          "name": "",
          "type": "string"
        },
        {
          "internalType": "string",
          "name": "",
          "type": "string"
        },
        {
          "internalType": "string",
          "name": "",
          "type": "string"
        }
      ],
      "payable": false,
      "stateMutability": "view",
      "type": "function"
    },
    {
      "constant": false,
      "inputs": [
        {
          "internalType": "address",
          "name": "_sellerId",
          "type": "address"
        },
        {
          "internalType": "uint256",
          "name": "_landId",
          "type": "uint256"
        }
      ],
      "name": "requestLand",
      "outputs": [],
      "payable": false,
      "stateMutability": "nonpayable",
      "type": "function"
    },
    {
      "constant": true,
      "inputs": [
        {
          "internalType": "uint256",
          "name": "i",
          "type": "uint256"
        }
      ],
      "name": "getRequestDetails",
      "outputs": [
        {
          "internalType": "address",
          "name": "",
          "type": "address"
        },
        {
          "internalType": "address",
          "name": "",
          "type": "address"
        },
        {
          "internalType": "uint256",
          "name": "",
          "type": "uint256"
        },
        {
          "internalType": "bool",
          "name": "",
          "type": "bool"
        }
      ],
      "payable": false,
      "stateMutability": "view",
      "type": "function"
    },
    {
      "constant": true,
      "inputs": [
        {
          "internalType": "uint256",
          "name": "_id",
          "type": "uint256"
        }
      ],
      "name": "isRequested",
      "outputs": [
        {
          "internalType": "bool",
          "name": "",
          "type": "bool"
        }
      ],
      "payable": false,
      "stateMutability": "view",
      "type": "function"
    },
    {
      "constant": true,
      "inputs": [
        {
          "internalType": "uint256",
          "name": "_id",
          "type": "uint256"
        }
      ],
      "name": "isApproved",
      "outputs": [
        {
          "internalType": "bool",
          "name": "",
          "type": "bool"
        }
      ],
      "payable": false,
      "stateMutability": "view",
      "type": "function"
    },
    {
      "constant": false,
      "inputs": [
        {
          "internalType": "uint256",
          "name": "_reqId",
          "type": "uint256"
        }
      ],
      "name": "approveRequest",
      "outputs": [],
      "payable": false,
      "stateMutability": "nonpayable",
      "type": "function"
    },
    {
      "constant": false,
      "inputs": [
        {
          "internalType": "uint256",
          "name": "_landId",
          "type": "uint256"
        },
        {
          "internalType": "address",
          "name": "_newOwner",
          "type": "address"
        }
      ],
      "name": "LandOwnershipTransfer",
      "outputs": [],
      "payable": false,
      "stateMutability": "nonpayable",
      "type": "function"
    },
    {
      "constant": true,
      "inputs": [
        {
          "internalType": "uint256",
          "name": "_landId",
          "type": "uint256"
        }
      ],
      "name": "isPaid",
      "outputs": [
        {
          "internalType": "bool",
          "name": "",
          "type": "bool"
        }
      ],
      "payable": false,
      "stateMutability": "view",
      "type": "function"
    },
    {
      "constant": false,
      "inputs": [
        {
          "internalType": "address payable",
          "name": "_receiver",
          "type": "address"
        },
        {
          "internalType": "uint256",
          "name": "_landId",
          "type": "uint256"
        }
      ],
      "name": "payment",
      "outputs": [],
      "payable": true,
      "stateMutability": "payable",
      "type": "function"
    }
  ],
  "bytecode": "0x60806040523480156200001157600080fd5b5060118054600160a060020a03191633179055604080518082018252600b81527f496e73706563746f7220310000000000000000000000000000000000000000006020808301919091528251808401909352600e83527f54656873696c204d616e6167657200000000000000000000000000000000000090830152620000a391602d90640100000000620000a9810204565b620001d7565b601580546001908101918290556040805160808101825283815260208082018881528284018890526060830187905260009586528482529290942081518155915180519194929362000102939085019291019062000132565b5060408201516002820155606082015180516200012a91600384019160209091019062000132565b505050505050565b828054600181600116156101000203166002900490600052602060002090601f016020900481019282601f106200017557805160ff1916838001178555620001a5565b82800160010185558215620001a5579182015b82811115620001a557825182559160200191906001019062000188565b50620001b3929150620001b7565b5090565b620001d491905b80821115620001b35760008155600101620001be565b90565b613b1480620001e76000396000f3fe608060405260043610610431576000357c010000000000000000000000000000000000000000000000000000000090048063a47d4c0211610245578063dd9d122d11610145578063e7572230116100d8578063f34d4c63116100a7578063f58f85b51161008c578063f58f85b514610c8b578063f9c43bdf14610cab578063fbfa4b7f14610ccb57610431565b8063f34d4c6314610c3b578063f3f0c21814610c6b57610431565b8063e757223014610bc6578063ee95feaf14610be6578063f0d3a9df14610c06578063f2aa821814610c1b57610431565b8063e1ecc79411610114578063e1ecc79414610b31578063e261f1e514610b51578063e4b2611514610b86578063e530c40014610ba657610431565b8063dd9d122d14610a99578063dec091ad14610aae578063def936c314610ae1578063e165af8714610b1157610431565b8063bed403c7116101d8578063cee26ed5116101a7578063d71306511161018c578063d713065114610a44578063d7d1bbdb14610a64578063dbd0e1b614610a8457610431565b8063cee26ed514610a04578063d1760e6014610a2457610431565b8063bed403c714610984578063c3c5a547146109a4578063c560b4e5146109c4578063cd392a83146109e457610431565b8063b0a5dcd311610214578063b0a5dcd3146108ed578063b3c8fe851461091d578063b9209e331461094f578063ba49a08c1461096f57610431565b8063a47d4c0214610859578063a4a0f6c014610879578063a6dc41fb14610899578063ab517074146108b957610431565b8063603daf9a116103505780637c3af68c116102e357806393383648116102b2578063989376b411610297578063989376b4146108045780639ae9711e146108245780639dc1bfa91461083957610431565b806393383648146107cf578063941e2426146107ef57610431565b80637c3af68c1461074f578063835465011461076f5780638965cde11461078f57806389d21354146107af57610431565b80636814800b1161031f5780636814800b146106be57806368cfe6ee146106de5780636cbf6cf81461070f5780637910867b1461072f57610431565b8063603daf9a1461064957806363f171431461066b5780636490c7a81461068b57806367a09c23146106ab57610431565b80632a55feec116103c857806348a46bd31161039757806348a46bd3146105c75780634daa9dae146105e75780634e2cba0914610607578063601e7c341461062957610431565b80632a55feec146105525780633410452a146105725780633f9b250a1461058757806344c9af28146105a757610431565b80631869a38b116104045780631869a38b146104d05780631a07f76e146104f05780631c9afd0f146105105780632607aafa1461052557610431565b806307d56ac014610436578063155fec721461046c57806316d9d66614610499578063170f3909146104ae575b600080fd5b34801561044257600080fd5b506104566104513660046133df565b610ce0565b60405161046391906138ad565b60405180910390f35b34801561047857600080fd5b5061048c6104873660046133df565b610cf8565b60405161046391906137a8565b3480156104a557600080fd5b50610456610d17565b3480156104ba57600080fd5b506104c3610d1e565b604051610463919061360c565b3480156104dc57600080fd5b506104c36104eb3660046133df565b610d2d565b3480156104fc57600080fd5b5061048c61050b3660046133df565b610d48565b34801561051c57600080fd5b50610456610d5d565b34801561053157600080fd5b506105456105403660046133df565b610d63565b60405161046391906137b6565b34801561055e57600080fd5b5061048c61056d366004612fc2565b610e05565b34801561057e57600080fd5b50610456610e2e565b34801561059357600080fd5b506105456105a23660046133df565b610e34565b3480156105b357600080fd5b506105456105c23660046133df565b610e9f565b3480156105d357600080fd5b5061048c6105e2366004612fc2565b610f0a565b3480156105f357600080fd5b5061048c6106023660046133df565b610f56565b34801561061357600080fd5b506106276106223660046132b4565b610f6b565b005b34801561063557600080fd5b5061048c610644366004612fc2565b611172565b34801561065557600080fd5b5061065e611187565b6040516104639190613790565b34801561067757600080fd5b5061048c610686366004612fc2565b6111e9565b34801561069757600080fd5b506104566106a63660046133df565b6111fe565b6106276106b9366004612fe8565b611213565b3480156106ca57600080fd5b506106276106d9366004612fc2565b611260565b3480156106ea57600080fd5b506106fe6106f9366004612fc2565b6112d0565b6040516104639594939291906137c7565b34801561071b57600080fd5b5061048c61072a3660046133df565b6115e3565b34801561073b57600080fd5b5061048c61074a3660046133df565b611602565b34801561075b57600080fd5b5061062761076a366004613022565b611621565b34801561077b57600080fd5b5061048c61078a3660046133df565b611701565b34801561079b57600080fd5b506106276107aa366004612fc2565b611716565b3480156107bb57600080fd5b5061048c6107ca3660046133df565b61177b565b3480156107db57600080fd5b506106276107ea3660046131b6565b611790565b3480156107fb57600080fd5b50610456611972565b34801561081057600080fd5b5061048c61081f366004612fc2565b611978565b34801561083057600080fd5b5061045661198d565b34801561084557600080fd5b506104c36108543660046133df565b611993565b34801561086557600080fd5b5061048c610874366004612fc2565b6119ae565b34801561088557600080fd5b506104566108943660046133df565b6119c3565b3480156108a557600080fd5b5061048c6108b4366004612fc2565b6119d8565b3480156108c557600080fd5b506108d96108d4366004612fc2565b6119ed565b6040516104639897969594939291906136f0565b3480156108f957600080fd5b5061090d6109083660046133df565b611d79565b60405161046394939291906138bb565b34801561092957600080fd5b5061093d610938366004612fc2565b611dad565b60405161046396959493929190613833565b34801561095b57600080fd5b5061048c61096a366004612fc2565b6120c3565b34801561097b57600080fd5b5061045661210e565b34801561099057600080fd5b5061062761099f3660046133fd565b612114565b3480156109b057600080fd5b5061048c6109bf366004612fc2565b612161565b3480156109d057600080fd5b506106276109df3660046130e2565b61218a565b3480156109f057600080fd5b5061048c6109ff3660046133df565b612271565b348015610a1057600080fd5b506104c3610a1f3660046133df565b612290565b348015610a3057600080fd5b50610627610a3f366004612fc2565b6122b7565b348015610a5057600080fd5b50610545610a5f3660046133df565b61231c565b348015610a7057600080fd5b50610627610a7f3660046133df565b61238a565b348015610a9057600080fd5b5061065e6123c7565b348015610aa557600080fd5b50610456612427565b348015610aba57600080fd5b50610ace610ac9366004612fc2565b61242d565b6040516104639796959493929190613666565b348015610aed57600080fd5b50610b01610afc3660046133df565b612726565b60405161046394939291906138f0565b348015610b1d57600080fd5b5061048c610b2c366004612fc2565b612864565b348015610b3d57600080fd5b50610627610b4c366004612fc2565b61288d565b348015610b5d57600080fd5b50610b71610b6c3660046133df565b6128f2565b6040516104639998979695949392919061393b565b348015610b9257600080fd5b5061048c610ba1366004612fc2565b612b5f565b348015610bb257600080fd5b50610627610bc136600461342d565b612b74565b348015610bd257600080fd5b50610456610be13660046133df565b612cca565b348015610bf257600080fd5b5061048c610c01366004612fc2565b612cdf565b348015610c1257600080fd5b50610456612d08565b348015610c2757600080fd5b506104c3610c363660046133df565b612d0e565b348015610c4757600080fd5b50610c5b610c563660046133df565b612d1b565b6040516104639493929190613628565b348015610c7757600080fd5b50610627610c86366004612fe8565b612d5d565b348015610c9757600080fd5b5061048c610ca6366004612fc2565b612e72565b348015610cb757600080fd5b50610627610cc63660046133df565b612e87565b348015610cd757600080fd5b50610456612eb4565b6000818152602081905260409020600501545b919050565b6000818152600f602052604081205460ff1615610cf357506001610cf3565b6014545b90565b601154600160a060020a031681565b6000908152600d6020526040902054600160a060020a031690565b60106020526000908152604090205460ff1681565b60145481565b6000818152602081815260409182902060070180548351601f6002600019610100600186161502019093169290920491820184900484028101840190945280845260609392830182828015610df95780601f10610dce57610100808354040283529160200191610df9565b820191906000526020600020905b815481529060010190602001808311610ddc57829003601f168201915b50505050509050919050565b600160a060020a03811660009081526007602052604081205460ff1615610cf357506001610cf3565b60185490565b6000818152602081815260409182902060080180548351601f6002600019610100600186161502019093169290920491820184900484028101840190945280845260609392830182828015610df95780601f10610dce57610100808354040283529160200191610df9565b6000818152602081815260409182902060030180548351601f6002600019610100600186161502019093169290920491820184900484028101840190945280845260609392830182828015610df95780601f10610dce57610100808354040283529160200191610df9565b600160a060020a03811660009081526009602052604081205460ff1680610f495750600160a060020a0382166000908152600b602052604090205460ff165b15610cf357506001610cf3565b600f6020526000908152604090205460ff1681565b3360009081526005602052604090205460ff1615610f8857600080fd5b3360008181526005602090815260408083208054600160ff1991821681179092556007845282852080549091168217905560178054820190558151610100810183528581528084018d81528184018d9052606082018c9052608082018b905260a082018a905260c0820189905260e0820188905295855260038452919093208151815473ffffffffffffffffffffffffffffffffffffffff1916600160a060020a03909116178155935180519194936110479390850192910190612eba565b50604082015160028201556060820151805161106d916003840191602090910190612eba565b5060808201518051611089916004840191602090910190612eba565b5060a082015180516110a5916005840191602090910190612eba565b5060c082015180516110c1916006840191602090910190612eba565b5060e082015180516110dd916007840191602090910190612eba565b5050601380546001810182556000919091527f66de8ffda797e3de9c05e8fc57b3bf0ec28a930d40b0d285d93c06501cf6a09001805473ffffffffffffffffffffffffffffffffffffffff1916339081179091556040517f478f5152d8fc568db3f8de9fb402fd9d98a1a7541ecfe434e59cf574fbfc55249250611161919061361a565b60405180910390a150505050505050565b60066020526000908152604090205460ff1681565b606060138054806020026020016040519081016040528092919081815260200182805480156111df57602002820191906000526020600020905b8154600160a060020a031681526001909101906020018083116111c1575b5050505050905090565b60096020526000908152604090205460ff1681565b60009081526020819052604090206001015490565b600081815260106020526040808220805460ff1916600117905551600160a060020a038416913480156108fc02929091818181858888f1935050505015801561125b57600080fd5b505050565b61126933612864565b61127257600080fd5b600160a060020a0381166000908152600a602052604090819020805460ff19166001179055517f6a6455914f452787eb3985452aceedc1000fb545e394eb3b370e3d08958e0a5b906112c590839061360c565b60405180910390a150565b600160a060020a038116600090815260036020818152604092839020600180820180548651600293821615610100026000190190911692909204601f810185900485028301850190965285825260609586958695869586959281019360058201936006830193600790930192909187918301828280156113915780601f1061136657610100808354040283529160200191611391565b820191906000526020600020905b81548152906001019060200180831161137457829003601f168201915b5050875460408051602060026001851615610100026000190190941693909304601f8101849004840282018401909252818152959a508994509250840190508282801561141f5780601f106113f45761010080835404028352916020019161141f565b820191906000526020600020905b81548152906001019060200180831161140257829003601f168201915b5050865460408051602060026001851615610100026000190190941693909304601f8101849004840282018401909252818152959950889450925084019050828280156114ad5780601f10611482576101008083540402835291602001916114ad565b820191906000526020600020905b81548152906001019060200180831161149057829003601f168201915b5050855460408051602060026001851615610100026000190190941693909304601f81018490048402820184019092528181529598508794509250840190508282801561153b5780601f106115105761010080835404028352916020019161153b565b820191906000526020600020905b81548152906001019060200180831161151e57829003601f168201915b5050845460408051602060026001851615610100026000190190941693909304601f8101849004840282018401909252818152959750869450925084019050828280156115c95780601f1061159e576101008083540402835291602001916115c9565b820191906000526020600020905b8154815290600101906020018083116115ac57829003601f168201915b505050505090509450945094509450945091939590929450565b6000818152600c602052604081205460ff1615610cf357506001610cf3565b6000818152600e602052604081205460ff1615610cf357506001610cf3565b3360009081526005602052604090205460ff168015611656575033600081815260036020526040902054600160a060020a0316145b61165f57600080fd5b336000908152600360209081526040909120855161168592600190920191870190612eba565b5033600090815260036020818152604090922085516116ac93919092019190860190612eba565b5033600090815260036020908152604090912083516116d392600790920191850190612eba565b5033600090815260036020908152604090912082516116fa92600590920191840190612eba565b5050505050565b600c6020526000908152604090205460ff1681565b61171f33612864565b61172857600080fd5b600160a060020a0381166000908152600b602052604090819020805460ff19166001179055517faf77f8960cf590e245ec8b6d41c193a5dcacad8986ae4eb57ac9e5be7b6af031906112c590839061360c565b600e6020526000908152604090205460ff1681565b3360009081526005602052604090205460ff16156117ad57600080fd5b3360008181526005602090815260408083208054600160ff199182168117909255600684528285208054909116821790556016805482019055815160e0810183528581528084018c81528184018c9052606082018b9052608082018a905260a0820189905260c0820188905295855260028452919093208151815473ffffffffffffffffffffffffffffffffffffffff1916600160a060020a03909116178155935180519194936118649390850192910190612eba565b50604082015160028201556060820151805161188a916003840191602090910190612eba565b50608082015180516118a6916004840191602090910190612eba565b5060a082015180516118c2916005840191602090910190612eba565b5060c082015180516118de916006840191602090910190612eba565b5050601280546001810182556000919091527fbb8a6a4669ba250d26cd7a459eca9d215f8307e33aebe50379bc5a3617ec344401805473ffffffffffffffffffffffffffffffffffffffff1916339081179091556040517f478f5152d8fc568db3f8de9fb402fd9d98a1a7541ecfe434e59cf574fbfc55249250611962919061361a565b60405180910390a1505050505050565b60155481565b600b6020526000908152604090205460ff1681565b60165481565b600d60205260009081526040902054600160a060020a031681565b60076020526000908152604090205460ff1681565b60009081526020819052604090206006015490565b600a6020526000908152604090205460ff1681565b6003602090815260009182526040918290208054600180830180548651600261010094831615949094026000190190911692909204601f8101869004860283018601909652858252600160a060020a03909216949293909290830182828015611a975780601f10611a6c57610100808354040283529160200191611a97565b820191906000526020600020905b815481529060010190602001808311611a7a57829003601f168201915b505050506002838101546003850180546040805160206001841615610100026000190190931695909504601f810183900483028601830190915280855295969295929450909190830182828015611b2f5780601f10611b0457610100808354040283529160200191611b2f565b820191906000526020600020905b815481529060010190602001808311611b1257829003601f168201915b5050505060048301805460408051602060026001851615610100026000190190941693909304601f8101849004840282018401909252818152949594935090830182828015611bbf5780601f10611b9457610100808354040283529160200191611bbf565b820191906000526020600020905b815481529060010190602001808311611ba257829003601f168201915b5050505060058301805460408051602060026001851615610100026000190190941693909304601f8101849004840282018401909252818152949594935090830182828015611c4f5780601f10611c2457610100808354040283529160200191611c4f565b820191906000526020600020905b815481529060010190602001808311611c3257829003601f168201915b5050505060068301805460408051602060026001851615610100026000190190941693909304601f8101849004840282018401909252818152949594935090830182828015611cdf5780601f10611cb457610100808354040283529160200191611cdf565b820191906000526020600020905b815481529060010190602001808311611cc257829003601f168201915b5050505060078301805460408051602060026001851615610100026000190190941693909304601f8101849004840282018401909252818152949594935090830182828015611d6f5780601f10611d4457610100808354040283529160200191611d6f565b820191906000526020600020905b815481529060010190602001808311611d5257829003601f168201915b5050505050905088565b60046020526000908152604090208054600182015460028301546003909301549192600160a060020a039182169291169084565b600160a060020a0381166000908152600260208181526040808420808401546001808301805485519281161561010002600019011696909604601f810186900486028201860190945283815260609695879586958695869593946003820193600483019360058401936006019291889190830182828015611e6f5780601f10611e4457610100808354040283529160200191611e6f565b820191906000526020600020905b815481529060010190602001808311611e5257829003601f168201915b5050875460408051602060026001851615610100026000190190941693909304601f8101849004840282018401909252818152959b5089945092508401905082828015611efd5780601f10611ed257610100808354040283529160200191611efd565b820191906000526020600020905b815481529060010190602001808311611ee057829003601f168201915b5050865460408051602060026001851615610100026000190190941693909304601f810184900484028201840190925281815295995088945092508401905082828015611f8b5780601f10611f6057610100808354040283529160200191611f8b565b820191906000526020600020905b815481529060010190602001808311611f6e57829003601f168201915b5050855460408051602060026001851615610100026000190190941693909304601f8101849004840282018401909252818152959850879450925084019050828280156120195780601f10611fee57610100808354040283529160200191612019565b820191906000526020600020905b815481529060010190602001808311611ffc57829003601f168201915b5050845460408051602060026001851615610100026000190190941693909304601f8101849004840282018401909252818152959750869450925084019050828280156120a75780601f1061207c576101008083540402835291602001916120a7565b820191906000526020600020905b81548152906001019060200180831161208a57829003601f168201915b5050505050905095509550955095509550955091939550919395565b600160a060020a03811660009081526008602052604081205460ff1680610f495750600160a060020a0382166000908152600a602052604090205460ff1615610cf357506001610cf3565b60175481565b61211d33612864565b61212657600080fd5b6000918252600d6020526040909120805473ffffffffffffffffffffffffffffffffffffffff1916600160a060020a03909216919091179055565b600160a060020a03811660009081526005602052604081205460ff1615610cf357506001610cf3565b3360009081526005602052604090205460ff1680156121bf575033600081815260026020526040902054600160a060020a0316145b6121c857600080fd5b33600090815260026020908152604090912086516121ee92600190920191880190612eba565b50336000908152600260208181526040909220908101869055845161221b92600390920191860190612eba565b50336000908152600260209081526040909120835161224292600490920191850190612eba565b50336000908152600260209081526040909120825161226992600590920191840190612eba565b505050505050565b60008181526010602052604081205460ff1615610cf357506001610cf3565b6012818154811061229d57fe5b600091825260209091200154600160a060020a0316905081565b6122c033612864565b6122c957600080fd5b600160a060020a03811660009081526008602052604090819020805460ff19166001179055517f6a6455914f452787eb3985452aceedc1000fb545e394eb3b370e3d08958e0a5b906112c590839061360c565b600081815260208181526040918290206002908101805484516001821615610100026000190190911692909204601f81018490048402830184019094528382526060939192909190830182828015610df95780601f10610dce57610100808354040283529160200191610df9565b61239333612cdf565b80156123a357506123a3336120c3565b6123ac57600080fd5b6000908152600e60205260409020805460ff19166001179055565b606060128054806020026020016040519081016040528092919081815260200182805480156111df57602002820191906000526020600020908154600160a060020a031681526001909101906020018083116111c1575050505050905090565b60165490565b6002602081815260009283526040928390208054600180830180548751601f60001994831615610100029490940190911696909604918201859004850286018501909652808552600160a060020a03909116949193928301828280156124d45780601f106124a9576101008083540402835291602001916124d4565b820191906000526020600020905b8154815290600101906020018083116124b757829003601f168201915b505050506002838101546003850180546040805160206001841615610100026000190190931695909504601f81018390048302860183019091528085529596929592945090919083018282801561256c5780601f106125415761010080835404028352916020019161256c565b820191906000526020600020905b81548152906001019060200180831161254f57829003601f168201915b5050505060048301805460408051602060026001851615610100026000190190941693909304601f81018490048402820184019092528181529495949350908301828280156125fc5780601f106125d1576101008083540402835291602001916125fc565b820191906000526020600020905b8154815290600101906020018083116125df57829003601f168201915b5050505060058301805460408051602060026001851615610100026000190190941693909304601f810184900484028201840190925281815294959493509083018282801561268c5780601f106126615761010080835404028352916020019161268c565b820191906000526020600020905b81548152906001019060200180831161266f57829003601f168201915b5050505060068301805460408051602060026001851615610100026000190190941693909304601f810184900484028201840190925281815294959493509083018282801561271c5780601f106126f15761010080835404028352916020019161271c565b820191906000526020600020905b8154815290600101906020018083116126ff57829003601f168201915b5050505050905087565b600160208181526000928352604092839020805481840180548651600296821615610100026000190190911695909504601f810185900485028601850190965285855290949193929091908301828280156127c25780601f10612797576101008083540402835291602001916127c2565b820191906000526020600020905b8154815290600101906020018083116127a557829003601f168201915b505050506002838101546003850180546040805160206001841615610100026000190190931695909504601f81018390048302860183019091528085529596929592945090919083018282801561285a5780601f1061282f5761010080835404028352916020019161285a565b820191906000526020600020905b81548152906001019060200180831161283d57829003601f168201915b5050505050905084565b601154600090600160a060020a038381169116141561288557506001610cf3565b506000610cf3565b61289633612864565b61289f57600080fd5b600160a060020a03811660009081526009602052604090819020805460ff19166001179055517faf77f8960cf590e245ec8b6d41c193a5dcacad8986ae4eb57ac9e5be7b6af031906112c590839061360c565b6000602081815291815260409081902080546001808301546002808501805487519481161561010002600019011691909104601f810188900488028401880190965285835292959094919291908301828280156129905780601f1061296557610100808354040283529160200191612990565b820191906000526020600020905b81548152906001019060200180831161297357829003601f168201915b5050505060038301805460408051602060026001851615610100026000190190941693909304601f8101849004840282018401909252818152949594935090830182828015612a205780601f106129f557610100808354040283529160200191612a20565b820191906000526020600020905b815481529060010190602001808311612a0357829003601f168201915b505050600484015460058501546006860154600787018054604080516020601f60026000196101006001881615020190951694909404938401819004810282018101909252828152989995989497509295509091830182828015612ac55780601f10612a9a57610100808354040283529160200191612ac5565b820191906000526020600020905b815481529060010190602001808311612aa857829003601f168201915b5050505060088301805460408051602060026001851615610100026000190190941693909304601f8101849004840282018401909252818152949594935090830182828015612b555780601f10612b2a57610100808354040283529160200191612b55565b820191906000526020600020905b815481529060010190602001808311612b3857829003601f168201915b5050505050905089565b60086020526000908152604090205460ff1681565b612b7d33612cdf565b8015612b8d5750612b8d336120c3565b612b9657600080fd5b60148054600190810191829055604080516101208101825283815260208082018d81528284018d8152606084018d9052608084018c905260a084018b905260c084018a905260e0840189905261010084018890526000968752868352939095208251815594519385019390935590518051919392612c1c92600285019290910190612eba565b5060608201518051612c38916003840191602090910190612eba565b506080820151600482015560a0820151600582015560c0820151600682015560e08201518051612c72916007840191602090910190612eba565b506101008201518051612c8f916008840191602090910190612eba565b50506014546000908152600d60205260409020805473ffffffffffffffffffffffffffffffffffffffff191633179055505050505050505050565b60009081526020819052604090206004015490565b600160a060020a03811660009081526006602052604081205460ff1615610cf357506001610cf3565b60175490565b6013818154811061229d57fe5b600090815260046020908152604080832060018101546002820154600390920154600e9094529190932054600160a060020a0391821694919093169260ff1690565b612d6633610e05565b8015612d765750612d76336120c3565b612d7f57600080fd5b60188054600190810180835560408051608081018252828152600160a060020a03808816602080840191825233848601908152606085018a8152600097885260048352868820955186559251858901805491861673ffffffffffffffffffffffffffffffffffffffff199283161790559051600286018054919095169116179092555160039092019190915584548352600e8152818320805460ff1990811690915594548352600f9052908190208054909316909117909155517fc67eb70629da758128cec22f7e36ad0676066ad4df9b66e8ba58a30c1ab4075b90612e6690849061360c565b60405180910390a15050565b60056020526000908152604090205460ff1681565b612e9033612864565b612e9957600080fd5b6000908152600c60205260409020805460ff19166001179055565b60185481565b828054600181600116156101000203166002900490600052602060002090601f016020900481019282601f10612efb57805160ff1916838001178555612f28565b82800160010185558215612f28579182015b82811115612f28578251825591602001919060010190612f0d565b50612f34929150612f38565b5090565b610d1b91905b80821115612f345760008155600101612f3e565b8035612f5d81613ab1565b92915050565b600082601f830112612f7457600080fd5b8135612f87612f8282613a03565b6139dc565b91508082526020830160208301858383011115612fa357600080fd5b612fae838284613a6b565b50505092915050565b8035612f5d81613ac8565b600060208284031215612fd457600080fd5b6000612fe08484612f52565b949350505050565b60008060408385031215612ffb57600080fd5b60006130078585612f52565b925050602061301885828601612fb7565b9150509250929050565b6000806000806080858703121561303857600080fd5b843567ffffffffffffffff81111561304f57600080fd5b61305b87828801612f63565b945050602085013567ffffffffffffffff81111561307857600080fd5b61308487828801612f63565b935050604085013567ffffffffffffffff8111156130a157600080fd5b6130ad87828801612f63565b925050606085013567ffffffffffffffff8111156130ca57600080fd5b6130d687828801612f63565b91505092959194509250565b600080600080600060a086880312156130fa57600080fd5b853567ffffffffffffffff81111561311157600080fd5b61311d88828901612f63565b955050602061312e88828901612fb7565b945050604086013567ffffffffffffffff81111561314b57600080fd5b61315788828901612f63565b935050606086013567ffffffffffffffff81111561317457600080fd5b61318088828901612f63565b925050608086013567ffffffffffffffff81111561319d57600080fd5b6131a988828901612f63565b9150509295509295909350565b60008060008060008060c087890312156131cf57600080fd5b863567ffffffffffffffff8111156131e657600080fd5b6131f289828a01612f63565b965050602061320389828a01612fb7565b955050604087013567ffffffffffffffff81111561322057600080fd5b61322c89828a01612f63565b945050606087013567ffffffffffffffff81111561324957600080fd5b61325589828a01612f63565b935050608087013567ffffffffffffffff81111561327257600080fd5b61327e89828a01612f63565b92505060a087013567ffffffffffffffff81111561329b57600080fd5b6132a789828a01612f63565b9150509295509295509295565b600080600080600080600060e0888a0312156132cf57600080fd5b873567ffffffffffffffff8111156132e657600080fd5b6132f28a828b01612f63565b97505060206133038a828b01612fb7565b965050604088013567ffffffffffffffff81111561332057600080fd5b61332c8a828b01612f63565b955050606088013567ffffffffffffffff81111561334957600080fd5b6133558a828b01612f63565b945050608088013567ffffffffffffffff81111561337257600080fd5b61337e8a828b01612f63565b93505060a088013567ffffffffffffffff81111561339b57600080fd5b6133a78a828b01612f63565b92505060c088013567ffffffffffffffff8111156133c457600080fd5b6133d08a828b01612f63565b91505092959891949750929550565b6000602082840312156133f157600080fd5b6000612fe08484612fb7565b6000806040838503121561341057600080fd5b600061341c8585612fb7565b925050602061301885828601612f52565b600080600080600080600080610100898b03121561344a57600080fd5b60006134568b8b612fb7565b985050602089013567ffffffffffffffff81111561347357600080fd5b61347f8b828c01612f63565b975050604089013567ffffffffffffffff81111561349c57600080fd5b6134a88b828c01612f63565b96505060606134b98b828c01612fb7565b95505060806134ca8b828c01612fb7565b94505060a06134db8b828c01612fb7565b93505060c089013567ffffffffffffffff8111156134f857600080fd5b6135048b828c01612f63565b92505060e089013567ffffffffffffffff81111561352157600080fd5b61352d8b828c01612f63565b9150509295985092959890939650565b60006135498383613560565b505060200190565b61355a81613a5a565b82525050565b61355a81613a3e565b600061357482613a31565b61357e8185613a35565b935061358983613a2b565b8060005b838110156135b75781516135a1888261353d565b97506135ac83613a2b565b92505060010161358d565b509495945050505050565b61355a81613a49565b60006135d682613a31565b6135e08185613a35565b93506135f0818560208601613a77565b6135f981613aa7565b9093019392505050565b61355a81610d1b565b60208101612f5d8284613560565b60208101612f5d8284613551565b608081016136368287613560565b6136436020830186613560565b6136506040830185613603565b61365d60608301846135c2565b95945050505050565b60e08101613674828a613560565b818103602083015261368681896135cb565b90506136956040830188613603565b81810360608301526136a781876135cb565b905081810360808301526136bb81866135cb565b905081810360a08301526136cf81856135cb565b905081810360c08301526136e381846135cb565b9998505050505050505050565b61010081016136ff828b613560565b8181036020830152613711818a6135cb565b90506137206040830189613603565b818103606083015261373281886135cb565b9050818103608083015261374681876135cb565b905081810360a083015261375a81866135cb565b905081810360c083015261376e81856135cb565b905081810360e083015261378281846135cb565b9a9950505050505050505050565b602080825281016137a18184613569565b9392505050565b60208101612f5d82846135c2565b602080825281016137a181846135cb565b60a080825281016137d881886135cb565b905081810360208301526137ec81876135cb565b9050818103604083015261380081866135cb565b9050818103606083015261381481856135cb565b9050818103608083015261382881846135cb565b979650505050505050565b60c0808252810161384481896135cb565b90506138536020830188613603565b818103604083015261386581876135cb565b9050818103606083015261387981866135cb565b9050818103608083015261388d81856135cb565b905081810360a08301526138a181846135cb565b98975050505050505050565b60208101612f5d8284613603565b608081016138c98287613603565b6138d66020830186613560565b6138e36040830185613560565b61365d6060830184613603565b608081016138fe8287613603565b818103602083015261391081866135cb565b905061391f6040830185613603565b818103606083015261393181846135cb565b9695505050505050565b610120810161394a828c613603565b613957602083018b613603565b8181036040830152613969818a6135cb565b9050818103606083015261397d81896135cb565b905061398c6080830188613603565b61399960a0830187613603565b6139a660c0830186613603565b81810360e08301526139b881856135cb565b90508181036101008301526139cd81846135cb565b9b9a5050505050505050505050565b60405181810167ffffffffffffffff811182821017156139fb57600080fd5b604052919050565b600067ffffffffffffffff821115613a1a57600080fd5b506020601f91909101601f19160190565b60200190565b5190565b90815260200190565b6000612f5d82613a4e565b151590565b600160a060020a031690565b6000612f5d826000612f5d82613a3e565b82818337506000910152565b60005b83811015613a92578181015183820152602001613a7a565b83811115613aa1576000848401525b50505050565b601f01601f191690565b613aba81613a3e565b8114613ac557600080fd5b50565b613aba81610d1b56fea365627a7a72315820b357d763661c88ac4c949b64fa113363786282512df7afd98818c4d644c4b0016c6578706572696d656e74616cf564736f6c63430005100040",
  "source": "pragma solidity >= 0.5.2;\npragma experimental ABIEncoderV2;\ncontract Land {\n    struct Landreg {\n        uint id;\n        uint area;\n        string city;\n        string state;\n        uint landPrice;\n        uint propertyPID;\n        uint physicalSurveyNumber;\n        string ipfsHash;\n        string document;\n    }\n\n    struct Buyer{\n        address id;\n        string name;\n        uint age;\n        string city;\n        string aadharNumber;\n        string panNumber;\n        string document;\n        string email;\n    }\n\n    struct Seller{\n        address id;\n        string name;\n        uint age;\n        string aadharNumber;\n        string panNumber;\n        string landsOwned;\n        string document;\n    }\n\n    struct LandInspector {\n        uint id;\n        string name;\n        uint age;\n        string designation;\n    }\n\n    struct LandRequest{\n        uint reqId;\n        address sellerId;\n        address buyerId;\n        uint landId;\n        // bool requestStatus;\n        // bool requested;\n    }\n\n    //key value pairs\n    mapping(uint => Landreg) public lands;\n    mapping(uint => LandInspector) public InspectorMapping;\n    mapping(address => Seller) public SellerMapping;\n    mapping(address => Buyer) public BuyerMapping;\n    mapping(uint => LandRequest) public RequestsMapping;\n\n    mapping(address => bool) public RegisteredAddressMapping;\n    mapping(address => bool) public RegisteredSellerMapping;\n    mapping(address => bool) public RegisteredBuyerMapping;\n    mapping(address => bool) public SellerVerification;\n    mapping(address => bool) public SellerRejection;\n    mapping(address => bool) public BuyerVerification;\n    mapping(address => bool) public BuyerRejection;\n    mapping(uint => bool) public LandVerification;\n    mapping(uint => address) public LandOwner;\n    mapping(uint => bool) public RequestStatus;\n    mapping(uint => bool) public RequestedLands;\n    mapping(uint => bool) public PaymentReceived;\n\n    address public Land_Inspector;\n    address[] public sellers;\n    address[] public buyers;\n\n    uint public landsCount;\n    uint public inspectorsCount;\n    uint public sellersCount;\n    uint public buyersCount;\n    uint public requestsCount;\n\n    event Registration(address _registrationId);\n    event AddingLand(uint indexed _landId);\n    event Landrequested(address _sellerId);\n    event requestApproved(address _buyerId);\n    event Verified(address _id);\n    event Rejected(address _id);\n\n    constructor() public{\n        Land_Inspector = msg.sender ;\n        addLandInspector(\"Inspector 1\", 45, \"Tehsil Manager\");\n    }\n\n    function addLandInspector(string memory _name, uint _age, string memory _designation) private {\n        inspectorsCount++;\n        InspectorMapping[inspectorsCount] = LandInspector(inspectorsCount, _name, _age, _designation);\n    }\n\n    function getLandsCount() public view returns (uint) {\n        return landsCount;\n    }\n\n    function getBuyersCount() public view returns (uint) {\n        return buyersCount;\n    }\n\n    function getSellersCount() public view returns (uint) {\n        return sellersCount;\n    }\n\n    function getRequestsCount() public view returns (uint) {\n        return requestsCount;\n    }\n    function getArea(uint i) public view returns (uint) {\n        return lands[i].area;\n    }\n    function getCity(uint i) public view returns (string memory) {\n        return lands[i].city;\n    }\n     function getState(uint i) public view returns (string memory) {\n        return lands[i].state;\n    }\n    // function getStatus(uint i) public view returns (bool) {\n    //     return lands[i].verificationStatus;\n    // }\n    function getPrice(uint i) public view returns (uint) {\n        return lands[i].landPrice;\n    }\n    function getPID(uint i) public view returns (uint) {\n        return lands[i].propertyPID;\n    }\n    function getSurveyNumber(uint i) public view returns (uint) {\n        return lands[i].physicalSurveyNumber;\n    }\n    function getImage(uint i) public view returns (string memory) {\n        return lands[i].ipfsHash;\n    }\n    function getDocument(uint i) public view returns (string memory) {\n        return lands[i].document;\n    }\n    \n    function getLandOwner(uint id) public view returns (address) {\n        return LandOwner[id];\n    }\n\n    function verifySeller(address _sellerId) public{\n        require(isLandInspector(msg.sender));\n\n        SellerVerification[_sellerId] = true;\n        emit Verified(_sellerId);\n    }\n\n    function rejectSeller(address _sellerId) public{\n        require(isLandInspector(msg.sender));\n\n        SellerRejection[_sellerId] = true;\n        emit Rejected(_sellerId);\n    }\n\n    function verifyBuyer(address _buyerId) public{\n        require(isLandInspector(msg.sender));\n\n        BuyerVerification[_buyerId] = true;\n        emit Verified(_buyerId);\n    }\n\n    function rejectBuyer(address _buyerId) public{\n        require(isLandInspector(msg.sender));\n\n        BuyerRejection[_buyerId] = true;\n        emit Rejected(_buyerId);\n    }\n    \n    function verifyLand(uint _landId) public{\n        require(isLandInspector(msg.sender));\n\n        LandVerification[_landId] = true;\n    }\n\n    function isLandVerified(uint _id) public view returns (bool) {\n        if(LandVerification[_id]){\n            return true;\n        }\n    }\n\n    function isVerified(address _id) public view returns (bool) {\n        if(SellerVerification[_id] || BuyerVerification[_id]){\n            return true;\n        }\n    }\n\n    function isRejected(address _id) public view returns (bool) {\n        if(SellerRejection[_id] || BuyerRejection[_id]){\n            return true;\n        }\n    }\n\n    function isSeller(address _id) public view returns (bool) {\n        if(RegisteredSellerMapping[_id]){\n            return true;\n        }\n    }\n\n    function isLandInspector(address _id) public view returns (bool) {\n        if(Land_Inspector == _id){\n            return true;\n        }else{\n            return false;\n        }\n    }\n\n    function isBuyer(address _id) public view returns (bool) {\n        if(RegisteredBuyerMapping[_id]){\n            return true;\n        }\n    }\n    function isRegistered(address _id) public view returns (bool) {\n        if(RegisteredAddressMapping[_id]){\n            return true;\n        }\n    }\n\n    function addLand(uint _area, string memory _city,string memory _state, uint landPrice, uint _propertyPID,uint _surveyNum,string memory _ipfsHash, string memory _document) public {\n        require((isSeller(msg.sender)) && (isVerified(msg.sender)));\n        landsCount++;\n        lands[landsCount] = Landreg(landsCount, _area, _city, _state, landPrice,_propertyPID, _surveyNum, _ipfsHash, _document);\n        LandOwner[landsCount] = msg.sender;\n        // emit AddingLand(landsCount);\n    }\n\n    //registration of seller\n    function registerSeller(string memory _name, uint _age, string memory _aadharNumber, string memory _panNumber, string memory _landsOwned, string memory _document) public {\n        //require that Seller is not already registered\n        require(!RegisteredAddressMapping[msg.sender]);\n\n        RegisteredAddressMapping[msg.sender] = true;\n        RegisteredSellerMapping[msg.sender] = true ;\n        sellersCount++;\n        SellerMapping[msg.sender] = Seller(msg.sender, _name, _age, _aadharNumber,_panNumber, _landsOwned, _document);\n        sellers.push(msg.sender);\n        emit Registration(msg.sender);\n    }\n\n    function updateSeller(string memory _name, uint _age, string memory _aadharNumber, string memory _panNumber, string memory _landsOwned) public {\n        //require that Seller is already registered\n        require(RegisteredAddressMapping[msg.sender] && (SellerMapping[msg.sender].id == msg.sender));\n\n        SellerMapping[msg.sender].name = _name;\n        SellerMapping[msg.sender].age = _age;\n        SellerMapping[msg.sender].aadharNumber = _aadharNumber;\n        SellerMapping[msg.sender].panNumber = _panNumber;\n        SellerMapping[msg.sender].landsOwned = _landsOwned;\n\n    }\n\n    function getSeller() public view returns( address [] memory ){\n        return(sellers);\n    }\n\n    function getSellerDetails(address i) public view returns (string memory, uint, string memory, string memory, string memory, string memory) {\n        return (SellerMapping[i].name, SellerMapping[i].age, SellerMapping[i].aadharNumber, SellerMapping[i].panNumber, SellerMapping[i].landsOwned, SellerMapping[i].document);\n    }\n\n    function registerBuyer(string memory _name, uint _age, string memory _city, string memory _aadharNumber, string memory _panNumber, string memory _document, string memory _email) public {\n        //require that Buyer is not already registered\n        require(!RegisteredAddressMapping[msg.sender]);\n\n        RegisteredAddressMapping[msg.sender] = true;\n        RegisteredBuyerMapping[msg.sender] = true ;\n        buyersCount++;\n        BuyerMapping[msg.sender] = Buyer(msg.sender, _name, _age, _city, _aadharNumber, _panNumber, _document, _email);\n        buyers.push(msg.sender);\n\n        emit Registration(msg.sender);\n    }\n\n    function updateBuyer(string memory _name, string memory _city, string memory _email, string memory _panNumber) public {\n        //require that Buyer is already registered\n        require(RegisteredAddressMapping[msg.sender] && (BuyerMapping[msg.sender].id == msg.sender));\n\n        BuyerMapping[msg.sender].name = _name;\n        BuyerMapping[msg.sender].city = _city;\n        BuyerMapping[msg.sender].email = _email;\n        BuyerMapping[msg.sender].panNumber = _panNumber;\n        \n    }\n\n    function getBuyer() public view returns( address [] memory ){\n        return(buyers);\n    }\n\n    function getBuyerDetails(address i) public view returns ( string memory, string memory, string memory, string memory,string memory) {\n        return (BuyerMapping[i].name,BuyerMapping[i].city , BuyerMapping[i].panNumber, BuyerMapping[i].document, BuyerMapping[i].email);\n    }\n\n\n    function requestLand(address _sellerId, uint _landId) public{\n        require(isBuyer(msg.sender) && isVerified(msg.sender));\n        \n        requestsCount++;\n        RequestsMapping[requestsCount] = LandRequest(requestsCount, _sellerId, msg.sender, _landId);\n        RequestStatus[requestsCount] = false;\n        RequestedLands[requestsCount] = true;\n\n        emit Landrequested(_sellerId);\n    }\n\n    function getRequestDetails (uint i) public view returns (address, address, uint, bool) {\n        return(RequestsMapping[i].sellerId, RequestsMapping[i].buyerId, RequestsMapping[i].landId, RequestStatus[i]);\n    }\n\n    function isRequested(uint _id) public view returns (bool) {\n        if(RequestedLands[_id]){\n            return true;\n        }\n    }\n\n    function isApproved(uint _id) public view returns (bool) {\n        if(RequestStatus[_id]){\n            return true;\n        }\n    }\n\n    function approveRequest(uint _reqId) public {\n        require((isSeller(msg.sender)) && (isVerified(msg.sender)));\n       \n        RequestStatus[_reqId] = true;\n\n    }\n\n    function LandOwnershipTransfer(uint _landId, address _newOwner) public{\n        require(isLandInspector(msg.sender));\n\n        LandOwner[_landId] = _newOwner;\n    }\n\n    function isPaid(uint _landId) public view returns (bool) {\n        if(PaymentReceived[_landId]){\n            return true;\n        }\n    }\n\n    function payment(address payable _receiver, uint _landId) public payable {\n        PaymentReceived[_landId] = true;\n        _receiver.transfer(msg.value);\n    }\n\n\n\n}\n",
  "sourcePath": "/home/vrinda/Desktop/Sem 6/SE/Land Registration System/contracts/Land.sol",
  "compiler": {
    "name": "solc",
    "version": "0.5.16+commit.9c3226ce.Emscripten.clang"
  },
  "schemaVersion": "3.3.4",
  "updatedAt": "2021-04-24T08:37:02.701Z",
  "networkType": "ethereum",
  "devdoc": {
    "methods": {}
  },
  "userdoc": {
    "methods": {}
  }
}