{
  "contractName": "Land",
  "abi": [
    {
      "inputs": [],
      "payable": false,
      "stateMutability": "nonpayable",
      "type": "constructor"
    },
    {
      "anonymous": false,
      "inputs": [
        {
          "indexed": true,
          "internalType": "uint256",
          "name": "_landId",
          "type": "uint256"
        }
      ],
      "name": "AddingLand",
      "type": "event"
    },
    {
      "anonymous": false,
      "inputs": [
        {
          "indexed": false,
          "internalType": "address",
          "name": "_sellerId",
          "type": "address"
        }
      ],
      "name": "Landrequested",
      "type": "event"
    },
    {
      "anonymous": false,
      "inputs": [
        {
          "indexed": false,
          "internalType": "address",
          "name": "_registrationId",
          "type": "address"
        }
      ],
      "name": "Registration",
      "type": "event"
    },
    {
      "anonymous": false,
      "inputs": [
        {
          "indexed": false,
          "internalType": "address",
          "name": "_id",
          "type": "address"
        }
      ],
      "name": "Verified",
      "type": "event"
    },
    {
      "anonymous": false,
      "inputs": [
        {
          "indexed": false,
          "internalType": "address",
          "name": "_buyerId",
          "type": "address"
        }
      ],
      "name": "requestApproved",
      "type": "event"
    },
    {
      "constant": true,
      "inputs": [
        {
          "internalType": "address",
          "name": "",
          "type": "address"
        }
      ],
      "name": "BuyerMapping",
      "outputs": [
        {
          "internalType": "address",
          "name": "id",
          "type": "address"
        },
        {
          "internalType": "string",
          "name": "name",
          "type": "string"
        },
        {
          "internalType": "uint256",
          "name": "age",
          "type": "uint256"
        },
        {
          "internalType": "string",
          "name": "city",
          "type": "string"
        },
        {
          "internalType": "string",
          "name": "state",
          "type": "string"
        },
        {
          "internalType": "string",
          "name": "aadharNumber",
          "type": "string"
        },
        {
          "internalType": "string",
          "name": "panNumber",
          "type": "string"
        }
      ],
      "payable": false,
      "stateMutability": "view",
      "type": "function"
    },
    {
      "constant": true,
      "inputs": [
        {
          "internalType": "address",
          "name": "",
          "type": "address"
        }
      ],
      "name": "BuyerVerification",
      "outputs": [
        {
          "internalType": "bool",
          "name": "",
          "type": "bool"
        }
      ],
      "payable": false,
      "stateMutability": "view",
      "type": "function"
    },
    {
      "constant": true,
      "inputs": [
        {
          "internalType": "uint256",
          "name": "",
          "type": "uint256"
        }
      ],
      "name": "InspectorMapping",
      "outputs": [
        {
          "internalType": "uint256",
          "name": "id",
          "type": "uint256"
        },
        {
          "internalType": "string",
          "name": "name",
          "type": "string"
        },
        {
          "internalType": "uint256",
          "name": "age",
          "type": "uint256"
        },
        {
          "internalType": "string",
          "name": "designation",
          "type": "string"
        }
      ],
      "payable": false,
      "stateMutability": "view",
      "type": "function"
    },
    {
      "constant": true,
      "inputs": [
        {
          "internalType": "uint256",
          "name": "",
          "type": "uint256"
        }
      ],
      "name": "LandOwner",
      "outputs": [
        {
          "internalType": "address",
          "name": "",
          "type": "address"
        }
      ],
      "payable": false,
      "stateMutability": "view",
      "type": "function"
    },
    {
      "constant": true,
      "inputs": [
        {
          "internalType": "uint256",
          "name": "",
          "type": "uint256"
        }
      ],
      "name": "LandVerification",
      "outputs": [
        {
          "internalType": "bool",
          "name": "",
          "type": "bool"
        }
      ],
      "payable": false,
      "stateMutability": "view",
      "type": "function"
    },
    {
      "constant": true,
      "inputs": [
        {
          "internalType": "address",
          "name": "",
          "type": "address"
        }
      ],
      "name": "RegisteredAddressMapping",
      "outputs": [
        {
          "internalType": "bool",
          "name": "",
          "type": "bool"
        }
      ],
      "payable": false,
      "stateMutability": "view",
      "type": "function"
    },
    {
      "constant": true,
      "inputs": [
        {
          "internalType": "address",
          "name": "",
          "type": "address"
        }
      ],
      "name": "RegisteredBuyerMapping",
      "outputs": [
        {
          "internalType": "bool",
          "name": "",
          "type": "bool"
        }
      ],
      "payable": false,
      "stateMutability": "view",
      "type": "function"
    },
    {
      "constant": true,
      "inputs": [
        {
          "internalType": "address",
          "name": "",
          "type": "address"
        }
      ],
      "name": "RegisteredSellerMapping",
      "outputs": [
        {
          "internalType": "bool",
          "name": "",
          "type": "bool"
        }
      ],
      "payable": false,
      "stateMutability": "view",
      "type": "function"
    },
    {
      "constant": true,
      "inputs": [
        {
          "internalType": "uint256",
          "name": "",
          "type": "uint256"
        }
      ],
      "name": "RequestStatus",
      "outputs": [
        {
          "internalType": "bool",
          "name": "",
          "type": "bool"
        }
      ],
      "payable": false,
      "stateMutability": "view",
      "type": "function"
    },
    {
      "constant": true,
      "inputs": [
        {
          "internalType": "uint256",
          "name": "",
          "type": "uint256"
        }
      ],
      "name": "RequestedLands",
      "outputs": [
        {
          "internalType": "bool",
          "name": "",
          "type": "bool"
        }
      ],
      "payable": false,
      "stateMutability": "view",
      "type": "function"
    },
    {
      "constant": true,
      "inputs": [
        {
          "internalType": "uint256",
          "name": "",
          "type": "uint256"
        }
      ],
      "name": "RequestsMapping",
      "outputs": [
        {
          "internalType": "uint256",
          "name": "reqId",
          "type": "uint256"
        },
        {
          "internalType": "address",
          "name": "sellerId",
          "type": "address"
        },
        {
          "internalType": "address",
          "name": "buyerId",
          "type": "address"
        },
        {
          "internalType": "uint256",
          "name": "landId",
          "type": "uint256"
        }
      ],
      "payable": false,
      "stateMutability": "view",
      "type": "function"
    },
    {
      "constant": true,
      "inputs": [
        {
          "internalType": "address",
          "name": "",
          "type": "address"
        }
      ],
      "name": "SellerMapping",
      "outputs": [
        {
          "internalType": "address",
          "name": "id",
          "type": "address"
        },
        {
          "internalType": "string",
          "name": "name",
          "type": "string"
        },
        {
          "internalType": "uint256",
          "name": "age",
          "type": "uint256"
        },
        {
          "internalType": "string",
          "name": "aadharNumber",
          "type": "string"
        },
        {
          "internalType": "string",
          "name": "panNumber",
          "type": "string"
        },
        {
          "internalType": "string",
          "name": "landsOwned",
          "type": "string"
        }
      ],
      "payable": false,
      "stateMutability": "view",
      "type": "function"
    },
    {
      "constant": true,
      "inputs": [
        {
          "internalType": "address",
          "name": "",
          "type": "address"
        }
      ],
      "name": "SellerVerification",
      "outputs": [
        {
          "internalType": "bool",
          "name": "",
          "type": "bool"
        }
      ],
      "payable": false,
      "stateMutability": "view",
      "type": "function"
    },
    {
      "constant": true,
      "inputs": [
        {
          "internalType": "uint256",
          "name": "",
          "type": "uint256"
        }
      ],
      "name": "buyers",
      "outputs": [
        {
          "internalType": "address",
          "name": "",
          "type": "address"
        }
      ],
      "payable": false,
      "stateMutability": "view",
      "type": "function"
    },
    {
      "constant": true,
      "inputs": [],
      "name": "buyersCount",
      "outputs": [
        {
          "internalType": "uint256",
          "name": "",
          "type": "uint256"
        }
      ],
      "payable": false,
      "stateMutability": "view",
      "type": "function"
    },
    {
      "constant": true,
      "inputs": [],
      "name": "inspectorsCount",
      "outputs": [
        {
          "internalType": "uint256",
          "name": "",
          "type": "uint256"
        }
      ],
      "payable": false,
      "stateMutability": "view",
      "type": "function"
    },
    {
      "constant": true,
      "inputs": [
        {
          "internalType": "uint256",
          "name": "",
          "type": "uint256"
        }
      ],
      "name": "lands",
      "outputs": [
        {
          "internalType": "uint256",
          "name": "id",
          "type": "uint256"
        },
        {
          "internalType": "uint256",
          "name": "area",
          "type": "uint256"
        },
        {
          "internalType": "string",
          "name": "location",
          "type": "string"
        },
        {
          "internalType": "bool",
          "name": "verificationStatus",
          "type": "bool"
        },
        {
          "internalType": "uint256",
          "name": "landPrice",
          "type": "uint256"
        }
      ],
      "payable": false,
      "stateMutability": "view",
      "type": "function"
    },
    {
      "constant": true,
      "inputs": [],
      "name": "landsCount",
      "outputs": [
        {
          "internalType": "uint256",
          "name": "",
          "type": "uint256"
        }
      ],
      "payable": false,
      "stateMutability": "view",
      "type": "function"
    },
    {
      "constant": true,
      "inputs": [],
      "name": "requestsCount",
      "outputs": [
        {
          "internalType": "uint256",
          "name": "",
          "type": "uint256"
        }
      ],
      "payable": false,
      "stateMutability": "view",
      "type": "function"
    },
    {
      "constant": true,
      "inputs": [
        {
          "internalType": "uint256",
          "name": "",
          "type": "uint256"
        }
      ],
      "name": "sellers",
      "outputs": [
        {
          "internalType": "address",
          "name": "",
          "type": "address"
        }
      ],
      "payable": false,
      "stateMutability": "view",
      "type": "function"
    },
    {
      "constant": true,
      "inputs": [],
      "name": "sellersCount",
      "outputs": [
        {
          "internalType": "uint256",
          "name": "",
          "type": "uint256"
        }
      ],
      "payable": false,
      "stateMutability": "view",
      "type": "function"
    },
    {
      "constant": true,
      "inputs": [],
      "name": "getLandsCount",
      "outputs": [
        {
          "internalType": "uint256",
          "name": "",
          "type": "uint256"
        }
      ],
      "payable": false,
      "stateMutability": "view",
      "type": "function"
    },
    {
      "constant": true,
      "inputs": [],
      "name": "getBuyersCount",
      "outputs": [
        {
          "internalType": "uint256",
          "name": "",
          "type": "uint256"
        }
      ],
      "payable": false,
      "stateMutability": "view",
      "type": "function"
    },
    {
      "constant": true,
      "inputs": [],
      "name": "getSellersCount",
      "outputs": [
        {
          "internalType": "uint256",
          "name": "",
          "type": "uint256"
        }
      ],
      "payable": false,
      "stateMutability": "view",
      "type": "function"
    },
    {
      "constant": true,
      "inputs": [],
      "name": "getRequestsCount",
      "outputs": [
        {
          "internalType": "uint256",
          "name": "",
          "type": "uint256"
        }
      ],
      "payable": false,
      "stateMutability": "view",
      "type": "function"
    },
    {
      "constant": true,
      "inputs": [
        {
          "internalType": "uint256",
          "name": "i",
          "type": "uint256"
        }
      ],
      "name": "getArea",
      "outputs": [
        {
          "internalType": "uint256",
          "name": "",
          "type": "uint256"
        }
      ],
      "payable": false,
      "stateMutability": "view",
      "type": "function"
    },
    {
      "constant": true,
      "inputs": [
        {
          "internalType": "uint256",
          "name": "i",
          "type": "uint256"
        }
      ],
      "name": "getLocation",
      "outputs": [
        {
          "internalType": "string",
          "name": "",
          "type": "string"
        }
      ],
      "payable": false,
      "stateMutability": "view",
      "type": "function"
    },
    {
      "constant": true,
      "inputs": [
        {
          "internalType": "uint256",
          "name": "i",
          "type": "uint256"
        }
      ],
      "name": "getStatus",
      "outputs": [
        {
          "internalType": "bool",
          "name": "",
          "type": "bool"
        }
      ],
      "payable": false,
      "stateMutability": "view",
      "type": "function"
    },
    {
      "constant": true,
      "inputs": [
        {
          "internalType": "uint256",
          "name": "i",
          "type": "uint256"
        }
      ],
      "name": "getPrice",
      "outputs": [
        {
          "internalType": "uint256",
          "name": "",
          "type": "uint256"
        }
      ],
      "payable": false,
      "stateMutability": "view",
      "type": "function"
    },
    {
      "constant": true,
      "inputs": [
        {
          "internalType": "uint256",
          "name": "id",
          "type": "uint256"
        }
      ],
      "name": "getLandOwner",
      "outputs": [
        {
          "internalType": "address",
          "name": "",
          "type": "address"
        }
      ],
      "payable": false,
      "stateMutability": "view",
      "type": "function"
    },
    {
      "constant": false,
      "inputs": [
        {
          "internalType": "address",
          "name": "_sellerId",
          "type": "address"
        }
      ],
      "name": "verifySeller",
      "outputs": [],
      "payable": false,
      "stateMutability": "nonpayable",
      "type": "function"
    },
    {
      "constant": false,
      "inputs": [
        {
          "internalType": "address",
          "name": "_buyerId",
          "type": "address"
        }
      ],
      "name": "verifyBuyer",
      "outputs": [],
      "payable": false,
      "stateMutability": "nonpayable",
      "type": "function"
    },
    {
      "constant": false,
      "inputs": [
        {
          "internalType": "uint256",
          "name": "_landId",
          "type": "uint256"
        }
      ],
      "name": "verifyLand",
      "outputs": [],
      "payable": false,
      "stateMutability": "nonpayable",
      "type": "function"
    },
    {
      "constant": true,
      "inputs": [
        {
          "internalType": "uint256",
          "name": "_id",
          "type": "uint256"
        }
      ],
      "name": "isLandVerified",
      "outputs": [
        {
          "internalType": "bool",
          "name": "",
          "type": "bool"
        }
      ],
      "payable": false,
      "stateMutability": "view",
      "type": "function"
    },
    {
      "constant": true,
      "inputs": [
        {
          "internalType": "address",
          "name": "_id",
          "type": "address"
        }
      ],
      "name": "isVerified",
      "outputs": [
        {
          "internalType": "bool",
          "name": "",
          "type": "bool"
        }
      ],
      "payable": false,
      "stateMutability": "view",
      "type": "function"
    },
    {
      "constant": true,
      "inputs": [
        {
          "internalType": "address",
          "name": "_id",
          "type": "address"
        }
      ],
      "name": "isSeller",
      "outputs": [
        {
          "internalType": "bool",
          "name": "",
          "type": "bool"
        }
      ],
      "payable": false,
      "stateMutability": "view",
      "type": "function"
    },
    {
      "constant": true,
      "inputs": [
        {
          "internalType": "address",
          "name": "_id",
          "type": "address"
        }
      ],
      "name": "isLandInspector",
      "outputs": [
        {
          "internalType": "bool",
          "name": "",
          "type": "bool"
        }
      ],
      "payable": false,
      "stateMutability": "view",
      "type": "function"
    },
    {
      "constant": true,
      "inputs": [
        {
          "internalType": "address",
          "name": "_id",
          "type": "address"
        }
      ],
      "name": "isBuyer",
      "outputs": [
        {
          "internalType": "bool",
          "name": "",
          "type": "bool"
        }
      ],
      "payable": false,
      "stateMutability": "view",
      "type": "function"
    },
    {
      "constant": true,
      "inputs": [
        {
          "internalType": "address",
          "name": "_id",
          "type": "address"
        }
      ],
      "name": "isRegistered",
      "outputs": [
        {
          "internalType": "bool",
          "name": "",
          "type": "bool"
        }
      ],
      "payable": false,
      "stateMutability": "view",
      "type": "function"
    },
    {
      "constant": false,
      "inputs": [
        {
          "internalType": "uint256",
          "name": "_area",
          "type": "uint256"
        },
        {
          "internalType": "string",
          "name": "_location",
          "type": "string"
        },
        {
          "internalType": "uint256",
          "name": "landPrice",
          "type": "uint256"
        }
      ],
      "name": "addLand",
      "outputs": [],
      "payable": false,
      "stateMutability": "nonpayable",
      "type": "function"
    },
    {
      "constant": false,
      "inputs": [
        {
          "internalType": "string",
          "name": "_name",
          "type": "string"
        },
        {
          "internalType": "uint256",
          "name": "_age",
          "type": "uint256"
        },
        {
          "internalType": "string",
          "name": "_aadharNumber",
          "type": "string"
        },
        {
          "internalType": "string",
          "name": "_panNumber",
          "type": "string"
        },
        {
          "internalType": "string",
          "name": "_landsOwned",
          "type": "string"
        }
      ],
      "name": "registerSeller",
      "outputs": [],
      "payable": false,
      "stateMutability": "nonpayable",
      "type": "function"
    },
    {
      "constant": true,
      "inputs": [],
      "name": "getSeller",
      "outputs": [
        {
          "internalType": "address[]",
          "name": "",
          "type": "address[]"
        }
      ],
      "payable": false,
      "stateMutability": "view",
      "type": "function"
    },
    {
      "constant": true,
      "inputs": [
        {
          "internalType": "address",
          "name": "i",
          "type": "address"
        }
      ],
      "name": "getSellerDetails",
      "outputs": [
        {
          "internalType": "string",
          "name": "",
          "type": "string"
        },
        {
          "internalType": "uint256",
          "name": "",
          "type": "uint256"
        },
        {
          "internalType": "string",
          "name": "",
          "type": "string"
        },
        {
          "internalType": "string",
          "name": "",
          "type": "string"
        },
        {
          "internalType": "string",
          "name": "",
          "type": "string"
        }
      ],
      "payable": false,
      "stateMutability": "view",
      "type": "function"
    },
    {
      "constant": false,
      "inputs": [
        {
          "internalType": "string",
          "name": "_name",
          "type": "string"
        },
        {
          "internalType": "uint256",
          "name": "_age",
          "type": "uint256"
        },
        {
          "internalType": "string",
          "name": "_city",
          "type": "string"
        },
        {
          "internalType": "string",
          "name": "_state",
          "type": "string"
        },
        {
          "internalType": "string",
          "name": "_aadharNumber",
          "type": "string"
        },
        {
          "internalType": "string",
          "name": "_panNumber",
          "type": "string"
        }
      ],
      "name": "registerBuyer",
      "outputs": [],
      "payable": false,
      "stateMutability": "nonpayable",
      "type": "function"
    },
    {
      "constant": true,
      "inputs": [],
      "name": "getBuyer",
      "outputs": [
        {
          "internalType": "address[]",
          "name": "",
          "type": "address[]"
        }
      ],
      "payable": false,
      "stateMutability": "view",
      "type": "function"
    },
    {
      "constant": true,
      "inputs": [
        {
          "internalType": "address",
          "name": "i",
          "type": "address"
        }
      ],
      "name": "getBuyerDetails",
      "outputs": [
        {
          "internalType": "string",
          "name": "",
          "type": "string"
        },
        {
          "internalType": "uint256",
          "name": "",
          "type": "uint256"
        },
        {
          "internalType": "string",
          "name": "",
          "type": "string"
        },
        {
          "internalType": "string",
          "name": "",
          "type": "string"
        },
        {
          "internalType": "string",
          "name": "",
          "type": "string"
        },
        {
          "internalType": "string",
          "name": "",
          "type": "string"
        }
      ],
      "payable": false,
      "stateMutability": "view",
      "type": "function"
    },
    {
      "constant": false,
      "inputs": [
        {
          "internalType": "address",
          "name": "_sellerId",
          "type": "address"
        },
        {
          "internalType": "uint256",
          "name": "_landId",
          "type": "uint256"
        }
      ],
      "name": "requestLand",
      "outputs": [],
      "payable": false,
      "stateMutability": "nonpayable",
      "type": "function"
    },
    {
      "constant": true,
      "inputs": [
        {
          "internalType": "uint256",
          "name": "i",
          "type": "uint256"
        }
      ],
      "name": "getRequestDetails",
      "outputs": [
        {
          "internalType": "address",
          "name": "",
          "type": "address"
        },
        {
          "internalType": "address",
          "name": "",
          "type": "address"
        },
        {
          "internalType": "uint256",
          "name": "",
          "type": "uint256"
        },
        {
          "internalType": "bool",
          "name": "",
          "type": "bool"
        }
      ],
      "payable": false,
      "stateMutability": "view",
      "type": "function"
    },
    {
      "constant": true,
      "inputs": [
        {
          "internalType": "uint256",
          "name": "_id",
          "type": "uint256"
        }
      ],
      "name": "isRequested",
      "outputs": [
        {
          "internalType": "bool",
          "name": "",
          "type": "bool"
        }
      ],
      "payable": false,
      "stateMutability": "view",
      "type": "function"
    },
    {
      "constant": true,
      "inputs": [
        {
          "internalType": "uint256",
          "name": "_id",
          "type": "uint256"
        }
      ],
      "name": "isApproved",
      "outputs": [
        {
          "internalType": "bool",
          "name": "",
          "type": "bool"
        }
      ],
      "payable": false,
      "stateMutability": "view",
      "type": "function"
    },
    {
      "constant": false,
      "inputs": [
        {
          "internalType": "uint256",
          "name": "_reqId",
          "type": "uint256"
        }
      ],
      "name": "approveRequest",
      "outputs": [],
      "payable": false,
      "stateMutability": "nonpayable",
      "type": "function"
    },
    {
      "constant": false,
      "inputs": [
        {
          "internalType": "uint256",
          "name": "_landId",
          "type": "uint256"
        },
        {
          "internalType": "address",
          "name": "_newOwner",
          "type": "address"
        }
      ],
      "name": "LandOwnershipTransfer",
      "outputs": [],
      "payable": false,
      "stateMutability": "nonpayable",
      "type": "function"
    }
  ],
  "bytecode": "0x60806040523480156200001157600080fd5b50620000906040518060400160405280600b81526020017f496e73706563746f722031000000000000000000000000000000000000000000815250602d6040518060400160405280600e81526020017f54656873696c204d616e616765720000000000000000000000000000000000008152506200009660201b60201c565b620001e9565b6011600081548092919060010191905055506040518060800160405280601154815260200184815260200183815260200182815250600160006011548152602001908152602001600020600082015181600001556020820151816001019080519060200190620001089291906200013a565b50604082015181600201556060820151816003019080519060200190620001319291906200013a565b50905050505050565b828054600181600116156101000203166002900490600052602060002090601f016020900481019282601f106200017d57805160ff1916838001178555620001ae565b82800160010185558215620001ae579182015b82811115620001ad57825182559160200191906001019062000190565b5b509050620001bd9190620001c1565b5090565b620001e691905b80821115620001e2576000816000905550600101620001c8565b5090565b90565b613b8980620001f96000396000f3fe608060405234801561001057600080fd5b506004361061030c5760003560e01c8063b3c8fe851161019d578063e165af87116100e9578063f0d3a9df116100a2578063f3f0c2181161007c578063f3f0c21814610af2578063f58f85b514610b0e578063f9c43bdf14610b3e578063fbfa4b7f14610b5a5761030c565b8063f0d3a9df14610a71578063f2aa821814610a8f578063f34d4c6314610abf5761030c565b8063e165af8714610961578063e261f1e514610991578063e4b26115146109c5578063e706d555146109f5578063e757223014610a11578063ee95feaf14610a415761030c565b8063cee26ed511610156578063dbd0e1b611610130578063dbd0e1b6146108bd578063dd9d122d146108db578063dec091ad146108f9578063def936c31461092e5761030c565b8063cee26ed514610855578063d1760e6014610885578063d7d1bbdb146108a15761030c565b8063b3c8fe851461076b578063b9209e331461079f578063ba49a08c146107cf578063bed403c7146107ed578063c3c5a54714610809578063cad1ab3b146108395761030c565b806368cfe6ee1161025c578063941e242611610215578063a47d4c02116101ef578063a47d4c02146106a2578063a6dc41fb146106d2578063ab51707414610702578063b0a5dcd3146107385761030c565b8063941e2426146106365780639ae9711e146106545780639dc1bfa9146106725761030c565b806368cfe6ee146105115780636cbf6cf8146105465780637910867b146105765780637f7b1393146105a657806383546501146105d657806389d21354146106065761030c565b80633b8621bf116102c9578063601e7c34116102a3578063601e7c3414610477578063603daf9a146104a75780636490c7a8146104c55780636814800b146104f55761030c565b80633b8621bf146103fb5780634daa9dae146104175780635c622a0e146104475761030c565b8063155fec721461031157806316d9d666146103415780631869a38b1461035f5780631c9afd0f1461038f5780632a55feec146103ad5780633410452a146103dd575b600080fd5b61032b600480360361032691908101906133a6565b610b78565b6040516103389190613751565b60405180910390f35b610349610baf565b6040516103569190613881565b60405180910390f35b610379600480360361037491908101906133a6565b610bb9565b60405161038691906135a5565b60405180910390f35b610397610bf6565b6040516103a49190613881565b60405180910390f35b6103c760048036036103c29190810190613169565b610bfc565b6040516103d49190613751565b60405180910390f35b6103e5610c5f565b6040516103f29190613881565b60405180910390f35b6104156004803603610410919081019061340b565b610c69565b005b610431600480360361042c91908101906133a6565b610d95565b60405161043e9190613751565b60405180910390f35b610461600480360361045c91908101906133a6565b610db5565b60405161046e9190613751565b60405180910390f35b610491600480360361048c9190810190613169565b610de1565b60405161049e9190613751565b60405180910390f35b6104af610e01565b6040516104bc919061372f565b60405180910390f35b6104df60048036036104da91908101906133a6565b610e8f565b6040516104ec9190613881565b60405180910390f35b61050f600480360361050a9190810190613169565b610eae565b005b61052b60048036036105269190810190613169565b610f52565b60405161053d969594939291906137fd565b60405180910390f35b610560600480360361055b91908101906133a6565b61140a565b60405161056d9190613751565b60405180910390f35b610590600480360361058b91908101906133a6565b611441565b60405161059d9190613751565b60405180910390f35b6105c060048036036105bb91908101906133a6565b611478565b6040516105cd919061376c565b60405180910390f35b6105f060048036036105eb91908101906133a6565b61152f565b6040516105fd9190613751565b60405180910390f35b610620600480360361061b91908101906133a6565b61154f565b60405161062d9190613751565b60405180910390f35b61063e61156f565b60405161064b9190613881565b60405180910390f35b61065c611575565b6040516106699190613881565b60405180910390f35b61068c600480360361068791908101906133a6565b61157b565b60405161069991906135a5565b60405180910390f35b6106bc60048036036106b79190810190613169565b6115ae565b6040516106c99190613751565b60405180910390f35b6106ec60048036036106e79190810190613169565b6115ce565b6040516106f99190613751565b60405180910390f35b61071c60048036036107179190810190613169565b6115ee565b60405161072f979695949392919061369d565b60405180910390f35b610752600480360361074d91908101906133a6565b611948565b604051610762949392919061389c565b60405180910390f35b61078560048036036107809190810190613169565b6119b8565b60405161079695949392919061378e565b60405180910390f35b6107b960048036036107b49190810190613169565b611d8f565b6040516107c69190613751565b60405180910390f35b6107d7611e46565b6040516107e49190613881565b60405180910390f35b610807600480360361080291908101906133cf565b611e4c565b005b610823600480360361081e9190810190613169565b611eb4565b6040516108309190613751565b60405180910390f35b610853600480360361084e91908101906132a5565b611f17565b005b61086f600480360361086a91908101906133a6565b612242565b60405161087c91906135a5565b60405180910390f35b61089f600480360361089a9190810190613169565b61227e565b005b6108bb60048036036108b691908101906133a6565b612322565b005b6108c5612374565b6040516108d2919061372f565b60405180910390f35b6108e3612402565b6040516108f09190613881565b60405180910390f35b610913600480360361090e9190810190613169565b61240c565b60405161092596959493929190613620565b60405180910390f35b610948600480360361094391908101906133a6565b6126c8565b60405161095894939291906138e1565b60405180910390f35b61097b60048036036109769190810190613169565b612828565b6040516109889190613751565b60405180910390f35b6109ab60048036036109a691908101906133a6565b612885565b6040516109bc959493929190613934565b60405180910390f35b6109df60048036036109da9190810190613169565b612960565b6040516109ec9190613751565b60405180910390f35b610a0f6004803603610a0a91908101906131ce565b612980565b005b610a2b6004803603610a2691908101906133a6565b612c87565b604051610a389190613881565b60405180910390f35b610a5b6004803603610a569190810190613169565b612ca6565b604051610a689190613751565b60405180910390f35b610a79612d09565b604051610a869190613881565b60405180910390f35b610aa96004803603610aa491908101906133a6565b612d13565b604051610ab691906135a5565b60405180910390f35b610ad96004803603610ad491908101906133a6565b612d4f565b604051610ae994939291906135db565b60405180910390f35b610b0c6004803603610b079190810190613192565b612e0a565b005b610b286004803603610b239190810190613169565b612fdf565b604051610b359190613751565b60405180910390f35b610b586004803603610b5391908101906133a6565b612fff565b005b610b62613040565b604051610b6f9190613881565b60405180910390f35b6000600d600083815260200190815260200160002060009054906101000a900460ff1615610ba95760019050610baa565b5b919050565b6000601054905090565b6000600b600083815260200190815260200160002060009054906101000a900473ffffffffffffffffffffffffffffffffffffffff169050919050565b60105481565b6000600760008373ffffffffffffffffffffffffffffffffffffffff1673ffffffffffffffffffffffffffffffffffffffff16815260200190815260200160002060009054906101000a900460ff1615610c595760019050610c5a565b5b919050565b6000601454905090565b610c7233612ca6565b8015610c835750610c8233611d8f565b5b610c8c57600080fd5b6010600081548092919060010191905055506040518060a00160405280601054815260200184815260200183815260200160001515815260200182815250600080601054815260200190815260200160002060008201518160000155602082015181600101556040820151816002019080519060200190610d0e929190613046565b5060608201518160030160006101000a81548160ff0219169083151502179055506080820151816004015590505033600b6000601054815260200190815260200160002060006101000a81548173ffffffffffffffffffffffffffffffffffffffff021916908373ffffffffffffffffffffffffffffffffffffffff160217905550505050565b600d6020528060005260406000206000915054906101000a900460ff1681565b600080600083815260200190815260200160002060030160009054906101000a900460ff169050919050565b60066020528060005260406000206000915054906101000a900460ff1681565b6060600f805480602002602001604051908101604052809291908181526020018280548015610e8557602002820191906000526020600020905b8160009054906101000a900473ffffffffffffffffffffffffffffffffffffffff1673ffffffffffffffffffffffffffffffffffffffff1681526020019060010190808311610e3b575b5050505050905090565b6000806000838152602001908152602001600020600101549050919050565b610eb733612828565b610ec057600080fd5b6001600960008373ffffffffffffffffffffffffffffffffffffffff1673ffffffffffffffffffffffffffffffffffffffff16815260200190815260200160002060006101000a81548160ff0219169083151502179055507f6a6455914f452787eb3985452aceedc1000fb545e394eb3b370e3d08958e0a5b81604051610f4791906135a5565b60405180910390a150565b60606000606080606080600360008873ffffffffffffffffffffffffffffffffffffffff1673ffffffffffffffffffffffffffffffffffffffff168152602001908152602001600020600101600360008973ffffffffffffffffffffffffffffffffffffffff1673ffffffffffffffffffffffffffffffffffffffff16815260200190815260200160002060020154600360008a73ffffffffffffffffffffffffffffffffffffffff1673ffffffffffffffffffffffffffffffffffffffff168152602001908152602001600020600301600360008b73ffffffffffffffffffffffffffffffffffffffff1673ffffffffffffffffffffffffffffffffffffffff168152602001908152602001600020600401600360008c73ffffffffffffffffffffffffffffffffffffffff1673ffffffffffffffffffffffffffffffffffffffff168152602001908152602001600020600501600360008d73ffffffffffffffffffffffffffffffffffffffff1673ffffffffffffffffffffffffffffffffffffffff168152602001908152602001600020600601858054600181600116156101000203166002900480601f01602080910402602001604051908101604052809291908181526020018280546001816001161561010002031660029004801561117e5780601f106111535761010080835404028352916020019161117e565b820191906000526020600020905b81548152906001019060200180831161116157829003601f168201915b50505050509550838054600181600116156101000203166002900480601f01602080910402602001604051908101604052809291908181526020018280546001816001161561010002031660029004801561121a5780601f106111ef5761010080835404028352916020019161121a565b820191906000526020600020905b8154815290600101906020018083116111fd57829003601f168201915b50505050509350828054600181600116156101000203166002900480601f0160208091040260200160405190810160405280929190818152602001828054600181600116156101000203166002900480156112b65780601f1061128b576101008083540402835291602001916112b6565b820191906000526020600020905b81548152906001019060200180831161129957829003601f168201915b50505050509250818054600181600116156101000203166002900480601f0160208091040260200160405190810160405280929190818152602001828054600181600116156101000203166002900480156113525780601f1061132757610100808354040283529160200191611352565b820191906000526020600020905b81548152906001019060200180831161133557829003601f168201915b50505050509150808054600181600116156101000203166002900480601f0160208091040260200160405190810160405280929190818152602001828054600181600116156101000203166002900480156113ee5780601f106113c3576101008083540402835291602001916113ee565b820191906000526020600020905b8154815290600101906020018083116113d157829003601f168201915b5050505050905095509550955095509550955091939550919395565b6000600a600083815260200190815260200160002060009054906101000a900460ff161561143b576001905061143c565b5b919050565b6000600c600083815260200190815260200160002060009054906101000a900460ff16156114725760019050611473565b5b919050565b60606000808381526020019081526020016000206002018054600181600116156101000203166002900480601f0160208091040260200160405190810160405280929190818152602001828054600181600116156101000203166002900480156115235780601f106114f857610100808354040283529160200191611523565b820191906000526020600020905b81548152906001019060200180831161150657829003601f168201915b50505050509050919050565b600a6020528060005260406000206000915054906101000a900460ff1681565b600c6020528060005260406000206000915054906101000a900460ff1681565b60115481565b60125481565b600b6020528060005260406000206000915054906101000a900473ffffffffffffffffffffffffffffffffffffffff1681565b60076020528060005260406000206000915054906101000a900460ff1681565b60096020528060005260406000206000915054906101000a900460ff1681565b60036020528060005260406000206000915090508060000160009054906101000a900473ffffffffffffffffffffffffffffffffffffffff1690806001018054600181600116156101000203166002900480601f0160208091040260200160405190810160405280929190818152602001828054600181600116156101000203166002900480156116c05780601f10611695576101008083540402835291602001916116c0565b820191906000526020600020905b8154815290600101906020018083116116a357829003601f168201915b505050505090806002015490806003018054600181600116156101000203166002900480601f0160208091040260200160405190810160405280929190818152602001828054600181600116156101000203166002900480156117645780601f1061173957610100808354040283529160200191611764565b820191906000526020600020905b81548152906001019060200180831161174757829003601f168201915b505050505090806004018054600181600116156101000203166002900480601f0160208091040260200160405190810160405280929190818152602001828054600181600116156101000203166002900480156118025780601f106117d757610100808354040283529160200191611802565b820191906000526020600020905b8154815290600101906020018083116117e557829003601f168201915b505050505090806005018054600181600116156101000203166002900480601f0160208091040260200160405190810160405280929190818152602001828054600181600116156101000203166002900480156118a05780601f10611875576101008083540402835291602001916118a0565b820191906000526020600020905b81548152906001019060200180831161188357829003601f168201915b505050505090806006018054600181600116156101000203166002900480601f01602080910402602001604051908101604052809291908181526020018280546001816001161561010002031660029004801561193e5780601f106119135761010080835404028352916020019161193e565b820191906000526020600020905b81548152906001019060200180831161192157829003601f168201915b5050505050905087565b60046020528060005260406000206000915090508060000154908060010160009054906101000a900473ffffffffffffffffffffffffffffffffffffffff16908060020160009054906101000a900473ffffffffffffffffffffffffffffffffffffffff16908060030154905084565b606060006060806060600260008773ffffffffffffffffffffffffffffffffffffffff1673ffffffffffffffffffffffffffffffffffffffff168152602001908152602001600020600101600260008873ffffffffffffffffffffffffffffffffffffffff1673ffffffffffffffffffffffffffffffffffffffff16815260200190815260200160002060020154600260008973ffffffffffffffffffffffffffffffffffffffff1673ffffffffffffffffffffffffffffffffffffffff168152602001908152602001600020600301600260008a73ffffffffffffffffffffffffffffffffffffffff1673ffffffffffffffffffffffffffffffffffffffff168152602001908152602001600020600401600260008b73ffffffffffffffffffffffffffffffffffffffff1673ffffffffffffffffffffffffffffffffffffffff168152602001908152602001600020600501848054600181600116156101000203166002900480601f016020809104026020016040519081016040528092919081815260200182805460018160011615610100020316600290048015611ba15780601f10611b7657610100808354040283529160200191611ba1565b820191906000526020600020905b815481529060010190602001808311611b8457829003601f168201915b50505050509450828054600181600116156101000203166002900480601f016020809104026020016040519081016040528092919081815260200182805460018160011615610100020316600290048015611c3d5780601f10611c1257610100808354040283529160200191611c3d565b820191906000526020600020905b815481529060010190602001808311611c2057829003601f168201915b50505050509250818054600181600116156101000203166002900480601f016020809104026020016040519081016040528092919081815260200182805460018160011615610100020316600290048015611cd95780601f10611cae57610100808354040283529160200191611cd9565b820191906000526020600020905b815481529060010190602001808311611cbc57829003601f168201915b50505050509150808054600181600116156101000203166002900480601f016020809104026020016040519081016040528092919081815260200182805460018160011615610100020316600290048015611d755780601f10611d4a57610100808354040283529160200191611d75565b820191906000526020600020905b815481529060010190602001808311611d5857829003601f168201915b505050505090509450945094509450945091939590929450565b6000600860008373ffffffffffffffffffffffffffffffffffffffff1673ffffffffffffffffffffffffffffffffffffffff16815260200190815260200160002060009054906101000a900460ff1680611e325750600960008373ffffffffffffffffffffffffffffffffffffffff1673ffffffffffffffffffffffffffffffffffffffff16815260200190815260200160002060009054906101000a900460ff165b15611e405760019050611e41565b5b919050565b60135481565b611e5533612828565b611e5e57600080fd5b80600b600084815260200190815260200160002060006101000a81548173ffffffffffffffffffffffffffffffffffffffff021916908373ffffffffffffffffffffffffffffffffffffffff1602179055505050565b6000600560008373ffffffffffffffffffffffffffffffffffffffff1673ffffffffffffffffffffffffffffffffffffffff16815260200190815260200160002060009054906101000a900460ff1615611f115760019050611f12565b5b919050565b600560003373ffffffffffffffffffffffffffffffffffffffff1673ffffffffffffffffffffffffffffffffffffffff16815260200190815260200160002060009054906101000a900460ff1615611f6e57600080fd5b6001600560003373ffffffffffffffffffffffffffffffffffffffff1673ffffffffffffffffffffffffffffffffffffffff16815260200190815260200160002060006101000a81548160ff0219169083151502179055506001600760003373ffffffffffffffffffffffffffffffffffffffff1673ffffffffffffffffffffffffffffffffffffffff16815260200190815260200160002060006101000a81548160ff0219169083151502179055506013600081548092919060010191905055506040518060e001604052803373ffffffffffffffffffffffffffffffffffffffff16815260200187815260200186815260200185815260200184815260200183815260200182815250600360003373ffffffffffffffffffffffffffffffffffffffff1673ffffffffffffffffffffffffffffffffffffffff16815260200190815260200160002060008201518160000160006101000a81548173ffffffffffffffffffffffffffffffffffffffff021916908373ffffffffffffffffffffffffffffffffffffffff160217905550602082015181600101908051906020019061211b929190613046565b50604082015181600201556060820151816003019080519060200190612142929190613046565b50608082015181600401908051906020019061215f929190613046565b5060a082015181600501908051906020019061217c929190613046565b5060c0820151816006019080519060200190612199929190613046565b50905050600f3390806001815401808255809150509060018203906000526020600020016000909192909190916101000a81548173ffffffffffffffffffffffffffffffffffffffff021916908373ffffffffffffffffffffffffffffffffffffffff160217905550507f478f5152d8fc568db3f8de9fb402fd9d98a1a7541ecfe434e59cf574fbfc55243360405161223291906135c0565b60405180910390a1505050505050565b600e818154811061224f57fe5b906000526020600020016000915054906101000a900473ffffffffffffffffffffffffffffffffffffffff1681565b61228733612828565b61229057600080fd5b6001600860008373ffffffffffffffffffffffffffffffffffffffff1673ffffffffffffffffffffffffffffffffffffffff16815260200190815260200160002060006101000a81548160ff0219169083151502179055507f6a6455914f452787eb3985452aceedc1000fb545e394eb3b370e3d08958e0a5b8160405161231791906135a5565b60405180910390a150565b61232b33612ca6565b801561233c575061233b33611d8f565b5b61234557600080fd5b6001600c600083815260200190815260200160002060006101000a81548160ff02191690831515021790555050565b6060600e8054806020026020016040519081016040528092919081815260200182805480156123f857602002820191906000526020600020905b8160009054906101000a900473ffffffffffffffffffffffffffffffffffffffff1673ffffffffffffffffffffffffffffffffffffffff16815260200190600101908083116123ae575b5050505050905090565b6000601254905090565b60026020528060005260406000206000915090508060000160009054906101000a900473ffffffffffffffffffffffffffffffffffffffff1690806001018054600181600116156101000203166002900480601f0160208091040260200160405190810160405280929190818152602001828054600181600116156101000203166002900480156124de5780601f106124b3576101008083540402835291602001916124de565b820191906000526020600020905b8154815290600101906020018083116124c157829003601f168201915b505050505090806002015490806003018054600181600116156101000203166002900480601f0160208091040260200160405190810160405280929190818152602001828054600181600116156101000203166002900480156125825780601f1061255757610100808354040283529160200191612582565b820191906000526020600020905b81548152906001019060200180831161256557829003601f168201915b505050505090806004018054600181600116156101000203166002900480601f0160208091040260200160405190810160405280929190818152602001828054600181600116156101000203166002900480156126205780601f106125f557610100808354040283529160200191612620565b820191906000526020600020905b81548152906001019060200180831161260357829003601f168201915b505050505090806005018054600181600116156101000203166002900480601f0160208091040260200160405190810160405280929190818152602001828054600181600116156101000203166002900480156126be5780601f10612693576101008083540402835291602001916126be565b820191906000526020600020905b8154815290600101906020018083116126a157829003601f168201915b5050505050905086565b6001602052806000526040600020600091509050806000015490806001018054600181600116156101000203166002900480601f01602080910402602001604051908101604052809291908181526020018280546001816001161561010002031660029004801561277a5780601f1061274f5761010080835404028352916020019161277a565b820191906000526020600020905b81548152906001019060200180831161275d57829003601f168201915b505050505090806002015490806003018054600181600116156101000203166002900480601f01602080910402602001604051908101604052809291908181526020018280546001816001161561010002031660029004801561281e5780601f106127f35761010080835404028352916020019161281e565b820191906000526020600020905b81548152906001019060200180831161280157829003601f168201915b5050505050905084565b60008173ffffffffffffffffffffffffffffffffffffffff167398227f5ddf4e10b0bb10fff31b3eb49a567ce09673ffffffffffffffffffffffffffffffffffffffff16141561287b5760019050612880565b600090505b919050565b6000602052806000526040600020600091509050806000015490806001015490806002018054600181600116156101000203166002900480601f01602080910402602001604051908101604052809291908181526020018280546001816001161561010002031660029004801561293d5780601f106129125761010080835404028352916020019161293d565b820191906000526020600020905b81548152906001019060200180831161292057829003601f168201915b5050505050908060030160009054906101000a900460ff16908060040154905085565b60086020528060005260406000206000915054906101000a900460ff1681565b600560003373ffffffffffffffffffffffffffffffffffffffff1673ffffffffffffffffffffffffffffffffffffffff16815260200190815260200160002060009054906101000a900460ff16156129d757600080fd5b6001600560003373ffffffffffffffffffffffffffffffffffffffff1673ffffffffffffffffffffffffffffffffffffffff16815260200190815260200160002060006101000a81548160ff0219169083151502179055506001600660003373ffffffffffffffffffffffffffffffffffffffff1673ffffffffffffffffffffffffffffffffffffffff16815260200190815260200160002060006101000a81548160ff0219169083151502179055506012600081548092919060010191905055506040518060c001604052803373ffffffffffffffffffffffffffffffffffffffff16815260200186815260200185815260200184815260200183815260200182815250600260003373ffffffffffffffffffffffffffffffffffffffff1673ffffffffffffffffffffffffffffffffffffffff16815260200190815260200160002060008201518160000160006101000a81548173ffffffffffffffffffffffffffffffffffffffff021916908373ffffffffffffffffffffffffffffffffffffffff1602179055506020820151816001019080519060200190612b7e929190613046565b50604082015181600201556060820151816003019080519060200190612ba5929190613046565b506080820151816004019080519060200190612bc2929190613046565b5060a0820151816005019080519060200190612bdf929190613046565b50905050600e3390806001815401808255809150509060018203906000526020600020016000909192909190916101000a81548173ffffffffffffffffffffffffffffffffffffffff021916908373ffffffffffffffffffffffffffffffffffffffff160217905550507f478f5152d8fc568db3f8de9fb402fd9d98a1a7541ecfe434e59cf574fbfc552433604051612c7891906135c0565b60405180910390a15050505050565b6000806000838152602001908152602001600020600401549050919050565b6000600660008373ffffffffffffffffffffffffffffffffffffffff1673ffffffffffffffffffffffffffffffffffffffff16815260200190815260200160002060009054906101000a900460ff1615612d035760019050612d04565b5b919050565b6000601354905090565b600f8181548110612d2057fe5b906000526020600020016000915054906101000a900473ffffffffffffffffffffffffffffffffffffffff1681565b6000806000806004600086815260200190815260200160002060010160009054906101000a900473ffffffffffffffffffffffffffffffffffffffff166004600087815260200190815260200160002060020160009054906101000a900473ffffffffffffffffffffffffffffffffffffffff166004600088815260200190815260200160002060030154600c600089815260200190815260200160002060009054906101000a900460ff1693509350935093509193509193565b612e1333610bfc565b8015612e245750612e2333611d8f565b5b612e2d57600080fd5b601460008154809291906001019190505550604051806080016040528060145481526020018373ffffffffffffffffffffffffffffffffffffffff1681526020013373ffffffffffffffffffffffffffffffffffffffff168152602001828152506004600060145481526020019081526020016000206000820151816000015560208201518160010160006101000a81548173ffffffffffffffffffffffffffffffffffffffff021916908373ffffffffffffffffffffffffffffffffffffffff16021790555060408201518160020160006101000a81548173ffffffffffffffffffffffffffffffffffffffff021916908373ffffffffffffffffffffffffffffffffffffffff160217905550606082015181600301559050506000600c6000601454815260200190815260200160002060006101000a81548160ff0219169083151502179055506001600d6000601454815260200190815260200160002060006101000a81548160ff0219169083151502179055507fc67eb70629da758128cec22f7e36ad0676066ad4df9b66e8ba58a30c1ab4075b82604051612fd391906135a5565b60405180910390a15050565b60056020528060005260406000206000915054906101000a900460ff1681565b61300833612828565b61301157600080fd5b6001600a600083815260200190815260200160002060006101000a81548160ff02191690831515021790555050565b60145481565b828054600181600116156101000203166002900490600052602060002090601f016020900481019282601f1061308757805160ff19168380011785556130b5565b828001600101855582156130b5579182015b828111156130b4578251825591602001919060010190613099565b5b5090506130c291906130c6565b5090565b6130e891905b808211156130e45760008160009055506001016130cc565b5090565b90565b6000813590506130fa81613b18565b92915050565b600082601f83011261311157600080fd5b813561312461311f826139bb565b61398e565b9150808252602083016020830185838301111561314057600080fd5b61314b838284613ac5565b50505092915050565b60008135905061316381613b2f565b92915050565b60006020828403121561317b57600080fd5b6000613189848285016130eb565b91505092915050565b600080604083850312156131a557600080fd5b60006131b3858286016130eb565b92505060206131c485828601613154565b9150509250929050565b600080600080600060a086880312156131e657600080fd5b600086013567ffffffffffffffff81111561320057600080fd5b61320c88828901613100565b955050602061321d88828901613154565b945050604086013567ffffffffffffffff81111561323a57600080fd5b61324688828901613100565b935050606086013567ffffffffffffffff81111561326357600080fd5b61326f88828901613100565b925050608086013567ffffffffffffffff81111561328c57600080fd5b61329888828901613100565b9150509295509295909350565b60008060008060008060c087890312156132be57600080fd5b600087013567ffffffffffffffff8111156132d857600080fd5b6132e489828a01613100565b96505060206132f589828a01613154565b955050604087013567ffffffffffffffff81111561331257600080fd5b61331e89828a01613100565b945050606087013567ffffffffffffffff81111561333b57600080fd5b61334789828a01613100565b935050608087013567ffffffffffffffff81111561336457600080fd5b61337089828a01613100565b92505060a087013567ffffffffffffffff81111561338d57600080fd5b61339989828a01613100565b9150509295509295509295565b6000602082840312156133b857600080fd5b60006133c684828501613154565b91505092915050565b600080604083850312156133e257600080fd5b60006133f085828601613154565b9250506020613401858286016130eb565b9150509250929050565b60008060006060848603121561342057600080fd5b600061342e86828701613154565b935050602084013567ffffffffffffffff81111561344b57600080fd5b61345786828701613100565b925050604061346886828701613154565b9150509250925092565b600061347e8383613499565b60208301905092915050565b61349381613a8f565b82525050565b6134a281613a47565b82525050565b6134b181613a47565b82525050565b60006134c2826139f7565b6134cc8185613a25565b93506134d7836139e7565b8060005b838110156135085781516134ef8882613472565b97506134fa83613a18565b9250506001810190506134db565b5085935050505092915050565b61351e81613a59565b82525050565b600061352f82613a0d565b6135398185613a36565b9350613549818560208601613ad4565b61355281613b07565b840191505092915050565b600061356882613a02565b6135728185613a36565b9350613582818560208601613ad4565b61358b81613b07565b840191505092915050565b61359f81613a85565b82525050565b60006020820190506135ba60008301846134a8565b92915050565b60006020820190506135d5600083018461348a565b92915050565b60006080820190506135f060008301876134a8565b6135fd60208301866134a8565b61360a6040830185613596565b6136176060830184613515565b95945050505050565b600060c08201905061363560008301896134a8565b8181036020830152613647818861355d565b90506136566040830187613596565b8181036060830152613668818661355d565b9050818103608083015261367c818561355d565b905081810360a0830152613690818461355d565b9050979650505050505050565b600060e0820190506136b2600083018a6134a8565b81810360208301526136c4818961355d565b90506136d36040830188613596565b81810360608301526136e5818761355d565b905081810360808301526136f9818661355d565b905081810360a083015261370d818561355d565b905081810360c0830152613721818461355d565b905098975050505050505050565b6000602082019050818103600083015261374981846134b7565b905092915050565b60006020820190506137666000830184613515565b92915050565b600060208201905081810360008301526137868184613524565b905092915050565b600060a08201905081810360008301526137a88188613524565b90506137b76020830187613596565b81810360408301526137c98186613524565b905081810360608301526137dd8185613524565b905081810360808301526137f18184613524565b90509695505050505050565b600060c08201905081810360008301526138178189613524565b90506138266020830188613596565b81810360408301526138388187613524565b9050818103606083015261384c8186613524565b905081810360808301526138608185613524565b905081810360a08301526138748184613524565b9050979650505050505050565b60006020820190506138966000830184613596565b92915050565b60006080820190506138b16000830187613596565b6138be60208301866134a8565b6138cb60408301856134a8565b6138d86060830184613596565b95945050505050565b60006080820190506138f66000830187613596565b8181036020830152613908818661355d565b90506139176040830185613596565b8181036060830152613929818461355d565b905095945050505050565b600060a0820190506139496000830188613596565b6139566020830187613596565b8181036040830152613968818661355d565b90506139776060830185613515565b6139846080830184613596565b9695505050505050565b6000604051905081810181811067ffffffffffffffff821117156139b157600080fd5b8060405250919050565b600067ffffffffffffffff8211156139d257600080fd5b601f19601f8301169050602081019050919050565b6000819050602082019050919050565b600081519050919050565b600081519050919050565b600081519050919050565b6000602082019050919050565b600082825260208201905092915050565b600082825260208201905092915050565b6000613a5282613a65565b9050919050565b60008115159050919050565b600073ffffffffffffffffffffffffffffffffffffffff82169050919050565b6000819050919050565b6000613a9a82613aa1565b9050919050565b6000613aac82613ab3565b9050919050565b6000613abe82613a65565b9050919050565b82818337600083830152505050565b60005b83811015613af2578082015181840152602081019050613ad7565b83811115613b01576000848401525b50505050565b6000601f19601f8301169050919050565b613b2181613a47565b8114613b2c57600080fd5b50565b613b3881613a85565b8114613b4357600080fd5b5056fea365627a7a72315820792acf22f23dc756968457e5cc5dc46b365a8d1d72be7f8752b8426775891efe6c6578706572696d656e74616cf564736f6c63430005100040",
  "source": "pragma solidity >= 0.5.2;\npragma experimental ABIEncoderV2;\n\ncontract Land {\n    struct Landreg {\n        uint id;\n        uint area;\n        string location;\n        // address owner; //-->this should be the seller \n        bool verificationStatus;\n        // string landImg;\n        uint landPrice;\n    }\n\n    struct Buyer{\n        address id;\n        string name;\n        uint age;\n        string city;\n        string state;\n        string aadharNumber;\n        string panNumber;\n    }\n\n    struct Seller{\n        address id;\n        string name;\n        uint age;\n        string aadharNumber;\n        string panNumber;\n        string landsOwned;\n    }\n\n    struct LandInspector {\n        uint id;\n        string name;\n        uint age;\n        string designation;\n    }\n\n    struct LandRequest{\n        uint reqId;\n        address sellerId;\n        address buyerId;\n        uint landId;\n        // bool requestStatus;\n        // bool requested;\n    }\n\n    //key value pairs\n    mapping(uint => Landreg) public lands;\n    mapping(uint => LandInspector) public InspectorMapping;\n    mapping(address => Seller) public SellerMapping;\n    mapping(address => Buyer) public BuyerMapping;\n    mapping(uint => LandRequest) public RequestsMapping;\n\n    mapping(address => bool) public RegisteredAddressMapping;\n    mapping(address => bool) public RegisteredSellerMapping;\n    mapping(address => bool) public RegisteredBuyerMapping;\n    mapping(address => bool) public SellerVerification;\n    mapping(address => bool) public BuyerVerification;\n    mapping(uint => bool) public LandVerification;\n    mapping(uint => address) public LandOwner;\n    mapping(uint => bool) public RequestStatus;\n    mapping(uint => bool) public RequestedLands;\n    // mapping(uint => bool) public requestedLand;\n\n\n    // mapping(address => address) public BuyertoSellerMapping;\n    // mapping(address => uint) public BuyertoLandMapping;\n    // mapping(address => bool) public BuyertoStatusMapping;\n\n    // LandRequest[] public RequestsMapping;\n    address[] public sellers;\n    address[] public buyers;\n\n    uint public landsCount;\n    uint public inspectorsCount;\n    uint public sellersCount;\n    uint public buyersCount;\n    uint public requestsCount;\n\n    event Registration(address _registrationId);\n    event AddingLand(uint indexed _landId);\n    event Landrequested(address _sellerId);\n    event requestApproved(address _buyerId);\n    event Verified(address _id);\n\n    constructor() public{\n        // addLand(450, \"Pune\");\n        // addLand(650, \"Akola\");\n        // addLand(500, \"Mumbai\");\n        addLandInspector(\"Inspector 1\", 45, \"Tehsil Manager\");\n    }\n\n    function addLandInspector(string memory _name, uint _age, string memory _designation) private {\n        inspectorsCount++;\n        InspectorMapping[inspectorsCount] = LandInspector(inspectorsCount, _name, _age, _designation);\n    }\n\n    function getLandsCount() public view returns (uint) {\n        return landsCount;\n    }\n\n    function getBuyersCount() public view returns (uint) {\n        return buyersCount;\n    }\n\n    function getSellersCount() public view returns (uint) {\n        return sellersCount;\n    }\n\n    function getRequestsCount() public view returns (uint) {\n        return requestsCount;\n    }\n    // function getRequestStatus(uint id) public payable returns (bool) {\n    //     return \n    // }\n\n    function getArea(uint i) public view returns (uint) {\n        return lands[i].area;\n    }\n    function getLocation(uint i) public view returns (string memory) {\n        return lands[i].location;\n    }\n    function getStatus(uint i) public view returns (bool) {\n        return lands[i].verificationStatus;\n    }\n    function getPrice(uint i) public view returns (uint) {\n        return lands[i].landPrice;\n    }\n    \n    function getLandOwner(uint id) public view returns (address) {\n        return LandOwner[id];\n    }\n\n    function verifySeller(address _sellerId) public{\n        require(isLandInspector(msg.sender));\n\n        SellerVerification[_sellerId] = true;\n        emit Verified(_sellerId);\n    }\n\n    function verifyBuyer(address _buyerId) public{\n        require(isLandInspector(msg.sender));\n\n        BuyerVerification[_buyerId] = true;\n        emit Verified(_buyerId);\n    }\n    \n    function verifyLand(uint _landId) public{\n        require(isLandInspector(msg.sender));\n\n        LandVerification[_landId] = true;\n    }\n\n    function isLandVerified(uint _id) public view returns (bool) {\n        if(LandVerification[_id]){\n            return true;\n        }\n    }\n\n    function isVerified(address _id) public view returns (bool) {\n        if(SellerVerification[_id] || BuyerVerification[_id]){\n            return true;\n        }\n    }\n\n    function isSeller(address _id) public view returns (bool) {\n        if(RegisteredSellerMapping[_id]){\n            return true;\n        }\n    }\n\n    function isLandInspector(address _id) public view returns (bool) {\n        if(0x98227f5DDf4e10B0BB10fff31b3Eb49A567cE096 == _id){\n            return true;\n        }else{\n            return false;\n        }\n    }\n\n    function isBuyer(address _id) public view returns (bool) {\n        if(RegisteredBuyerMapping[_id]){\n            return true;\n        }\n    }\n    function isRegistered(address _id) public view returns (bool) {\n        if(RegisteredAddressMapping[_id]){\n            return true;\n        }\n    }\n\n    function addLand(uint _area, string memory _location, uint landPrice) public {\n        // let landImg = \"https://images.unsplash.com/photo-1597843736176-23c29f7187f7?ixid=MXwxMjA3fDB8MHxwaG90by1wYWdlfHx8fGVufDB8fHw%3D&ixlib=rb-1.2.1&auto=format&fit=crop&w=1489&q=80\";\n        require((isSeller(msg.sender)) && (isVerified(msg.sender)));\n        landsCount++;\n        lands[landsCount] = Landreg(landsCount, _area, _location, false, landPrice);\n        LandOwner[landsCount] = msg.sender;\n        // emit AddingLand(landsCount);\n    }\n\n    //registration of seller\n    function registerSeller(string memory _name, uint _age, string memory _aadharNumber, string memory _panNumber, string memory _landsOwned) public {\n        //require that Buyer is not already registered\n        require(!RegisteredAddressMapping[msg.sender]);\n\n        RegisteredAddressMapping[msg.sender] = true;\n        RegisteredSellerMapping[msg.sender] = true ;\n        sellersCount++;\n        SellerMapping[msg.sender] = Seller(msg.sender, _name, _age, _aadharNumber,_panNumber, _landsOwned);\n        sellers.push(msg.sender);\n        emit Registration(msg.sender);\n    }\n\n    function getSeller() public view returns( address [] memory ){\n        return(sellers);\n    }\n\n    function getSellerDetails(address i) public view returns (string memory, uint, string memory, string memory, string memory) {\n        return (SellerMapping[i].name, SellerMapping[i].age, SellerMapping[i].aadharNumber, SellerMapping[i].panNumber, SellerMapping[i].landsOwned);\n    }\n\n    function registerBuyer(string memory _name, uint _age, string memory _city, string memory _state, string memory _aadharNumber, string memory _panNumber) public {\n        //require that Buyer is not already registered\n        require(!RegisteredAddressMapping[msg.sender]);\n\n        RegisteredAddressMapping[msg.sender] = true;\n        RegisteredBuyerMapping[msg.sender] = true ;\n        buyersCount++;\n        BuyerMapping[msg.sender] = Buyer(msg.sender, _name, _age, _city, _state, _aadharNumber, _panNumber);\n        buyers.push(msg.sender);\n\n        emit Registration(msg.sender);\n    }\n\n    function getBuyer() public view returns( address [] memory ){\n        return(buyers);\n    }\n\n    function getBuyerDetails(address i) public view returns (string memory, uint, string memory, string memory, string memory, string memory) {\n        return (BuyerMapping[i].name, BuyerMapping[i].age,BuyerMapping[i].city,BuyerMapping[i].state,  BuyerMapping[i].aadharNumber, BuyerMapping[i].panNumber);\n    }\n\n    // function getAllRequests() public view returns (LandRequest[] memory){\n    //     return RequestsMapping;\n    // }\n\n    function requestLand(address _sellerId, uint _landId) public{\n        require(isBuyer(msg.sender) && isVerified(msg.sender));\n        \n        // LandRequest memory newReq =  LandRequest({\n        //     sellerId: _sellerId,\n        //     buyerId: msg.sender,\n        //     landId: _landId,\n        //     requestStatus: false, \n        //     requested: true});\n    \n        requestsCount++;\n        RequestsMapping[requestsCount] = LandRequest(requestsCount, _sellerId, msg.sender, _landId);\n        RequestStatus[requestsCount] = false;\n        RequestedLands[requestsCount] = true;\n\n        emit Landrequested(_sellerId);\n        // RequestsMapping[msg.sender] = LandRequest(_sellerId, _landId, false);\n    }\n\n    function getRequestDetails (uint i) public view returns (address, address, uint, bool) {\n        return(RequestsMapping[i].sellerId, RequestsMapping[i].buyerId, RequestsMapping[i].landId, RequestStatus[i]);\n    }\n\n    function isRequested(uint _id) public view returns (bool) {\n        if(RequestedLands[_id]){\n            return true;\n        }\n    }\n\n    function isApproved(uint _id) public view returns (bool) {\n        if(RequestStatus[_id]){\n            return true;\n        }\n    }\n\n    function approveRequest(uint _reqId) public {\n        require((isSeller(msg.sender)) && (isVerified(msg.sender)));\n\n        // // req.requestStatus = true;\n       \n        RequestStatus[_reqId] = true;\n\n        // emit requestApproved(req.buyerId);\n    }\n\n    function LandOwnershipTransfer(uint _landId, address _newOwner) public{\n        require(isLandInspector(msg.sender));\n\n        LandOwner[_landId] = _newOwner;\n    }\n\n}",
  "sourcePath": "/home/vrinda/Desktop/Sem 6/SE/SE-Project/contracts/Land.sol",
  "compiler": {
    "name": "solc",
    "version": "0.5.16+commit.9c3226ce.Emscripten.clang"
  },
  "schemaVersion": "3.3.4",
  "updatedAt": "2021-04-17T18:54:48.110Z",
  "networkType": "ethereum",
  "devdoc": {
    "methods": {}
  },
  "userdoc": {
    "methods": {}
  }
}