{
  "contractName": "Land",
  "abi": [
    {
      "inputs": [],
      "payable": false,
      "stateMutability": "nonpayable",
      "type": "constructor"
    },
    {
      "anonymous": false,
      "inputs": [
        {
          "indexed": true,
          "internalType": "uint256",
          "name": "_landId",
          "type": "uint256"
        }
      ],
      "name": "AddingLand",
      "type": "event"
    },
    {
      "anonymous": false,
      "inputs": [
        {
          "indexed": false,
          "internalType": "address",
          "name": "_sellerId",
          "type": "address"
        }
      ],
      "name": "Landrequested",
      "type": "event"
    },
    {
      "anonymous": false,
      "inputs": [
        {
          "indexed": false,
          "internalType": "address",
          "name": "_registrationId",
          "type": "address"
        }
      ],
      "name": "Registration",
      "type": "event"
    },
    {
      "anonymous": false,
      "inputs": [
        {
          "indexed": false,
          "internalType": "address",
          "name": "_id",
          "type": "address"
        }
      ],
      "name": "Verified",
      "type": "event"
    },
    {
      "anonymous": false,
      "inputs": [
        {
          "indexed": false,
          "internalType": "address",
          "name": "_buyerId",
          "type": "address"
        }
      ],
      "name": "requestApproved",
      "type": "event"
    },
    {
      "constant": true,
      "inputs": [
        {
          "internalType": "address",
          "name": "",
          "type": "address"
        }
      ],
      "name": "BuyerMapping",
      "outputs": [
        {
          "internalType": "address",
          "name": "id",
          "type": "address"
        },
        {
          "internalType": "string",
          "name": "name",
          "type": "string"
        },
        {
          "internalType": "uint256",
          "name": "age",
          "type": "uint256"
        },
        {
          "internalType": "string",
          "name": "city",
          "type": "string"
        },
        {
          "internalType": "string",
          "name": "state",
          "type": "string"
        },
        {
          "internalType": "string",
          "name": "aadharNumber",
          "type": "string"
        },
        {
          "internalType": "string",
          "name": "panNumber",
          "type": "string"
        }
      ],
      "payable": false,
      "stateMutability": "view",
      "type": "function"
    },
    {
      "constant": true,
      "inputs": [
        {
          "internalType": "address",
          "name": "",
          "type": "address"
        }
      ],
      "name": "BuyerVerification",
      "outputs": [
        {
          "internalType": "bool",
          "name": "",
          "type": "bool"
        }
      ],
      "payable": false,
      "stateMutability": "view",
      "type": "function"
    },
    {
      "constant": true,
      "inputs": [
        {
          "internalType": "uint256",
          "name": "",
          "type": "uint256"
        }
      ],
      "name": "InspectorMapping",
      "outputs": [
        {
          "internalType": "uint256",
          "name": "id",
          "type": "uint256"
        },
        {
          "internalType": "string",
          "name": "name",
          "type": "string"
        },
        {
          "internalType": "uint256",
          "name": "age",
          "type": "uint256"
        },
        {
          "internalType": "string",
          "name": "designation",
          "type": "string"
        }
      ],
      "payable": false,
      "stateMutability": "view",
      "type": "function"
    },
    {
      "constant": true,
      "inputs": [
        {
          "internalType": "uint256",
          "name": "",
          "type": "uint256"
        }
      ],
      "name": "LandOwner",
      "outputs": [
        {
          "internalType": "address",
          "name": "",
          "type": "address"
        }
      ],
      "payable": false,
      "stateMutability": "view",
      "type": "function"
    },
    {
      "constant": true,
      "inputs": [
        {
          "internalType": "uint256",
          "name": "",
          "type": "uint256"
        }
      ],
      "name": "LandVerification",
      "outputs": [
        {
          "internalType": "bool",
          "name": "",
          "type": "bool"
        }
      ],
      "payable": false,
      "stateMutability": "view",
      "type": "function"
    },
    {
      "constant": true,
      "inputs": [
        {
          "internalType": "address",
          "name": "",
          "type": "address"
        }
      ],
      "name": "RegisteredAddressMapping",
      "outputs": [
        {
          "internalType": "bool",
          "name": "",
          "type": "bool"
        }
      ],
      "payable": false,
      "stateMutability": "view",
      "type": "function"
    },
    {
      "constant": true,
      "inputs": [
        {
          "internalType": "address",
          "name": "",
          "type": "address"
        }
      ],
      "name": "RegisteredBuyerMapping",
      "outputs": [
        {
          "internalType": "bool",
          "name": "",
          "type": "bool"
        }
      ],
      "payable": false,
      "stateMutability": "view",
      "type": "function"
    },
    {
      "constant": true,
      "inputs": [
        {
          "internalType": "address",
          "name": "",
          "type": "address"
        }
      ],
      "name": "RegisteredSellerMapping",
      "outputs": [
        {
          "internalType": "bool",
          "name": "",
          "type": "bool"
        }
      ],
      "payable": false,
      "stateMutability": "view",
      "type": "function"
    },
    {
      "constant": true,
      "inputs": [
        {
          "internalType": "uint256",
          "name": "",
          "type": "uint256"
        }
      ],
      "name": "RequestStatus",
      "outputs": [
        {
          "internalType": "bool",
          "name": "",
          "type": "bool"
        }
      ],
      "payable": false,
      "stateMutability": "view",
      "type": "function"
    },
    {
      "constant": true,
      "inputs": [
        {
          "internalType": "uint256",
          "name": "",
          "type": "uint256"
        }
      ],
      "name": "RequestedLands",
      "outputs": [
        {
          "internalType": "bool",
          "name": "",
          "type": "bool"
        }
      ],
      "payable": false,
      "stateMutability": "view",
      "type": "function"
    },
    {
      "constant": true,
      "inputs": [
        {
          "internalType": "uint256",
          "name": "",
          "type": "uint256"
        }
      ],
      "name": "RequestsMapping",
      "outputs": [
        {
          "internalType": "uint256",
          "name": "reqId",
          "type": "uint256"
        },
        {
          "internalType": "address",
          "name": "sellerId",
          "type": "address"
        },
        {
          "internalType": "address",
          "name": "buyerId",
          "type": "address"
        },
        {
          "internalType": "uint256",
          "name": "landId",
          "type": "uint256"
        }
      ],
      "payable": false,
      "stateMutability": "view",
      "type": "function"
    },
    {
      "constant": true,
      "inputs": [
        {
          "internalType": "address",
          "name": "",
          "type": "address"
        }
      ],
      "name": "SellerMapping",
      "outputs": [
        {
          "internalType": "address",
          "name": "id",
          "type": "address"
        },
        {
          "internalType": "string",
          "name": "name",
          "type": "string"
        },
        {
          "internalType": "uint256",
          "name": "age",
          "type": "uint256"
        },
        {
          "internalType": "string",
          "name": "aadharNumber",
          "type": "string"
        },
        {
          "internalType": "string",
          "name": "panNumber",
          "type": "string"
        },
        {
          "internalType": "string",
          "name": "landsOwned",
          "type": "string"
        }
      ],
      "payable": false,
      "stateMutability": "view",
      "type": "function"
    },
    {
      "constant": true,
      "inputs": [
        {
          "internalType": "address",
          "name": "",
          "type": "address"
        }
      ],
      "name": "SellerVerification",
      "outputs": [
        {
          "internalType": "bool",
          "name": "",
          "type": "bool"
        }
      ],
      "payable": false,
      "stateMutability": "view",
      "type": "function"
    },
    {
      "constant": true,
      "inputs": [
        {
          "internalType": "uint256",
          "name": "",
          "type": "uint256"
        }
      ],
      "name": "buyers",
      "outputs": [
        {
          "internalType": "address",
          "name": "",
          "type": "address"
        }
      ],
      "payable": false,
      "stateMutability": "view",
      "type": "function"
    },
    {
      "constant": true,
      "inputs": [],
      "name": "buyersCount",
      "outputs": [
        {
          "internalType": "uint256",
          "name": "",
          "type": "uint256"
        }
      ],
      "payable": false,
      "stateMutability": "view",
      "type": "function"
    },
    {
      "constant": true,
      "inputs": [],
      "name": "inspectorsCount",
      "outputs": [
        {
          "internalType": "uint256",
          "name": "",
          "type": "uint256"
        }
      ],
      "payable": false,
      "stateMutability": "view",
      "type": "function"
    },
    {
      "constant": true,
      "inputs": [
        {
          "internalType": "uint256",
          "name": "",
          "type": "uint256"
        }
      ],
      "name": "lands",
      "outputs": [
        {
          "internalType": "uint256",
          "name": "id",
          "type": "uint256"
        },
        {
          "internalType": "uint256",
          "name": "area",
          "type": "uint256"
        },
        {
          "internalType": "string",
          "name": "location",
          "type": "string"
        },
        {
          "internalType": "bool",
          "name": "verificationStatus",
          "type": "bool"
        },
        {
          "internalType": "uint256",
          "name": "landPrice",
          "type": "uint256"
        },
        {
          "internalType": "string",
          "name": "ipfsHash",
          "type": "string"
        }
      ],
      "payable": false,
      "stateMutability": "view",
      "type": "function"
    },
    {
      "constant": true,
      "inputs": [],
      "name": "landsCount",
      "outputs": [
        {
          "internalType": "uint256",
          "name": "",
          "type": "uint256"
        }
      ],
      "payable": false,
      "stateMutability": "view",
      "type": "function"
    },
    {
      "constant": true,
      "inputs": [],
      "name": "requestsCount",
      "outputs": [
        {
          "internalType": "uint256",
          "name": "",
          "type": "uint256"
        }
      ],
      "payable": false,
      "stateMutability": "view",
      "type": "function"
    },
    {
      "constant": true,
      "inputs": [
        {
          "internalType": "uint256",
          "name": "",
          "type": "uint256"
        }
      ],
      "name": "sellers",
      "outputs": [
        {
          "internalType": "address",
          "name": "",
          "type": "address"
        }
      ],
      "payable": false,
      "stateMutability": "view",
      "type": "function"
    },
    {
      "constant": true,
      "inputs": [],
      "name": "sellersCount",
      "outputs": [
        {
          "internalType": "uint256",
          "name": "",
          "type": "uint256"
        }
      ],
      "payable": false,
      "stateMutability": "view",
      "type": "function"
    },
    {
      "constant": true,
      "inputs": [],
      "name": "getLandsCount",
      "outputs": [
        {
          "internalType": "uint256",
          "name": "",
          "type": "uint256"
        }
      ],
      "payable": false,
      "stateMutability": "view",
      "type": "function"
    },
    {
      "constant": true,
      "inputs": [],
      "name": "getBuyersCount",
      "outputs": [
        {
          "internalType": "uint256",
          "name": "",
          "type": "uint256"
        }
      ],
      "payable": false,
      "stateMutability": "view",
      "type": "function"
    },
    {
      "constant": true,
      "inputs": [],
      "name": "getSellersCount",
      "outputs": [
        {
          "internalType": "uint256",
          "name": "",
          "type": "uint256"
        }
      ],
      "payable": false,
      "stateMutability": "view",
      "type": "function"
    },
    {
      "constant": true,
      "inputs": [],
      "name": "getRequestsCount",
      "outputs": [
        {
          "internalType": "uint256",
          "name": "",
          "type": "uint256"
        }
      ],
      "payable": false,
      "stateMutability": "view",
      "type": "function"
    },
    {
      "constant": true,
      "inputs": [
        {
          "internalType": "uint256",
          "name": "i",
          "type": "uint256"
        }
      ],
      "name": "getArea",
      "outputs": [
        {
          "internalType": "uint256",
          "name": "",
          "type": "uint256"
        }
      ],
      "payable": false,
      "stateMutability": "view",
      "type": "function"
    },
    {
      "constant": true,
      "inputs": [
        {
          "internalType": "uint256",
          "name": "i",
          "type": "uint256"
        }
      ],
      "name": "getLocation",
      "outputs": [
        {
          "internalType": "string",
          "name": "",
          "type": "string"
        }
      ],
      "payable": false,
      "stateMutability": "view",
      "type": "function"
    },
    {
      "constant": true,
      "inputs": [
        {
          "internalType": "uint256",
          "name": "i",
          "type": "uint256"
        }
      ],
      "name": "getStatus",
      "outputs": [
        {
          "internalType": "bool",
          "name": "",
          "type": "bool"
        }
      ],
      "payable": false,
      "stateMutability": "view",
      "type": "function"
    },
    {
      "constant": true,
      "inputs": [
        {
          "internalType": "uint256",
          "name": "i",
          "type": "uint256"
        }
      ],
      "name": "getPrice",
      "outputs": [
        {
          "internalType": "uint256",
          "name": "",
          "type": "uint256"
        }
      ],
      "payable": false,
      "stateMutability": "view",
      "type": "function"
    },
    {
      "constant": true,
      "inputs": [
        {
          "internalType": "uint256",
          "name": "i",
          "type": "uint256"
        }
      ],
      "name": "getImage",
      "outputs": [
        {
          "internalType": "string",
          "name": "",
          "type": "string"
        }
      ],
      "payable": false,
      "stateMutability": "view",
      "type": "function"
    },
    {
      "constant": true,
      "inputs": [
        {
          "internalType": "uint256",
          "name": "id",
          "type": "uint256"
        }
      ],
      "name": "getLandOwner",
      "outputs": [
        {
          "internalType": "address",
          "name": "",
          "type": "address"
        }
      ],
      "payable": false,
      "stateMutability": "view",
      "type": "function"
    },
    {
      "constant": false,
      "inputs": [
        {
          "internalType": "address",
          "name": "_sellerId",
          "type": "address"
        }
      ],
      "name": "verifySeller",
      "outputs": [],
      "payable": false,
      "stateMutability": "nonpayable",
      "type": "function"
    },
    {
      "constant": false,
      "inputs": [
        {
          "internalType": "address",
          "name": "_buyerId",
          "type": "address"
        }
      ],
      "name": "verifyBuyer",
      "outputs": [],
      "payable": false,
      "stateMutability": "nonpayable",
      "type": "function"
    },
    {
      "constant": false,
      "inputs": [
        {
          "internalType": "uint256",
          "name": "_landId",
          "type": "uint256"
        }
      ],
      "name": "verifyLand",
      "outputs": [],
      "payable": false,
      "stateMutability": "nonpayable",
      "type": "function"
    },
    {
      "constant": true,
      "inputs": [
        {
          "internalType": "uint256",
          "name": "_id",
          "type": "uint256"
        }
      ],
      "name": "isLandVerified",
      "outputs": [
        {
          "internalType": "bool",
          "name": "",
          "type": "bool"
        }
      ],
      "payable": false,
      "stateMutability": "view",
      "type": "function"
    },
    {
      "constant": true,
      "inputs": [
        {
          "internalType": "address",
          "name": "_id",
          "type": "address"
        }
      ],
      "name": "isVerified",
      "outputs": [
        {
          "internalType": "bool",
          "name": "",
          "type": "bool"
        }
      ],
      "payable": false,
      "stateMutability": "view",
      "type": "function"
    },
    {
      "constant": true,
      "inputs": [
        {
          "internalType": "address",
          "name": "_id",
          "type": "address"
        }
      ],
      "name": "isSeller",
      "outputs": [
        {
          "internalType": "bool",
          "name": "",
          "type": "bool"
        }
      ],
      "payable": false,
      "stateMutability": "view",
      "type": "function"
    },
    {
      "constant": true,
      "inputs": [
        {
          "internalType": "address",
          "name": "_id",
          "type": "address"
        }
      ],
      "name": "isLandInspector",
      "outputs": [
        {
          "internalType": "bool",
          "name": "",
          "type": "bool"
        }
      ],
      "payable": false,
      "stateMutability": "view",
      "type": "function"
    },
    {
      "constant": true,
      "inputs": [
        {
          "internalType": "address",
          "name": "_id",
          "type": "address"
        }
      ],
      "name": "isBuyer",
      "outputs": [
        {
          "internalType": "bool",
          "name": "",
          "type": "bool"
        }
      ],
      "payable": false,
      "stateMutability": "view",
      "type": "function"
    },
    {
      "constant": true,
      "inputs": [
        {
          "internalType": "address",
          "name": "_id",
          "type": "address"
        }
      ],
      "name": "isRegistered",
      "outputs": [
        {
          "internalType": "bool",
          "name": "",
          "type": "bool"
        }
      ],
      "payable": false,
      "stateMutability": "view",
      "type": "function"
    },
    {
      "constant": false,
      "inputs": [
        {
          "internalType": "uint256",
          "name": "_area",
          "type": "uint256"
        },
        {
          "internalType": "string",
          "name": "_location",
          "type": "string"
        },
        {
          "internalType": "uint256",
          "name": "landPrice",
          "type": "uint256"
        },
        {
          "internalType": "string",
          "name": "_ipfsHash",
          "type": "string"
        }
      ],
      "name": "addLand",
      "outputs": [],
      "payable": false,
      "stateMutability": "nonpayable",
      "type": "function"
    },
    {
      "constant": false,
      "inputs": [
        {
          "internalType": "string",
          "name": "_name",
          "type": "string"
        },
        {
          "internalType": "uint256",
          "name": "_age",
          "type": "uint256"
        },
        {
          "internalType": "string",
          "name": "_aadharNumber",
          "type": "string"
        },
        {
          "internalType": "string",
          "name": "_panNumber",
          "type": "string"
        },
        {
          "internalType": "string",
          "name": "_landsOwned",
          "type": "string"
        }
      ],
      "name": "registerSeller",
      "outputs": [],
      "payable": false,
      "stateMutability": "nonpayable",
      "type": "function"
    },
    {
      "constant": true,
      "inputs": [],
      "name": "getSeller",
      "outputs": [
        {
          "internalType": "address[]",
          "name": "",
          "type": "address[]"
        }
      ],
      "payable": false,
      "stateMutability": "view",
      "type": "function"
    },
    {
      "constant": true,
      "inputs": [
        {
          "internalType": "address",
          "name": "i",
          "type": "address"
        }
      ],
      "name": "getSellerDetails",
      "outputs": [
        {
          "internalType": "string",
          "name": "",
          "type": "string"
        },
        {
          "internalType": "uint256",
          "name": "",
          "type": "uint256"
        },
        {
          "internalType": "string",
          "name": "",
          "type": "string"
        },
        {
          "internalType": "string",
          "name": "",
          "type": "string"
        },
        {
          "internalType": "string",
          "name": "",
          "type": "string"
        }
      ],
      "payable": false,
      "stateMutability": "view",
      "type": "function"
    },
    {
      "constant": false,
      "inputs": [
        {
          "internalType": "string",
          "name": "_name",
          "type": "string"
        },
        {
          "internalType": "uint256",
          "name": "_age",
          "type": "uint256"
        },
        {
          "internalType": "string",
          "name": "_city",
          "type": "string"
        },
        {
          "internalType": "string",
          "name": "_state",
          "type": "string"
        },
        {
          "internalType": "string",
          "name": "_aadharNumber",
          "type": "string"
        },
        {
          "internalType": "string",
          "name": "_panNumber",
          "type": "string"
        }
      ],
      "name": "registerBuyer",
      "outputs": [],
      "payable": false,
      "stateMutability": "nonpayable",
      "type": "function"
    },
    {
      "constant": true,
      "inputs": [],
      "name": "getBuyer",
      "outputs": [
        {
          "internalType": "address[]",
          "name": "",
          "type": "address[]"
        }
      ],
      "payable": false,
      "stateMutability": "view",
      "type": "function"
    },
    {
      "constant": true,
      "inputs": [
        {
          "internalType": "address",
          "name": "i",
          "type": "address"
        }
      ],
      "name": "getBuyerDetails",
      "outputs": [
        {
          "internalType": "string",
          "name": "",
          "type": "string"
        },
        {
          "internalType": "uint256",
          "name": "",
          "type": "uint256"
        },
        {
          "internalType": "string",
          "name": "",
          "type": "string"
        },
        {
          "internalType": "string",
          "name": "",
          "type": "string"
        },
        {
          "internalType": "string",
          "name": "",
          "type": "string"
        },
        {
          "internalType": "string",
          "name": "",
          "type": "string"
        }
      ],
      "payable": false,
      "stateMutability": "view",
      "type": "function"
    },
    {
      "constant": false,
      "inputs": [
        {
          "internalType": "address",
          "name": "_sellerId",
          "type": "address"
        },
        {
          "internalType": "uint256",
          "name": "_landId",
          "type": "uint256"
        }
      ],
      "name": "requestLand",
      "outputs": [],
      "payable": false,
      "stateMutability": "nonpayable",
      "type": "function"
    },
    {
      "constant": true,
      "inputs": [
        {
          "internalType": "uint256",
          "name": "i",
          "type": "uint256"
        }
      ],
      "name": "getRequestDetails",
      "outputs": [
        {
          "internalType": "address",
          "name": "",
          "type": "address"
        },
        {
          "internalType": "address",
          "name": "",
          "type": "address"
        },
        {
          "internalType": "uint256",
          "name": "",
          "type": "uint256"
        },
        {
          "internalType": "bool",
          "name": "",
          "type": "bool"
        }
      ],
      "payable": false,
      "stateMutability": "view",
      "type": "function"
    },
    {
      "constant": true,
      "inputs": [
        {
          "internalType": "uint256",
          "name": "_id",
          "type": "uint256"
        }
      ],
      "name": "isRequested",
      "outputs": [
        {
          "internalType": "bool",
          "name": "",
          "type": "bool"
        }
      ],
      "payable": false,
      "stateMutability": "view",
      "type": "function"
    },
    {
      "constant": true,
      "inputs": [
        {
          "internalType": "uint256",
          "name": "_id",
          "type": "uint256"
        }
      ],
      "name": "isApproved",
      "outputs": [
        {
          "internalType": "bool",
          "name": "",
          "type": "bool"
        }
      ],
      "payable": false,
      "stateMutability": "view",
      "type": "function"
    },
    {
      "constant": false,
      "inputs": [
        {
          "internalType": "uint256",
          "name": "_reqId",
          "type": "uint256"
        }
      ],
      "name": "approveRequest",
      "outputs": [],
      "payable": false,
      "stateMutability": "nonpayable",
      "type": "function"
    },
    {
      "constant": false,
      "inputs": [
        {
          "internalType": "uint256",
          "name": "_landId",
          "type": "uint256"
        },
        {
          "internalType": "address",
          "name": "_newOwner",
          "type": "address"
        }
      ],
      "name": "LandOwnershipTransfer",
      "outputs": [],
      "payable": false,
      "stateMutability": "nonpayable",
      "type": "function"
    }
  ],
  "bytecode": "0x60806040523480156200001157600080fd5b50620000906040518060400160405280600b81526020017f496e73706563746f722031000000000000000000000000000000000000000000815250602d6040518060400160405280600e81526020017f54656873696c204d616e616765720000000000000000000000000000000000008152506200009660201b60201c565b620001e9565b6011600081548092919060010191905055506040518060800160405280601154815260200184815260200183815260200182815250600160006011548152602001908152602001600020600082015181600001556020820151816001019080519060200190620001089291906200013a565b50604082015181600201556060820151816003019080519060200190620001319291906200013a565b50905050505050565b828054600181600116156101000203166002900490600052602060002090601f016020900481019282601f106200017d57805160ff1916838001178555620001ae565b82800160010185558215620001ae579182015b82811115620001ad57825182559160200191906001019062000190565b5b509050620001bd9190620001c1565b5090565b620001e691905b80821115620001e2576000816000905550600101620001c8565b5090565b90565b613d8f80620001f96000396000f3fe608060405234801561001057600080fd5b50600436106103275760003560e01c8063b3c8fe85116101b8578063def936c311610104578063f0d3a9df116100a2578063f3f0c2181161007c578063f3f0c21814610b3e578063f58f85b514610b5a578063f9c43bdf14610b8a578063fbfa4b7f14610ba657610327565b8063f0d3a9df14610abd578063f2aa821814610adb578063f34d4c6314610b0b57610327565b8063e4b26115116100de578063e4b2611514610a11578063e706d55514610a41578063e757223014610a5d578063ee95feaf14610a8d57610327565b8063def936c314610979578063e165af87146109ac578063e261f1e5146109dc57610327565b8063cad1ab3b11610171578063d7d1bbdb1161014b578063d7d1bbdb146108ec578063dbd0e1b614610908578063dd9d122d14610926578063dec091ad1461094457610327565b8063cad1ab3b14610884578063cee26ed5146108a0578063d1760e60146108d057610327565b8063b3c8fe851461079a578063b6a61ce1146107ce578063b9209e33146107ea578063ba49a08c1461081a578063bed403c714610838578063c3c5a5471461085457610327565b806368cfe6ee11610277578063941e242611610230578063a47d4c021161020a578063a47d4c02146106d1578063a6dc41fb14610701578063ab51707414610731578063b0a5dcd31461076757610327565b8063941e2426146106655780639ae9711e146106835780639dc1bfa9146106a157610327565b806368cfe6ee146105405780636cbf6cf8146105755780637910867b146105a55780637f7b1393146105d5578063835465011461060557806389d213541461063557610327565b80633410452a116102e4578063601e7c34116102be578063601e7c34146104a6578063603daf9a146104d65780636490c7a8146104f45780636814800b1461052457610327565b80633410452a146104285780634daa9dae146104465780635c622a0e1461047657610327565b8063155fec721461032c57806316d9d6661461035c5780631869a38b1461037a5780631c9afd0f146103aa5780632607aafa146103c85780632a55feec146103f8575b600080fd5b6103466004803603610341919081019061356b565b610bc4565b6040516103539190613942565b60405180910390f35b610364610bfb565b6040516103719190613a72565b60405180910390f35b610394600480360361038f919081019061356b565b610c05565b6040516103a19190613796565b60405180910390f35b6103b2610c42565b6040516103bf9190613a72565b60405180910390f35b6103e260048036036103dd919081019061356b565b610c48565b6040516103ef919061395d565b60405180910390f35b610412600480360361040d919081019061332e565b610cff565b60405161041f9190613942565b60405180910390f35b610430610d62565b60405161043d9190613a72565b60405180910390f35b610460600480360361045b919081019061356b565b610d6c565b60405161046d9190613942565b60405180910390f35b610490600480360361048b919081019061356b565b610d8c565b60405161049d9190613942565b60405180910390f35b6104c060048036036104bb919081019061332e565b610db8565b6040516104cd9190613942565b60405180910390f35b6104de610dd8565b6040516104eb9190613920565b60405180910390f35b61050e6004803603610509919081019061356b565b610e66565b60405161051b9190613a72565b60405180910390f35b61053e6004803603610539919081019061332e565b610e85565b005b61055a6004803603610555919081019061332e565b610f29565b60405161056c969594939291906139ee565b60405180910390f35b61058f600480360361058a919081019061356b565b6113e1565b60405161059c9190613942565b60405180910390f35b6105bf60048036036105ba919081019061356b565b611418565b6040516105cc9190613942565b60405180910390f35b6105ef60048036036105ea919081019061356b565b61144f565b6040516105fc919061395d565b60405180910390f35b61061f600480360361061a919081019061356b565b611506565b60405161062c9190613942565b60405180910390f35b61064f600480360361064a919081019061356b565b611526565b60405161065c9190613942565b60405180910390f35b61066d611546565b60405161067a9190613a72565b60405180910390f35b61068b61154c565b6040516106989190613a72565b60405180910390f35b6106bb60048036036106b6919081019061356b565b611552565b6040516106c89190613796565b60405180910390f35b6106eb60048036036106e6919081019061332e565b611585565b6040516106f89190613942565b60405180910390f35b61071b6004803603610716919081019061332e565b6115a5565b6040516107289190613942565b60405180910390f35b61074b6004803603610746919081019061332e565b6115c5565b60405161075e979695949392919061388e565b60405180910390f35b610781600480360361077c919081019061356b565b61191f565b6040516107919493929190613a8d565b60405180910390f35b6107b460048036036107af919081019061332e565b61198f565b6040516107c595949392919061397f565b60405180910390f35b6107e860048036036107e391908101906135d0565b611d66565b005b61080460048036036107ff919081019061332e565b611eb6565b6040516108119190613942565b60405180910390f35b610822611f6d565b60405161082f9190613a72565b60405180910390f35b610852600480360361084d9190810190613594565b611f73565b005b61086e6004803603610869919081019061332e565b611fdb565b60405161087b9190613942565b60405180910390f35b61089e6004803603610899919081019061346a565b61203e565b005b6108ba60048036036108b5919081019061356b565b612369565b6040516108c79190613796565b60405180910390f35b6108ea60048036036108e5919081019061332e565b6123a5565b005b6109066004803603610901919081019061356b565b612449565b005b61091061249b565b60405161091d9190613920565b60405180910390f35b61092e612529565b60405161093b9190613a72565b60405180910390f35b61095e6004803603610959919081019061332e565b612533565b60405161097096959493929190613811565b60405180910390f35b610993600480360361098e919081019061356b565b6127ef565b6040516109a39493929190613ad2565b60405180910390f35b6109c660048036036109c1919081019061332e565b61294f565b6040516109d39190613942565b60405180910390f35b6109f660048036036109f1919081019061356b565b6129ac565b604051610a0896959493929190613b25565b60405180910390f35b610a2b6004803603610a26919081019061332e565b612b25565b604051610a389190613942565b60405180910390f35b610a5b6004803603610a569190810190613393565b612b45565b005b610a776004803603610a72919081019061356b565b612e4c565b604051610a849190613a72565b60405180910390f35b610aa76004803603610aa2919081019061332e565b612e6b565b604051610ab49190613942565b60405180910390f35b610ac5612ece565b604051610ad29190613a72565b60405180910390f35b610af56004803603610af0919081019061356b565b612ed8565b604051610b029190613796565b60405180910390f35b610b256004803603610b20919081019061356b565b612f14565b604051610b3594939291906137cc565b60405180910390f35b610b586004803603610b539190810190613357565b612fcf565b005b610b746004803603610b6f919081019061332e565b6131a4565b604051610b819190613942565b60405180910390f35b610ba46004803603610b9f919081019061356b565b6131c4565b005b610bae613205565b604051610bbb9190613a72565b60405180910390f35b6000600d600083815260200190815260200160002060009054906101000a900460ff1615610bf55760019050610bf6565b5b919050565b6000601054905090565b6000600b600083815260200190815260200160002060009054906101000a900473ffffffffffffffffffffffffffffffffffffffff169050919050565b60105481565b60606000808381526020019081526020016000206005018054600181600116156101000203166002900480601f016020809104026020016040519081016040528092919081815260200182805460018160011615610100020316600290048015610cf35780601f10610cc857610100808354040283529160200191610cf3565b820191906000526020600020905b815481529060010190602001808311610cd657829003601f168201915b50505050509050919050565b6000600760008373ffffffffffffffffffffffffffffffffffffffff1673ffffffffffffffffffffffffffffffffffffffff16815260200190815260200160002060009054906101000a900460ff1615610d5c5760019050610d5d565b5b919050565b6000601454905090565b600d6020528060005260406000206000915054906101000a900460ff1681565b600080600083815260200190815260200160002060030160009054906101000a900460ff169050919050565b60066020528060005260406000206000915054906101000a900460ff1681565b6060600f805480602002602001604051908101604052809291908181526020018280548015610e5c57602002820191906000526020600020905b8160009054906101000a900473ffffffffffffffffffffffffffffffffffffffff1673ffffffffffffffffffffffffffffffffffffffff1681526020019060010190808311610e12575b5050505050905090565b6000806000838152602001908152602001600020600101549050919050565b610e8e3361294f565b610e9757600080fd5b6001600960008373ffffffffffffffffffffffffffffffffffffffff1673ffffffffffffffffffffffffffffffffffffffff16815260200190815260200160002060006101000a81548160ff0219169083151502179055507f6a6455914f452787eb3985452aceedc1000fb545e394eb3b370e3d08958e0a5b81604051610f1e9190613796565b60405180910390a150565b60606000606080606080600360008873ffffffffffffffffffffffffffffffffffffffff1673ffffffffffffffffffffffffffffffffffffffff168152602001908152602001600020600101600360008973ffffffffffffffffffffffffffffffffffffffff1673ffffffffffffffffffffffffffffffffffffffff16815260200190815260200160002060020154600360008a73ffffffffffffffffffffffffffffffffffffffff1673ffffffffffffffffffffffffffffffffffffffff168152602001908152602001600020600301600360008b73ffffffffffffffffffffffffffffffffffffffff1673ffffffffffffffffffffffffffffffffffffffff168152602001908152602001600020600401600360008c73ffffffffffffffffffffffffffffffffffffffff1673ffffffffffffffffffffffffffffffffffffffff168152602001908152602001600020600501600360008d73ffffffffffffffffffffffffffffffffffffffff1673ffffffffffffffffffffffffffffffffffffffff168152602001908152602001600020600601858054600181600116156101000203166002900480601f0160208091040260200160405190810160405280929190818152602001828054600181600116156101000203166002900480156111555780601f1061112a57610100808354040283529160200191611155565b820191906000526020600020905b81548152906001019060200180831161113857829003601f168201915b50505050509550838054600181600116156101000203166002900480601f0160208091040260200160405190810160405280929190818152602001828054600181600116156101000203166002900480156111f15780601f106111c6576101008083540402835291602001916111f1565b820191906000526020600020905b8154815290600101906020018083116111d457829003601f168201915b50505050509350828054600181600116156101000203166002900480601f01602080910402602001604051908101604052809291908181526020018280546001816001161561010002031660029004801561128d5780601f106112625761010080835404028352916020019161128d565b820191906000526020600020905b81548152906001019060200180831161127057829003601f168201915b50505050509250818054600181600116156101000203166002900480601f0160208091040260200160405190810160405280929190818152602001828054600181600116156101000203166002900480156113295780601f106112fe57610100808354040283529160200191611329565b820191906000526020600020905b81548152906001019060200180831161130c57829003601f168201915b50505050509150808054600181600116156101000203166002900480601f0160208091040260200160405190810160405280929190818152602001828054600181600116156101000203166002900480156113c55780601f1061139a576101008083540402835291602001916113c5565b820191906000526020600020905b8154815290600101906020018083116113a857829003601f168201915b5050505050905095509550955095509550955091939550919395565b6000600a600083815260200190815260200160002060009054906101000a900460ff16156114125760019050611413565b5b919050565b6000600c600083815260200190815260200160002060009054906101000a900460ff1615611449576001905061144a565b5b919050565b60606000808381526020019081526020016000206002018054600181600116156101000203166002900480601f0160208091040260200160405190810160405280929190818152602001828054600181600116156101000203166002900480156114fa5780601f106114cf576101008083540402835291602001916114fa565b820191906000526020600020905b8154815290600101906020018083116114dd57829003601f168201915b50505050509050919050565b600a6020528060005260406000206000915054906101000a900460ff1681565b600c6020528060005260406000206000915054906101000a900460ff1681565b60115481565b60125481565b600b6020528060005260406000206000915054906101000a900473ffffffffffffffffffffffffffffffffffffffff1681565b60076020528060005260406000206000915054906101000a900460ff1681565b60096020528060005260406000206000915054906101000a900460ff1681565b60036020528060005260406000206000915090508060000160009054906101000a900473ffffffffffffffffffffffffffffffffffffffff1690806001018054600181600116156101000203166002900480601f0160208091040260200160405190810160405280929190818152602001828054600181600116156101000203166002900480156116975780601f1061166c57610100808354040283529160200191611697565b820191906000526020600020905b81548152906001019060200180831161167a57829003601f168201915b505050505090806002015490806003018054600181600116156101000203166002900480601f01602080910402602001604051908101604052809291908181526020018280546001816001161561010002031660029004801561173b5780601f106117105761010080835404028352916020019161173b565b820191906000526020600020905b81548152906001019060200180831161171e57829003601f168201915b505050505090806004018054600181600116156101000203166002900480601f0160208091040260200160405190810160405280929190818152602001828054600181600116156101000203166002900480156117d95780601f106117ae576101008083540402835291602001916117d9565b820191906000526020600020905b8154815290600101906020018083116117bc57829003601f168201915b505050505090806005018054600181600116156101000203166002900480601f0160208091040260200160405190810160405280929190818152602001828054600181600116156101000203166002900480156118775780601f1061184c57610100808354040283529160200191611877565b820191906000526020600020905b81548152906001019060200180831161185a57829003601f168201915b505050505090806006018054600181600116156101000203166002900480601f0160208091040260200160405190810160405280929190818152602001828054600181600116156101000203166002900480156119155780601f106118ea57610100808354040283529160200191611915565b820191906000526020600020905b8154815290600101906020018083116118f857829003601f168201915b5050505050905087565b60046020528060005260406000206000915090508060000154908060010160009054906101000a900473ffffffffffffffffffffffffffffffffffffffff16908060020160009054906101000a900473ffffffffffffffffffffffffffffffffffffffff16908060030154905084565b606060006060806060600260008773ffffffffffffffffffffffffffffffffffffffff1673ffffffffffffffffffffffffffffffffffffffff168152602001908152602001600020600101600260008873ffffffffffffffffffffffffffffffffffffffff1673ffffffffffffffffffffffffffffffffffffffff16815260200190815260200160002060020154600260008973ffffffffffffffffffffffffffffffffffffffff1673ffffffffffffffffffffffffffffffffffffffff168152602001908152602001600020600301600260008a73ffffffffffffffffffffffffffffffffffffffff1673ffffffffffffffffffffffffffffffffffffffff168152602001908152602001600020600401600260008b73ffffffffffffffffffffffffffffffffffffffff1673ffffffffffffffffffffffffffffffffffffffff168152602001908152602001600020600501848054600181600116156101000203166002900480601f016020809104026020016040519081016040528092919081815260200182805460018160011615610100020316600290048015611b785780601f10611b4d57610100808354040283529160200191611b78565b820191906000526020600020905b815481529060010190602001808311611b5b57829003601f168201915b50505050509450828054600181600116156101000203166002900480601f016020809104026020016040519081016040528092919081815260200182805460018160011615610100020316600290048015611c145780601f10611be957610100808354040283529160200191611c14565b820191906000526020600020905b815481529060010190602001808311611bf757829003601f168201915b50505050509250818054600181600116156101000203166002900480601f016020809104026020016040519081016040528092919081815260200182805460018160011615610100020316600290048015611cb05780601f10611c8557610100808354040283529160200191611cb0565b820191906000526020600020905b815481529060010190602001808311611c9357829003601f168201915b50505050509150808054600181600116156101000203166002900480601f016020809104026020016040519081016040528092919081815260200182805460018160011615610100020316600290048015611d4c5780601f10611d2157610100808354040283529160200191611d4c565b820191906000526020600020905b815481529060010190602001808311611d2f57829003601f168201915b505050505090509450945094509450945091939590929450565b611d6f33612e6b565b8015611d805750611d7f33611eb6565b5b611d8957600080fd5b6010600081548092919060010191905055506040518060c00160405280601054815260200185815260200184815260200160001515815260200183815260200182815250600080601054815260200190815260200160002060008201518160000155602082015181600101556040820151816002019080519060200190611e1192919061320b565b5060608201518160030160006101000a81548160ff0219169083151502179055506080820151816004015560a0820151816005019080519060200190611e5892919061320b565b5090505033600b6000601054815260200190815260200160002060006101000a81548173ffffffffffffffffffffffffffffffffffffffff021916908373ffffffffffffffffffffffffffffffffffffffff16021790555050505050565b6000600860008373ffffffffffffffffffffffffffffffffffffffff1673ffffffffffffffffffffffffffffffffffffffff16815260200190815260200160002060009054906101000a900460ff1680611f595750600960008373ffffffffffffffffffffffffffffffffffffffff1673ffffffffffffffffffffffffffffffffffffffff16815260200190815260200160002060009054906101000a900460ff165b15611f675760019050611f68565b5b919050565b60135481565b611f7c3361294f565b611f8557600080fd5b80600b600084815260200190815260200160002060006101000a81548173ffffffffffffffffffffffffffffffffffffffff021916908373ffffffffffffffffffffffffffffffffffffffff1602179055505050565b6000600560008373ffffffffffffffffffffffffffffffffffffffff1673ffffffffffffffffffffffffffffffffffffffff16815260200190815260200160002060009054906101000a900460ff16156120385760019050612039565b5b919050565b600560003373ffffffffffffffffffffffffffffffffffffffff1673ffffffffffffffffffffffffffffffffffffffff16815260200190815260200160002060009054906101000a900460ff161561209557600080fd5b6001600560003373ffffffffffffffffffffffffffffffffffffffff1673ffffffffffffffffffffffffffffffffffffffff16815260200190815260200160002060006101000a81548160ff0219169083151502179055506001600760003373ffffffffffffffffffffffffffffffffffffffff1673ffffffffffffffffffffffffffffffffffffffff16815260200190815260200160002060006101000a81548160ff0219169083151502179055506013600081548092919060010191905055506040518060e001604052803373ffffffffffffffffffffffffffffffffffffffff16815260200187815260200186815260200185815260200184815260200183815260200182815250600360003373ffffffffffffffffffffffffffffffffffffffff1673ffffffffffffffffffffffffffffffffffffffff16815260200190815260200160002060008201518160000160006101000a81548173ffffffffffffffffffffffffffffffffffffffff021916908373ffffffffffffffffffffffffffffffffffffffff160217905550602082015181600101908051906020019061224292919061320b565b5060408201518160020155606082015181600301908051906020019061226992919061320b565b50608082015181600401908051906020019061228692919061320b565b5060a08201518160050190805190602001906122a392919061320b565b5060c08201518160060190805190602001906122c092919061320b565b50905050600f3390806001815401808255809150509060018203906000526020600020016000909192909190916101000a81548173ffffffffffffffffffffffffffffffffffffffff021916908373ffffffffffffffffffffffffffffffffffffffff160217905550507f478f5152d8fc568db3f8de9fb402fd9d98a1a7541ecfe434e59cf574fbfc55243360405161235991906137b1565b60405180910390a1505050505050565b600e818154811061237657fe5b906000526020600020016000915054906101000a900473ffffffffffffffffffffffffffffffffffffffff1681565b6123ae3361294f565b6123b757600080fd5b6001600860008373ffffffffffffffffffffffffffffffffffffffff1673ffffffffffffffffffffffffffffffffffffffff16815260200190815260200160002060006101000a81548160ff0219169083151502179055507f6a6455914f452787eb3985452aceedc1000fb545e394eb3b370e3d08958e0a5b8160405161243e9190613796565b60405180910390a150565b61245233612e6b565b8015612463575061246233611eb6565b5b61246c57600080fd5b6001600c600083815260200190815260200160002060006101000a81548160ff02191690831515021790555050565b6060600e80548060200260200160405190810160405280929190818152602001828054801561251f57602002820191906000526020600020905b8160009054906101000a900473ffffffffffffffffffffffffffffffffffffffff1673ffffffffffffffffffffffffffffffffffffffff16815260200190600101908083116124d5575b5050505050905090565b6000601254905090565b60026020528060005260406000206000915090508060000160009054906101000a900473ffffffffffffffffffffffffffffffffffffffff1690806001018054600181600116156101000203166002900480601f0160208091040260200160405190810160405280929190818152602001828054600181600116156101000203166002900480156126055780601f106125da57610100808354040283529160200191612605565b820191906000526020600020905b8154815290600101906020018083116125e857829003601f168201915b505050505090806002015490806003018054600181600116156101000203166002900480601f0160208091040260200160405190810160405280929190818152602001828054600181600116156101000203166002900480156126a95780601f1061267e576101008083540402835291602001916126a9565b820191906000526020600020905b81548152906001019060200180831161268c57829003601f168201915b505050505090806004018054600181600116156101000203166002900480601f0160208091040260200160405190810160405280929190818152602001828054600181600116156101000203166002900480156127475780601f1061271c57610100808354040283529160200191612747565b820191906000526020600020905b81548152906001019060200180831161272a57829003601f168201915b505050505090806005018054600181600116156101000203166002900480601f0160208091040260200160405190810160405280929190818152602001828054600181600116156101000203166002900480156127e55780601f106127ba576101008083540402835291602001916127e5565b820191906000526020600020905b8154815290600101906020018083116127c857829003601f168201915b5050505050905086565b6001602052806000526040600020600091509050806000015490806001018054600181600116156101000203166002900480601f0160208091040260200160405190810160405280929190818152602001828054600181600116156101000203166002900480156128a15780601f10612876576101008083540402835291602001916128a1565b820191906000526020600020905b81548152906001019060200180831161288457829003601f168201915b505050505090806002015490806003018054600181600116156101000203166002900480601f0160208091040260200160405190810160405280929190818152602001828054600181600116156101000203166002900480156129455780601f1061291a57610100808354040283529160200191612945565b820191906000526020600020905b81548152906001019060200180831161292857829003601f168201915b5050505050905084565b60008173ffffffffffffffffffffffffffffffffffffffff16734c469ec572fffe9fefeb8c54e9f86a92ab54823773ffffffffffffffffffffffffffffffffffffffff1614156129a257600190506129a7565b600090505b919050565b6000602052806000526040600020600091509050806000015490806001015490806002018054600181600116156101000203166002900480601f016020809104026020016040519081016040528092919081815260200182805460018160011615610100020316600290048015612a645780601f10612a3957610100808354040283529160200191612a64565b820191906000526020600020905b815481529060010190602001808311612a4757829003601f168201915b5050505050908060030160009054906101000a900460ff1690806004015490806005018054600181600116156101000203166002900480601f016020809104026020016040519081016040528092919081815260200182805460018160011615610100020316600290048015612b1b5780601f10612af057610100808354040283529160200191612b1b565b820191906000526020600020905b815481529060010190602001808311612afe57829003601f168201915b5050505050905086565b60086020528060005260406000206000915054906101000a900460ff1681565b600560003373ffffffffffffffffffffffffffffffffffffffff1673ffffffffffffffffffffffffffffffffffffffff16815260200190815260200160002060009054906101000a900460ff1615612b9c57600080fd5b6001600560003373ffffffffffffffffffffffffffffffffffffffff1673ffffffffffffffffffffffffffffffffffffffff16815260200190815260200160002060006101000a81548160ff0219169083151502179055506001600660003373ffffffffffffffffffffffffffffffffffffffff1673ffffffffffffffffffffffffffffffffffffffff16815260200190815260200160002060006101000a81548160ff0219169083151502179055506012600081548092919060010191905055506040518060c001604052803373ffffffffffffffffffffffffffffffffffffffff16815260200186815260200185815260200184815260200183815260200182815250600260003373ffffffffffffffffffffffffffffffffffffffff1673ffffffffffffffffffffffffffffffffffffffff16815260200190815260200160002060008201518160000160006101000a81548173ffffffffffffffffffffffffffffffffffffffff021916908373ffffffffffffffffffffffffffffffffffffffff1602179055506020820151816001019080519060200190612d4392919061320b565b50604082015181600201556060820151816003019080519060200190612d6a92919061320b565b506080820151816004019080519060200190612d8792919061320b565b5060a0820151816005019080519060200190612da492919061320b565b50905050600e3390806001815401808255809150509060018203906000526020600020016000909192909190916101000a81548173ffffffffffffffffffffffffffffffffffffffff021916908373ffffffffffffffffffffffffffffffffffffffff160217905550507f478f5152d8fc568db3f8de9fb402fd9d98a1a7541ecfe434e59cf574fbfc552433604051612e3d91906137b1565b60405180910390a15050505050565b6000806000838152602001908152602001600020600401549050919050565b6000600660008373ffffffffffffffffffffffffffffffffffffffff1673ffffffffffffffffffffffffffffffffffffffff16815260200190815260200160002060009054906101000a900460ff1615612ec85760019050612ec9565b5b919050565b6000601354905090565b600f8181548110612ee557fe5b906000526020600020016000915054906101000a900473ffffffffffffffffffffffffffffffffffffffff1681565b6000806000806004600086815260200190815260200160002060010160009054906101000a900473ffffffffffffffffffffffffffffffffffffffff166004600087815260200190815260200160002060020160009054906101000a900473ffffffffffffffffffffffffffffffffffffffff166004600088815260200190815260200160002060030154600c600089815260200190815260200160002060009054906101000a900460ff1693509350935093509193509193565b612fd833610cff565b8015612fe95750612fe833611eb6565b5b612ff257600080fd5b601460008154809291906001019190505550604051806080016040528060145481526020018373ffffffffffffffffffffffffffffffffffffffff1681526020013373ffffffffffffffffffffffffffffffffffffffff168152602001828152506004600060145481526020019081526020016000206000820151816000015560208201518160010160006101000a81548173ffffffffffffffffffffffffffffffffffffffff021916908373ffffffffffffffffffffffffffffffffffffffff16021790555060408201518160020160006101000a81548173ffffffffffffffffffffffffffffffffffffffff021916908373ffffffffffffffffffffffffffffffffffffffff160217905550606082015181600301559050506000600c6000601454815260200190815260200160002060006101000a81548160ff0219169083151502179055506001600d6000601454815260200190815260200160002060006101000a81548160ff0219169083151502179055507fc67eb70629da758128cec22f7e36ad0676066ad4df9b66e8ba58a30c1ab4075b826040516131989190613796565b60405180910390a15050565b60056020528060005260406000206000915054906101000a900460ff1681565b6131cd3361294f565b6131d657600080fd5b6001600a600083815260200190815260200160002060006101000a81548160ff02191690831515021790555050565b60145481565b828054600181600116156101000203166002900490600052602060002090601f016020900481019282601f1061324c57805160ff191683800117855561327a565b8280016001018555821561327a579182015b8281111561327957825182559160200191906001019061325e565b5b509050613287919061328b565b5090565b6132ad91905b808211156132a9576000816000905550600101613291565b5090565b90565b6000813590506132bf81613d1e565b92915050565b600082601f8301126132d657600080fd5b81356132e96132e482613bc1565b613b94565b9150808252602083016020830185838301111561330557600080fd5b613310838284613ccb565b50505092915050565b60008135905061332881613d35565b92915050565b60006020828403121561334057600080fd5b600061334e848285016132b0565b91505092915050565b6000806040838503121561336a57600080fd5b6000613378858286016132b0565b925050602061338985828601613319565b9150509250929050565b600080600080600060a086880312156133ab57600080fd5b600086013567ffffffffffffffff8111156133c557600080fd5b6133d1888289016132c5565b95505060206133e288828901613319565b945050604086013567ffffffffffffffff8111156133ff57600080fd5b61340b888289016132c5565b935050606086013567ffffffffffffffff81111561342857600080fd5b613434888289016132c5565b925050608086013567ffffffffffffffff81111561345157600080fd5b61345d888289016132c5565b9150509295509295909350565b60008060008060008060c0878903121561348357600080fd5b600087013567ffffffffffffffff81111561349d57600080fd5b6134a989828a016132c5565b96505060206134ba89828a01613319565b955050604087013567ffffffffffffffff8111156134d757600080fd5b6134e389828a016132c5565b945050606087013567ffffffffffffffff81111561350057600080fd5b61350c89828a016132c5565b935050608087013567ffffffffffffffff81111561352957600080fd5b61353589828a016132c5565b92505060a087013567ffffffffffffffff81111561355257600080fd5b61355e89828a016132c5565b9150509295509295509295565b60006020828403121561357d57600080fd5b600061358b84828501613319565b91505092915050565b600080604083850312156135a757600080fd5b60006135b585828601613319565b92505060206135c6858286016132b0565b9150509250929050565b600080600080608085870312156135e657600080fd5b60006135f487828801613319565b945050602085013567ffffffffffffffff81111561361157600080fd5b61361d878288016132c5565b935050604061362e87828801613319565b925050606085013567ffffffffffffffff81111561364b57600080fd5b613657878288016132c5565b91505092959194509250565b600061366f838361368a565b60208301905092915050565b61368481613c95565b82525050565b61369381613c4d565b82525050565b6136a281613c4d565b82525050565b60006136b382613bfd565b6136bd8185613c2b565b93506136c883613bed565b8060005b838110156136f95781516136e08882613663565b97506136eb83613c1e565b9250506001810190506136cc565b5085935050505092915050565b61370f81613c5f565b82525050565b600061372082613c13565b61372a8185613c3c565b935061373a818560208601613cda565b61374381613d0d565b840191505092915050565b600061375982613c08565b6137638185613c3c565b9350613773818560208601613cda565b61377c81613d0d565b840191505092915050565b61379081613c8b565b82525050565b60006020820190506137ab6000830184613699565b92915050565b60006020820190506137c6600083018461367b565b92915050565b60006080820190506137e16000830187613699565b6137ee6020830186613699565b6137fb6040830185613787565b6138086060830184613706565b95945050505050565b600060c0820190506138266000830189613699565b8181036020830152613838818861374e565b90506138476040830187613787565b8181036060830152613859818661374e565b9050818103608083015261386d818561374e565b905081810360a0830152613881818461374e565b9050979650505050505050565b600060e0820190506138a3600083018a613699565b81810360208301526138b5818961374e565b90506138c46040830188613787565b81810360608301526138d6818761374e565b905081810360808301526138ea818661374e565b905081810360a08301526138fe818561374e565b905081810360c0830152613912818461374e565b905098975050505050505050565b6000602082019050818103600083015261393a81846136a8565b905092915050565b60006020820190506139576000830184613706565b92915050565b600060208201905081810360008301526139778184613715565b905092915050565b600060a08201905081810360008301526139998188613715565b90506139a86020830187613787565b81810360408301526139ba8186613715565b905081810360608301526139ce8185613715565b905081810360808301526139e28184613715565b90509695505050505050565b600060c0820190508181036000830152613a088189613715565b9050613a176020830188613787565b8181036040830152613a298187613715565b90508181036060830152613a3d8186613715565b90508181036080830152613a518185613715565b905081810360a0830152613a658184613715565b9050979650505050505050565b6000602082019050613a876000830184613787565b92915050565b6000608082019050613aa26000830187613787565b613aaf6020830186613699565b613abc6040830185613699565b613ac96060830184613787565b95945050505050565b6000608082019050613ae76000830187613787565b8181036020830152613af9818661374e565b9050613b086040830185613787565b8181036060830152613b1a818461374e565b905095945050505050565b600060c082019050613b3a6000830189613787565b613b476020830188613787565b8181036040830152613b59818761374e565b9050613b686060830186613706565b613b756080830185613787565b81810360a0830152613b87818461374e565b9050979650505050505050565b6000604051905081810181811067ffffffffffffffff82111715613bb757600080fd5b8060405250919050565b600067ffffffffffffffff821115613bd857600080fd5b601f19601f8301169050602081019050919050565b6000819050602082019050919050565b600081519050919050565b600081519050919050565b600081519050919050565b6000602082019050919050565b600082825260208201905092915050565b600082825260208201905092915050565b6000613c5882613c6b565b9050919050565b60008115159050919050565b600073ffffffffffffffffffffffffffffffffffffffff82169050919050565b6000819050919050565b6000613ca082613ca7565b9050919050565b6000613cb282613cb9565b9050919050565b6000613cc482613c6b565b9050919050565b82818337600083830152505050565b60005b83811015613cf8578082015181840152602081019050613cdd565b83811115613d07576000848401525b50505050565b6000601f19601f8301169050919050565b613d2781613c4d565b8114613d3257600080fd5b50565b613d3e81613c8b565b8114613d4957600080fd5b5056fea365627a7a723158204f22d2a55eb4c8c561ce366f16b152fac481b54f618a353bd7c79a6cce81b52a6c6578706572696d656e74616cf564736f6c63430005100040",
  "source": "pragma solidity >= 0.5.2;\npragma experimental ABIEncoderV2;\n\ncontract Land {\n    struct Landreg {\n        uint id;\n        uint area;\n        string location;\n        bool verificationStatus;\n        uint landPrice;\n        string ipfsHash;\n    }\n\n    struct Buyer{\n        address id;\n        string name;\n        uint age;\n        string city;\n        string state;\n        string aadharNumber;\n        string panNumber;\n    }\n\n    struct Seller{\n        address id;\n        string name;\n        uint age;\n        string aadharNumber;\n        string panNumber;\n        string landsOwned;\n    }\n\n    struct LandInspector {\n        uint id;\n        string name;\n        uint age;\n        string designation;\n    }\n\n    struct LandRequest{\n        uint reqId;\n        address sellerId;\n        address buyerId;\n        uint landId;\n        // bool requestStatus;\n        // bool requested;\n    }\n\n    //key value pairs\n    mapping(uint => Landreg) public lands;\n    mapping(uint => LandInspector) public InspectorMapping;\n    mapping(address => Seller) public SellerMapping;\n    mapping(address => Buyer) public BuyerMapping;\n    mapping(uint => LandRequest) public RequestsMapping;\n\n    mapping(address => bool) public RegisteredAddressMapping;\n    mapping(address => bool) public RegisteredSellerMapping;\n    mapping(address => bool) public RegisteredBuyerMapping;\n    mapping(address => bool) public SellerVerification;\n    mapping(address => bool) public BuyerVerification;\n    mapping(uint => bool) public LandVerification;\n    mapping(uint => address) public LandOwner;\n    mapping(uint => bool) public RequestStatus;\n    mapping(uint => bool) public RequestedLands;\n\n\n    address[] public sellers;\n    address[] public buyers;\n\n    uint public landsCount;\n    uint public inspectorsCount;\n    uint public sellersCount;\n    uint public buyersCount;\n    uint public requestsCount;\n\n    event Registration(address _registrationId);\n    event AddingLand(uint indexed _landId);\n    event Landrequested(address _sellerId);\n    event requestApproved(address _buyerId);\n    event Verified(address _id);\n\n    constructor() public{\n        addLandInspector(\"Inspector 1\", 45, \"Tehsil Manager\");\n    }\n\n    function addLandInspector(string memory _name, uint _age, string memory _designation) private {\n        inspectorsCount++;\n        InspectorMapping[inspectorsCount] = LandInspector(inspectorsCount, _name, _age, _designation);\n    }\n\n    function getLandsCount() public view returns (uint) {\n        return landsCount;\n    }\n\n    function getBuyersCount() public view returns (uint) {\n        return buyersCount;\n    }\n\n    function getSellersCount() public view returns (uint) {\n        return sellersCount;\n    }\n\n    function getRequestsCount() public view returns (uint) {\n        return requestsCount;\n    }\n    // function getRequestStatus(uint id) public payable returns (bool) {\n    //     return \n    // }\n\n    function getArea(uint i) public view returns (uint) {\n        return lands[i].area;\n    }\n    function getLocation(uint i) public view returns (string memory) {\n        return lands[i].location;\n    }\n    function getStatus(uint i) public view returns (bool) {\n        return lands[i].verificationStatus;\n    }\n    function getPrice(uint i) public view returns (uint) {\n        return lands[i].landPrice;\n    }\n     function getImage(uint i) public view returns (string memory) {\n        return lands[i].ipfsHash;\n    }\n    \n    function getLandOwner(uint id) public view returns (address) {\n        return LandOwner[id];\n    }\n\n    function verifySeller(address _sellerId) public{\n        require(isLandInspector(msg.sender));\n\n        SellerVerification[_sellerId] = true;\n        emit Verified(_sellerId);\n    }\n\n    function verifyBuyer(address _buyerId) public{\n        require(isLandInspector(msg.sender));\n\n        BuyerVerification[_buyerId] = true;\n        emit Verified(_buyerId);\n    }\n    \n    function verifyLand(uint _landId) public{\n        require(isLandInspector(msg.sender));\n\n        LandVerification[_landId] = true;\n    }\n\n    function isLandVerified(uint _id) public view returns (bool) {\n        if(LandVerification[_id]){\n            return true;\n        }\n    }\n\n    function isVerified(address _id) public view returns (bool) {\n        if(SellerVerification[_id] || BuyerVerification[_id]){\n            return true;\n        }\n    }\n\n    function isSeller(address _id) public view returns (bool) {\n        if(RegisteredSellerMapping[_id]){\n            return true;\n        }\n    }\n\n    function isLandInspector(address _id) public view returns (bool) {\n        if(0x4c469ec572fFfE9FEfeB8c54E9f86A92ab548237 == _id){\n            return true;\n        }else{\n            return false;\n        }\n    }\n\n    function isBuyer(address _id) public view returns (bool) {\n        if(RegisteredBuyerMapping[_id]){\n            return true;\n        }\n    }\n    function isRegistered(address _id) public view returns (bool) {\n        if(RegisteredAddressMapping[_id]){\n            return true;\n        }\n    }\n\n    function addLand(uint _area, string memory _location, uint landPrice, string memory _ipfsHash) public {\n        require((isSeller(msg.sender)) && (isVerified(msg.sender)));\n        landsCount++;\n        lands[landsCount] = Landreg(landsCount, _area, _location, false, landPrice, _ipfsHash);\n        LandOwner[landsCount] = msg.sender;\n        // emit AddingLand(landsCount);\n    }\n\n    //registration of seller\n    function registerSeller(string memory _name, uint _age, string memory _aadharNumber, string memory _panNumber, string memory _landsOwned) public {\n        //require that Buyer is not already registered\n        require(!RegisteredAddressMapping[msg.sender]);\n\n        RegisteredAddressMapping[msg.sender] = true;\n        RegisteredSellerMapping[msg.sender] = true ;\n        sellersCount++;\n        SellerMapping[msg.sender] = Seller(msg.sender, _name, _age, _aadharNumber,_panNumber, _landsOwned);\n        sellers.push(msg.sender);\n        emit Registration(msg.sender);\n    }\n\n    function getSeller() public view returns( address [] memory ){\n        return(sellers);\n    }\n\n    function getSellerDetails(address i) public view returns (string memory, uint, string memory, string memory, string memory) {\n        return (SellerMapping[i].name, SellerMapping[i].age, SellerMapping[i].aadharNumber, SellerMapping[i].panNumber, SellerMapping[i].landsOwned);\n    }\n\n    function registerBuyer(string memory _name, uint _age, string memory _city, string memory _state, string memory _aadharNumber, string memory _panNumber) public {\n        //require that Buyer is not already registered\n        require(!RegisteredAddressMapping[msg.sender]);\n\n        RegisteredAddressMapping[msg.sender] = true;\n        RegisteredBuyerMapping[msg.sender] = true ;\n        buyersCount++;\n        BuyerMapping[msg.sender] = Buyer(msg.sender, _name, _age, _city, _state, _aadharNumber, _panNumber);\n        buyers.push(msg.sender);\n\n        emit Registration(msg.sender);\n    }\n\n    function getBuyer() public view returns( address [] memory ){\n        return(buyers);\n    }\n\n    function getBuyerDetails(address i) public view returns (string memory, uint, string memory, string memory, string memory, string memory) {\n        return (BuyerMapping[i].name, BuyerMapping[i].age,BuyerMapping[i].city,BuyerMapping[i].state,  BuyerMapping[i].aadharNumber, BuyerMapping[i].panNumber);\n    }\n\n    // function getAllRequests() public view returns (LandRequest[] memory){\n    //     return RequestsMapping;\n    // }\n\n    function requestLand(address _sellerId, uint _landId) public{\n        require(isBuyer(msg.sender) && isVerified(msg.sender));\n        \n        requestsCount++;\n        RequestsMapping[requestsCount] = LandRequest(requestsCount, _sellerId, msg.sender, _landId);\n        RequestStatus[requestsCount] = false;\n        RequestedLands[requestsCount] = true;\n\n        emit Landrequested(_sellerId);\n        // RequestsMapping[msg.sender] = LandRequest(_sellerId, _landId, false);\n    }\n\n    function getRequestDetails (uint i) public view returns (address, address, uint, bool) {\n        return(RequestsMapping[i].sellerId, RequestsMapping[i].buyerId, RequestsMapping[i].landId, RequestStatus[i]);\n    }\n\n    function isRequested(uint _id) public view returns (bool) {\n        if(RequestedLands[_id]){\n            return true;\n        }\n    }\n\n    function isApproved(uint _id) public view returns (bool) {\n        if(RequestStatus[_id]){\n            return true;\n        }\n    }\n\n    function approveRequest(uint _reqId) public {\n        require((isSeller(msg.sender)) && (isVerified(msg.sender)));\n       \n        RequestStatus[_reqId] = true;\n\n    }\n\n    function LandOwnershipTransfer(uint _landId, address _newOwner) public{\n        require(isLandInspector(msg.sender));\n\n        LandOwner[_landId] = _newOwner;\n    }\n\n}",
  "sourcePath": "/home/vrinda/Desktop/Sem 6/SE/SE-Project/contracts/Land.sol",
  "compiler": {
    "name": "solc",
    "version": "0.5.16+commit.9c3226ce.Emscripten.clang"
  },
  "schemaVersion": "3.3.4",
  "updatedAt": "2021-04-18T08:53:55.981Z",
  "networkType": "ethereum",
  "devdoc": {
    "methods": {}
  },
  "userdoc": {
    "methods": {}
  }
}