{
  "contractName": "Land",
  "abi": [
    {
      "inputs": [],
      "payable": false,
      "stateMutability": "nonpayable",
      "type": "constructor"
    },
    {
      "anonymous": false,
      "inputs": [
        {
          "indexed": true,
          "internalType": "uint256",
          "name": "_landId",
          "type": "uint256"
        }
      ],
      "name": "AddingLand",
      "type": "event"
    },
    {
      "anonymous": false,
      "inputs": [
        {
          "indexed": false,
          "internalType": "address",
          "name": "_sellerId",
          "type": "address"
        }
      ],
      "name": "Landrequested",
      "type": "event"
    },
    {
      "anonymous": false,
      "inputs": [
        {
          "indexed": false,
          "internalType": "address",
          "name": "_registrationId",
          "type": "address"
        }
      ],
      "name": "Registration",
      "type": "event"
    },
    {
      "anonymous": false,
      "inputs": [
        {
          "indexed": false,
          "internalType": "address",
          "name": "_id",
          "type": "address"
        }
      ],
      "name": "Verified",
      "type": "event"
    },
    {
      "anonymous": false,
      "inputs": [
        {
          "indexed": false,
          "internalType": "address",
          "name": "_buyerId",
          "type": "address"
        }
      ],
      "name": "requestApproved",
      "type": "event"
    },
    {
      "constant": true,
      "inputs": [
        {
          "internalType": "address",
          "name": "",
          "type": "address"
        }
      ],
      "name": "BuyerMapping",
      "outputs": [
        {
          "internalType": "address",
          "name": "id",
          "type": "address"
        },
        {
          "internalType": "string",
          "name": "name",
          "type": "string"
        },
        {
          "internalType": "uint256",
          "name": "age",
          "type": "uint256"
        },
        {
          "internalType": "string",
          "name": "city",
          "type": "string"
        },
        {
          "internalType": "string",
          "name": "state",
          "type": "string"
        },
        {
          "internalType": "string",
          "name": "aadharNumber",
          "type": "string"
        },
        {
          "internalType": "string",
          "name": "panNumber",
          "type": "string"
        }
      ],
      "payable": false,
      "stateMutability": "view",
      "type": "function"
    },
    {
      "constant": true,
      "inputs": [
        {
          "internalType": "address",
          "name": "",
          "type": "address"
        }
      ],
      "name": "BuyerVerification",
      "outputs": [
        {
          "internalType": "bool",
          "name": "",
          "type": "bool"
        }
      ],
      "payable": false,
      "stateMutability": "view",
      "type": "function"
    },
    {
      "constant": true,
      "inputs": [
        {
          "internalType": "uint256",
          "name": "",
          "type": "uint256"
        }
      ],
      "name": "InspectorMapping",
      "outputs": [
        {
          "internalType": "uint256",
          "name": "id",
          "type": "uint256"
        },
        {
          "internalType": "string",
          "name": "name",
          "type": "string"
        },
        {
          "internalType": "uint256",
          "name": "age",
          "type": "uint256"
        },
        {
          "internalType": "string",
          "name": "designation",
          "type": "string"
        }
      ],
      "payable": false,
      "stateMutability": "view",
      "type": "function"
    },
    {
      "constant": true,
      "inputs": [
        {
          "internalType": "uint256",
          "name": "",
          "type": "uint256"
        }
      ],
      "name": "LandOwner",
      "outputs": [
        {
          "internalType": "address",
          "name": "",
          "type": "address"
        }
      ],
      "payable": false,
      "stateMutability": "view",
      "type": "function"
    },
    {
      "constant": true,
      "inputs": [
        {
          "internalType": "address",
          "name": "",
          "type": "address"
        }
      ],
      "name": "RegisteredAddressMapping",
      "outputs": [
        {
          "internalType": "bool",
          "name": "",
          "type": "bool"
        }
      ],
      "payable": false,
      "stateMutability": "view",
      "type": "function"
    },
    {
      "constant": true,
      "inputs": [
        {
          "internalType": "address",
          "name": "",
          "type": "address"
        }
      ],
      "name": "RegisteredBuyerMapping",
      "outputs": [
        {
          "internalType": "bool",
          "name": "",
          "type": "bool"
        }
      ],
      "payable": false,
      "stateMutability": "view",
      "type": "function"
    },
    {
      "constant": true,
      "inputs": [
        {
          "internalType": "address",
          "name": "",
          "type": "address"
        }
      ],
      "name": "RegisteredSellerMapping",
      "outputs": [
        {
          "internalType": "bool",
          "name": "",
          "type": "bool"
        }
      ],
      "payable": false,
      "stateMutability": "view",
      "type": "function"
    },
    {
      "constant": true,
      "inputs": [
        {
          "internalType": "uint256",
          "name": "",
          "type": "uint256"
        }
      ],
      "name": "RequestsMapping",
      "outputs": [
        {
          "internalType": "address",
          "name": "sellerId",
          "type": "address"
        },
        {
          "internalType": "address",
          "name": "buyerId",
          "type": "address"
        },
        {
          "internalType": "uint256",
          "name": "landId",
          "type": "uint256"
        },
        {
          "internalType": "bool",
          "name": "requestStatus",
          "type": "bool"
        }
      ],
      "payable": false,
      "stateMutability": "view",
      "type": "function"
    },
    {
      "constant": true,
      "inputs": [
        {
          "internalType": "address",
          "name": "",
          "type": "address"
        }
      ],
      "name": "SellerMapping",
      "outputs": [
        {
          "internalType": "address",
          "name": "id",
          "type": "address"
        },
        {
          "internalType": "string",
          "name": "name",
          "type": "string"
        },
        {
          "internalType": "uint256",
          "name": "age",
          "type": "uint256"
        },
        {
          "internalType": "string",
          "name": "aadharNumber",
          "type": "string"
        },
        {
          "internalType": "string",
          "name": "panNumber",
          "type": "string"
        },
        {
          "internalType": "string",
          "name": "landsOwned",
          "type": "string"
        }
      ],
      "payable": false,
      "stateMutability": "view",
      "type": "function"
    },
    {
      "constant": true,
      "inputs": [
        {
          "internalType": "address",
          "name": "",
          "type": "address"
        }
      ],
      "name": "SellerVerification",
      "outputs": [
        {
          "internalType": "bool",
          "name": "",
          "type": "bool"
        }
      ],
      "payable": false,
      "stateMutability": "view",
      "type": "function"
    },
    {
      "constant": true,
      "inputs": [],
      "name": "buyersCount",
      "outputs": [
        {
          "internalType": "uint256",
          "name": "",
          "type": "uint256"
        }
      ],
      "payable": false,
      "stateMutability": "view",
      "type": "function"
    },
    {
      "constant": true,
      "inputs": [],
      "name": "inspectorsCount",
      "outputs": [
        {
          "internalType": "uint256",
          "name": "",
          "type": "uint256"
        }
      ],
      "payable": false,
      "stateMutability": "view",
      "type": "function"
    },
    {
      "constant": true,
      "inputs": [
        {
          "internalType": "uint256",
          "name": "",
          "type": "uint256"
        }
      ],
      "name": "lands",
      "outputs": [
        {
          "internalType": "uint256",
          "name": "id",
          "type": "uint256"
        },
        {
          "internalType": "uint256",
          "name": "area",
          "type": "uint256"
        },
        {
          "internalType": "string",
          "name": "location",
          "type": "string"
        },
        {
          "internalType": "bool",
          "name": "verificationStatus",
          "type": "bool"
        },
        {
          "internalType": "uint256",
          "name": "landPrice",
          "type": "uint256"
        }
      ],
      "payable": false,
      "stateMutability": "view",
      "type": "function"
    },
    {
      "constant": true,
      "inputs": [],
      "name": "landsCount",
      "outputs": [
        {
          "internalType": "uint256",
          "name": "",
          "type": "uint256"
        }
      ],
      "payable": false,
      "stateMutability": "view",
      "type": "function"
    },
    {
      "constant": true,
      "inputs": [],
      "name": "sellersCount",
      "outputs": [
        {
          "internalType": "uint256",
          "name": "",
          "type": "uint256"
        }
      ],
      "payable": false,
      "stateMutability": "view",
      "type": "function"
    },
    {
      "constant": true,
      "inputs": [],
      "name": "getLandsCount",
      "outputs": [
        {
          "internalType": "uint256",
          "name": "",
          "type": "uint256"
        }
      ],
      "payable": false,
      "stateMutability": "view",
      "type": "function"
    },
    {
      "constant": true,
      "inputs": [],
      "name": "getBuyersCount",
      "outputs": [
        {
          "internalType": "uint256",
          "name": "",
          "type": "uint256"
        }
      ],
      "payable": false,
      "stateMutability": "view",
      "type": "function"
    },
    {
      "constant": true,
      "inputs": [],
      "name": "getSellersCount",
      "outputs": [
        {
          "internalType": "uint256",
          "name": "",
          "type": "uint256"
        }
      ],
      "payable": false,
      "stateMutability": "view",
      "type": "function"
    },
    {
      "constant": true,
      "inputs": [
        {
          "internalType": "uint256",
          "name": "i",
          "type": "uint256"
        }
      ],
      "name": "getArea",
      "outputs": [
        {
          "internalType": "uint256",
          "name": "",
          "type": "uint256"
        }
      ],
      "payable": false,
      "stateMutability": "view",
      "type": "function"
    },
    {
      "constant": true,
      "inputs": [
        {
          "internalType": "uint256",
          "name": "i",
          "type": "uint256"
        }
      ],
      "name": "getLocation",
      "outputs": [
        {
          "internalType": "string",
          "name": "",
          "type": "string"
        }
      ],
      "payable": false,
      "stateMutability": "view",
      "type": "function"
    },
    {
      "constant": true,
      "inputs": [
        {
          "internalType": "uint256",
          "name": "i",
          "type": "uint256"
        }
      ],
      "name": "getStatus",
      "outputs": [
        {
          "internalType": "bool",
          "name": "",
          "type": "bool"
        }
      ],
      "payable": false,
      "stateMutability": "view",
      "type": "function"
    },
    {
      "constant": true,
      "inputs": [
        {
          "internalType": "uint256",
          "name": "i",
          "type": "uint256"
        }
      ],
      "name": "getPrice",
      "outputs": [
        {
          "internalType": "uint256",
          "name": "",
          "type": "uint256"
        }
      ],
      "payable": false,
      "stateMutability": "view",
      "type": "function"
    },
    {
      "constant": true,
      "inputs": [
        {
          "internalType": "uint256",
          "name": "id",
          "type": "uint256"
        }
      ],
      "name": "getLandOwner",
      "outputs": [
        {
          "internalType": "address",
          "name": "",
          "type": "address"
        }
      ],
      "payable": false,
      "stateMutability": "view",
      "type": "function"
    },
    {
      "constant": false,
      "inputs": [
        {
          "internalType": "address",
          "name": "_sellerId",
          "type": "address"
        }
      ],
      "name": "verifySeller",
      "outputs": [],
      "payable": false,
      "stateMutability": "nonpayable",
      "type": "function"
    },
    {
      "constant": false,
      "inputs": [
        {
          "internalType": "address",
          "name": "_buyerId",
          "type": "address"
        }
      ],
      "name": "verifyBuyer",
      "outputs": [],
      "payable": false,
      "stateMutability": "nonpayable",
      "type": "function"
    },
    {
      "constant": true,
      "inputs": [
        {
          "internalType": "address",
          "name": "_id",
          "type": "address"
        }
      ],
      "name": "isVerified",
      "outputs": [
        {
          "internalType": "bool",
          "name": "",
          "type": "bool"
        }
      ],
      "payable": false,
      "stateMutability": "view",
      "type": "function"
    },
    {
      "constant": true,
      "inputs": [
        {
          "internalType": "address",
          "name": "_id",
          "type": "address"
        }
      ],
      "name": "isSeller",
      "outputs": [
        {
          "internalType": "bool",
          "name": "",
          "type": "bool"
        }
      ],
      "payable": false,
      "stateMutability": "view",
      "type": "function"
    },
    {
      "constant": true,
      "inputs": [
        {
          "internalType": "address",
          "name": "_id",
          "type": "address"
        }
      ],
      "name": "isBuyer",
      "outputs": [
        {
          "internalType": "bool",
          "name": "",
          "type": "bool"
        }
      ],
      "payable": false,
      "stateMutability": "view",
      "type": "function"
    },
    {
      "constant": false,
      "inputs": [
        {
          "internalType": "uint256",
          "name": "_area",
          "type": "uint256"
        },
        {
          "internalType": "string",
          "name": "_location",
          "type": "string"
        },
        {
          "internalType": "uint256",
          "name": "landPrice",
          "type": "uint256"
        }
      ],
      "name": "addLand",
      "outputs": [],
      "payable": false,
      "stateMutability": "nonpayable",
      "type": "function"
    },
    {
      "constant": false,
      "inputs": [
        {
          "internalType": "string",
          "name": "_name",
          "type": "string"
        },
        {
          "internalType": "uint256",
          "name": "_age",
          "type": "uint256"
        },
        {
          "internalType": "string",
          "name": "_aadharNumber",
          "type": "string"
        },
        {
          "internalType": "string",
          "name": "_panNumber",
          "type": "string"
        },
        {
          "internalType": "string",
          "name": "_landsOwned",
          "type": "string"
        }
      ],
      "name": "registerSeller",
      "outputs": [],
      "payable": false,
      "stateMutability": "nonpayable",
      "type": "function"
    },
    {
      "constant": false,
      "inputs": [
        {
          "internalType": "string",
          "name": "_name",
          "type": "string"
        },
        {
          "internalType": "uint256",
          "name": "_age",
          "type": "uint256"
        },
        {
          "internalType": "string",
          "name": "_city",
          "type": "string"
        },
        {
          "internalType": "string",
          "name": "_state",
          "type": "string"
        },
        {
          "internalType": "string",
          "name": "_aadharNumber",
          "type": "string"
        },
        {
          "internalType": "string",
          "name": "_panNumber",
          "type": "string"
        }
      ],
      "name": "registerBuyer",
      "outputs": [],
      "payable": false,
      "stateMutability": "nonpayable",
      "type": "function"
    },
    {
      "constant": false,
      "inputs": [
        {
          "internalType": "address",
          "name": "_sellerId",
          "type": "address"
        },
        {
          "internalType": "uint256",
          "name": "_landId",
          "type": "uint256"
        }
      ],
      "name": "requestLand",
      "outputs": [],
      "payable": false,
      "stateMutability": "nonpayable",
      "type": "function"
    },
    {
      "constant": false,
      "inputs": [
        {
          "components": [
            {
              "internalType": "address",
              "name": "sellerId",
              "type": "address"
            },
            {
              "internalType": "address",
              "name": "buyerId",
              "type": "address"
            },
            {
              "internalType": "uint256",
              "name": "landId",
              "type": "uint256"
            },
            {
              "internalType": "bool",
              "name": "requestStatus",
              "type": "bool"
            }
          ],
          "internalType": "struct Land.LandRequest",
          "name": "req",
          "type": "tuple"
        }
      ],
      "name": "approveRequest",
      "outputs": [],
      "payable": false,
      "stateMutability": "nonpayable",
      "type": "function"
    },
    {
      "constant": false,
      "inputs": [
        {
          "internalType": "uint256",
          "name": "_landId",
          "type": "uint256"
        },
        {
          "internalType": "address",
          "name": "_newOwner",
          "type": "address"
        }
      ],
      "name": "LandOwnershipTransfer",
      "outputs": [],
      "payable": false,
      "stateMutability": "nonpayable",
      "type": "function"
    }
  ],
  "bytecode": "0x60806040523480156200001157600080fd5b50620000906040518060400160405280600b81526020017f496e73706563746f722031000000000000000000000000000000000000000000815250602d6040518060400160405280600e81526020017f54656873696c204d616e616765720000000000000000000000000000000000008152506200009660201b60201c565b620001e9565b600c600081548092919060010191905055506040518060800160405280600c5481526020018481526020018381526020018281525060016000600c548152602001908152602001600020600082015181600001556020820151816001019080519060200190620001089291906200013a565b50604082015181600201556060820151816003019080519060200190620001319291906200013a565b50905050505050565b828054600181600116156101000203166002900490600052602060002090601f016020900481019282601f106200017d57805160ff1916838001178555620001ae565b82800160010185558215620001ae579182015b82811115620001ad57825182559160200191906001019062000190565b5b509050620001bd9190620001c1565b5090565b620001e691905b80821115620001e2576000816000905550600101620001c8565b5090565b90565b61296f80620001f96000396000f3fe608060405234801561001057600080fd5b50600436106102065760003560e01c8063b0a5dcd31161011a578063def936c3116100ad578063e75722301161007c578063e757223014610698578063ee95feaf146106c8578063f0d3a9df146106f8578063f3f0c21814610716578063f58f85b51461073257610206565b8063def936c3146105e5578063e261f1e514610618578063e4b261151461064c578063e706d5551461067c57610206565b8063cad1ab3b116100e9578063cad1ab3b1461055a578063d1760e6014610576578063dd9d122d14610592578063dec091ad146105b057610206565b8063b0a5dcd3146104bd578063b9209e33146104f0578063ba49a08c14610520578063bed403c71461053e57610206565b80636490c7a81161019d5780639ae9711e1161016c5780639ae9711e146103d95780639dc1bfa9146103f7578063a47d4c0214610427578063a6dc41fb14610457578063ab5170741461048757610206565b80636490c7a81461033f5780636814800b1461036f5780637f7b13931461038b578063941e2426146103bb57610206565b806337f222cf116101d957806337f222cf146102a75780633b8621bf146102c35780635c622a0e146102df578063601e7c341461030f57610206565b806316d9d6661461020b5780631869a38b146102295780631c9afd0f146102595780632a55feec14610277575b600080fd5b610213610762565b60405161022091906126ce565b60405180910390f35b610243600480360361023e919081019061238d565b61076c565b6040516102509190612507565b60405180910390f35b6102616107a9565b60405161026e91906126ce565b60405180910390f35b610291600480360361028c9190810190612127565b6107af565b60405161029e9190612691565b60405180910390f35b6102c160048036036102bc9190810190612364565b610812565b005b6102dd60048036036102d891908101906123f2565b610884565b005b6102f960048036036102f4919081019061238d565b6109b0565b6040516103069190612691565b60405180910390f35b61032960048036036103249190810190612127565b6109dc565b6040516103369190612691565b60405180910390f35b6103596004803603610354919081019061238d565b6109fc565b60405161036691906126ce565b60405180910390f35b61038960048036036103849190810190612127565b610a1b565b005b6103a560048036036103a0919081019061238d565b610af9565b6040516103b291906126ac565b60405180910390f35b6103c3610bb0565b6040516103d091906126ce565b60405180910390f35b6103e1610bb6565b6040516103ee91906126ce565b60405180910390f35b610411600480360361040c919081019061238d565b610bbc565b60405161041e9190612507565b60405180910390f35b610441600480360361043c9190810190612127565b610bef565b60405161044e9190612691565b60405180910390f35b610471600480360361046c9190810190612127565b610c0f565b60405161047e9190612691565b60405180910390f35b6104a1600480360361049c9190810190612127565b610c2f565b6040516104b497969594939291906125ff565b60405180910390f35b6104d760048036036104d2919081019061238d565b610f89565b6040516104e7949392919061253d565b60405180910390f35b61050a60048036036105059190810190612127565b611013565b6040516105179190612691565b60405180910390f35b6105286110ca565b60405161053591906126ce565b60405180910390f35b610558600480360361055391908101906123b6565b6110d0565b005b610574600480360361056f9190810190612263565b611172565b005b610590600480360361058b9190810190612127565b611437565b005b61059a611515565b6040516105a791906126ce565b60405180910390f35b6105ca60048036036105c59190810190612127565b61151f565b6040516105dc96959493929190612582565b60405180910390f35b6105ff60048036036105fa919081019061238d565b6117db565b60405161060f94939291906126e9565b60405180910390f35b610632600480360361062d919081019061238d565b61193b565b60405161064395949392919061273c565b60405180910390f35b61066660048036036106619190810190612127565b611a16565b6040516106739190612691565b60405180910390f35b6106966004803603610691919081019061218c565b611a36565b005b6106b260048036036106ad919081019061238d565b611cd7565b6040516106bf91906126ce565b60405180910390f35b6106e260048036036106dd9190810190612127565b611cf6565b6040516106ef9190612691565b60405180910390f35b610700611d59565b60405161070d91906126ce565b60405180910390f35b610730600480360361072b9190810190612150565b611d63565b005b61074c60048036036107479190810190612127565b611f05565b6040516107599190612691565b60405180910390f35b6000600b54905090565b60006009600083815260200190815260200160002060009054906101000a900473ffffffffffffffffffffffffffffffffffffffff169050919050565b600b5481565b6000600660008373ffffffffffffffffffffffffffffffffffffffff1673ffffffffffffffffffffffffffffffffffffffff16815260200190815260200160002060009054906101000a900460ff161561080c576001905061080d565b5b919050565b61081b33611cf6565b801561082c575061082b33611013565b5b61083557600080fd5b60018160600190151590811515815250507f54817f88e4a96e49f4f111de2e596ce9f4e5c372a826a45483764821cabf7e3c81602001516040516108799190612507565b60405180910390a150565b61088d33611cf6565b801561089e575061089d33611013565b5b6108a757600080fd5b600b600081548092919060010191905055506040518060a00160405280600b54815260200184815260200183815260200160001515815260200182815250600080600b54815260200190815260200160002060008201518160000155602082015181600101556040820151816002019080519060200190610929929190611f25565b5060608201518160030160006101000a81548160ff021916908315150217905550608082015181600401559050503360096000600b54815260200190815260200160002060006101000a81548173ffffffffffffffffffffffffffffffffffffffff021916908373ffffffffffffffffffffffffffffffffffffffff160217905550505050565b600080600083815260200190815260200160002060030160009054906101000a900460ff169050919050565b60056020528060005260406000206000915054906101000a900460ff1681565b6000806000838152602001908152602001600020600101549050919050565b3373ffffffffffffffffffffffffffffffffffffffff16733f72fee6cf188bb31c10676ec063d49ca3dab8b073ffffffffffffffffffffffffffffffffffffffff1614610a6757600080fd5b6001600860008373ffffffffffffffffffffffffffffffffffffffff1673ffffffffffffffffffffffffffffffffffffffff16815260200190815260200160002060006101000a81548160ff0219169083151502179055507f6a6455914f452787eb3985452aceedc1000fb545e394eb3b370e3d08958e0a5b81604051610aee9190612507565b60405180910390a150565b60606000808381526020019081526020016000206002018054600181600116156101000203166002900480601f016020809104026020016040519081016040528092919081815260200182805460018160011615610100020316600290048015610ba45780601f10610b7957610100808354040283529160200191610ba4565b820191906000526020600020905b815481529060010190602001808311610b8757829003601f168201915b50505050509050919050565b600c5481565b600d5481565b60096020528060005260406000206000915054906101000a900473ffffffffffffffffffffffffffffffffffffffff1681565b60066020528060005260406000206000915054906101000a900460ff1681565b60086020528060005260406000206000915054906101000a900460ff1681565b60036020528060005260406000206000915090508060000160009054906101000a900473ffffffffffffffffffffffffffffffffffffffff1690806001018054600181600116156101000203166002900480601f016020809104026020016040519081016040528092919081815260200182805460018160011615610100020316600290048015610d015780601f10610cd657610100808354040283529160200191610d01565b820191906000526020600020905b815481529060010190602001808311610ce457829003601f168201915b505050505090806002015490806003018054600181600116156101000203166002900480601f016020809104026020016040519081016040528092919081815260200182805460018160011615610100020316600290048015610da55780601f10610d7a57610100808354040283529160200191610da5565b820191906000526020600020905b815481529060010190602001808311610d8857829003601f168201915b505050505090806004018054600181600116156101000203166002900480601f016020809104026020016040519081016040528092919081815260200182805460018160011615610100020316600290048015610e435780601f10610e1857610100808354040283529160200191610e43565b820191906000526020600020905b815481529060010190602001808311610e2657829003601f168201915b505050505090806005018054600181600116156101000203166002900480601f016020809104026020016040519081016040528092919081815260200182805460018160011615610100020316600290048015610ee15780601f10610eb657610100808354040283529160200191610ee1565b820191906000526020600020905b815481529060010190602001808311610ec457829003601f168201915b505050505090806006018054600181600116156101000203166002900480601f016020809104026020016040519081016040528092919081815260200182805460018160011615610100020316600290048015610f7f5780601f10610f5457610100808354040283529160200191610f7f565b820191906000526020600020905b815481529060010190602001808311610f6257829003601f168201915b5050505050905087565b600a8181548110610f9657fe5b90600052602060002090600402016000915090508060000160009054906101000a900473ffffffffffffffffffffffffffffffffffffffff16908060010160009054906101000a900473ffffffffffffffffffffffffffffffffffffffff16908060020154908060030160009054906101000a900460ff16905084565b6000600760008373ffffffffffffffffffffffffffffffffffffffff1673ffffffffffffffffffffffffffffffffffffffff16815260200190815260200160002060009054906101000a900460ff16806110b65750600860008373ffffffffffffffffffffffffffffffffffffffff1673ffffffffffffffffffffffffffffffffffffffff16815260200190815260200160002060009054906101000a900460ff165b156110c457600190506110c5565b5b919050565b600e5481565b3373ffffffffffffffffffffffffffffffffffffffff16733f72fee6cf188bb31c10676ec063d49ca3dab8b073ffffffffffffffffffffffffffffffffffffffff161461111c57600080fd5b806009600084815260200190815260200160002060006101000a81548173ffffffffffffffffffffffffffffffffffffffff021916908373ffffffffffffffffffffffffffffffffffffffff1602179055505050565b600460003373ffffffffffffffffffffffffffffffffffffffff1673ffffffffffffffffffffffffffffffffffffffff16815260200190815260200160002060009054906101000a900460ff16156111c957600080fd5b6001600460003373ffffffffffffffffffffffffffffffffffffffff1673ffffffffffffffffffffffffffffffffffffffff16815260200190815260200160002060006101000a81548160ff0219169083151502179055506001600660003373ffffffffffffffffffffffffffffffffffffffff1673ffffffffffffffffffffffffffffffffffffffff16815260200190815260200160002060006101000a81548160ff021916908315150217905550600e600081548092919060010191905055506040518060e001604052803373ffffffffffffffffffffffffffffffffffffffff16815260200187815260200186815260200185815260200184815260200183815260200182815250600360003373ffffffffffffffffffffffffffffffffffffffff1673ffffffffffffffffffffffffffffffffffffffff16815260200190815260200160002060008201518160000160006101000a81548173ffffffffffffffffffffffffffffffffffffffff021916908373ffffffffffffffffffffffffffffffffffffffff1602179055506020820151816001019080519060200190611376929190611f25565b5060408201518160020155606082015181600301908051906020019061139d929190611f25565b5060808201518160040190805190602001906113ba929190611f25565b5060a08201518160050190805190602001906113d7929190611f25565b5060c08201518160060190805190602001906113f4929190611f25565b509050507f478f5152d8fc568db3f8de9fb402fd9d98a1a7541ecfe434e59cf574fbfc5524336040516114279190612522565b60405180910390a1505050505050565b3373ffffffffffffffffffffffffffffffffffffffff16733f72fee6cf188bb31c10676ec063d49ca3dab8b073ffffffffffffffffffffffffffffffffffffffff161461148357600080fd5b6001600760008373ffffffffffffffffffffffffffffffffffffffff1673ffffffffffffffffffffffffffffffffffffffff16815260200190815260200160002060006101000a81548160ff0219169083151502179055507f6a6455914f452787eb3985452aceedc1000fb545e394eb3b370e3d08958e0a5b8160405161150a9190612507565b60405180910390a150565b6000600d54905090565b60026020528060005260406000206000915090508060000160009054906101000a900473ffffffffffffffffffffffffffffffffffffffff1690806001018054600181600116156101000203166002900480601f0160208091040260200160405190810160405280929190818152602001828054600181600116156101000203166002900480156115f15780601f106115c6576101008083540402835291602001916115f1565b820191906000526020600020905b8154815290600101906020018083116115d457829003601f168201915b505050505090806002015490806003018054600181600116156101000203166002900480601f0160208091040260200160405190810160405280929190818152602001828054600181600116156101000203166002900480156116955780601f1061166a57610100808354040283529160200191611695565b820191906000526020600020905b81548152906001019060200180831161167857829003601f168201915b505050505090806004018054600181600116156101000203166002900480601f0160208091040260200160405190810160405280929190818152602001828054600181600116156101000203166002900480156117335780601f1061170857610100808354040283529160200191611733565b820191906000526020600020905b81548152906001019060200180831161171657829003601f168201915b505050505090806005018054600181600116156101000203166002900480601f0160208091040260200160405190810160405280929190818152602001828054600181600116156101000203166002900480156117d15780601f106117a6576101008083540402835291602001916117d1565b820191906000526020600020905b8154815290600101906020018083116117b457829003601f168201915b5050505050905086565b6001602052806000526040600020600091509050806000015490806001018054600181600116156101000203166002900480601f01602080910402602001604051908101604052809291908181526020018280546001816001161561010002031660029004801561188d5780601f106118625761010080835404028352916020019161188d565b820191906000526020600020905b81548152906001019060200180831161187057829003601f168201915b505050505090806002015490806003018054600181600116156101000203166002900480601f0160208091040260200160405190810160405280929190818152602001828054600181600116156101000203166002900480156119315780601f1061190657610100808354040283529160200191611931565b820191906000526020600020905b81548152906001019060200180831161191457829003601f168201915b5050505050905084565b6000602052806000526040600020600091509050806000015490806001015490806002018054600181600116156101000203166002900480601f0160208091040260200160405190810160405280929190818152602001828054600181600116156101000203166002900480156119f35780601f106119c8576101008083540402835291602001916119f3565b820191906000526020600020905b8154815290600101906020018083116119d657829003601f168201915b5050505050908060030160009054906101000a900460ff16908060040154905085565b60076020528060005260406000206000915054906101000a900460ff1681565b600460003373ffffffffffffffffffffffffffffffffffffffff1673ffffffffffffffffffffffffffffffffffffffff16815260200190815260200160002060009054906101000a900460ff1615611a8d57600080fd5b6001600460003373ffffffffffffffffffffffffffffffffffffffff1673ffffffffffffffffffffffffffffffffffffffff16815260200190815260200160002060006101000a81548160ff0219169083151502179055506001600560003373ffffffffffffffffffffffffffffffffffffffff1673ffffffffffffffffffffffffffffffffffffffff16815260200190815260200160002060006101000a81548160ff021916908315150217905550600d600081548092919060010191905055506040518060c001604052803373ffffffffffffffffffffffffffffffffffffffff16815260200186815260200185815260200184815260200183815260200182815250600260003373ffffffffffffffffffffffffffffffffffffffff1673ffffffffffffffffffffffffffffffffffffffff16815260200190815260200160002060008201518160000160006101000a81548173ffffffffffffffffffffffffffffffffffffffff021916908373ffffffffffffffffffffffffffffffffffffffff1602179055506020820151816001019080519060200190611c34929190611f25565b50604082015181600201556060820151816003019080519060200190611c5b929190611f25565b506080820151816004019080519060200190611c78929190611f25565b5060a0820151816005019080519060200190611c95929190611f25565b509050507f478f5152d8fc568db3f8de9fb402fd9d98a1a7541ecfe434e59cf574fbfc552433604051611cc89190612522565b60405180910390a15050505050565b6000806000838152602001908152602001600020600401549050919050565b6000600560008373ffffffffffffffffffffffffffffffffffffffff1673ffffffffffffffffffffffffffffffffffffffff16815260200190815260200160002060009054906101000a900460ff1615611d535760019050611d54565b5b919050565b6000600e54905090565b611d6c336107af565b8015611d7d5750611d7c33611013565b5b611d8657600080fd5b611d8e611fa5565b60405180608001604052808473ffffffffffffffffffffffffffffffffffffffff1681526020013373ffffffffffffffffffffffffffffffffffffffff168152602001838152602001600015158152509050600a819080600181540180825580915050906001820390600052602060002090600402016000909192909190915060008201518160000160006101000a81548173ffffffffffffffffffffffffffffffffffffffff021916908373ffffffffffffffffffffffffffffffffffffffff16021790555060208201518160010160006101000a81548173ffffffffffffffffffffffffffffffffffffffff021916908373ffffffffffffffffffffffffffffffffffffffff1602179055506040820151816002015560608201518160030160006101000a81548160ff0219169083151502179055505050507fc67eb70629da758128cec22f7e36ad0676066ad4df9b66e8ba58a30c1ab4075b83604051611ef89190612507565b60405180910390a1505050565b60046020528060005260406000206000915054906101000a900460ff1681565b828054600181600116156101000203166002900490600052602060002090601f016020900481019282601f10611f6657805160ff1916838001178555611f94565b82800160010185558215611f94579182015b82811115611f93578251825591602001919060010190611f78565b5b509050611fa19190611ffb565b5090565b6040518060800160405280600073ffffffffffffffffffffffffffffffffffffffff168152602001600073ffffffffffffffffffffffffffffffffffffffff168152602001600081526020016000151581525090565b61201d91905b80821115612019576000816000905550600101612001565b5090565b90565b60008135905061202f816128e7565b92915050565b600081359050612044816128fe565b92915050565b600082601f83011261205b57600080fd5b813561206e612069826127c3565b612796565b9150808252602083016020830185838301111561208a57600080fd5b612095838284612894565b50505092915050565b6000608082840312156120b057600080fd5b6120ba6080612796565b905060006120ca84828501612020565b60008301525060206120de84828501612020565b60208301525060406120f284828501612112565b604083015250606061210684828501612035565b60608301525092915050565b60008135905061212181612915565b92915050565b60006020828403121561213957600080fd5b600061214784828501612020565b91505092915050565b6000806040838503121561216357600080fd5b600061217185828601612020565b925050602061218285828601612112565b9150509250929050565b600080600080600060a086880312156121a457600080fd5b600086013567ffffffffffffffff8111156121be57600080fd5b6121ca8882890161204a565b95505060206121db88828901612112565b945050604086013567ffffffffffffffff8111156121f857600080fd5b6122048882890161204a565b935050606086013567ffffffffffffffff81111561222157600080fd5b61222d8882890161204a565b925050608086013567ffffffffffffffff81111561224a57600080fd5b6122568882890161204a565b9150509295509295909350565b60008060008060008060c0878903121561227c57600080fd5b600087013567ffffffffffffffff81111561229657600080fd5b6122a289828a0161204a565b96505060206122b389828a01612112565b955050604087013567ffffffffffffffff8111156122d057600080fd5b6122dc89828a0161204a565b945050606087013567ffffffffffffffff8111156122f957600080fd5b61230589828a0161204a565b935050608087013567ffffffffffffffff81111561232257600080fd5b61232e89828a0161204a565b92505060a087013567ffffffffffffffff81111561234b57600080fd5b61235789828a0161204a565b9150509295509295509295565b60006080828403121561237657600080fd5b60006123848482850161209e565b91505092915050565b60006020828403121561239f57600080fd5b60006123ad84828501612112565b91505092915050565b600080604083850312156123c957600080fd5b60006123d785828601612112565b92505060206123e885828601612020565b9150509250929050565b60008060006060848603121561240757600080fd5b600061241586828701612112565b935050602084013567ffffffffffffffff81111561243257600080fd5b61243e8682870161204a565b925050604061244f86828701612112565b9150509250925092565b6124628161285e565b82525050565b61247181612816565b82525050565b61248081612828565b82525050565b6000612491826127fa565b61249b8185612805565b93506124ab8185602086016128a3565b6124b4816128d6565b840191505092915050565b60006124ca826127ef565b6124d48185612805565b93506124e48185602086016128a3565b6124ed816128d6565b840191505092915050565b61250181612854565b82525050565b600060208201905061251c6000830184612468565b92915050565b60006020820190506125376000830184612459565b92915050565b60006080820190506125526000830187612468565b61255f6020830186612468565b61256c60408301856124f8565b6125796060830184612477565b95945050505050565b600060c0820190506125976000830189612468565b81810360208301526125a981886124bf565b90506125b860408301876124f8565b81810360608301526125ca81866124bf565b905081810360808301526125de81856124bf565b905081810360a08301526125f281846124bf565b9050979650505050505050565b600060e082019050612614600083018a612468565b818103602083015261262681896124bf565b905061263560408301886124f8565b818103606083015261264781876124bf565b9050818103608083015261265b81866124bf565b905081810360a083015261266f81856124bf565b905081810360c083015261268381846124bf565b905098975050505050505050565b60006020820190506126a66000830184612477565b92915050565b600060208201905081810360008301526126c68184612486565b905092915050565b60006020820190506126e360008301846124f8565b92915050565b60006080820190506126fe60008301876124f8565b818103602083015261271081866124bf565b905061271f60408301856124f8565b818103606083015261273181846124bf565b905095945050505050565b600060a08201905061275160008301886124f8565b61275e60208301876124f8565b818103604083015261277081866124bf565b905061277f6060830185612477565b61278c60808301846124f8565b9695505050505050565b6000604051905081810181811067ffffffffffffffff821117156127b957600080fd5b8060405250919050565b600067ffffffffffffffff8211156127da57600080fd5b601f19601f8301169050602081019050919050565b600081519050919050565b600081519050919050565b600082825260208201905092915050565b600061282182612834565b9050919050565b60008115159050919050565b600073ffffffffffffffffffffffffffffffffffffffff82169050919050565b6000819050919050565b600061286982612870565b9050919050565b600061287b82612882565b9050919050565b600061288d82612834565b9050919050565b82818337600083830152505050565b60005b838110156128c15780820151818401526020810190506128a6565b838111156128d0576000848401525b50505050565b6000601f19601f8301169050919050565b6128f081612816565b81146128fb57600080fd5b50565b61290781612828565b811461291257600080fd5b50565b61291e81612854565b811461292957600080fd5b5056fea365627a7a72315820cfb87325dc654fd4c67191e070e0302e60070ff32bea63df6b4b401f048dfce96c6578706572696d656e74616cf564736f6c63430005100040",
  "source": "pragma solidity >= 0.5.2;\npragma experimental ABIEncoderV2;\n\ncontract Land {\n    struct Landreg {\n        uint id;\n        uint area;\n        string location;\n        // address owner; //-->this should be the seller \n        bool verificationStatus;\n        // string landImg;\n        uint landPrice;\n    }\n\n    struct Buyer{\n        address id;\n        string name;\n        uint age;\n        string city;\n        string state;\n        string aadharNumber;\n        string panNumber;\n    }\n\n    struct Seller{\n        address id;\n        string name;\n        uint age;\n        string aadharNumber;\n        string panNumber;\n        string landsOwned;\n    }\n\n    struct LandInspector {\n        uint id;\n        string name;\n        uint age;\n        string designation;\n    }\n\n    struct LandRequest{\n        address sellerId;\n        address buyerId;\n        uint landId;\n        bool requestStatus;\n    }\n\n    //key value pairs\n    mapping(uint => Landreg) public lands;\n    mapping(uint => LandInspector) public InspectorMapping;\n    mapping(address => Seller) public SellerMapping;\n    mapping(address => Buyer) public BuyerMapping;\n    // mapping(address => LandRequest) public RequestsMapping;\n\n    mapping(address => bool) public RegisteredAddressMapping;\n    mapping(address => bool) public RegisteredSellerMapping;\n    mapping(address => bool) public RegisteredBuyerMapping;\n    mapping(address => bool) public SellerVerification;\n    mapping(address => bool) public BuyerVerification;\n    mapping(uint => address) public LandOwner;\n\n    LandRequest[] public RequestsMapping;\n\n    uint public landsCount;\n    uint public inspectorsCount;\n    uint public sellersCount;\n    uint public buyersCount;\n\n    event Registration(address _registrationId);\n    event AddingLand(uint indexed _landId);\n    event Landrequested(address _sellerId);\n    event requestApproved(address _buyerId);\n    event Verified(address _id);\n\n    constructor() public{\n        // addLand(450, \"Pune\");\n        // addLand(650, \"Akola\");\n        // addLand(500, \"Mumbai\");\n        addLandInspector(\"Inspector 1\", 45, \"Tehsil Manager\");\n    }\n\n    function addLandInspector(string memory _name, uint _age, string memory _designation) private {\n        inspectorsCount++;\n        InspectorMapping[inspectorsCount] = LandInspector(inspectorsCount, _name, _age, _designation);\n    }\n\n    function getLandsCount() public view returns (uint) {\n        return landsCount;\n    }\n\n    function getBuyersCount() public view returns (uint) {\n        return buyersCount;\n    }\n\n    function getSellersCount() public view returns (uint) {\n        return sellersCount;\n    }\n    \n    function getArea(uint i) public view returns (uint) {\n        return lands[i].area;\n    }\n    function getLocation(uint i) public view returns (string memory) {\n        return lands[i].location;\n    }\n    function getStatus(uint i) public view returns (bool) {\n        return lands[i].verificationStatus;\n    }\n    function getPrice(uint i) public view returns (uint) {\n        return lands[i].landPrice;\n    }\n    \n    function getLandOwner(uint id) public view returns (address) {\n        return LandOwner[id];\n    }\n\n    function verifySeller(address _sellerId) public{\n        require(0x3F72feE6cF188bB31C10676EC063d49Ca3dab8b0 == msg.sender);\n\n        SellerVerification[_sellerId] = true;\n        emit Verified(_sellerId);\n    }\n\n    function verifyBuyer(address _buyerId) public{\n        require(0x3F72feE6cF188bB31C10676EC063d49Ca3dab8b0 == msg.sender);\n\n        BuyerVerification[_buyerId] = true;\n        emit Verified(_buyerId);\n    }\n\n    function isVerified(address _id) public view returns (bool) {\n        if(SellerVerification[_id] || BuyerVerification[_id]){\n            return true;\n        }\n    }\n\n    function isSeller(address _id) public view returns (bool) {\n        if(RegisteredSellerMapping[_id]){\n            return true;\n        }\n    }\n\n    function isBuyer(address _id) public view returns (bool) {\n        if(RegisteredBuyerMapping[_id]){\n            return true;\n        }\n    }\n\n    function addLand(uint _area, string memory _location, uint landPrice) public {\n        // let landImg = \"https://images.unsplash.com/photo-1597843736176-23c29f7187f7?ixid=MXwxMjA3fDB8MHxwaG90by1wYWdlfHx8fGVufDB8fHw%3D&ixlib=rb-1.2.1&auto=format&fit=crop&w=1489&q=80\";\n        require((isSeller(msg.sender)) && (isVerified(msg.sender)));\n        landsCount++;\n        lands[landsCount] = Landreg(landsCount, _area, _location, false, landPrice);\n        LandOwner[landsCount] = msg.sender;\n        // emit AddingLand(landsCount);\n    }\n\n    //registration of seller\n    function registerSeller(string memory _name, uint _age, string memory _aadharNumber, string memory _panNumber, string memory _landsOwned) public {\n        //require that Buyer is not already registered\n        require(!RegisteredAddressMapping[msg.sender]);\n\n        RegisteredAddressMapping[msg.sender] = true;\n        RegisteredSellerMapping[msg.sender] = true ;\n        sellersCount++;\n        SellerMapping[msg.sender] = Seller(msg.sender, _name, _age, _aadharNumber,_panNumber, _landsOwned);\n\n        emit Registration(msg.sender);\n    }\n\n    function registerBuyer(string memory _name, uint _age, string memory _city, string memory _state, string memory _aadharNumber, string memory _panNumber) public {\n        //require that Buyer is not already registered\n        require(!RegisteredAddressMapping[msg.sender]);\n\n        RegisteredAddressMapping[msg.sender] = true;\n        RegisteredBuyerMapping[msg.sender] = true ;\n        buyersCount++;\n        BuyerMapping[msg.sender] = Buyer(msg.sender, _name, _age, _city, _state, _aadharNumber, _panNumber);\n    \n        emit Registration(msg.sender);\n    }\n\n    function requestLand(address _sellerId, uint _landId) public{\n        require(isBuyer(msg.sender) && isVerified(msg.sender));\n        \n        LandRequest memory newReq =  LandRequest({\n            sellerId: _sellerId,\n            buyerId: msg.sender,\n            landId: _landId,\n            requestStatus: false});\n    \n        RequestsMapping.push(newReq);\n\n        emit Landrequested(_sellerId);\n        // RequestsMapping[msg.sender] = LandRequest(_sellerId, _landId, false);\n    }\n\n    function approveRequest(LandRequest memory req) public {\n        require((isSeller(msg.sender)) && (isVerified(msg.sender)));\n\n        req.requestStatus = true;\n\n        emit requestApproved(req.buyerId);\n    }\n\n    function LandOwnershipTransfer(uint _landId, address _newOwner) public{\n        require(0x3F72feE6cF188bB31C10676EC063d49Ca3dab8b0 == msg.sender);\n\n        LandOwner[_landId] = _newOwner;\n    }\n\n}",
  "sourcePath": "/home/vrinda/Desktop/Sem 6/SE/drizzle_example/contracts/Land.sol",
  "compiler": {
    "name": "solc",
    "version": "0.5.16+commit.9c3226ce.Emscripten.clang"
  },
  "schemaVersion": "3.3.4",
  "updatedAt": "2021-04-11T20:32:03.735Z",
  "networkType": "ethereum",
  "devdoc": {
    "methods": {}
  },
  "userdoc": {
    "methods": {}
  }
}