{
  "contractName": "Land",
  "abi": [
    {
      "inputs": [],
      "payable": false,
      "stateMutability": "nonpayable",
      "type": "constructor"
    },
    {
      "anonymous": false,
      "inputs": [
        {
          "indexed": true,
          "internalType": "uint256",
          "name": "_landId",
          "type": "uint256"
        }
      ],
      "name": "AddingLand",
      "type": "event"
    },
    {
      "anonymous": false,
      "inputs": [
        {
          "indexed": false,
          "internalType": "address",
          "name": "_sellerId",
          "type": "address"
        }
      ],
      "name": "Landrequested",
      "type": "event"
    },
    {
      "anonymous": false,
      "inputs": [
        {
          "indexed": false,
          "internalType": "address",
          "name": "_registrationId",
          "type": "address"
        }
      ],
      "name": "Registration",
      "type": "event"
    },
    {
      "anonymous": false,
      "inputs": [
        {
          "indexed": false,
          "internalType": "address",
          "name": "_id",
          "type": "address"
        }
      ],
      "name": "Verified",
      "type": "event"
    },
    {
      "anonymous": false,
      "inputs": [
        {
          "indexed": false,
          "internalType": "address",
          "name": "_buyerId",
          "type": "address"
        }
      ],
      "name": "requestApproved",
      "type": "event"
    },
    {
      "constant": true,
      "inputs": [
        {
          "internalType": "address",
          "name": "",
          "type": "address"
        }
      ],
      "name": "BuyerMapping",
      "outputs": [
        {
          "internalType": "address",
          "name": "id",
          "type": "address"
        },
        {
          "internalType": "string",
          "name": "name",
          "type": "string"
        },
        {
          "internalType": "uint256",
          "name": "age",
          "type": "uint256"
        },
        {
          "internalType": "string",
          "name": "city",
          "type": "string"
        },
        {
          "internalType": "string",
          "name": "state",
          "type": "string"
        },
        {
          "internalType": "string",
          "name": "aadharNumber",
          "type": "string"
        },
        {
          "internalType": "string",
          "name": "panNumber",
          "type": "string"
        }
      ],
      "payable": false,
      "stateMutability": "view",
      "type": "function"
    },
    {
      "constant": true,
      "inputs": [
        {
          "internalType": "address",
          "name": "",
          "type": "address"
        }
      ],
      "name": "BuyerVerification",
      "outputs": [
        {
          "internalType": "bool",
          "name": "",
          "type": "bool"
        }
      ],
      "payable": false,
      "stateMutability": "view",
      "type": "function"
    },
    {
      "constant": true,
      "inputs": [
        {
          "internalType": "uint256",
          "name": "",
          "type": "uint256"
        }
      ],
      "name": "InspectorMapping",
      "outputs": [
        {
          "internalType": "uint256",
          "name": "id",
          "type": "uint256"
        },
        {
          "internalType": "string",
          "name": "name",
          "type": "string"
        },
        {
          "internalType": "uint256",
          "name": "age",
          "type": "uint256"
        },
        {
          "internalType": "string",
          "name": "designation",
          "type": "string"
        }
      ],
      "payable": false,
      "stateMutability": "view",
      "type": "function"
    },
    {
      "constant": true,
      "inputs": [
        {
          "internalType": "uint256",
          "name": "",
          "type": "uint256"
        }
      ],
      "name": "LandOwner",
      "outputs": [
        {
          "internalType": "address",
          "name": "",
          "type": "address"
        }
      ],
      "payable": false,
      "stateMutability": "view",
      "type": "function"
    },
    {
      "constant": true,
      "inputs": [
        {
          "internalType": "uint256",
          "name": "",
          "type": "uint256"
        }
      ],
      "name": "LandVerification",
      "outputs": [
        {
          "internalType": "bool",
          "name": "",
          "type": "bool"
        }
      ],
      "payable": false,
      "stateMutability": "view",
      "type": "function"
    },
    {
      "constant": true,
      "inputs": [
        {
          "internalType": "address",
          "name": "",
          "type": "address"
        }
      ],
      "name": "RegisteredAddressMapping",
      "outputs": [
        {
          "internalType": "bool",
          "name": "",
          "type": "bool"
        }
      ],
      "payable": false,
      "stateMutability": "view",
      "type": "function"
    },
    {
      "constant": true,
      "inputs": [
        {
          "internalType": "address",
          "name": "",
          "type": "address"
        }
      ],
      "name": "RegisteredBuyerMapping",
      "outputs": [
        {
          "internalType": "bool",
          "name": "",
          "type": "bool"
        }
      ],
      "payable": false,
      "stateMutability": "view",
      "type": "function"
    },
    {
      "constant": true,
      "inputs": [
        {
          "internalType": "address",
          "name": "",
          "type": "address"
        }
      ],
      "name": "RegisteredSellerMapping",
      "outputs": [
        {
          "internalType": "bool",
          "name": "",
          "type": "bool"
        }
      ],
      "payable": false,
      "stateMutability": "view",
      "type": "function"
    },
    {
      "constant": true,
      "inputs": [
        {
          "internalType": "uint256",
          "name": "",
          "type": "uint256"
        }
      ],
      "name": "RequestStatus",
      "outputs": [
        {
          "internalType": "bool",
          "name": "",
          "type": "bool"
        }
      ],
      "payable": false,
      "stateMutability": "view",
      "type": "function"
    },
    {
      "constant": true,
      "inputs": [
        {
          "internalType": "uint256",
          "name": "",
          "type": "uint256"
        }
      ],
      "name": "RequestedLands",
      "outputs": [
        {
          "internalType": "bool",
          "name": "",
          "type": "bool"
        }
      ],
      "payable": false,
      "stateMutability": "view",
      "type": "function"
    },
    {
      "constant": true,
      "inputs": [
        {
          "internalType": "uint256",
          "name": "",
          "type": "uint256"
        }
      ],
      "name": "RequestsMapping",
      "outputs": [
        {
          "internalType": "uint256",
          "name": "reqId",
          "type": "uint256"
        },
        {
          "internalType": "address",
          "name": "sellerId",
          "type": "address"
        },
        {
          "internalType": "address",
          "name": "buyerId",
          "type": "address"
        },
        {
          "internalType": "uint256",
          "name": "landId",
          "type": "uint256"
        }
      ],
      "payable": false,
      "stateMutability": "view",
      "type": "function"
    },
    {
      "constant": true,
      "inputs": [
        {
          "internalType": "address",
          "name": "",
          "type": "address"
        }
      ],
      "name": "SellerMapping",
      "outputs": [
        {
          "internalType": "address",
          "name": "id",
          "type": "address"
        },
        {
          "internalType": "string",
          "name": "name",
          "type": "string"
        },
        {
          "internalType": "uint256",
          "name": "age",
          "type": "uint256"
        },
        {
          "internalType": "string",
          "name": "aadharNumber",
          "type": "string"
        },
        {
          "internalType": "string",
          "name": "panNumber",
          "type": "string"
        },
        {
          "internalType": "string",
          "name": "landsOwned",
          "type": "string"
        }
      ],
      "payable": false,
      "stateMutability": "view",
      "type": "function"
    },
    {
      "constant": true,
      "inputs": [
        {
          "internalType": "address",
          "name": "",
          "type": "address"
        }
      ],
      "name": "SellerVerification",
      "outputs": [
        {
          "internalType": "bool",
          "name": "",
          "type": "bool"
        }
      ],
      "payable": false,
      "stateMutability": "view",
      "type": "function"
    },
    {
      "constant": true,
      "inputs": [
        {
          "internalType": "uint256",
          "name": "",
          "type": "uint256"
        }
      ],
      "name": "buyers",
      "outputs": [
        {
          "internalType": "address",
          "name": "",
          "type": "address"
        }
      ],
      "payable": false,
      "stateMutability": "view",
      "type": "function"
    },
    {
      "constant": true,
      "inputs": [],
      "name": "buyersCount",
      "outputs": [
        {
          "internalType": "uint256",
          "name": "",
          "type": "uint256"
        }
      ],
      "payable": false,
      "stateMutability": "view",
      "type": "function"
    },
    {
      "constant": true,
      "inputs": [],
      "name": "inspectorsCount",
      "outputs": [
        {
          "internalType": "uint256",
          "name": "",
          "type": "uint256"
        }
      ],
      "payable": false,
      "stateMutability": "view",
      "type": "function"
    },
    {
      "constant": true,
      "inputs": [
        {
          "internalType": "uint256",
          "name": "",
          "type": "uint256"
        }
      ],
      "name": "lands",
      "outputs": [
        {
          "internalType": "uint256",
          "name": "id",
          "type": "uint256"
        },
        {
          "internalType": "uint256",
          "name": "area",
          "type": "uint256"
        },
        {
          "internalType": "string",
          "name": "city",
          "type": "string"
        },
        {
          "internalType": "string",
          "name": "state",
          "type": "string"
        },
        {
          "internalType": "bool",
          "name": "verificationStatus",
          "type": "bool"
        },
        {
          "internalType": "uint256",
          "name": "landPrice",
          "type": "uint256"
        },
        {
          "internalType": "uint256",
          "name": "propertyPID",
          "type": "uint256"
        },
        {
          "internalType": "uint256",
          "name": "physicalSurveyNumber",
          "type": "uint256"
        },
        {
          "internalType": "string",
          "name": "ipfsHash",
          "type": "string"
        }
      ],
      "payable": false,
      "stateMutability": "view",
      "type": "function"
    },
    {
      "constant": true,
      "inputs": [],
      "name": "landsCount",
      "outputs": [
        {
          "internalType": "uint256",
          "name": "",
          "type": "uint256"
        }
      ],
      "payable": false,
      "stateMutability": "view",
      "type": "function"
    },
    {
      "constant": true,
      "inputs": [],
      "name": "requestsCount",
      "outputs": [
        {
          "internalType": "uint256",
          "name": "",
          "type": "uint256"
        }
      ],
      "payable": false,
      "stateMutability": "view",
      "type": "function"
    },
    {
      "constant": true,
      "inputs": [
        {
          "internalType": "uint256",
          "name": "",
          "type": "uint256"
        }
      ],
      "name": "sellers",
      "outputs": [
        {
          "internalType": "address",
          "name": "",
          "type": "address"
        }
      ],
      "payable": false,
      "stateMutability": "view",
      "type": "function"
    },
    {
      "constant": true,
      "inputs": [],
      "name": "sellersCount",
      "outputs": [
        {
          "internalType": "uint256",
          "name": "",
          "type": "uint256"
        }
      ],
      "payable": false,
      "stateMutability": "view",
      "type": "function"
    },
    {
      "constant": true,
      "inputs": [],
      "name": "getLandsCount",
      "outputs": [
        {
          "internalType": "uint256",
          "name": "",
          "type": "uint256"
        }
      ],
      "payable": false,
      "stateMutability": "view",
      "type": "function"
    },
    {
      "constant": true,
      "inputs": [],
      "name": "getBuyersCount",
      "outputs": [
        {
          "internalType": "uint256",
          "name": "",
          "type": "uint256"
        }
      ],
      "payable": false,
      "stateMutability": "view",
      "type": "function"
    },
    {
      "constant": true,
      "inputs": [],
      "name": "getSellersCount",
      "outputs": [
        {
          "internalType": "uint256",
          "name": "",
          "type": "uint256"
        }
      ],
      "payable": false,
      "stateMutability": "view",
      "type": "function"
    },
    {
      "constant": true,
      "inputs": [],
      "name": "getRequestsCount",
      "outputs": [
        {
          "internalType": "uint256",
          "name": "",
          "type": "uint256"
        }
      ],
      "payable": false,
      "stateMutability": "view",
      "type": "function"
    },
    {
      "constant": true,
      "inputs": [
        {
          "internalType": "uint256",
          "name": "i",
          "type": "uint256"
        }
      ],
      "name": "getArea",
      "outputs": [
        {
          "internalType": "uint256",
          "name": "",
          "type": "uint256"
        }
      ],
      "payable": false,
      "stateMutability": "view",
      "type": "function"
    },
    {
      "constant": true,
      "inputs": [
        {
          "internalType": "uint256",
          "name": "i",
          "type": "uint256"
        }
      ],
      "name": "getCity",
      "outputs": [
        {
          "internalType": "string",
          "name": "",
          "type": "string"
        }
      ],
      "payable": false,
      "stateMutability": "view",
      "type": "function"
    },
    {
      "constant": true,
      "inputs": [
        {
          "internalType": "uint256",
          "name": "i",
          "type": "uint256"
        }
      ],
      "name": "getState",
      "outputs": [
        {
          "internalType": "string",
          "name": "",
          "type": "string"
        }
      ],
      "payable": false,
      "stateMutability": "view",
      "type": "function"
    },
    {
      "constant": true,
      "inputs": [
        {
          "internalType": "uint256",
          "name": "i",
          "type": "uint256"
        }
      ],
      "name": "getStatus",
      "outputs": [
        {
          "internalType": "bool",
          "name": "",
          "type": "bool"
        }
      ],
      "payable": false,
      "stateMutability": "view",
      "type": "function"
    },
    {
      "constant": true,
      "inputs": [
        {
          "internalType": "uint256",
          "name": "i",
          "type": "uint256"
        }
      ],
      "name": "getPrice",
      "outputs": [
        {
          "internalType": "uint256",
          "name": "",
          "type": "uint256"
        }
      ],
      "payable": false,
      "stateMutability": "view",
      "type": "function"
    },
    {
      "constant": true,
      "inputs": [
        {
          "internalType": "uint256",
          "name": "i",
          "type": "uint256"
        }
      ],
      "name": "getPID",
      "outputs": [
        {
          "internalType": "uint256",
          "name": "",
          "type": "uint256"
        }
      ],
      "payable": false,
      "stateMutability": "view",
      "type": "function"
    },
    {
      "constant": true,
      "inputs": [
        {
          "internalType": "uint256",
          "name": "i",
          "type": "uint256"
        }
      ],
      "name": "getSurveyNumber",
      "outputs": [
        {
          "internalType": "uint256",
          "name": "",
          "type": "uint256"
        }
      ],
      "payable": false,
      "stateMutability": "view",
      "type": "function"
    },
    {
      "constant": true,
      "inputs": [
        {
          "internalType": "uint256",
          "name": "i",
          "type": "uint256"
        }
      ],
      "name": "getImage",
      "outputs": [
        {
          "internalType": "string",
          "name": "",
          "type": "string"
        }
      ],
      "payable": false,
      "stateMutability": "view",
      "type": "function"
    },
    {
      "constant": true,
      "inputs": [
        {
          "internalType": "uint256",
          "name": "id",
          "type": "uint256"
        }
      ],
      "name": "getLandOwner",
      "outputs": [
        {
          "internalType": "address",
          "name": "",
          "type": "address"
        }
      ],
      "payable": false,
      "stateMutability": "view",
      "type": "function"
    },
    {
      "constant": false,
      "inputs": [
        {
          "internalType": "address",
          "name": "_sellerId",
          "type": "address"
        }
      ],
      "name": "verifySeller",
      "outputs": [],
      "payable": false,
      "stateMutability": "nonpayable",
      "type": "function"
    },
    {
      "constant": false,
      "inputs": [
        {
          "internalType": "address",
          "name": "_buyerId",
          "type": "address"
        }
      ],
      "name": "verifyBuyer",
      "outputs": [],
      "payable": false,
      "stateMutability": "nonpayable",
      "type": "function"
    },
    {
      "constant": false,
      "inputs": [
        {
          "internalType": "uint256",
          "name": "_landId",
          "type": "uint256"
        }
      ],
      "name": "verifyLand",
      "outputs": [],
      "payable": false,
      "stateMutability": "nonpayable",
      "type": "function"
    },
    {
      "constant": true,
      "inputs": [
        {
          "internalType": "uint256",
          "name": "_id",
          "type": "uint256"
        }
      ],
      "name": "isLandVerified",
      "outputs": [
        {
          "internalType": "bool",
          "name": "",
          "type": "bool"
        }
      ],
      "payable": false,
      "stateMutability": "view",
      "type": "function"
    },
    {
      "constant": true,
      "inputs": [
        {
          "internalType": "address",
          "name": "_id",
          "type": "address"
        }
      ],
      "name": "isVerified",
      "outputs": [
        {
          "internalType": "bool",
          "name": "",
          "type": "bool"
        }
      ],
      "payable": false,
      "stateMutability": "view",
      "type": "function"
    },
    {
      "constant": true,
      "inputs": [
        {
          "internalType": "address",
          "name": "_id",
          "type": "address"
        }
      ],
      "name": "isSeller",
      "outputs": [
        {
          "internalType": "bool",
          "name": "",
          "type": "bool"
        }
      ],
      "payable": false,
      "stateMutability": "view",
      "type": "function"
    },
    {
      "constant": true,
      "inputs": [
        {
          "internalType": "address",
          "name": "_id",
          "type": "address"
        }
      ],
      "name": "isLandInspector",
      "outputs": [
        {
          "internalType": "bool",
          "name": "",
          "type": "bool"
        }
      ],
      "payable": false,
      "stateMutability": "view",
      "type": "function"
    },
    {
      "constant": true,
      "inputs": [
        {
          "internalType": "address",
          "name": "_id",
          "type": "address"
        }
      ],
      "name": "isBuyer",
      "outputs": [
        {
          "internalType": "bool",
          "name": "",
          "type": "bool"
        }
      ],
      "payable": false,
      "stateMutability": "view",
      "type": "function"
    },
    {
      "constant": true,
      "inputs": [
        {
          "internalType": "address",
          "name": "_id",
          "type": "address"
        }
      ],
      "name": "isRegistered",
      "outputs": [
        {
          "internalType": "bool",
          "name": "",
          "type": "bool"
        }
      ],
      "payable": false,
      "stateMutability": "view",
      "type": "function"
    },
    {
      "constant": false,
      "inputs": [
        {
          "internalType": "uint256",
          "name": "_area",
          "type": "uint256"
        },
        {
          "internalType": "string",
          "name": "_city",
          "type": "string"
        },
        {
          "internalType": "string",
          "name": "_state",
          "type": "string"
        },
        {
          "internalType": "uint256",
          "name": "landPrice",
          "type": "uint256"
        },
        {
          "internalType": "uint256",
          "name": "_propertyPID",
          "type": "uint256"
        },
        {
          "internalType": "uint256",
          "name": "_surveyNum",
          "type": "uint256"
        },
        {
          "internalType": "string",
          "name": "_ipfsHash",
          "type": "string"
        }
      ],
      "name": "addLand",
      "outputs": [],
      "payable": false,
      "stateMutability": "nonpayable",
      "type": "function"
    },
    {
      "constant": false,
      "inputs": [
        {
          "internalType": "string",
          "name": "_name",
          "type": "string"
        },
        {
          "internalType": "uint256",
          "name": "_age",
          "type": "uint256"
        },
        {
          "internalType": "string",
          "name": "_aadharNumber",
          "type": "string"
        },
        {
          "internalType": "string",
          "name": "_panNumber",
          "type": "string"
        },
        {
          "internalType": "string",
          "name": "_landsOwned",
          "type": "string"
        }
      ],
      "name": "registerSeller",
      "outputs": [],
      "payable": false,
      "stateMutability": "nonpayable",
      "type": "function"
    },
    {
      "constant": true,
      "inputs": [],
      "name": "getSeller",
      "outputs": [
        {
          "internalType": "address[]",
          "name": "",
          "type": "address[]"
        }
      ],
      "payable": false,
      "stateMutability": "view",
      "type": "function"
    },
    {
      "constant": true,
      "inputs": [
        {
          "internalType": "address",
          "name": "i",
          "type": "address"
        }
      ],
      "name": "getSellerDetails",
      "outputs": [
        {
          "internalType": "string",
          "name": "",
          "type": "string"
        },
        {
          "internalType": "uint256",
          "name": "",
          "type": "uint256"
        },
        {
          "internalType": "string",
          "name": "",
          "type": "string"
        },
        {
          "internalType": "string",
          "name": "",
          "type": "string"
        },
        {
          "internalType": "string",
          "name": "",
          "type": "string"
        }
      ],
      "payable": false,
      "stateMutability": "view",
      "type": "function"
    },
    {
      "constant": false,
      "inputs": [
        {
          "internalType": "string",
          "name": "_name",
          "type": "string"
        },
        {
          "internalType": "uint256",
          "name": "_age",
          "type": "uint256"
        },
        {
          "internalType": "string",
          "name": "_city",
          "type": "string"
        },
        {
          "internalType": "string",
          "name": "_state",
          "type": "string"
        },
        {
          "internalType": "string",
          "name": "_aadharNumber",
          "type": "string"
        },
        {
          "internalType": "string",
          "name": "_panNumber",
          "type": "string"
        }
      ],
      "name": "registerBuyer",
      "outputs": [],
      "payable": false,
      "stateMutability": "nonpayable",
      "type": "function"
    },
    {
      "constant": true,
      "inputs": [],
      "name": "getBuyer",
      "outputs": [
        {
          "internalType": "address[]",
          "name": "",
          "type": "address[]"
        }
      ],
      "payable": false,
      "stateMutability": "view",
      "type": "function"
    },
    {
      "constant": true,
      "inputs": [
        {
          "internalType": "address",
          "name": "i",
          "type": "address"
        }
      ],
      "name": "getBuyerDetails",
      "outputs": [
        {
          "internalType": "string",
          "name": "",
          "type": "string"
        },
        {
          "internalType": "uint256",
          "name": "",
          "type": "uint256"
        },
        {
          "internalType": "string",
          "name": "",
          "type": "string"
        },
        {
          "internalType": "string",
          "name": "",
          "type": "string"
        },
        {
          "internalType": "string",
          "name": "",
          "type": "string"
        },
        {
          "internalType": "string",
          "name": "",
          "type": "string"
        }
      ],
      "payable": false,
      "stateMutability": "view",
      "type": "function"
    },
    {
      "constant": false,
      "inputs": [
        {
          "internalType": "address",
          "name": "_sellerId",
          "type": "address"
        },
        {
          "internalType": "uint256",
          "name": "_landId",
          "type": "uint256"
        }
      ],
      "name": "requestLand",
      "outputs": [],
      "payable": false,
      "stateMutability": "nonpayable",
      "type": "function"
    },
    {
      "constant": true,
      "inputs": [
        {
          "internalType": "uint256",
          "name": "i",
          "type": "uint256"
        }
      ],
      "name": "getRequestDetails",
      "outputs": [
        {
          "internalType": "address",
          "name": "",
          "type": "address"
        },
        {
          "internalType": "address",
          "name": "",
          "type": "address"
        },
        {
          "internalType": "uint256",
          "name": "",
          "type": "uint256"
        },
        {
          "internalType": "bool",
          "name": "",
          "type": "bool"
        }
      ],
      "payable": false,
      "stateMutability": "view",
      "type": "function"
    },
    {
      "constant": true,
      "inputs": [
        {
          "internalType": "uint256",
          "name": "_id",
          "type": "uint256"
        }
      ],
      "name": "isRequested",
      "outputs": [
        {
          "internalType": "bool",
          "name": "",
          "type": "bool"
        }
      ],
      "payable": false,
      "stateMutability": "view",
      "type": "function"
    },
    {
      "constant": true,
      "inputs": [
        {
          "internalType": "uint256",
          "name": "_id",
          "type": "uint256"
        }
      ],
      "name": "isApproved",
      "outputs": [
        {
          "internalType": "bool",
          "name": "",
          "type": "bool"
        }
      ],
      "payable": false,
      "stateMutability": "view",
      "type": "function"
    },
    {
      "constant": false,
      "inputs": [
        {
          "internalType": "uint256",
          "name": "_reqId",
          "type": "uint256"
        }
      ],
      "name": "approveRequest",
      "outputs": [],
      "payable": false,
      "stateMutability": "nonpayable",
      "type": "function"
    },
    {
      "constant": false,
      "inputs": [
        {
          "internalType": "uint256",
          "name": "_landId",
          "type": "uint256"
        },
        {
          "internalType": "address",
          "name": "_newOwner",
          "type": "address"
        }
      ],
      "name": "LandOwnershipTransfer",
      "outputs": [],
      "payable": false,
      "stateMutability": "nonpayable",
      "type": "function"
    }
  ],
  "bytecode": "0x60806040523480156200001157600080fd5b50620000906040518060400160405280600b81526020017f496e73706563746f722031000000000000000000000000000000000000000000815250602d6040518060400160405280600e81526020017f54656873696c204d616e616765720000000000000000000000000000000000008152506200009660201b60201c565b620001e9565b6011600081548092919060010191905055506040518060800160405280601154815260200184815260200183815260200182815250600160006011548152602001908152602001600020600082015181600001556020820151816001019080519060200190620001089291906200013a565b50604082015181600201556060820151816003019080519060200190620001319291906200013a565b50905050505050565b828054600181600116156101000203166002900490600052602060002090601f016020900481019282601f106200017d57805160ff1916838001178555620001ae565b82800160010185558215620001ae579182015b82811115620001ad57825182559160200191906001019062000190565b5b509050620001bd9190620001c1565b5090565b620001e691905b80821115620001e2576000816000905550600101620001c8565b5090565b90565b61502e80620001f96000396000f3fe608060405234801561001057600080fd5b50600436106103785760003560e01c8063b0a5dcd3116101d3578063def936c311610104578063f0d3a9df116100a2578063f3f0c2181161007c578063f3f0c21814612554578063f58f85b5146125a2578063f9c43bdf146125fe578063fbfa4b7f1461262c57610378565b8063f0d3a9df14612415578063f2aa821814612433578063f34d4c63146124a157610378565b8063e4b26115116100de578063e4b2611514612091578063e706d555146120ed578063e757223014612377578063ee95feaf146123b957610378565b8063def936c314611d67578063e165af8714611e88578063e261f1e514611ee457610378565b8063cee26ed511610171578063d7d1bbdb1161014b578063d7d1bbdb14611a81578063dbd0e1b614611aaf578063dd9d122d14611b0e578063dec091ad14611b2c57610378565b8063cee26ed514611928578063d1760e6014611996578063d7130651146119da57610378565b8063ba49a08c116101ad578063ba49a08c1461153f578063bed403c71461155d578063c3c5a547146115ab578063cad1ab3b1461160757610378565b8063b0a5dcd31461122c578063b3c8fe85146112db578063b9209e33146114e357610378565b80636814800b116102ad578063941e24261161024b578063a47d4c0211610225578063a47d4c0214610e8b578063a4a0f6c014610ee7578063a6dc41fb14610f29578063ab51707414610f8557610378565b8063941e242614610de15780639ae9711e14610dff5780639dc1bfa914610e1d57610378565b80637910867b116102875780637910867b14610afe5780638354650114610b4457806389d2135414610b8a5780638b49482514610bd057610378565b80636814800b1461080057806368cfe6ee146108445780636cbf6cf814610ab857610378565b80633410452a1161031a5780635c622a0e116102f45780635c622a0e146106bd578063601e7c3414610703578063603daf9a1461075f5780636490c7a8146107be57610378565b80633410452a146105b257806344c9af28146105d05780634daa9dae1461067757610378565b80631869a38b116103565780631869a38b146104235780631c9afd0f146104915780632607aafa146104af5780632a55feec1461055657610378565b806307d56ac01461037d578063155fec72146103bf57806316d9d66614610405575b600080fd5b6103a96004803603602081101561039357600080fd5b810190808035906020019092919050505061264a565b6040518082815260200191505060405180910390f35b6103eb600480360360208110156103d557600080fd5b8101908080359060200190929190505050612669565b604051808215151515815260200191505060405180910390f35b61040d6126a0565b6040518082815260200191505060405180910390f35b61044f6004803603602081101561043957600080fd5b81019080803590602001909291905050506126aa565b604051808273ffffffffffffffffffffffffffffffffffffffff1673ffffffffffffffffffffffffffffffffffffffff16815260200191505060405180910390f35b6104996126e7565b6040518082815260200191505060405180910390f35b6104db600480360360208110156104c557600080fd5b81019080803590602001909291905050506126ed565b6040518080602001828103825283818151815260200191508051906020019080838360005b8381101561051b578082015181840152602081019050610500565b50505050905090810190601f1680156105485780820380516001836020036101000a031916815260200191505b509250505060405180910390f35b6105986004803603602081101561056c57600080fd5b81019080803573ffffffffffffffffffffffffffffffffffffffff1690602001909291905050506127a4565b604051808215151515815260200191505060405180910390f35b6105ba612807565b6040518082815260200191505060405180910390f35b6105fc600480360360208110156105e657600080fd5b8101908080359060200190929190505050612811565b6040518080602001828103825283818151815260200191508051906020019080838360005b8381101561063c578082015181840152602081019050610621565b50505050905090810190601f1680156106695780820380516001836020036101000a031916815260200191505b509250505060405180910390f35b6106a36004803603602081101561068d57600080fd5b81019080803590602001909291905050506128c8565b604051808215151515815260200191505060405180910390f35b6106e9600480360360208110156106d357600080fd5b81019080803590602001909291905050506128e8565b604051808215151515815260200191505060405180910390f35b6107456004803603602081101561071957600080fd5b81019080803573ffffffffffffffffffffffffffffffffffffffff169060200190929190505050612914565b604051808215151515815260200191505060405180910390f35b610767612934565b6040518080602001828103825283818151815260200191508051906020019060200280838360005b838110156107aa57808201518184015260208101905061078f565b505050509050019250505060405180910390f35b6107ea600480360360208110156107d457600080fd5b81019080803590602001909291905050506129c2565b6040518082815260200191505060405180910390f35b6108426004803603602081101561081657600080fd5b81019080803573ffffffffffffffffffffffffffffffffffffffff1690602001909291905050506129e1565b005b6108866004803603602081101561085a57600080fd5b81019080803573ffffffffffffffffffffffffffffffffffffffff169060200190929190505050612ab1565b60405180806020018781526020018060200180602001806020018060200186810386528c818151815260200191508051906020019080838360005b838110156108dc5780820151818401526020810190506108c1565b50505050905090810190601f1680156109095780820380516001836020036101000a031916815260200191505b5086810385528a818151815260200191508051906020019080838360005b83811015610942578082015181840152602081019050610927565b50505050905090810190601f16801561096f5780820380516001836020036101000a031916815260200191505b50868103845289818151815260200191508051906020019080838360005b838110156109a857808201518184015260208101905061098d565b50505050905090810190601f1680156109d55780820380516001836020036101000a031916815260200191505b50868103835288818151815260200191508051906020019080838360005b83811015610a0e5780820151818401526020810190506109f3565b50505050905090810190601f168015610a3b5780820380516001836020036101000a031916815260200191505b50868103825287818151815260200191508051906020019080838360005b83811015610a74578082015181840152602081019050610a59565b50505050905090810190601f168015610aa15780820380516001836020036101000a031916815260200191505b509b50505050505050505050505060405180910390f35b610ae460048036036020811015610ace57600080fd5b8101908080359060200190929190505050612f69565b604051808215151515815260200191505060405180910390f35b610b2a60048036036020811015610b1457600080fd5b8101908080359060200190929190505050612fa0565b604051808215151515815260200191505060405180910390f35b610b7060048036036020811015610b5a57600080fd5b8101908080359060200190929190505050612fd7565b604051808215151515815260200191505060405180910390f35b610bb660048036036020811015610ba057600080fd5b8101908080359060200190929190505050612ff7565b604051808215151515815260200191505060405180910390f35b610ddf600480360360e0811015610be657600080fd5b810190808035906020019092919080359060200190640100000000811115610c0d57600080fd5b820183602082011115610c1f57600080fd5b80359060200191846001830284011164010000000083111715610c4157600080fd5b91908080601f016020809104026020016040519081016040528093929190818152602001838380828437600081840152601f19601f82011690508083019250505050505050919291929080359060200190640100000000811115610ca457600080fd5b820183602082011115610cb657600080fd5b80359060200191846001830284011164010000000083111715610cd857600080fd5b91908080601f016020809104026020016040519081016040528093929190818152602001838380828437600081840152601f19601f82011690508083019250505050505050919291929080359060200190929190803590602001909291908035906020019092919080359060200190640100000000811115610d5957600080fd5b820183602082011115610d6b57600080fd5b80359060200191846001830284011164010000000083111715610d8d57600080fd5b91908080601f016020809104026020016040519081016040528093929190818152602001838380828437600081840152601f19601f820116905080830192505050505050509192919290505050613017565b005b610de96131af565b6040518082815260200191505060405180910390f35b610e076131b5565b6040518082815260200191505060405180910390f35b610e4960048036036020811015610e3357600080fd5b81019080803590602001909291905050506131bb565b604051808273ffffffffffffffffffffffffffffffffffffffff1673ffffffffffffffffffffffffffffffffffffffff16815260200191505060405180910390f35b610ecd60048036036020811015610ea157600080fd5b81019080803573ffffffffffffffffffffffffffffffffffffffff1690602001909291905050506131ee565b604051808215151515815260200191505060405180910390f35b610f1360048036036020811015610efd57600080fd5b810190808035906020019092919050505061320e565b6040518082815260200191505060405180910390f35b610f6b60048036036020811015610f3f57600080fd5b81019080803573ffffffffffffffffffffffffffffffffffffffff16906020019092919050505061322d565b604051808215151515815260200191505060405180910390f35b610fc760048036036020811015610f9b57600080fd5b81019080803573ffffffffffffffffffffffffffffffffffffffff16906020019092919050505061324d565b604051808873ffffffffffffffffffffffffffffffffffffffff1673ffffffffffffffffffffffffffffffffffffffff168152602001806020018781526020018060200180602001806020018060200186810386528c818151815260200191508051906020019080838360005b8381101561104f578082015181840152602081019050611034565b50505050905090810190601f16801561107c5780820380516001836020036101000a031916815260200191505b5086810385528a818151815260200191508051906020019080838360005b838110156110b557808201518184015260208101905061109a565b50505050905090810190601f1680156110e25780820380516001836020036101000a031916815260200191505b50868103845289818151815260200191508051906020019080838360005b8381101561111b578082015181840152602081019050611100565b50505050905090810190601f1680156111485780820380516001836020036101000a031916815260200191505b50868103835288818151815260200191508051906020019080838360005b83811015611181578082015181840152602081019050611166565b50505050905090810190601f1680156111ae5780820380516001836020036101000a031916815260200191505b50868103825287818151815260200191508051906020019080838360005b838110156111e75780820151818401526020810190506111cc565b50505050905090810190601f1680156112145780820380516001836020036101000a031916815260200191505b509c5050505050505050505050505060405180910390f35b6112586004803603602081101561124257600080fd5b81019080803590602001909291905050506135a7565b604051808581526020018473ffffffffffffffffffffffffffffffffffffffff1673ffffffffffffffffffffffffffffffffffffffff1681526020018373ffffffffffffffffffffffffffffffffffffffff1673ffffffffffffffffffffffffffffffffffffffff16815260200182815260200194505050505060405180910390f35b61131d600480360360208110156112f157600080fd5b81019080803573ffffffffffffffffffffffffffffffffffffffff169060200190929190505050613617565b604051808060200186815260200180602001806020018060200185810385528a818151815260200191508051906020019080838360005b8381101561136f578082015181840152602081019050611354565b50505050905090810190601f16801561139c5780820380516001836020036101000a031916815260200191505b50858103845288818151815260200191508051906020019080838360005b838110156113d55780820151818401526020810190506113ba565b50505050905090810190601f1680156114025780820380516001836020036101000a031916815260200191505b50858103835287818151815260200191508051906020019080838360005b8381101561143b578082015181840152602081019050611420565b50505050905090810190601f1680156114685780820380516001836020036101000a031916815260200191505b50858103825286818151815260200191508051906020019080838360005b838110156114a1578082015181840152602081019050611486565b50505050905090810190601f1680156114ce5780820380516001836020036101000a031916815260200191505b50995050505050505050505060405180910390f35b611525600480360360208110156114f957600080fd5b81019080803573ffffffffffffffffffffffffffffffffffffffff1690602001909291905050506139ee565b604051808215151515815260200191505060405180910390f35b611547613aa5565b6040518082815260200191505060405180910390f35b6115a96004803603604081101561157357600080fd5b8101908080359060200190929190803573ffffffffffffffffffffffffffffffffffffffff169060200190929190505050613aab565b005b6115ed600480360360208110156115c157600080fd5b81019080803573ffffffffffffffffffffffffffffffffffffffff169060200190929190505050613b13565b604051808215151515815260200191505060405180910390f35b611926600480360360c081101561161d57600080fd5b810190808035906020019064010000000081111561163a57600080fd5b82018360208201111561164c57600080fd5b8035906020019184600183028401116401000000008311171561166e57600080fd5b91908080601f016020809104026020016040519081016040528093929190818152602001838380828437600081840152601f19601f82011690508083019250505050505050919291929080359060200190929190803590602001906401000000008111156116db57600080fd5b8201836020820111156116ed57600080fd5b8035906020019184600183028401116401000000008311171561170f57600080fd5b91908080601f016020809104026020016040519081016040528093929190818152602001838380828437600081840152601f19601f8201169050808301925050505050505091929192908035906020019064010000000081111561177257600080fd5b82018360208201111561178457600080fd5b803590602001918460018302840111640100000000831117156117a657600080fd5b91908080601f016020809104026020016040519081016040528093929190818152602001838380828437600081840152601f19601f8201169050808301925050505050505091929192908035906020019064010000000081111561180957600080fd5b82018360208201111561181b57600080fd5b8035906020019184600183028401116401000000008311171561183d57600080fd5b91908080601f016020809104026020016040519081016040528093929190818152602001838380828437600081840152601f19601f820116905080830192505050505050509192919290803590602001906401000000008111156118a057600080fd5b8201836020820111156118b257600080fd5b803590602001918460018302840111640100000000831117156118d457600080fd5b91908080601f016020809104026020016040519081016040528093929190818152602001838380828437600081840152601f19601f820116905080830192505050505050509192919290505050613b76565b005b6119546004803603602081101561193e57600080fd5b8101908080359060200190929190505050613ecd565b604051808273ffffffffffffffffffffffffffffffffffffffff1673ffffffffffffffffffffffffffffffffffffffff16815260200191505060405180910390f35b6119d8600480360360208110156119ac57600080fd5b81019080803573ffffffffffffffffffffffffffffffffffffffff169060200190929190505050613f09565b005b611a06600480360360208110156119f057600080fd5b8101908080359060200190929190505050613fd9565b6040518080602001828103825283818151815260200191508051906020019080838360005b83811015611a46578082015181840152602081019050611a2b565b50505050905090810190601f168015611a735780820380516001836020036101000a031916815260200191505b509250505060405180910390f35b611aad60048036036020811015611a9757600080fd5b8101908080359060200190929190505050614090565b005b611ab76140e2565b6040518080602001828103825283818151815260200191508051906020019060200280838360005b83811015611afa578082015181840152602081019050611adf565b505050509050019250505060405180910390f35b611b16614170565b6040518082815260200191505060405180910390f35b611b6e60048036036020811015611b4257600080fd5b81019080803573ffffffffffffffffffffffffffffffffffffffff16906020019092919050505061417a565b604051808773ffffffffffffffffffffffffffffffffffffffff1673ffffffffffffffffffffffffffffffffffffffff1681526020018060200186815260200180602001806020018060200185810385528a818151815260200191508051906020019080838360005b83811015611bf2578082015181840152602081019050611bd7565b50505050905090810190601f168015611c1f5780820380516001836020036101000a031916815260200191505b50858103845288818151815260200191508051906020019080838360005b83811015611c58578082015181840152602081019050611c3d565b50505050905090810190601f168015611c855780820380516001836020036101000a031916815260200191505b50858103835287818151815260200191508051906020019080838360005b83811015611cbe578082015181840152602081019050611ca3565b50505050905090810190601f168015611ceb5780820380516001836020036101000a031916815260200191505b50858103825286818151815260200191508051906020019080838360005b83811015611d24578082015181840152602081019050611d09565b50505050905090810190601f168015611d515780820380516001836020036101000a031916815260200191505b509a505050505050505050505060405180910390f35b611d9360048036036020811015611d7d57600080fd5b8101908080359060200190929190505050614436565b604051808581526020018060200184815260200180602001838103835286818151815260200191508051906020019080838360005b83811015611de3578082015181840152602081019050611dc8565b50505050905090810190601f168015611e105780820380516001836020036101000a031916815260200191505b50838103825284818151815260200191508051906020019080838360005b83811015611e49578082015181840152602081019050611e2e565b50505050905090810190601f168015611e765780820380516001836020036101000a031916815260200191505b50965050505050505060405180910390f35b611eca60048036036020811015611e9e57600080fd5b81019080803573ffffffffffffffffffffffffffffffffffffffff169060200190929190505050614596565b604051808215151515815260200191505060405180910390f35b611f1060048036036020811015611efa57600080fd5b81019080803590602001909291905050506145f3565b604051808a81526020018981526020018060200180602001881515151581526020018781526020018681526020018581526020018060200184810384528b818151815260200191508051906020019080838360005b83811015611f80578082015181840152602081019050611f65565b50505050905090810190601f168015611fad5780820380516001836020036101000a031916815260200191505b5084810383528a818151815260200191508051906020019080838360005b83811015611fe6578082015181840152602081019050611fcb565b50505050905090810190601f1680156120135780820380516001836020036101000a031916815260200191505b50848103825285818151815260200191508051906020019080838360005b8381101561204c578082015181840152602081019050612031565b50505050905090810190601f1680156120795780820380516001836020036101000a031916815260200191505b509c5050505050505050505050505060405180910390f35b6120d3600480360360208110156120a757600080fd5b81019080803573ffffffffffffffffffffffffffffffffffffffff169060200190929190505050614816565b604051808215151515815260200191505060405180910390f35b612375600480360360a081101561210357600080fd5b810190808035906020019064010000000081111561212057600080fd5b82018360208201111561213257600080fd5b8035906020019184600183028401116401000000008311171561215457600080fd5b91908080601f016020809104026020016040519081016040528093929190818152602001838380828437600081840152601f19601f82011690508083019250505050505050919291929080359060200190929190803590602001906401000000008111156121c157600080fd5b8201836020820111156121d357600080fd5b803590602001918460018302840111640100000000831117156121f557600080fd5b91908080601f016020809104026020016040519081016040528093929190818152602001838380828437600081840152601f19601f8201169050808301925050505050505091929192908035906020019064010000000081111561225857600080fd5b82018360208201111561226a57600080fd5b8035906020019184600183028401116401000000008311171561228c57600080fd5b91908080601f016020809104026020016040519081016040528093929190818152602001838380828437600081840152601f19601f820116905080830192505050505050509192919290803590602001906401000000008111156122ef57600080fd5b82018360208201111561230157600080fd5b8035906020019184600183028401116401000000008311171561232357600080fd5b91908080601f016020809104026020016040519081016040528093929190818152602001838380828437600081840152601f19601f820116905080830192505050505050509192919290505050614836565b005b6123a36004803603602081101561238d57600080fd5b8101908080359060200190929190505050614b69565b6040518082815260200191505060405180910390f35b6123fb600480360360208110156123cf57600080fd5b81019080803573ffffffffffffffffffffffffffffffffffffffff169060200190929190505050614b88565b604051808215151515815260200191505060405180910390f35b61241d614beb565b6040518082815260200191505060405180910390f35b61245f6004803603602081101561244957600080fd5b8101908080359060200190929190505050614bf5565b604051808273ffffffffffffffffffffffffffffffffffffffff1673ffffffffffffffffffffffffffffffffffffffff16815260200191505060405180910390f35b6124cd600480360360208110156124b757600080fd5b8101908080359060200190929190505050614c31565b604051808573ffffffffffffffffffffffffffffffffffffffff1673ffffffffffffffffffffffffffffffffffffffff1681526020018473ffffffffffffffffffffffffffffffffffffffff1673ffffffffffffffffffffffffffffffffffffffff1681526020018381526020018215151515815260200194505050505060405180910390f35b6125a06004803603604081101561256a57600080fd5b81019080803573ffffffffffffffffffffffffffffffffffffffff16906020019092919080359060200190929190505050614cec565b005b6125e4600480360360208110156125b857600080fd5b81019080803573ffffffffffffffffffffffffffffffffffffffff169060200190929190505050614eed565b604051808215151515815260200191505060405180910390f35b61262a6004803603602081101561261457600080fd5b8101908080359060200190929190505050614f0d565b005b612634614f4e565b6040518082815260200191505060405180910390f35b6000806000838152602001908152602001600020600601549050919050565b6000600d600083815260200190815260200160002060009054906101000a900460ff161561269a576001905061269b565b5b919050565b6000601054905090565b6000600b600083815260200190815260200160002060009054906101000a900473ffffffffffffffffffffffffffffffffffffffff169050919050565b60105481565b60606000808381526020019081526020016000206008018054600181600116156101000203166002900480601f0160208091040260200160405190810160405280929190818152602001828054600181600116156101000203166002900480156127985780601f1061276d57610100808354040283529160200191612798565b820191906000526020600020905b81548152906001019060200180831161277b57829003601f168201915b50505050509050919050565b6000600760008373ffffffffffffffffffffffffffffffffffffffff1673ffffffffffffffffffffffffffffffffffffffff16815260200190815260200160002060009054906101000a900460ff16156128015760019050612802565b5b919050565b6000601454905090565b60606000808381526020019081526020016000206003018054600181600116156101000203166002900480601f0160208091040260200160405190810160405280929190818152602001828054600181600116156101000203166002900480156128bc5780601f10612891576101008083540402835291602001916128bc565b820191906000526020600020905b81548152906001019060200180831161289f57829003601f168201915b50505050509050919050565b600d6020528060005260406000206000915054906101000a900460ff1681565b600080600083815260200190815260200160002060040160009054906101000a900460ff169050919050565b60066020528060005260406000206000915054906101000a900460ff1681565b6060600f8054806020026020016040519081016040528092919081815260200182805480156129b857602002820191906000526020600020905b8160009054906101000a900473ffffffffffffffffffffffffffffffffffffffff1673ffffffffffffffffffffffffffffffffffffffff168152602001906001019080831161296e575b5050505050905090565b6000806000838152602001908152602001600020600101549050919050565b6129ea33614596565b6129f357600080fd5b6001600960008373ffffffffffffffffffffffffffffffffffffffff1673ffffffffffffffffffffffffffffffffffffffff16815260200190815260200160002060006101000a81548160ff0219169083151502179055507f6a6455914f452787eb3985452aceedc1000fb545e394eb3b370e3d08958e0a5b81604051808273ffffffffffffffffffffffffffffffffffffffff1673ffffffffffffffffffffffffffffffffffffffff16815260200191505060405180910390a150565b60606000606080606080600360008873ffffffffffffffffffffffffffffffffffffffff1673ffffffffffffffffffffffffffffffffffffffff168152602001908152602001600020600101600360008973ffffffffffffffffffffffffffffffffffffffff1673ffffffffffffffffffffffffffffffffffffffff16815260200190815260200160002060020154600360008a73ffffffffffffffffffffffffffffffffffffffff1673ffffffffffffffffffffffffffffffffffffffff168152602001908152602001600020600301600360008b73ffffffffffffffffffffffffffffffffffffffff1673ffffffffffffffffffffffffffffffffffffffff168152602001908152602001600020600401600360008c73ffffffffffffffffffffffffffffffffffffffff1673ffffffffffffffffffffffffffffffffffffffff168152602001908152602001600020600501600360008d73ffffffffffffffffffffffffffffffffffffffff1673ffffffffffffffffffffffffffffffffffffffff168152602001908152602001600020600601858054600181600116156101000203166002900480601f016020809104026020016040519081016040528092919081815260200182805460018160011615610100020316600290048015612cdd5780601f10612cb257610100808354040283529160200191612cdd565b820191906000526020600020905b815481529060010190602001808311612cc057829003601f168201915b50505050509550838054600181600116156101000203166002900480601f016020809104026020016040519081016040528092919081815260200182805460018160011615610100020316600290048015612d795780601f10612d4e57610100808354040283529160200191612d79565b820191906000526020600020905b815481529060010190602001808311612d5c57829003601f168201915b50505050509350828054600181600116156101000203166002900480601f016020809104026020016040519081016040528092919081815260200182805460018160011615610100020316600290048015612e155780601f10612dea57610100808354040283529160200191612e15565b820191906000526020600020905b815481529060010190602001808311612df857829003601f168201915b50505050509250818054600181600116156101000203166002900480601f016020809104026020016040519081016040528092919081815260200182805460018160011615610100020316600290048015612eb15780601f10612e8657610100808354040283529160200191612eb1565b820191906000526020600020905b815481529060010190602001808311612e9457829003601f168201915b50505050509150808054600181600116156101000203166002900480601f016020809104026020016040519081016040528092919081815260200182805460018160011615610100020316600290048015612f4d5780601f10612f2257610100808354040283529160200191612f4d565b820191906000526020600020905b815481529060010190602001808311612f3057829003601f168201915b5050505050905095509550955095509550955091939550919395565b6000600a600083815260200190815260200160002060009054906101000a900460ff1615612f9a5760019050612f9b565b5b919050565b6000600c600083815260200190815260200160002060009054906101000a900460ff1615612fd15760019050612fd2565b5b919050565b600a6020528060005260406000206000915054906101000a900460ff1681565b600c6020528060005260406000206000915054906101000a900460ff1681565b61302033614b88565b80156130315750613030336139ee565b5b61303a57600080fd5b6010600081548092919060010191905055506040518061012001604052806010548152602001888152602001878152602001868152602001600015158152602001858152602001848152602001838152602001828152506000806010548152602001908152602001600020600082015181600001556020820151816001015560408201518160020190805190602001906130d5929190614f54565b5060608201518160030190805190602001906130f2929190614f54565b5060808201518160040160006101000a81548160ff02191690831515021790555060a0820151816005015560c0820151816006015560e0820151816007015561010082015181600801908051906020019061314e929190614f54565b5090505033600b6000601054815260200190815260200160002060006101000a81548173ffffffffffffffffffffffffffffffffffffffff021916908373ffffffffffffffffffffffffffffffffffffffff16021790555050505050505050565b60115481565b60125481565b600b6020528060005260406000206000915054906101000a900473ffffffffffffffffffffffffffffffffffffffff1681565b60076020528060005260406000206000915054906101000a900460ff1681565b6000806000838152602001908152602001600020600701549050919050565b60096020528060005260406000206000915054906101000a900460ff1681565b60036020528060005260406000206000915090508060000160009054906101000a900473ffffffffffffffffffffffffffffffffffffffff1690806001018054600181600116156101000203166002900480601f01602080910402602001604051908101604052809291908181526020018280546001816001161561010002031660029004801561331f5780601f106132f45761010080835404028352916020019161331f565b820191906000526020600020905b81548152906001019060200180831161330257829003601f168201915b505050505090806002015490806003018054600181600116156101000203166002900480601f0160208091040260200160405190810160405280929190818152602001828054600181600116156101000203166002900480156133c35780601f10613398576101008083540402835291602001916133c3565b820191906000526020600020905b8154815290600101906020018083116133a657829003601f168201915b505050505090806004018054600181600116156101000203166002900480601f0160208091040260200160405190810160405280929190818152602001828054600181600116156101000203166002900480156134615780601f1061343657610100808354040283529160200191613461565b820191906000526020600020905b81548152906001019060200180831161344457829003601f168201915b505050505090806005018054600181600116156101000203166002900480601f0160208091040260200160405190810160405280929190818152602001828054600181600116156101000203166002900480156134ff5780601f106134d4576101008083540402835291602001916134ff565b820191906000526020600020905b8154815290600101906020018083116134e257829003601f168201915b505050505090806006018054600181600116156101000203166002900480601f01602080910402602001604051908101604052809291908181526020018280546001816001161561010002031660029004801561359d5780601f106135725761010080835404028352916020019161359d565b820191906000526020600020905b81548152906001019060200180831161358057829003601f168201915b5050505050905087565b60046020528060005260406000206000915090508060000154908060010160009054906101000a900473ffffffffffffffffffffffffffffffffffffffff16908060020160009054906101000a900473ffffffffffffffffffffffffffffffffffffffff16908060030154905084565b606060006060806060600260008773ffffffffffffffffffffffffffffffffffffffff1673ffffffffffffffffffffffffffffffffffffffff168152602001908152602001600020600101600260008873ffffffffffffffffffffffffffffffffffffffff1673ffffffffffffffffffffffffffffffffffffffff16815260200190815260200160002060020154600260008973ffffffffffffffffffffffffffffffffffffffff1673ffffffffffffffffffffffffffffffffffffffff168152602001908152602001600020600301600260008a73ffffffffffffffffffffffffffffffffffffffff1673ffffffffffffffffffffffffffffffffffffffff168152602001908152602001600020600401600260008b73ffffffffffffffffffffffffffffffffffffffff1673ffffffffffffffffffffffffffffffffffffffff168152602001908152602001600020600501848054600181600116156101000203166002900480601f0160208091040260200160405190810160405280929190818152602001828054600181600116156101000203166002900480156138005780601f106137d557610100808354040283529160200191613800565b820191906000526020600020905b8154815290600101906020018083116137e357829003601f168201915b50505050509450828054600181600116156101000203166002900480601f01602080910402602001604051908101604052809291908181526020018280546001816001161561010002031660029004801561389c5780601f106138715761010080835404028352916020019161389c565b820191906000526020600020905b81548152906001019060200180831161387f57829003601f168201915b50505050509250818054600181600116156101000203166002900480601f0160208091040260200160405190810160405280929190818152602001828054600181600116156101000203166002900480156139385780601f1061390d57610100808354040283529160200191613938565b820191906000526020600020905b81548152906001019060200180831161391b57829003601f168201915b50505050509150808054600181600116156101000203166002900480601f0160208091040260200160405190810160405280929190818152602001828054600181600116156101000203166002900480156139d45780601f106139a9576101008083540402835291602001916139d4565b820191906000526020600020905b8154815290600101906020018083116139b757829003601f168201915b505050505090509450945094509450945091939590929450565b6000600860008373ffffffffffffffffffffffffffffffffffffffff1673ffffffffffffffffffffffffffffffffffffffff16815260200190815260200160002060009054906101000a900460ff1680613a915750600960008373ffffffffffffffffffffffffffffffffffffffff1673ffffffffffffffffffffffffffffffffffffffff16815260200190815260200160002060009054906101000a900460ff165b15613a9f5760019050613aa0565b5b919050565b60135481565b613ab433614596565b613abd57600080fd5b80600b600084815260200190815260200160002060006101000a81548173ffffffffffffffffffffffffffffffffffffffff021916908373ffffffffffffffffffffffffffffffffffffffff1602179055505050565b6000600560008373ffffffffffffffffffffffffffffffffffffffff1673ffffffffffffffffffffffffffffffffffffffff16815260200190815260200160002060009054906101000a900460ff1615613b705760019050613b71565b5b919050565b600560003373ffffffffffffffffffffffffffffffffffffffff1673ffffffffffffffffffffffffffffffffffffffff16815260200190815260200160002060009054906101000a900460ff1615613bcd57600080fd5b6001600560003373ffffffffffffffffffffffffffffffffffffffff1673ffffffffffffffffffffffffffffffffffffffff16815260200190815260200160002060006101000a81548160ff0219169083151502179055506001600760003373ffffffffffffffffffffffffffffffffffffffff1673ffffffffffffffffffffffffffffffffffffffff16815260200190815260200160002060006101000a81548160ff0219169083151502179055506013600081548092919060010191905055506040518060e001604052803373ffffffffffffffffffffffffffffffffffffffff16815260200187815260200186815260200185815260200184815260200183815260200182815250600360003373ffffffffffffffffffffffffffffffffffffffff1673ffffffffffffffffffffffffffffffffffffffff16815260200190815260200160002060008201518160000160006101000a81548173ffffffffffffffffffffffffffffffffffffffff021916908373ffffffffffffffffffffffffffffffffffffffff1602179055506020820151816001019080519060200190613d7a929190614f54565b50604082015181600201556060820151816003019080519060200190613da1929190614f54565b506080820151816004019080519060200190613dbe929190614f54565b5060a0820151816005019080519060200190613ddb929190614f54565b5060c0820151816006019080519060200190613df8929190614f54565b50905050600f3390806001815401808255809150509060018203906000526020600020016000909192909190916101000a81548173ffffffffffffffffffffffffffffffffffffffff021916908373ffffffffffffffffffffffffffffffffffffffff160217905550507f478f5152d8fc568db3f8de9fb402fd9d98a1a7541ecfe434e59cf574fbfc552433604051808273ffffffffffffffffffffffffffffffffffffffff1673ffffffffffffffffffffffffffffffffffffffff16815260200191505060405180910390a1505050505050565b600e8181548110613eda57fe5b906000526020600020016000915054906101000a900473ffffffffffffffffffffffffffffffffffffffff1681565b613f1233614596565b613f1b57600080fd5b6001600860008373ffffffffffffffffffffffffffffffffffffffff1673ffffffffffffffffffffffffffffffffffffffff16815260200190815260200160002060006101000a81548160ff0219169083151502179055507f6a6455914f452787eb3985452aceedc1000fb545e394eb3b370e3d08958e0a5b81604051808273ffffffffffffffffffffffffffffffffffffffff1673ffffffffffffffffffffffffffffffffffffffff16815260200191505060405180910390a150565b60606000808381526020019081526020016000206002018054600181600116156101000203166002900480601f0160208091040260200160405190810160405280929190818152602001828054600181600116156101000203166002900480156140845780601f1061405957610100808354040283529160200191614084565b820191906000526020600020905b81548152906001019060200180831161406757829003601f168201915b50505050509050919050565b61409933614b88565b80156140aa57506140a9336139ee565b5b6140b357600080fd5b6001600c600083815260200190815260200160002060006101000a81548160ff02191690831515021790555050565b6060600e80548060200260200160405190810160405280929190818152602001828054801561416657602002820191906000526020600020905b8160009054906101000a900473ffffffffffffffffffffffffffffffffffffffff1673ffffffffffffffffffffffffffffffffffffffff168152602001906001019080831161411c575b5050505050905090565b6000601254905090565b60026020528060005260406000206000915090508060000160009054906101000a900473ffffffffffffffffffffffffffffffffffffffff1690806001018054600181600116156101000203166002900480601f01602080910402602001604051908101604052809291908181526020018280546001816001161561010002031660029004801561424c5780601f106142215761010080835404028352916020019161424c565b820191906000526020600020905b81548152906001019060200180831161422f57829003601f168201915b505050505090806002015490806003018054600181600116156101000203166002900480601f0160208091040260200160405190810160405280929190818152602001828054600181600116156101000203166002900480156142f05780601f106142c5576101008083540402835291602001916142f0565b820191906000526020600020905b8154815290600101906020018083116142d357829003601f168201915b505050505090806004018054600181600116156101000203166002900480601f01602080910402602001604051908101604052809291908181526020018280546001816001161561010002031660029004801561438e5780601f106143635761010080835404028352916020019161438e565b820191906000526020600020905b81548152906001019060200180831161437157829003601f168201915b505050505090806005018054600181600116156101000203166002900480601f01602080910402602001604051908101604052809291908181526020018280546001816001161561010002031660029004801561442c5780601f106144015761010080835404028352916020019161442c565b820191906000526020600020905b81548152906001019060200180831161440f57829003601f168201915b5050505050905086565b6001602052806000526040600020600091509050806000015490806001018054600181600116156101000203166002900480601f0160208091040260200160405190810160405280929190818152602001828054600181600116156101000203166002900480156144e85780601f106144bd576101008083540402835291602001916144e8565b820191906000526020600020905b8154815290600101906020018083116144cb57829003601f168201915b505050505090806002015490806003018054600181600116156101000203166002900480601f01602080910402602001604051908101604052809291908181526020018280546001816001161561010002031660029004801561458c5780601f106145615761010080835404028352916020019161458c565b820191906000526020600020905b81548152906001019060200180831161456f57829003601f168201915b5050505050905084565b60008173ffffffffffffffffffffffffffffffffffffffff1673996d5dd44538775d98abc15d578a86428acd894373ffffffffffffffffffffffffffffffffffffffff1614156145e957600190506145ee565b600090505b919050565b6000602052806000526040600020600091509050806000015490806001015490806002018054600181600116156101000203166002900480601f0160208091040260200160405190810160405280929190818152602001828054600181600116156101000203166002900480156146ab5780601f10614680576101008083540402835291602001916146ab565b820191906000526020600020905b81548152906001019060200180831161468e57829003601f168201915b505050505090806003018054600181600116156101000203166002900480601f0160208091040260200160405190810160405280929190818152602001828054600181600116156101000203166002900480156147495780601f1061471e57610100808354040283529160200191614749565b820191906000526020600020905b81548152906001019060200180831161472c57829003601f168201915b5050505050908060040160009054906101000a900460ff1690806005015490806006015490806007015490806008018054600181600116156101000203166002900480601f01602080910402602001604051908101604052809291908181526020018280546001816001161561010002031660029004801561480c5780601f106147e15761010080835404028352916020019161480c565b820191906000526020600020905b8154815290600101906020018083116147ef57829003601f168201915b5050505050905089565b60086020528060005260406000206000915054906101000a900460ff1681565b600560003373ffffffffffffffffffffffffffffffffffffffff1673ffffffffffffffffffffffffffffffffffffffff16815260200190815260200160002060009054906101000a900460ff161561488d57600080fd5b6001600560003373ffffffffffffffffffffffffffffffffffffffff1673ffffffffffffffffffffffffffffffffffffffff16815260200190815260200160002060006101000a81548160ff0219169083151502179055506001600660003373ffffffffffffffffffffffffffffffffffffffff1673ffffffffffffffffffffffffffffffffffffffff16815260200190815260200160002060006101000a81548160ff0219169083151502179055506012600081548092919060010191905055506040518060c001604052803373ffffffffffffffffffffffffffffffffffffffff16815260200186815260200185815260200184815260200183815260200182815250600260003373ffffffffffffffffffffffffffffffffffffffff1673ffffffffffffffffffffffffffffffffffffffff16815260200190815260200160002060008201518160000160006101000a81548173ffffffffffffffffffffffffffffffffffffffff021916908373ffffffffffffffffffffffffffffffffffffffff1602179055506020820151816001019080519060200190614a34929190614f54565b50604082015181600201556060820151816003019080519060200190614a5b929190614f54565b506080820151816004019080519060200190614a78929190614f54565b5060a0820151816005019080519060200190614a95929190614f54565b50905050600e3390806001815401808255809150509060018203906000526020600020016000909192909190916101000a81548173ffffffffffffffffffffffffffffffffffffffff021916908373ffffffffffffffffffffffffffffffffffffffff160217905550507f478f5152d8fc568db3f8de9fb402fd9d98a1a7541ecfe434e59cf574fbfc552433604051808273ffffffffffffffffffffffffffffffffffffffff1673ffffffffffffffffffffffffffffffffffffffff16815260200191505060405180910390a15050505050565b6000806000838152602001908152602001600020600501549050919050565b6000600660008373ffffffffffffffffffffffffffffffffffffffff1673ffffffffffffffffffffffffffffffffffffffff16815260200190815260200160002060009054906101000a900460ff1615614be55760019050614be6565b5b919050565b6000601354905090565b600f8181548110614c0257fe5b906000526020600020016000915054906101000a900473ffffffffffffffffffffffffffffffffffffffff1681565b6000806000806004600086815260200190815260200160002060010160009054906101000a900473ffffffffffffffffffffffffffffffffffffffff166004600087815260200190815260200160002060020160009054906101000a900473ffffffffffffffffffffffffffffffffffffffff166004600088815260200190815260200160002060030154600c600089815260200190815260200160002060009054906101000a900460ff1693509350935093509193509193565b614cf5336127a4565b8015614d065750614d05336139ee565b5b614d0f57600080fd5b601460008154809291906001019190505550604051806080016040528060145481526020018373ffffffffffffffffffffffffffffffffffffffff1681526020013373ffffffffffffffffffffffffffffffffffffffff168152602001828152506004600060145481526020019081526020016000206000820151816000015560208201518160010160006101000a81548173ffffffffffffffffffffffffffffffffffffffff021916908373ffffffffffffffffffffffffffffffffffffffff16021790555060408201518160020160006101000a81548173ffffffffffffffffffffffffffffffffffffffff021916908373ffffffffffffffffffffffffffffffffffffffff160217905550606082015181600301559050506000600c6000601454815260200190815260200160002060006101000a81548160ff0219169083151502179055506001600d6000601454815260200190815260200160002060006101000a81548160ff0219169083151502179055507fc67eb70629da758128cec22f7e36ad0676066ad4df9b66e8ba58a30c1ab4075b82604051808273ffffffffffffffffffffffffffffffffffffffff1673ffffffffffffffffffffffffffffffffffffffff16815260200191505060405180910390a15050565b60056020528060005260406000206000915054906101000a900460ff1681565b614f1633614596565b614f1f57600080fd5b6001600a600083815260200190815260200160002060006101000a81548160ff02191690831515021790555050565b60145481565b828054600181600116156101000203166002900490600052602060002090601f016020900481019282601f10614f9557805160ff1916838001178555614fc3565b82800160010185558215614fc3579182015b82811115614fc2578251825591602001919060010190614fa7565b5b509050614fd09190614fd4565b5090565b614ff691905b80821115614ff2576000816000905550600101614fda565b5090565b9056fea265627a7a72315820a6386e7c9b503b8f3fc0203b8f711300f4c9d2570a9a8c9d2f21bf547252dd7064736f6c63430005100032",
  "source": "pragma solidity >= 0.5.2;\n\ncontract Land {\n    struct Landreg {\n        uint id;\n        uint area;\n        string city;\n        string state;\n        bool verificationStatus;\n        uint landPrice;\n        uint propertyPID;\n        uint physicalSurveyNumber;\n        string ipfsHash;\n    }\n\n    struct Buyer{\n        address id;\n        string name;\n        uint age;\n        string city;\n        string state;\n        string aadharNumber;\n        string panNumber;\n    }\n\n    struct Seller{\n        address id;\n        string name;\n        uint age;\n        string aadharNumber;\n        string panNumber;\n        string landsOwned;\n    }\n\n    struct LandInspector {\n        uint id;\n        string name;\n        uint age;\n        string designation;\n    }\n\n    struct LandRequest{\n        uint reqId;\n        address sellerId;\n        address buyerId;\n        uint landId;\n        // bool requestStatus;\n        // bool requested;\n    }\n\n    //key value pairs\n    mapping(uint => Landreg) public lands;\n    mapping(uint => LandInspector) public InspectorMapping;\n    mapping(address => Seller) public SellerMapping;\n    mapping(address => Buyer) public BuyerMapping;\n    mapping(uint => LandRequest) public RequestsMapping;\n\n    mapping(address => bool) public RegisteredAddressMapping;\n    mapping(address => bool) public RegisteredSellerMapping;\n    mapping(address => bool) public RegisteredBuyerMapping;\n    mapping(address => bool) public SellerVerification;\n    mapping(address => bool) public BuyerVerification;\n    mapping(uint => bool) public LandVerification;\n    mapping(uint => address) public LandOwner;\n    mapping(uint => bool) public RequestStatus;\n    mapping(uint => bool) public RequestedLands;\n\n\n    address[] public sellers;\n    address[] public buyers;\n\n    uint public landsCount;\n    uint public inspectorsCount;\n    uint public sellersCount;\n    uint public buyersCount;\n    uint public requestsCount;\n\n    event Registration(address _registrationId);\n    event AddingLand(uint indexed _landId);\n    event Landrequested(address _sellerId);\n    event requestApproved(address _buyerId);\n    event Verified(address _id);\n\n    constructor() public{\n        addLandInspector(\"Inspector 1\", 45, \"Tehsil Manager\");\n    }\n\n    function addLandInspector(string memory _name, uint _age, string memory _designation) private {\n        inspectorsCount++;\n        InspectorMapping[inspectorsCount] = LandInspector(inspectorsCount, _name, _age, _designation);\n    }\n\n    function getLandsCount() public view returns (uint) {\n        return landsCount;\n    }\n\n    function getBuyersCount() public view returns (uint) {\n        return buyersCount;\n    }\n\n    function getSellersCount() public view returns (uint) {\n        return sellersCount;\n    }\n\n    function getRequestsCount() public view returns (uint) {\n        return requestsCount;\n    }\n    // function getRequestStatus(uint id) public payable returns (bool) {\n    //     return \n    // }\n\n    function getArea(uint i) public view returns (uint) {\n        return lands[i].area;\n    }\n    function getCity(uint i) public view returns (string memory) {\n        return lands[i].city;\n    }\n     function getState(uint i) public view returns (string memory) {\n        return lands[i].state;\n    }\n    function getStatus(uint i) public view returns (bool) {\n        return lands[i].verificationStatus;\n    }\n    function getPrice(uint i) public view returns (uint) {\n        return lands[i].landPrice;\n    }\n    function getPID(uint i) public view returns (uint) {\n        return lands[i].propertyPID;\n    }\n    function getSurveyNumber(uint i) public view returns (uint) {\n        return lands[i].physicalSurveyNumber;\n    }\n    function getImage(uint i) public view returns (string memory) {\n        return lands[i].ipfsHash;\n    }\n    \n    function getLandOwner(uint id) public view returns (address) {\n        return LandOwner[id];\n    }\n\n    function verifySeller(address _sellerId) public{\n        require(isLandInspector(msg.sender));\n\n        SellerVerification[_sellerId] = true;\n        emit Verified(_sellerId);\n    }\n\n    function verifyBuyer(address _buyerId) public{\n        require(isLandInspector(msg.sender));\n\n        BuyerVerification[_buyerId] = true;\n        emit Verified(_buyerId);\n    }\n    \n    function verifyLand(uint _landId) public{\n        require(isLandInspector(msg.sender));\n\n        LandVerification[_landId] = true;\n    }\n\n    function isLandVerified(uint _id) public view returns (bool) {\n        if(LandVerification[_id]){\n            return true;\n        }\n    }\n\n    function isVerified(address _id) public view returns (bool) {\n        if(SellerVerification[_id] || BuyerVerification[_id]){\n            return true;\n        }\n    }\n\n    function isSeller(address _id) public view returns (bool) {\n        if(RegisteredSellerMapping[_id]){\n            return true;\n        }\n    }\n\n    function isLandInspector(address _id) public view returns (bool) {\n        if(0x996d5Dd44538775D98Abc15d578a86428ACD8943 == _id){\n            return true;\n        }else{\n            return false;\n        }\n    }\n\n    function isBuyer(address _id) public view returns (bool) {\n        if(RegisteredBuyerMapping[_id]){\n            return true;\n        }\n    }\n    function isRegistered(address _id) public view returns (bool) {\n        if(RegisteredAddressMapping[_id]){\n            return true;\n        }\n    }\n\n    function addLand(uint _area, string memory _city,string memory _state, uint landPrice, uint _propertyPID,uint _surveyNum,string memory _ipfsHash) public {\n        require((isSeller(msg.sender)) && (isVerified(msg.sender)));\n        landsCount++;\n        lands[landsCount] = Landreg(landsCount, _area, _city, _state, false, landPrice,_propertyPID, _surveyNum, _ipfsHash);\n        LandOwner[landsCount] = msg.sender;\n        // emit AddingLand(landsCount);\n    }\n\n    //registration of seller\n    function registerSeller(string memory _name, uint _age, string memory _aadharNumber, string memory _panNumber, string memory _landsOwned) public {\n        //require that Buyer is not already registered\n        require(!RegisteredAddressMapping[msg.sender]);\n\n        RegisteredAddressMapping[msg.sender] = true;\n        RegisteredSellerMapping[msg.sender] = true ;\n        sellersCount++;\n        SellerMapping[msg.sender] = Seller(msg.sender, _name, _age, _aadharNumber,_panNumber, _landsOwned);\n        sellers.push(msg.sender);\n        emit Registration(msg.sender);\n    }\n\n    function getSeller() public view returns( address [] memory ){\n        return(sellers);\n    }\n\n    function getSellerDetails(address i) public view returns (string memory, uint, string memory, string memory, string memory) {\n        return (SellerMapping[i].name, SellerMapping[i].age, SellerMapping[i].aadharNumber, SellerMapping[i].panNumber, SellerMapping[i].landsOwned);\n    }\n\n    function registerBuyer(string memory _name, uint _age, string memory _city, string memory _state, string memory _aadharNumber, string memory _panNumber) public {\n        //require that Buyer is not already registered\n        require(!RegisteredAddressMapping[msg.sender]);\n\n        RegisteredAddressMapping[msg.sender] = true;\n        RegisteredBuyerMapping[msg.sender] = true ;\n        buyersCount++;\n        BuyerMapping[msg.sender] = Buyer(msg.sender, _name, _age, _city, _state, _aadharNumber, _panNumber);\n        buyers.push(msg.sender);\n\n        emit Registration(msg.sender);\n    }\n\n    function getBuyer() public view returns( address [] memory ){\n        return(buyers);\n    }\n\n    function getBuyerDetails(address i) public view returns (string memory, uint, string memory, string memory, string memory, string memory) {\n        return (BuyerMapping[i].name, BuyerMapping[i].age,BuyerMapping[i].city,BuyerMapping[i].state,  BuyerMapping[i].aadharNumber, BuyerMapping[i].panNumber);\n    }\n\n    // function getAllRequests() public view returns (LandRequest[] memory){\n    //     return RequestsMapping;\n    // }\n\n    function requestLand(address _sellerId, uint _landId) public{\n        require(isBuyer(msg.sender) && isVerified(msg.sender));\n        \n        requestsCount++;\n        RequestsMapping[requestsCount] = LandRequest(requestsCount, _sellerId, msg.sender, _landId);\n        RequestStatus[requestsCount] = false;\n        RequestedLands[requestsCount] = true;\n\n        emit Landrequested(_sellerId);\n        // RequestsMapping[msg.sender] = LandRequest(_sellerId, _landId, false);\n    }\n\n    function getRequestDetails (uint i) public view returns (address, address, uint, bool) {\n        return(RequestsMapping[i].sellerId, RequestsMapping[i].buyerId, RequestsMapping[i].landId, RequestStatus[i]);\n    }\n\n    function isRequested(uint _id) public view returns (bool) {\n        if(RequestedLands[_id]){\n            return true;\n        }\n    }\n\n    function isApproved(uint _id) public view returns (bool) {\n        if(RequestStatus[_id]){\n            return true;\n        }\n    }\n\n    function approveRequest(uint _reqId) public {\n        require((isSeller(msg.sender)) && (isVerified(msg.sender)));\n       \n        RequestStatus[_reqId] = true;\n\n    }\n\n    function LandOwnershipTransfer(uint _landId, address _newOwner) public{\n        require(isLandInspector(msg.sender));\n\n        LandOwner[_landId] = _newOwner;\n    }\n\n}",
  "sourcePath": "/home/intel123/SE Project/Land_registration/Final Project/SE-Project/contracts/Land.sol",
  "compiler": {
    "name": "solc",
    "version": "0.5.16+commit.9c3226ce.Emscripten.clang"
  },
  "schemaVersion": "3.3.4",
  "updatedAt": "2021-04-19T03:10:34.365Z",
  "networkType": "ethereum",
  "devdoc": {
    "methods": {}
  },
  "userdoc": {
    "methods": {}
  }
}