{
  "contractName": "Land",
  "abi": [
    {
      "inputs": [],
      "payable": false,
      "stateMutability": "nonpayable",
      "type": "constructor"
    },
    {
      "anonymous": false,
      "inputs": [
        {
          "indexed": true,
          "internalType": "uint256",
          "name": "_landId",
          "type": "uint256"
        }
      ],
      "name": "AddingLand",
      "type": "event"
    },
    {
      "anonymous": false,
      "inputs": [
        {
          "indexed": false,
          "internalType": "address",
          "name": "_sellerId",
          "type": "address"
        }
      ],
      "name": "Landrequested",
      "type": "event"
    },
    {
      "anonymous": false,
      "inputs": [
        {
          "indexed": false,
          "internalType": "address",
          "name": "_registrationId",
          "type": "address"
        }
      ],
      "name": "Registration",
      "type": "event"
    },
    {
      "anonymous": false,
      "inputs": [
        {
          "indexed": false,
          "internalType": "address",
          "name": "_id",
          "type": "address"
        }
      ],
      "name": "Verified",
      "type": "event"
    },
    {
      "anonymous": false,
      "inputs": [
        {
          "indexed": false,
          "internalType": "address",
          "name": "_buyerId",
          "type": "address"
        }
      ],
      "name": "requestApproved",
      "type": "event"
    },
    {
      "constant": true,
      "inputs": [
        {
          "internalType": "address",
          "name": "",
          "type": "address"
        }
      ],
      "name": "BuyerMapping",
      "outputs": [
        {
          "internalType": "address",
          "name": "id",
          "type": "address"
        },
        {
          "internalType": "string",
          "name": "name",
          "type": "string"
        },
        {
          "internalType": "uint256",
          "name": "age",
          "type": "uint256"
        },
        {
          "internalType": "string",
          "name": "city",
          "type": "string"
        },
        {
          "internalType": "string",
          "name": "state",
          "type": "string"
        },
        {
          "internalType": "string",
          "name": "aadharNumber",
          "type": "string"
        },
        {
          "internalType": "string",
          "name": "panNumber",
          "type": "string"
        }
      ],
      "payable": false,
      "stateMutability": "view",
      "type": "function"
    },
    {
      "constant": true,
      "inputs": [
        {
          "internalType": "address",
          "name": "",
          "type": "address"
        }
      ],
      "name": "BuyerVerification",
      "outputs": [
        {
          "internalType": "bool",
          "name": "",
          "type": "bool"
        }
      ],
      "payable": false,
      "stateMutability": "view",
      "type": "function"
    },
    {
      "constant": true,
      "inputs": [
        {
          "internalType": "uint256",
          "name": "",
          "type": "uint256"
        }
      ],
      "name": "InspectorMapping",
      "outputs": [
        {
          "internalType": "uint256",
          "name": "id",
          "type": "uint256"
        },
        {
          "internalType": "string",
          "name": "name",
          "type": "string"
        },
        {
          "internalType": "uint256",
          "name": "age",
          "type": "uint256"
        },
        {
          "internalType": "string",
          "name": "designation",
          "type": "string"
        }
      ],
      "payable": false,
      "stateMutability": "view",
      "type": "function"
    },
    {
      "constant": true,
      "inputs": [
        {
          "internalType": "uint256",
          "name": "",
          "type": "uint256"
        }
      ],
      "name": "LandOwner",
      "outputs": [
        {
          "internalType": "address",
          "name": "",
          "type": "address"
        }
      ],
      "payable": false,
      "stateMutability": "view",
      "type": "function"
    },
    {
      "constant": true,
      "inputs": [
        {
          "internalType": "address",
          "name": "",
          "type": "address"
        }
      ],
      "name": "RegisteredAddressMapping",
      "outputs": [
        {
          "internalType": "bool",
          "name": "",
          "type": "bool"
        }
      ],
      "payable": false,
      "stateMutability": "view",
      "type": "function"
    },
    {
      "constant": true,
      "inputs": [
        {
          "internalType": "address",
          "name": "",
          "type": "address"
        }
      ],
      "name": "RegisteredBuyerMapping",
      "outputs": [
        {
          "internalType": "bool",
          "name": "",
          "type": "bool"
        }
      ],
      "payable": false,
      "stateMutability": "view",
      "type": "function"
    },
    {
      "constant": true,
      "inputs": [
        {
          "internalType": "address",
          "name": "",
          "type": "address"
        }
      ],
      "name": "RegisteredSellerMapping",
      "outputs": [
        {
          "internalType": "bool",
          "name": "",
          "type": "bool"
        }
      ],
      "payable": false,
      "stateMutability": "view",
      "type": "function"
    },
    {
      "constant": true,
      "inputs": [
        {
          "internalType": "uint256",
          "name": "",
          "type": "uint256"
        }
      ],
      "name": "RequestsMapping",
      "outputs": [
        {
          "internalType": "address",
          "name": "sellerId",
          "type": "address"
        },
        {
          "internalType": "address",
          "name": "buyerId",
          "type": "address"
        },
        {
          "internalType": "uint256",
          "name": "landId",
          "type": "uint256"
        },
        {
          "internalType": "bool",
          "name": "requestStatus",
          "type": "bool"
        }
      ],
      "payable": false,
      "stateMutability": "view",
      "type": "function"
    },
    {
      "constant": true,
      "inputs": [
        {
          "internalType": "address",
          "name": "",
          "type": "address"
        }
      ],
      "name": "SellerMapping",
      "outputs": [
        {
          "internalType": "address",
          "name": "id",
          "type": "address"
        },
        {
          "internalType": "string",
          "name": "name",
          "type": "string"
        },
        {
          "internalType": "uint256",
          "name": "age",
          "type": "uint256"
        },
        {
          "internalType": "string",
          "name": "aadharNumber",
          "type": "string"
        },
        {
          "internalType": "string",
          "name": "panNumber",
          "type": "string"
        },
        {
          "internalType": "string",
          "name": "landsOwned",
          "type": "string"
        }
      ],
      "payable": false,
      "stateMutability": "view",
      "type": "function"
    },
    {
      "constant": true,
      "inputs": [
        {
          "internalType": "address",
          "name": "",
          "type": "address"
        }
      ],
      "name": "SellerVerification",
      "outputs": [
        {
          "internalType": "bool",
          "name": "",
          "type": "bool"
        }
      ],
      "payable": false,
      "stateMutability": "view",
      "type": "function"
    },
    {
      "constant": true,
      "inputs": [],
      "name": "buyersCount",
      "outputs": [
        {
          "internalType": "uint256",
          "name": "",
          "type": "uint256"
        }
      ],
      "payable": false,
      "stateMutability": "view",
      "type": "function"
    },
    {
      "constant": true,
      "inputs": [],
      "name": "inspectorsCount",
      "outputs": [
        {
          "internalType": "uint256",
          "name": "",
          "type": "uint256"
        }
      ],
      "payable": false,
      "stateMutability": "view",
      "type": "function"
    },
    {
      "constant": true,
      "inputs": [
        {
          "internalType": "uint256",
          "name": "",
          "type": "uint256"
        }
      ],
      "name": "lands",
      "outputs": [
        {
          "internalType": "uint256",
          "name": "id",
          "type": "uint256"
        },
        {
          "internalType": "uint256",
          "name": "area",
          "type": "uint256"
        },
        {
          "internalType": "string",
          "name": "location",
          "type": "string"
        },
        {
          "internalType": "bool",
          "name": "verificationStatus",
          "type": "bool"
        }
      ],
      "payable": false,
      "stateMutability": "view",
      "type": "function"
    },
    {
      "constant": true,
      "inputs": [],
      "name": "landsCount",
      "outputs": [
        {
          "internalType": "uint256",
          "name": "",
          "type": "uint256"
        }
      ],
      "payable": false,
      "stateMutability": "view",
      "type": "function"
    },
    {
      "constant": true,
      "inputs": [],
      "name": "sellersCount",
      "outputs": [
        {
          "internalType": "uint256",
          "name": "",
          "type": "uint256"
        }
      ],
      "payable": false,
      "stateMutability": "view",
      "type": "function"
    },
    {
      "constant": false,
      "inputs": [
        {
          "internalType": "address",
          "name": "_sellerId",
          "type": "address"
        }
      ],
      "name": "verifySeller",
      "outputs": [],
      "payable": false,
      "stateMutability": "nonpayable",
      "type": "function"
    },
    {
      "constant": false,
      "inputs": [
        {
          "internalType": "address",
          "name": "_buyerId",
          "type": "address"
        }
      ],
      "name": "verifyBuyer",
      "outputs": [],
      "payable": false,
      "stateMutability": "nonpayable",
      "type": "function"
    },
    {
      "constant": true,
      "inputs": [
        {
          "internalType": "address",
          "name": "_id",
          "type": "address"
        }
      ],
      "name": "isVerified",
      "outputs": [
        {
          "internalType": "bool",
          "name": "",
          "type": "bool"
        }
      ],
      "payable": false,
      "stateMutability": "view",
      "type": "function"
    },
    {
      "constant": true,
      "inputs": [
        {
          "internalType": "address",
          "name": "_id",
          "type": "address"
        }
      ],
      "name": "isSeller",
      "outputs": [
        {
          "internalType": "bool",
          "name": "",
          "type": "bool"
        }
      ],
      "payable": false,
      "stateMutability": "view",
      "type": "function"
    },
    {
      "constant": true,
      "inputs": [
        {
          "internalType": "address",
          "name": "_id",
          "type": "address"
        }
      ],
      "name": "isBuyer",
      "outputs": [
        {
          "internalType": "bool",
          "name": "",
          "type": "bool"
        }
      ],
      "payable": false,
      "stateMutability": "view",
      "type": "function"
    },
    {
      "constant": false,
      "inputs": [
        {
          "internalType": "uint256",
          "name": "_area",
          "type": "uint256"
        },
        {
          "internalType": "string",
          "name": "_location",
          "type": "string"
        }
      ],
      "name": "addLand",
      "outputs": [],
      "payable": false,
      "stateMutability": "nonpayable",
      "type": "function"
    },
    {
      "constant": false,
      "inputs": [
        {
          "internalType": "string",
          "name": "_name",
          "type": "string"
        },
        {
          "internalType": "uint256",
          "name": "_age",
          "type": "uint256"
        },
        {
          "internalType": "string",
          "name": "_aadharNumber",
          "type": "string"
        },
        {
          "internalType": "string",
          "name": "_panNumber",
          "type": "string"
        },
        {
          "internalType": "string",
          "name": "_landsOwned",
          "type": "string"
        }
      ],
      "name": "registerSeller",
      "outputs": [],
      "payable": false,
      "stateMutability": "nonpayable",
      "type": "function"
    },
    {
      "constant": false,
      "inputs": [
        {
          "internalType": "string",
          "name": "_name",
          "type": "string"
        },
        {
          "internalType": "uint256",
          "name": "_age",
          "type": "uint256"
        },
        {
          "internalType": "string",
          "name": "_city",
          "type": "string"
        },
        {
          "internalType": "string",
          "name": "_state",
          "type": "string"
        },
        {
          "internalType": "string",
          "name": "_aadharNumber",
          "type": "string"
        },
        {
          "internalType": "string",
          "name": "_panNumber",
          "type": "string"
        }
      ],
      "name": "registerBuyer",
      "outputs": [],
      "payable": false,
      "stateMutability": "nonpayable",
      "type": "function"
    },
    {
      "constant": false,
      "inputs": [
        {
          "internalType": "address",
          "name": "_sellerId",
          "type": "address"
        },
        {
          "internalType": "uint256",
          "name": "_landId",
          "type": "uint256"
        }
      ],
      "name": "requestLand",
      "outputs": [],
      "payable": false,
      "stateMutability": "nonpayable",
      "type": "function"
    },
    {
      "constant": false,
      "inputs": [
        {
          "components": [
            {
              "internalType": "address",
              "name": "sellerId",
              "type": "address"
            },
            {
              "internalType": "address",
              "name": "buyerId",
              "type": "address"
            },
            {
              "internalType": "uint256",
              "name": "landId",
              "type": "uint256"
            },
            {
              "internalType": "bool",
              "name": "requestStatus",
              "type": "bool"
            }
          ],
          "internalType": "struct Land.LandRequest",
          "name": "req",
          "type": "tuple"
        }
      ],
      "name": "approveRequest",
      "outputs": [],
      "payable": false,
      "stateMutability": "nonpayable",
      "type": "function"
    },
    {
      "constant": false,
      "inputs": [
        {
          "internalType": "uint256",
          "name": "_landId",
          "type": "uint256"
        },
        {
          "internalType": "address",
          "name": "_newOwner",
          "type": "address"
        }
      ],
      "name": "LandOwnershipTransfer",
      "outputs": [],
      "payable": false,
      "stateMutability": "nonpayable",
      "type": "function"
    }
  ],
  "bytecode": "0x60806040523480156200001157600080fd5b50620000906040518060400160405280600b81526020017f496e73706563746f722031000000000000000000000000000000000000000000815250602d6040518060400160405280600e81526020017f54656873696c204d616e616765720000000000000000000000000000000000008152506200009660201b60201c565b620001e9565b600c600081548092919060010191905055506040518060800160405280600c5481526020018481526020018381526020018281525060016000600c548152602001908152602001600020600082015181600001556020820151816001019080519060200190620001089291906200013a565b50604082015181600201556060820151816003019080519060200190620001319291906200013a565b50905050505050565b828054600181600116156101000203166002900490600052602060002090601f016020900481019282601f106200017d57805160ff1916838001178555620001ae565b82800160010185558215620001ae579182015b82811115620001ad57825182559160200191906001019062000190565b5b509050620001bd9190620001c1565b5090565b620001e691905b80821115620001e2576000816000905550600101620001c8565b5090565b90565b61259280620001f96000396000f3fe608060405234801561001057600080fd5b506004361061018e5760003560e01c8063b9209e33116100de578063def936c311610097578063e706d55511610071578063e706d55514610507578063ee95feaf14610523578063f3f0c21814610553578063f58f85b51461056f5761018e565b8063def936c314610471578063e261f1e5146104a4578063e4b26115146104d75761018e565b8063b9209e331461039a578063ba49a08c146103ca578063bed403c7146103e8578063cad1ab3b14610404578063d1760e6014610420578063dec091ad1461043c5761018e565b8063941e24261161014b578063a47d4c0211610125578063a47d4c02146102d1578063a6dc41fb14610301578063ab51707414610331578063b0a5dcd3146103675761018e565b8063941e2426146102655780639ae9711e146102835780639dc1bfa9146102a15761018e565b806306266fcd146101935780631c9afd0f146101af5780632a55feec146101cd57806337f222cf146101fd578063601e7c34146102195780636814800b14610249575b600080fd5b6101ad60048036036101a8919081019061209c565b61059f565b005b6101b76106ba565b6040516101c4919061230a565b60405180910390f35b6101e760048036036101e29190810190611dd1565b6106c0565b6040516101f491906122ef565b60405180910390f35b6102176004803603610212919081019061200e565b610723565b005b610233600480360361022e9190810190611dd1565b610795565b60405161024091906122ef565b60405180910390f35b610263600480360361025e9190810190611dd1565b6107b5565b005b61026d610893565b60405161027a919061230a565b60405180910390f35b61028b610899565b604051610298919061230a565b60405180910390f35b6102bb60048036036102b69190810190612037565b61089f565b6040516102c89190612165565b60405180910390f35b6102eb60048036036102e69190810190611dd1565b6108d2565b6040516102f891906122ef565b60405180910390f35b61031b60048036036103169190810190611dd1565b6108f2565b60405161032891906122ef565b60405180910390f35b61034b60048036036103469190810190611dd1565b610912565b60405161035e979695949392919061225d565b60405180910390f35b610381600480360361037c9190810190612037565b610c6c565b604051610391949392919061219b565b60405180910390f35b6103b460048036036103af9190810190611dd1565b610cf6565b6040516103c191906122ef565b60405180910390f35b6103d2610dad565b6040516103df919061230a565b60405180910390f35b61040260048036036103fd9190810190612060565b610db3565b005b61041e60048036036104199190810190611f0d565b610e55565b005b61043a60048036036104359190810190611dd1565b61111a565b005b61045660048036036104519190810190611dd1565b6111f8565b604051610468969594939291906121e0565b60405180910390f35b61048b60048036036104869190810190612037565b6114b4565b60405161049b9493929190612325565b60405180910390f35b6104be60048036036104b99190810190612037565b611614565b6040516104ce9493929190612378565b60405180910390f35b6104f160048036036104ec9190810190611dd1565b6116e9565b6040516104fe91906122ef565b60405180910390f35b610521600480360361051c9190810190611e36565b611709565b005b61053d60048036036105389190810190611dd1565b6119aa565b60405161054a91906122ef565b60405180910390f35b61056d60048036036105689190810190611dfa565b611a0d565b005b61058960048036036105849190810190611dd1565b611baf565b60405161059691906122ef565b60405180910390f35b6105a8336119aa565b80156105b957506105b833610cf6565b5b6105c257600080fd5b600b600081548092919060010191905055506040518060800160405280600b54815260200183815260200182815260200160001515815250600080600b5481526020019081526020016000206000820151816000015560208201518160010155604082015181600201908051906020019061063e929190611bcf565b5060608201518160030160006101000a81548160ff0219169083151502179055509050503360096000600b54815260200190815260200160002060006101000a81548173ffffffffffffffffffffffffffffffffffffffff021916908373ffffffffffffffffffffffffffffffffffffffff1602179055505050565b600b5481565b6000600660008373ffffffffffffffffffffffffffffffffffffffff1673ffffffffffffffffffffffffffffffffffffffff16815260200190815260200160002060009054906101000a900460ff161561071d576001905061071e565b5b919050565b61072c336119aa565b801561073d575061073c33610cf6565b5b61074657600080fd5b60018160600190151590811515815250507f54817f88e4a96e49f4f111de2e596ce9f4e5c372a826a45483764821cabf7e3c816020015160405161078a9190612165565b60405180910390a150565b60056020528060005260406000206000915054906101000a900460ff1681565b3373ffffffffffffffffffffffffffffffffffffffff16736f888d6aeaf7300a207ade052fc51c5bf73a6cf573ffffffffffffffffffffffffffffffffffffffff161461080157600080fd5b6001600860008373ffffffffffffffffffffffffffffffffffffffff1673ffffffffffffffffffffffffffffffffffffffff16815260200190815260200160002060006101000a81548160ff0219169083151502179055507f6a6455914f452787eb3985452aceedc1000fb545e394eb3b370e3d08958e0a5b816040516108889190612165565b60405180910390a150565b600c5481565b600d5481565b60096020528060005260406000206000915054906101000a900473ffffffffffffffffffffffffffffffffffffffff1681565b60066020528060005260406000206000915054906101000a900460ff1681565b60086020528060005260406000206000915054906101000a900460ff1681565b60036020528060005260406000206000915090508060000160009054906101000a900473ffffffffffffffffffffffffffffffffffffffff1690806001018054600181600116156101000203166002900480601f0160208091040260200160405190810160405280929190818152602001828054600181600116156101000203166002900480156109e45780601f106109b9576101008083540402835291602001916109e4565b820191906000526020600020905b8154815290600101906020018083116109c757829003601f168201915b505050505090806002015490806003018054600181600116156101000203166002900480601f016020809104026020016040519081016040528092919081815260200182805460018160011615610100020316600290048015610a885780601f10610a5d57610100808354040283529160200191610a88565b820191906000526020600020905b815481529060010190602001808311610a6b57829003601f168201915b505050505090806004018054600181600116156101000203166002900480601f016020809104026020016040519081016040528092919081815260200182805460018160011615610100020316600290048015610b265780601f10610afb57610100808354040283529160200191610b26565b820191906000526020600020905b815481529060010190602001808311610b0957829003601f168201915b505050505090806005018054600181600116156101000203166002900480601f016020809104026020016040519081016040528092919081815260200182805460018160011615610100020316600290048015610bc45780601f10610b9957610100808354040283529160200191610bc4565b820191906000526020600020905b815481529060010190602001808311610ba757829003601f168201915b505050505090806006018054600181600116156101000203166002900480601f016020809104026020016040519081016040528092919081815260200182805460018160011615610100020316600290048015610c625780601f10610c3757610100808354040283529160200191610c62565b820191906000526020600020905b815481529060010190602001808311610c4557829003601f168201915b5050505050905087565b600a8181548110610c7957fe5b90600052602060002090600402016000915090508060000160009054906101000a900473ffffffffffffffffffffffffffffffffffffffff16908060010160009054906101000a900473ffffffffffffffffffffffffffffffffffffffff16908060020154908060030160009054906101000a900460ff16905084565b6000600760008373ffffffffffffffffffffffffffffffffffffffff1673ffffffffffffffffffffffffffffffffffffffff16815260200190815260200160002060009054906101000a900460ff1680610d995750600860008373ffffffffffffffffffffffffffffffffffffffff1673ffffffffffffffffffffffffffffffffffffffff16815260200190815260200160002060009054906101000a900460ff165b15610da75760019050610da8565b5b919050565b600e5481565b3373ffffffffffffffffffffffffffffffffffffffff16736f888d6aeaf7300a207ade052fc51c5bf73a6cf573ffffffffffffffffffffffffffffffffffffffff1614610dff57600080fd5b806009600084815260200190815260200160002060006101000a81548173ffffffffffffffffffffffffffffffffffffffff021916908373ffffffffffffffffffffffffffffffffffffffff1602179055505050565b600460003373ffffffffffffffffffffffffffffffffffffffff1673ffffffffffffffffffffffffffffffffffffffff16815260200190815260200160002060009054906101000a900460ff1615610eac57600080fd5b6001600460003373ffffffffffffffffffffffffffffffffffffffff1673ffffffffffffffffffffffffffffffffffffffff16815260200190815260200160002060006101000a81548160ff0219169083151502179055506001600660003373ffffffffffffffffffffffffffffffffffffffff1673ffffffffffffffffffffffffffffffffffffffff16815260200190815260200160002060006101000a81548160ff021916908315150217905550600e600081548092919060010191905055506040518060e001604052803373ffffffffffffffffffffffffffffffffffffffff16815260200187815260200186815260200185815260200184815260200183815260200182815250600360003373ffffffffffffffffffffffffffffffffffffffff1673ffffffffffffffffffffffffffffffffffffffff16815260200190815260200160002060008201518160000160006101000a81548173ffffffffffffffffffffffffffffffffffffffff021916908373ffffffffffffffffffffffffffffffffffffffff1602179055506020820151816001019080519060200190611059929190611bcf565b50604082015181600201556060820151816003019080519060200190611080929190611bcf565b50608082015181600401908051906020019061109d929190611bcf565b5060a08201518160050190805190602001906110ba929190611bcf565b5060c08201518160060190805190602001906110d7929190611bcf565b509050507f478f5152d8fc568db3f8de9fb402fd9d98a1a7541ecfe434e59cf574fbfc55243360405161110a9190612180565b60405180910390a1505050505050565b3373ffffffffffffffffffffffffffffffffffffffff16736f888d6aeaf7300a207ade052fc51c5bf73a6cf573ffffffffffffffffffffffffffffffffffffffff161461116657600080fd5b6001600760008373ffffffffffffffffffffffffffffffffffffffff1673ffffffffffffffffffffffffffffffffffffffff16815260200190815260200160002060006101000a81548160ff0219169083151502179055507f6a6455914f452787eb3985452aceedc1000fb545e394eb3b370e3d08958e0a5b816040516111ed9190612165565b60405180910390a150565b60026020528060005260406000206000915090508060000160009054906101000a900473ffffffffffffffffffffffffffffffffffffffff1690806001018054600181600116156101000203166002900480601f0160208091040260200160405190810160405280929190818152602001828054600181600116156101000203166002900480156112ca5780601f1061129f576101008083540402835291602001916112ca565b820191906000526020600020905b8154815290600101906020018083116112ad57829003601f168201915b505050505090806002015490806003018054600181600116156101000203166002900480601f01602080910402602001604051908101604052809291908181526020018280546001816001161561010002031660029004801561136e5780601f106113435761010080835404028352916020019161136e565b820191906000526020600020905b81548152906001019060200180831161135157829003601f168201915b505050505090806004018054600181600116156101000203166002900480601f01602080910402602001604051908101604052809291908181526020018280546001816001161561010002031660029004801561140c5780601f106113e15761010080835404028352916020019161140c565b820191906000526020600020905b8154815290600101906020018083116113ef57829003601f168201915b505050505090806005018054600181600116156101000203166002900480601f0160208091040260200160405190810160405280929190818152602001828054600181600116156101000203166002900480156114aa5780601f1061147f576101008083540402835291602001916114aa565b820191906000526020600020905b81548152906001019060200180831161148d57829003601f168201915b5050505050905086565b6001602052806000526040600020600091509050806000015490806001018054600181600116156101000203166002900480601f0160208091040260200160405190810160405280929190818152602001828054600181600116156101000203166002900480156115665780601f1061153b57610100808354040283529160200191611566565b820191906000526020600020905b81548152906001019060200180831161154957829003601f168201915b505050505090806002015490806003018054600181600116156101000203166002900480601f01602080910402602001604051908101604052809291908181526020018280546001816001161561010002031660029004801561160a5780601f106115df5761010080835404028352916020019161160a565b820191906000526020600020905b8154815290600101906020018083116115ed57829003601f168201915b5050505050905084565b6000602052806000526040600020600091509050806000015490806001015490806002018054600181600116156101000203166002900480601f0160208091040260200160405190810160405280929190818152602001828054600181600116156101000203166002900480156116cc5780601f106116a1576101008083540402835291602001916116cc565b820191906000526020600020905b8154815290600101906020018083116116af57829003601f168201915b5050505050908060030160009054906101000a900460ff16905084565b60076020528060005260406000206000915054906101000a900460ff1681565b600460003373ffffffffffffffffffffffffffffffffffffffff1673ffffffffffffffffffffffffffffffffffffffff16815260200190815260200160002060009054906101000a900460ff161561176057600080fd5b6001600460003373ffffffffffffffffffffffffffffffffffffffff1673ffffffffffffffffffffffffffffffffffffffff16815260200190815260200160002060006101000a81548160ff0219169083151502179055506001600560003373ffffffffffffffffffffffffffffffffffffffff1673ffffffffffffffffffffffffffffffffffffffff16815260200190815260200160002060006101000a81548160ff021916908315150217905550600d600081548092919060010191905055506040518060c001604052803373ffffffffffffffffffffffffffffffffffffffff16815260200186815260200185815260200184815260200183815260200182815250600260003373ffffffffffffffffffffffffffffffffffffffff1673ffffffffffffffffffffffffffffffffffffffff16815260200190815260200160002060008201518160000160006101000a81548173ffffffffffffffffffffffffffffffffffffffff021916908373ffffffffffffffffffffffffffffffffffffffff1602179055506020820151816001019080519060200190611907929190611bcf565b5060408201518160020155606082015181600301908051906020019061192e929190611bcf565b50608082015181600401908051906020019061194b929190611bcf565b5060a0820151816005019080519060200190611968929190611bcf565b509050507f478f5152d8fc568db3f8de9fb402fd9d98a1a7541ecfe434e59cf574fbfc55243360405161199b9190612180565b60405180910390a15050505050565b6000600560008373ffffffffffffffffffffffffffffffffffffffff1673ffffffffffffffffffffffffffffffffffffffff16815260200190815260200160002060009054906101000a900460ff1615611a075760019050611a08565b5b919050565b611a16336106c0565b8015611a275750611a2633610cf6565b5b611a3057600080fd5b611a38611c4f565b60405180608001604052808473ffffffffffffffffffffffffffffffffffffffff1681526020013373ffffffffffffffffffffffffffffffffffffffff168152602001838152602001600015158152509050600a819080600181540180825580915050906001820390600052602060002090600402016000909192909190915060008201518160000160006101000a81548173ffffffffffffffffffffffffffffffffffffffff021916908373ffffffffffffffffffffffffffffffffffffffff16021790555060208201518160010160006101000a81548173ffffffffffffffffffffffffffffffffffffffff021916908373ffffffffffffffffffffffffffffffffffffffff1602179055506040820151816002015560608201518160030160006101000a81548160ff0219169083151502179055505050507fc67eb70629da758128cec22f7e36ad0676066ad4df9b66e8ba58a30c1ab4075b83604051611ba29190612165565b60405180910390a1505050565b60046020528060005260406000206000915054906101000a900460ff1681565b828054600181600116156101000203166002900490600052602060002090601f016020900481019282601f10611c1057805160ff1916838001178555611c3e565b82800160010185558215611c3e579182015b82811115611c3d578251825591602001919060010190611c22565b5b509050611c4b9190611ca5565b5090565b6040518060800160405280600073ffffffffffffffffffffffffffffffffffffffff168152602001600073ffffffffffffffffffffffffffffffffffffffff168152602001600081526020016000151581525090565b611cc791905b80821115611cc3576000816000905550600101611cab565b5090565b90565b600081359050611cd98161250a565b92915050565b600081359050611cee81612521565b92915050565b600082601f830112611d0557600080fd5b8135611d18611d13826123f1565b6123c4565b91508082526020830160208301858383011115611d3457600080fd5b611d3f8382846124b7565b50505092915050565b600060808284031215611d5a57600080fd5b611d6460806123c4565b90506000611d7484828501611cca565b6000830152506020611d8884828501611cca565b6020830152506040611d9c84828501611dbc565b6040830152506060611db084828501611cdf565b60608301525092915050565b600081359050611dcb81612538565b92915050565b600060208284031215611de357600080fd5b6000611df184828501611cca565b91505092915050565b60008060408385031215611e0d57600080fd5b6000611e1b85828601611cca565b9250506020611e2c85828601611dbc565b9150509250929050565b600080600080600060a08688031215611e4e57600080fd5b600086013567ffffffffffffffff811115611e6857600080fd5b611e7488828901611cf4565b9550506020611e8588828901611dbc565b945050604086013567ffffffffffffffff811115611ea257600080fd5b611eae88828901611cf4565b935050606086013567ffffffffffffffff811115611ecb57600080fd5b611ed788828901611cf4565b925050608086013567ffffffffffffffff811115611ef457600080fd5b611f0088828901611cf4565b9150509295509295909350565b60008060008060008060c08789031215611f2657600080fd5b600087013567ffffffffffffffff811115611f4057600080fd5b611f4c89828a01611cf4565b9650506020611f5d89828a01611dbc565b955050604087013567ffffffffffffffff811115611f7a57600080fd5b611f8689828a01611cf4565b945050606087013567ffffffffffffffff811115611fa357600080fd5b611faf89828a01611cf4565b935050608087013567ffffffffffffffff811115611fcc57600080fd5b611fd889828a01611cf4565b92505060a087013567ffffffffffffffff811115611ff557600080fd5b61200189828a01611cf4565b9150509295509295509295565b60006080828403121561202057600080fd5b600061202e84828501611d48565b91505092915050565b60006020828403121561204957600080fd5b600061205784828501611dbc565b91505092915050565b6000806040838503121561207357600080fd5b600061208185828601611dbc565b925050602061209285828601611cca565b9150509250929050565b600080604083850312156120af57600080fd5b60006120bd85828601611dbc565b925050602083013567ffffffffffffffff8111156120da57600080fd5b6120e685828601611cf4565b9150509250929050565b6120f981612481565b82525050565b61210881612439565b82525050565b6121178161244b565b82525050565b60006121288261241d565b6121328185612428565b93506121428185602086016124c6565b61214b816124f9565b840191505092915050565b61215f81612477565b82525050565b600060208201905061217a60008301846120ff565b92915050565b600060208201905061219560008301846120f0565b92915050565b60006080820190506121b060008301876120ff565b6121bd60208301866120ff565b6121ca6040830185612156565b6121d7606083018461210e565b95945050505050565b600060c0820190506121f560008301896120ff565b8181036020830152612207818861211d565b90506122166040830187612156565b8181036060830152612228818661211d565b9050818103608083015261223c818561211d565b905081810360a0830152612250818461211d565b9050979650505050505050565b600060e082019050612272600083018a6120ff565b8181036020830152612284818961211d565b90506122936040830188612156565b81810360608301526122a5818761211d565b905081810360808301526122b9818661211d565b905081810360a08301526122cd818561211d565b905081810360c08301526122e1818461211d565b905098975050505050505050565b6000602082019050612304600083018461210e565b92915050565b600060208201905061231f6000830184612156565b92915050565b600060808201905061233a6000830187612156565b818103602083015261234c818661211d565b905061235b6040830185612156565b818103606083015261236d818461211d565b905095945050505050565b600060808201905061238d6000830187612156565b61239a6020830186612156565b81810360408301526123ac818561211d565b90506123bb606083018461210e565b95945050505050565b6000604051905081810181811067ffffffffffffffff821117156123e757600080fd5b8060405250919050565b600067ffffffffffffffff82111561240857600080fd5b601f19601f8301169050602081019050919050565b600081519050919050565b600082825260208201905092915050565b600061244482612457565b9050919050565b60008115159050919050565b600073ffffffffffffffffffffffffffffffffffffffff82169050919050565b6000819050919050565b600061248c82612493565b9050919050565b600061249e826124a5565b9050919050565b60006124b082612457565b9050919050565b82818337600083830152505050565b60005b838110156124e45780820151818401526020810190506124c9565b838111156124f3576000848401525b50505050565b6000601f19601f8301169050919050565b61251381612439565b811461251e57600080fd5b50565b61252a8161244b565b811461253557600080fd5b50565b61254181612477565b811461254c57600080fd5b5056fea365627a7a72315820891a91d1440f0a6b955e43d5e10f76297f0b299ec25e4880a460993eca872fab6c6578706572696d656e74616cf564736f6c63430005100040",
  "source": "pragma solidity >= 0.5.2;\npragma experimental ABIEncoderV2;\n\ncontract Land {\n    struct Landreg {\n        uint id;\n        uint area;\n        string location;\n        // address owner; //-->this should be the seller \n        bool verificationStatus;\n        // string landImg;\n    }\n\n    struct Buyer{\n        address id;\n        string name;\n        uint age;\n        string city;\n        string state;\n        string aadharNumber;\n        string panNumber;\n    }\n\n    struct Seller{\n        address id;\n        string name;\n        uint age;\n        string aadharNumber;\n        string panNumber;\n        string landsOwned;\n    }\n\n    struct LandInspector {\n        uint id;\n        string name;\n        uint age;\n        string designation;\n    }\n\n    struct LandRequest{\n        address sellerId;\n        address buyerId;\n        uint landId;\n        bool requestStatus;\n    }\n\n    //key value pairs\n    mapping(uint => Landreg) public lands;\n    mapping(uint => LandInspector) public InspectorMapping;\n    mapping(address => Seller) public SellerMapping;\n    mapping(address => Buyer) public BuyerMapping;\n    // mapping(address => LandRequest) public RequestsMapping;\n\n    mapping(address => bool) public RegisteredAddressMapping;\n    mapping(address => bool) public RegisteredSellerMapping;\n    mapping(address => bool) public RegisteredBuyerMapping;\n    mapping(address => bool) public SellerVerification;\n    mapping(address => bool) public BuyerVerification;\n    mapping(uint => address) public LandOwner;\n\n    LandRequest[] public RequestsMapping;\n\n    uint public landsCount;\n    uint public inspectorsCount;\n    uint public sellersCount;\n    uint public buyersCount;\n\n    event Registration(address _registrationId);\n    event AddingLand(uint indexed _landId);\n    event Landrequested(address _sellerId);\n    event requestApproved(address _buyerId);\n    event Verified(address _id);\n\n    constructor() public{\n        // addLand(450, \"Pune\");\n        // addLand(650, \"Akola\");\n        // addLand(500, \"Mumbai\");\n        addLandInspector(\"Inspector 1\", 45, \"Tehsil Manager\");\n    }\n\n\n    //already present\n    function addLandInspector(string memory _name, uint _age, string memory _designation) private {\n        inspectorsCount++;\n        InspectorMapping[inspectorsCount] = LandInspector(inspectorsCount, _name, _age, _designation);\n    }\n\n    // function isLadIspector() private{\n    //     if(msg.sender == \"\")\n    //         return true;\n    // }\n\n    function verifySeller(address _sellerId) public{\n        require(0x6F888D6aeaF7300A207adE052fC51C5bf73a6cF5 == msg.sender);\n\n        SellerVerification[_sellerId] = true;\n        emit Verified(_sellerId);\n    }\n\n    function verifyBuyer(address _buyerId) public{\n        require(0x6F888D6aeaF7300A207adE052fC51C5bf73a6cF5 == msg.sender);\n\n        BuyerVerification[_buyerId] = true;\n        emit Verified(_buyerId);\n    }\n\n    function isVerified(address _id) public view returns (bool) {\n        if(SellerVerification[_id] || BuyerVerification[_id]){\n            return true;\n        }\n    }\n\n    function isSeller(address _id) public view returns (bool) {\n        if(RegisteredSellerMapping[_id]){\n            return true;\n        }\n    }\n\n    function isBuyer(address _id) public view returns (bool) {\n        if(RegisteredBuyerMapping[_id]){\n            return true;\n        }\n    }\n\n    function addLand(uint _area, string memory _location) public {\n        // let landImg = \"https://images.unsplash.com/photo-1597843736176-23c29f7187f7?ixid=MXwxMjA3fDB8MHxwaG90by1wYWdlfHx8fGVufDB8fHw%3D&ixlib=rb-1.2.1&auto=format&fit=crop&w=1489&q=80\";\n        require((isSeller(msg.sender)) && (isVerified(msg.sender)));\n        landsCount++;\n        lands[landsCount] = Landreg(landsCount, _area, _location, false);\n        LandOwner[landsCount] = msg.sender;\n        // emit AddingLand(landsCount);\n    }\n\n    //registration of seller\n    function registerSeller(string memory _name, uint _age, string memory _aadharNumber, string memory _panNumber, string memory _landsOwned) public {\n        //require that Buyer is not already registered\n        require(!RegisteredAddressMapping[msg.sender]);\n\n        RegisteredAddressMapping[msg.sender] = true;\n        RegisteredSellerMapping[msg.sender] = true ;\n        sellersCount++;\n        SellerMapping[msg.sender] = Seller(msg.sender, _name, _age, _aadharNumber,_panNumber, _landsOwned);\n\n        emit Registration(msg.sender);\n    }\n\n    function registerBuyer(string memory _name, uint _age, string memory _city, string memory _state, string memory _aadharNumber, string memory _panNumber) public {\n        //require that Buyer is not already registered\n        require(!RegisteredAddressMapping[msg.sender]);\n\n        RegisteredAddressMapping[msg.sender] = true;\n        RegisteredBuyerMapping[msg.sender] = true ;\n        buyersCount++;\n        BuyerMapping[msg.sender] = Buyer(msg.sender, _name, _age, _city, _state, _aadharNumber, _panNumber);\n    \n        emit Registration(msg.sender);\n    }\n\n    function requestLand(address _sellerId, uint _landId) public{\n        require(isBuyer(msg.sender) && isVerified(msg.sender));\n        \n        LandRequest memory newReq =  LandRequest({\n            sellerId: _sellerId,\n            buyerId: msg.sender,\n            landId: _landId,\n            requestStatus: false});\n    \n        RequestsMapping.push(newReq);\n\n        emit Landrequested(_sellerId);\n        // RequestsMapping[msg.sender] = LandRequest(_sellerId, _landId, false);\n    }\n\n    function approveRequest(LandRequest memory req) public {\n        require((isSeller(msg.sender)) && (isVerified(msg.sender)));\n\n        req.requestStatus = true;\n\n        emit requestApproved(req.buyerId);\n    }\n\n    function LandOwnershipTransfer(uint _landId, address _newOwner) public{\n        require(0x6F888D6aeaF7300A207adE052fC51C5bf73a6cF5 == msg.sender);\n\n        LandOwner[_landId] = _newOwner;\n    }\n\n}",
  "sourcePath": "/home/vrinda/Desktop/Sem 6/SE/Land Registration System/contracts/Land.sol",
  "compiler": {
    "name": "solc",
    "version": "0.5.16+commit.9c3226ce.Emscripten.clang"
  },
  "schemaVersion": "3.3.4",
  "updatedAt": "2021-04-10T18:12:40.165Z",
  "networkType": "ethereum",
  "devdoc": {
    "methods": {}
  },
  "userdoc": {
    "methods": {}
  }
}